{
  "contracts/Market.sol": {
    "Market": {
      "abi": [
        {
          "inputs": [
            {
              "internalType": "address",
              "name": "_arbitrator",
              "type": "address"
            }
          ],
          "stateMutability": "nonpayable",
          "type": "constructor"
        },
        {
          "anonymous": false,
          "inputs": [
            {
              "indexed": true,
              "internalType": "contract IArbitrator",
              "name": "_arbitrator",
              "type": "address"
            },
            {
              "indexed": true,
              "internalType": "uint256",
              "name": "_disputeID",
              "type": "uint256"
            },
            {
              "indexed": false,
              "internalType": "uint256",
              "name": "_metaEvidenceID",
              "type": "uint256"
            },
            {
              "indexed": false,
              "internalType": "uint256",
              "name": "_evidenceGroupID",
              "type": "uint256"
            }
          ],
          "name": "Dispute",
          "type": "event"
        },
        {
          "anonymous": false,
          "inputs": [
            {
              "indexed": true,
              "internalType": "uint256",
              "name": "_disputeID",
              "type": "uint256"
            },
            {
              "indexed": true,
              "internalType": "uint256",
              "name": "_transactionID",
              "type": "uint256"
            },
            {
              "components": [
                {
                  "internalType": "uint256",
                  "name": "transactionID",
                  "type": "uint256"
                },
                {
                  "internalType": "enum Market.DisputeStatus",
                  "name": "status",
                  "type": "uint8"
                },
                {
                  "internalType": "uint256",
                  "name": "feeDepositDeadline",
                  "type": "uint256"
                },
                {
                  "internalType": "uint256",
                  "name": "buyerArbitrationFee",
                  "type": "uint256"
                },
                {
                  "internalType": "uint256",
                  "name": "sellerArbitrationFee",
                  "type": "uint256"
                },
                {
                  "internalType": "uint256",
                  "name": "arbitrationFee",
                  "type": "uint256"
                },
                {
                  "internalType": "uint256",
                  "name": "appealRound",
                  "type": "uint256"
                },
                {
                  "internalType": "uint256",
                  "name": "buyerAppealFee",
                  "type": "uint256"
                },
                {
                  "internalType": "uint256",
                  "name": "sellerAppealFee",
                  "type": "uint256"
                },
                {
                  "internalType": "uint256",
                  "name": "appealFee",
                  "type": "uint256"
                },
                {
                  "internalType": "enum Market.Party",
                  "name": "ruling",
                  "type": "uint8"
                }
              ],
              "indexed": false,
              "internalType": "struct Market.Arbitration",
              "name": "_arbitration",
              "type": "tuple"
            }
          ],
          "name": "DisputeStateUpdate",
          "type": "event"
        },
        {
          "anonymous": false,
          "inputs": [
            {
              "indexed": true,
              "internalType": "contract IArbitrator",
              "name": "_arbitrator",
              "type": "address"
            },
            {
              "indexed": true,
              "internalType": "uint256",
              "name": "_evidenceGroupID",
              "type": "uint256"
            },
            {
              "indexed": true,
              "internalType": "address",
              "name": "_party",
              "type": "address"
            },
            {
              "indexed": false,
              "internalType": "string",
              "name": "_evidence",
              "type": "string"
            }
          ],
          "name": "Evidence",
          "type": "event"
        },
        {
          "anonymous": false,
          "inputs": [
            {
              "indexed": true,
              "internalType": "uint256",
              "name": "transactionID",
              "type": "uint256"
            },
            {
              "indexed": false,
              "internalType": "enum Market.Party",
              "name": "party",
              "type": "uint8"
            }
          ],
          "name": "HasToPayAppealFee",
          "type": "event"
        },
        {
          "anonymous": false,
          "inputs": [
            {
              "indexed": true,
              "internalType": "uint256",
              "name": "transactionID",
              "type": "uint256"
            },
            {
              "indexed": false,
              "internalType": "enum Market.Party",
              "name": "party",
              "type": "uint8"
            }
          ],
          "name": "HasToPayArbitrationFee",
          "type": "event"
        },
        {
          "anonymous": false,
          "inputs": [
            {
              "indexed": true,
              "internalType": "uint256",
              "name": "_metaEvidenceID",
              "type": "uint256"
            },
            {
              "indexed": false,
              "internalType": "string",
              "name": "_evidence",
              "type": "string"
            }
          ],
          "name": "MetaEvidence",
          "type": "event"
        },
        {
          "anonymous": false,
          "inputs": [
            {
              "indexed": true,
              "internalType": "contract IArbitrator",
              "name": "_arbitrator",
              "type": "address"
            },
            {
              "indexed": true,
              "internalType": "uint256",
              "name": "_disputeID",
              "type": "uint256"
            },
            {
              "indexed": false,
              "internalType": "uint256",
              "name": "_ruling",
              "type": "uint256"
            }
          ],
          "name": "Ruling",
          "type": "event"
        },
        {
          "anonymous": false,
          "inputs": [
            {
              "indexed": true,
              "internalType": "uint256",
              "name": "_transactionID",
              "type": "uint256"
            },
            {
              "components": [
                {
                  "internalType": "uint256",
                  "name": "price",
                  "type": "uint256"
                },
                {
                  "internalType": "bool",
                  "name": "forSale",
                  "type": "bool"
                },
                {
                  "internalType": "address payable",
                  "name": "seller",
                  "type": "address"
                },
                {
                  "internalType": "address payable",
                  "name": "buyer",
                  "type": "address"
                },
                {
                  "internalType": "bytes32",
                  "name": "cardInfo_URI_hash",
                  "type": "bytes32"
                },
                {
                  "internalType": "enum Market.Status",
                  "name": "status",
                  "type": "uint8"
                },
                {
                  "internalType": "uint256",
                  "name": "init",
                  "type": "uint256"
                },
                {
                  "internalType": "uint256",
                  "name": "disputeID",
                  "type": "uint256"
                }
              ],
              "indexed": false,
              "internalType": "struct Market.Transaction",
              "name": "_transaction",
              "type": "tuple"
            }
          ],
          "name": "TransactionResolved",
          "type": "event"
        },
        {
          "anonymous": false,
          "inputs": [
            {
              "indexed": true,
              "internalType": "uint256",
              "name": "_transactionID",
              "type": "uint256"
            },
            {
              "components": [
                {
                  "internalType": "uint256",
                  "name": "price",
                  "type": "uint256"
                },
                {
                  "internalType": "bool",
                  "name": "forSale",
                  "type": "bool"
                },
                {
                  "internalType": "address payable",
                  "name": "seller",
                  "type": "address"
                },
                {
                  "internalType": "address payable",
                  "name": "buyer",
                  "type": "address"
                },
                {
                  "internalType": "bytes32",
                  "name": "cardInfo_URI_hash",
                  "type": "bytes32"
                },
                {
                  "internalType": "enum Market.Status",
                  "name": "status",
                  "type": "uint8"
                },
                {
                  "internalType": "uint256",
                  "name": "init",
                  "type": "uint256"
                },
                {
                  "internalType": "uint256",
                  "name": "disputeID",
                  "type": "uint256"
                }
              ],
              "indexed": false,
              "internalType": "struct Market.Transaction",
              "name": "_transaction",
              "type": "tuple"
            }
          ],
          "name": "TransactionStateUpdate",
          "type": "event"
        },
        {
          "inputs": [],
          "name": "arbitrator",
          "outputs": [
            {
              "internalType": "contract IArbitrator",
              "name": "",
              "type": "address"
            }
          ],
          "stateMutability": "view",
          "type": "function"
        },
        {
          "inputs": [
            {
              "internalType": "uint256",
              "name": "_transactionID",
              "type": "uint256"
            },
            {
              "components": [
                {
                  "internalType": "uint256",
                  "name": "price",
                  "type": "uint256"
                },
                {
                  "internalType": "bool",
                  "name": "forSale",
                  "type": "bool"
                },
                {
                  "internalType": "address payable",
                  "name": "seller",
                  "type": "address"
                },
                {
                  "internalType": "address payable",
                  "name": "buyer",
                  "type": "address"
                },
                {
                  "internalType": "bytes32",
                  "name": "cardInfo_URI_hash",
                  "type": "bytes32"
                },
                {
                  "internalType": "enum Market.Status",
                  "name": "status",
                  "type": "uint8"
                },
                {
                  "internalType": "uint256",
                  "name": "init",
                  "type": "uint256"
                },
                {
                  "internalType": "uint256",
                  "name": "disputeID",
                  "type": "uint256"
                }
              ],
              "internalType": "struct Market.Transaction",
              "name": "_transaction",
              "type": "tuple"
            },
            {
              "internalType": "string",
              "name": "_metaevidence",
              "type": "string"
            }
          ],
          "name": "buyCard",
          "outputs": [],
          "stateMutability": "payable",
          "type": "function"
        },
        {
          "inputs": [
            {
              "internalType": "uint256",
              "name": "",
              "type": "uint256"
            }
          ],
          "name": "disputeID_to_arbitration",
          "outputs": [
            {
              "internalType": "uint256",
              "name": "transactionID",
              "type": "uint256"
            },
            {
              "internalType": "enum Market.DisputeStatus",
              "name": "status",
              "type": "uint8"
            },
            {
              "internalType": "uint256",
              "name": "feeDepositDeadline",
              "type": "uint256"
            },
            {
              "internalType": "uint256",
              "name": "buyerArbitrationFee",
              "type": "uint256"
            },
            {
              "internalType": "uint256",
              "name": "sellerArbitrationFee",
              "type": "uint256"
            },
            {
              "internalType": "uint256",
              "name": "arbitrationFee",
              "type": "uint256"
            },
            {
              "internalType": "uint256",
              "name": "appealRound",
              "type": "uint256"
            },
            {
              "internalType": "uint256",
              "name": "buyerAppealFee",
              "type": "uint256"
            },
            {
              "internalType": "uint256",
              "name": "sellerAppealFee",
              "type": "uint256"
            },
            {
              "internalType": "uint256",
              "name": "appealFee",
              "type": "uint256"
            },
            {
              "internalType": "enum Market.Party",
              "name": "ruling",
              "type": "uint8"
            }
          ],
          "stateMutability": "view",
          "type": "function"
        },
        {
          "inputs": [
            {
              "internalType": "uint256",
              "name": "_transactionID",
              "type": "uint256"
            },
            {
              "internalType": "uint256",
              "name": "_disputeID",
              "type": "uint256"
            },
            {
              "components": [
                {
                  "internalType": "uint256",
                  "name": "price",
                  "type": "uint256"
                },
                {
                  "internalType": "bool",
                  "name": "forSale",
                  "type": "bool"
                },
                {
                  "internalType": "address payable",
                  "name": "seller",
                  "type": "address"
                },
                {
                  "internalType": "address payable",
                  "name": "buyer",
                  "type": "address"
                },
                {
                  "internalType": "bytes32",
                  "name": "cardInfo_URI_hash",
                  "type": "bytes32"
                },
                {
                  "internalType": "enum Market.Status",
                  "name": "status",
                  "type": "uint8"
                },
                {
                  "internalType": "uint256",
                  "name": "init",
                  "type": "uint256"
                },
                {
                  "internalType": "uint256",
                  "name": "disputeID",
                  "type": "uint256"
                }
              ],
              "internalType": "struct Market.Transaction",
              "name": "_transaction",
              "type": "tuple"
            }
          ],
          "name": "executeRuling",
          "outputs": [],
          "stateMutability": "nonpayable",
          "type": "function"
        },
        {
          "inputs": [
            {
              "internalType": "uint256",
              "name": "_transactionID",
              "type": "uint256"
            },
            {
              "components": [
                {
                  "internalType": "uint256",
                  "name": "price",
                  "type": "uint256"
                },
                {
                  "internalType": "bool",
                  "name": "forSale",
                  "type": "bool"
                },
                {
                  "internalType": "address payable",
                  "name": "seller",
                  "type": "address"
                },
                {
                  "internalType": "address payable",
                  "name": "buyer",
                  "type": "address"
                },
                {
                  "internalType": "bytes32",
                  "name": "cardInfo_URI_hash",
                  "type": "bytes32"
                },
                {
                  "internalType": "enum Market.Status",
                  "name": "status",
                  "type": "uint8"
                },
                {
                  "internalType": "uint256",
                  "name": "init",
                  "type": "uint256"
                },
                {
                  "internalType": "uint256",
                  "name": "disputeID",
                  "type": "uint256"
                }
              ],
              "internalType": "struct Market.Transaction",
              "name": "_transaction",
              "type": "tuple"
            }
          ],
          "name": "getCardInfo",
          "outputs": [
            {
              "internalType": "bytes32",
              "name": "",
              "type": "bytes32"
            }
          ],
          "stateMutability": "view",
          "type": "function"
        },
        {
          "inputs": [],
          "name": "getNumOfTransactions",
          "outputs": [
            {
              "internalType": "uint256",
              "name": "",
              "type": "uint256"
            }
          ],
          "stateMutability": "view",
          "type": "function"
        },
        {
          "inputs": [
            {
              "components": [
                {
                  "internalType": "uint256",
                  "name": "price",
                  "type": "uint256"
                },
                {
                  "internalType": "bool",
                  "name": "forSale",
                  "type": "bool"
                },
                {
                  "internalType": "address payable",
                  "name": "seller",
                  "type": "address"
                },
                {
                  "internalType": "address payable",
                  "name": "buyer",
                  "type": "address"
                },
                {
                  "internalType": "bytes32",
                  "name": "cardInfo_URI_hash",
                  "type": "bytes32"
                },
                {
                  "internalType": "enum Market.Status",
                  "name": "status",
                  "type": "uint8"
                },
                {
                  "internalType": "uint256",
                  "name": "init",
                  "type": "uint256"
                },
                {
                  "internalType": "uint256",
                  "name": "disputeID",
                  "type": "uint256"
                }
              ],
              "internalType": "struct Market.Transaction",
              "name": "_transaction",
              "type": "tuple"
            }
          ],
          "name": "hashTransactionState",
          "outputs": [
            {
              "internalType": "bytes32",
              "name": "",
              "type": "bytes32"
            }
          ],
          "stateMutability": "pure",
          "type": "function"
        },
        {
          "inputs": [
            {
              "internalType": "bytes32",
              "name": "_cardInfo",
              "type": "bytes32"
            },
            {
              "internalType": "uint256",
              "name": "_price",
              "type": "uint256"
            }
          ],
          "name": "listNewCard",
          "outputs": [],
          "stateMutability": "nonpayable",
          "type": "function"
        },
        {
          "inputs": [],
          "name": "owner",
          "outputs": [
            {
              "internalType": "address",
              "name": "",
              "type": "address"
            }
          ],
          "stateMutability": "view",
          "type": "function"
        },
        {
          "inputs": [
            {
              "internalType": "uint256",
              "name": "_transactionID",
              "type": "uint256"
            },
            {
              "components": [
                {
                  "internalType": "uint256",
                  "name": "price",
                  "type": "uint256"
                },
                {
                  "internalType": "bool",
                  "name": "forSale",
                  "type": "bool"
                },
                {
                  "internalType": "address payable",
                  "name": "seller",
                  "type": "address"
                },
                {
                  "internalType": "address payable",
                  "name": "buyer",
                  "type": "address"
                },
                {
                  "internalType": "bytes32",
                  "name": "cardInfo_URI_hash",
                  "type": "bytes32"
                },
                {
                  "internalType": "enum Market.Status",
                  "name": "status",
                  "type": "uint8"
                },
                {
                  "internalType": "uint256",
                  "name": "init",
                  "type": "uint256"
                },
                {
                  "internalType": "uint256",
                  "name": "disputeID",
                  "type": "uint256"
                }
              ],
              "internalType": "struct Market.Transaction",
              "name": "_transaction",
              "type": "tuple"
            },
            {
              "components": [
                {
                  "internalType": "uint256",
                  "name": "transactionID",
                  "type": "uint256"
                },
                {
                  "internalType": "enum Market.DisputeStatus",
                  "name": "status",
                  "type": "uint8"
                },
                {
                  "internalType": "uint256",
                  "name": "feeDepositDeadline",
                  "type": "uint256"
                },
                {
                  "internalType": "uint256",
                  "name": "buyerArbitrationFee",
                  "type": "uint256"
                },
                {
                  "internalType": "uint256",
                  "name": "sellerArbitrationFee",
                  "type": "uint256"
                },
                {
                  "internalType": "uint256",
                  "name": "arbitrationFee",
                  "type": "uint256"
                },
                {
                  "internalType": "uint256",
                  "name": "appealRound",
                  "type": "uint256"
                },
                {
                  "internalType": "uint256",
                  "name": "buyerAppealFee",
                  "type": "uint256"
                },
                {
                  "internalType": "uint256",
                  "name": "sellerAppealFee",
                  "type": "uint256"
                },
                {
                  "internalType": "uint256",
                  "name": "appealFee",
                  "type": "uint256"
                },
                {
                  "internalType": "enum Market.Party",
                  "name": "ruling",
                  "type": "uint8"
                }
              ],
              "internalType": "struct Market.Arbitration",
              "name": "_arbitration",
              "type": "tuple"
            }
          ],
          "name": "payAppealFeeByBuyer",
          "outputs": [],
          "stateMutability": "payable",
          "type": "function"
        },
        {
          "inputs": [
            {
              "internalType": "uint256",
              "name": "_transactionID",
              "type": "uint256"
            },
            {
              "components": [
                {
                  "internalType": "uint256",
                  "name": "price",
                  "type": "uint256"
                },
                {
                  "internalType": "bool",
                  "name": "forSale",
                  "type": "bool"
                },
                {
                  "internalType": "address payable",
                  "name": "seller",
                  "type": "address"
                },
                {
                  "internalType": "address payable",
                  "name": "buyer",
                  "type": "address"
                },
                {
                  "internalType": "bytes32",
                  "name": "cardInfo_URI_hash",
                  "type": "bytes32"
                },
                {
                  "internalType": "enum Market.Status",
                  "name": "status",
                  "type": "uint8"
                },
                {
                  "internalType": "uint256",
                  "name": "init",
                  "type": "uint256"
                },
                {
                  "internalType": "uint256",
                  "name": "disputeID",
                  "type": "uint256"
                }
              ],
              "internalType": "struct Market.Transaction",
              "name": "_transaction",
              "type": "tuple"
            },
            {
              "components": [
                {
                  "internalType": "uint256",
                  "name": "transactionID",
                  "type": "uint256"
                },
                {
                  "internalType": "enum Market.DisputeStatus",
                  "name": "status",
                  "type": "uint8"
                },
                {
                  "internalType": "uint256",
                  "name": "feeDepositDeadline",
                  "type": "uint256"
                },
                {
                  "internalType": "uint256",
                  "name": "buyerArbitrationFee",
                  "type": "uint256"
                },
                {
                  "internalType": "uint256",
                  "name": "sellerArbitrationFee",
                  "type": "uint256"
                },
                {
                  "internalType": "uint256",
                  "name": "arbitrationFee",
                  "type": "uint256"
                },
                {
                  "internalType": "uint256",
                  "name": "appealRound",
                  "type": "uint256"
                },
                {
                  "internalType": "uint256",
                  "name": "buyerAppealFee",
                  "type": "uint256"
                },
                {
                  "internalType": "uint256",
                  "name": "sellerAppealFee",
                  "type": "uint256"
                },
                {
                  "internalType": "uint256",
                  "name": "appealFee",
                  "type": "uint256"
                },
                {
                  "internalType": "enum Market.Party",
                  "name": "ruling",
                  "type": "uint8"
                }
              ],
              "internalType": "struct Market.Arbitration",
              "name": "_arbitration",
              "type": "tuple"
            }
          ],
          "name": "payAppealFeeBySeller",
          "outputs": [],
          "stateMutability": "payable",
          "type": "function"
        },
        {
          "inputs": [
            {
              "internalType": "uint256",
              "name": "_transactionID",
              "type": "uint256"
            },
            {
              "internalType": "uint256",
              "name": "_metaevidenceID",
              "type": "uint256"
            },
            {
              "components": [
                {
                  "internalType": "uint256",
                  "name": "price",
                  "type": "uint256"
                },
                {
                  "internalType": "bool",
                  "name": "forSale",
                  "type": "bool"
                },
                {
                  "internalType": "address payable",
                  "name": "seller",
                  "type": "address"
                },
                {
                  "internalType": "address payable",
                  "name": "buyer",
                  "type": "address"
                },
                {
                  "internalType": "bytes32",
                  "name": "cardInfo_URI_hash",
                  "type": "bytes32"
                },
                {
                  "internalType": "enum Market.Status",
                  "name": "status",
                  "type": "uint8"
                },
                {
                  "internalType": "uint256",
                  "name": "init",
                  "type": "uint256"
                },
                {
                  "internalType": "uint256",
                  "name": "disputeID",
                  "type": "uint256"
                }
              ],
              "internalType": "struct Market.Transaction",
              "name": "_transaction",
              "type": "tuple"
            },
            {
              "components": [
                {
                  "internalType": "uint256",
                  "name": "transactionID",
                  "type": "uint256"
                },
                {
                  "internalType": "enum Market.DisputeStatus",
                  "name": "status",
                  "type": "uint8"
                },
                {
                  "internalType": "uint256",
                  "name": "feeDepositDeadline",
                  "type": "uint256"
                },
                {
                  "internalType": "uint256",
                  "name": "buyerArbitrationFee",
                  "type": "uint256"
                },
                {
                  "internalType": "uint256",
                  "name": "sellerArbitrationFee",
                  "type": "uint256"
                },
                {
                  "internalType": "uint256",
                  "name": "arbitrationFee",
                  "type": "uint256"
                },
                {
                  "internalType": "uint256",
                  "name": "appealRound",
                  "type": "uint256"
                },
                {
                  "internalType": "uint256",
                  "name": "buyerAppealFee",
                  "type": "uint256"
                },
                {
                  "internalType": "uint256",
                  "name": "sellerAppealFee",
                  "type": "uint256"
                },
                {
                  "internalType": "uint256",
                  "name": "appealFee",
                  "type": "uint256"
                },
                {
                  "internalType": "enum Market.Party",
                  "name": "ruling",
                  "type": "uint8"
                }
              ],
              "internalType": "struct Market.Arbitration",
              "name": "_arbitration",
              "type": "tuple"
            }
          ],
          "name": "payArbitrationFeeByBuyer",
          "outputs": [],
          "stateMutability": "payable",
          "type": "function"
        },
        {
          "inputs": [
            {
              "internalType": "uint256",
              "name": "_transactionID",
              "type": "uint256"
            },
            {
              "internalType": "uint256",
              "name": "_metaevidenceID",
              "type": "uint256"
            },
            {
              "components": [
                {
                  "internalType": "uint256",
                  "name": "price",
                  "type": "uint256"
                },
                {
                  "internalType": "bool",
                  "name": "forSale",
                  "type": "bool"
                },
                {
                  "internalType": "address payable",
                  "name": "seller",
                  "type": "address"
                },
                {
                  "internalType": "address payable",
                  "name": "buyer",
                  "type": "address"
                },
                {
                  "internalType": "bytes32",
                  "name": "cardInfo_URI_hash",
                  "type": "bytes32"
                },
                {
                  "internalType": "enum Market.Status",
                  "name": "status",
                  "type": "uint8"
                },
                {
                  "internalType": "uint256",
                  "name": "init",
                  "type": "uint256"
                },
                {
                  "internalType": "uint256",
                  "name": "disputeID",
                  "type": "uint256"
                }
              ],
              "internalType": "struct Market.Transaction",
              "name": "_transaction",
              "type": "tuple"
            },
            {
              "components": [
                {
                  "internalType": "uint256",
                  "name": "transactionID",
                  "type": "uint256"
                },
                {
                  "internalType": "enum Market.DisputeStatus",
                  "name": "status",
                  "type": "uint8"
                },
                {
                  "internalType": "uint256",
                  "name": "feeDepositDeadline",
                  "type": "uint256"
                },
                {
                  "internalType": "uint256",
                  "name": "buyerArbitrationFee",
                  "type": "uint256"
                },
                {
                  "internalType": "uint256",
                  "name": "sellerArbitrationFee",
                  "type": "uint256"
                },
                {
                  "internalType": "uint256",
                  "name": "arbitrationFee",
                  "type": "uint256"
                },
                {
                  "internalType": "uint256",
                  "name": "appealRound",
                  "type": "uint256"
                },
                {
                  "internalType": "uint256",
                  "name": "buyerAppealFee",
                  "type": "uint256"
                },
                {
                  "internalType": "uint256",
                  "name": "sellerAppealFee",
                  "type": "uint256"
                },
                {
                  "internalType": "uint256",
                  "name": "appealFee",
                  "type": "uint256"
                },
                {
                  "internalType": "enum Market.Party",
                  "name": "ruling",
                  "type": "uint8"
                }
              ],
              "internalType": "struct Market.Arbitration",
              "name": "_arbitration",
              "type": "tuple"
            }
          ],
          "name": "payArbitrationFeeBySeller",
          "outputs": [],
          "stateMutability": "payable",
          "type": "function"
        },
        {
          "inputs": [
            {
              "internalType": "uint256",
              "name": "_transactionID",
              "type": "uint256"
            },
            {
              "components": [
                {
                  "internalType": "uint256",
                  "name": "price",
                  "type": "uint256"
                },
                {
                  "internalType": "bool",
                  "name": "forSale",
                  "type": "bool"
                },
                {
                  "internalType": "address payable",
                  "name": "seller",
                  "type": "address"
                },
                {
                  "internalType": "address payable",
                  "name": "buyer",
                  "type": "address"
                },
                {
                  "internalType": "bytes32",
                  "name": "cardInfo_URI_hash",
                  "type": "bytes32"
                },
                {
                  "internalType": "enum Market.Status",
                  "name": "status",
                  "type": "uint8"
                },
                {
                  "internalType": "uint256",
                  "name": "init",
                  "type": "uint256"
                },
                {
                  "internalType": "uint256",
                  "name": "disputeID",
                  "type": "uint256"
                }
              ],
              "internalType": "struct Market.Transaction",
              "name": "_transaction",
              "type": "tuple"
            }
          ],
          "name": "reclaimDisputeByBuyer",
          "outputs": [],
          "stateMutability": "payable",
          "type": "function"
        },
        {
          "inputs": [
            {
              "internalType": "uint256",
              "name": "_disputeID",
              "type": "uint256"
            },
            {
              "internalType": "uint256",
              "name": "_ruling",
              "type": "uint256"
            }
          ],
          "name": "rule",
          "outputs": [],
          "stateMutability": "nonpayable",
          "type": "function"
        },
        {
          "inputs": [
            {
              "internalType": "uint256",
              "name": "_newFeeDepositPeriod",
              "type": "uint256"
            }
          ],
          "name": "setArbitrationFeeDepositPeriod",
          "outputs": [],
          "stateMutability": "nonpayable",
          "type": "function"
        },
        {
          "inputs": [
            {
              "internalType": "uint256",
              "name": "_transactionID",
              "type": "uint256"
            },
            {
              "components": [
                {
                  "internalType": "uint256",
                  "name": "price",
                  "type": "uint256"
                },
                {
                  "internalType": "bool",
                  "name": "forSale",
                  "type": "bool"
                },
                {
                  "internalType": "address payable",
                  "name": "seller",
                  "type": "address"
                },
                {
                  "internalType": "address payable",
                  "name": "buyer",
                  "type": "address"
                },
                {
                  "internalType": "bytes32",
                  "name": "cardInfo_URI_hash",
                  "type": "bytes32"
                },
                {
                  "internalType": "enum Market.Status",
                  "name": "status",
                  "type": "uint8"
                },
                {
                  "internalType": "uint256",
                  "name": "init",
                  "type": "uint256"
                },
                {
                  "internalType": "uint256",
                  "name": "disputeID",
                  "type": "uint256"
                }
              ],
              "internalType": "struct Market.Transaction",
              "name": "_transaction",
              "type": "tuple"
            },
            {
              "internalType": "uint256",
              "name": "_newPrice",
              "type": "uint256"
            }
          ],
          "name": "setCardPrice",
          "outputs": [],
          "stateMutability": "nonpayable",
          "type": "function"
        },
        {
          "inputs": [
            {
              "internalType": "uint256",
              "name": "_newReclaimPeriod",
              "type": "uint256"
            }
          ],
          "name": "setReclaimationPeriod",
          "outputs": [],
          "stateMutability": "nonpayable",
          "type": "function"
        },
        {
          "inputs": [
            {
              "internalType": "uint256",
              "name": "_transactionID",
              "type": "uint256"
            },
            {
              "components": [
                {
                  "internalType": "uint256",
                  "name": "price",
                  "type": "uint256"
                },
                {
                  "internalType": "bool",
                  "name": "forSale",
                  "type": "bool"
                },
                {
                  "internalType": "address payable",
                  "name": "seller",
                  "type": "address"
                },
                {
                  "internalType": "address payable",
                  "name": "buyer",
                  "type": "address"
                },
                {
                  "internalType": "bytes32",
                  "name": "cardInfo_URI_hash",
                  "type": "bytes32"
                },
                {
                  "internalType": "enum Market.Status",
                  "name": "status",
                  "type": "uint8"
                },
                {
                  "internalType": "uint256",
                  "name": "init",
                  "type": "uint256"
                },
                {
                  "internalType": "uint256",
                  "name": "disputeID",
                  "type": "uint256"
                }
              ],
              "internalType": "struct Market.Transaction",
              "name": "_transaction",
              "type": "tuple"
            },
            {
              "internalType": "string",
              "name": "_evidence",
              "type": "string"
            }
          ],
          "name": "submiteEvidence",
          "outputs": [],
          "stateMutability": "nonpayable",
          "type": "function"
        },
        {
          "inputs": [
            {
              "internalType": "uint256",
              "name": "",
              "type": "uint256"
            }
          ],
          "name": "tx_hashes",
          "outputs": [
            {
              "internalType": "bytes32",
              "name": "",
              "type": "bytes32"
            }
          ],
          "stateMutability": "view",
          "type": "function"
        },
        {
          "inputs": [
            {
              "internalType": "uint256",
              "name": "_transactionID",
              "type": "uint256"
            },
            {
              "components": [
                {
                  "internalType": "uint256",
                  "name": "price",
                  "type": "uint256"
                },
                {
                  "internalType": "bool",
                  "name": "forSale",
                  "type": "bool"
                },
                {
                  "internalType": "address payable",
                  "name": "seller",
                  "type": "address"
                },
                {
                  "internalType": "address payable",
                  "name": "buyer",
                  "type": "address"
                },
                {
                  "internalType": "bytes32",
                  "name": "cardInfo_URI_hash",
                  "type": "bytes32"
                },
                {
                  "internalType": "enum Market.Status",
                  "name": "status",
                  "type": "uint8"
                },
                {
                  "internalType": "uint256",
                  "name": "init",
                  "type": "uint256"
                },
                {
                  "internalType": "uint256",
                  "name": "disputeID",
                  "type": "uint256"
                }
              ],
              "internalType": "struct Market.Transaction",
              "name": "_transaction",
              "type": "tuple"
            }
          ],
          "name": "withdrawPriceByBuyer",
          "outputs": [],
          "stateMutability": "nonpayable",
          "type": "function"
        },
        {
          "inputs": [
            {
              "internalType": "uint256",
              "name": "_transactionID",
              "type": "uint256"
            },
            {
              "components": [
                {
                  "internalType": "uint256",
                  "name": "price",
                  "type": "uint256"
                },
                {
                  "internalType": "bool",
                  "name": "forSale",
                  "type": "bool"
                },
                {
                  "internalType": "address payable",
                  "name": "seller",
                  "type": "address"
                },
                {
                  "internalType": "address payable",
                  "name": "buyer",
                  "type": "address"
                },
                {
                  "internalType": "bytes32",
                  "name": "cardInfo_URI_hash",
                  "type": "bytes32"
                },
                {
                  "internalType": "enum Market.Status",
                  "name": "status",
                  "type": "uint8"
                },
                {
                  "internalType": "uint256",
                  "name": "init",
                  "type": "uint256"
                },
                {
                  "internalType": "uint256",
                  "name": "disputeID",
                  "type": "uint256"
                }
              ],
              "internalType": "struct Market.Transaction",
              "name": "_transaction",
              "type": "tuple"
            }
          ],
          "name": "withdrawPriceBySeller",
          "outputs": [],
          "stateMutability": "nonpayable",
          "type": "function"
        }
      ],
      "evm": {
        "bytecode": {
          "linkReferences": {},
          "object": "6080604052603c600255603c60035560026004553480156200002057600080fd5b5060405162005613380380620056138339818101604052810190620000469190620000e5565b80600160006101000a81548173ffffffffffffffffffffffffffffffffffffffff021916908373ffffffffffffffffffffffffffffffffffffffff160217905550336000806101000a81548173ffffffffffffffffffffffffffffffffffffffff021916908373ffffffffffffffffffffffffffffffffffffffff160217905550506200015f565b600081519050620000df8162000145565b92915050565b600060208284031215620000f857600080fd5b60006200010884828501620000ce565b91505092915050565b60006200011e8262000125565b9050919050565b600073ffffffffffffffffffffffffffffffffffffffff82169050919050565b620001508162000111565b81146200015c57600080fd5b50565b6154a4806200016f6000396000f3fe6080604052600436106101355760003560e01c806394e76262116100ab578063b0b558fb1161006f578063b0b558fb146103f6578063cf5edec81461041f578063d2a8343b14610448578063da55e08514610471578063e4f6b3db1461048d578063fa1caae8146104a957610135565b806394e762621461030e578063962652121461034b578063968a91731461036757806399eb927514610390578063ac0d116f146103b957610135565b80636cc6cde1116100fd5780636cc6cde11461020e578063746fa531146102395780637a273ede14610264578063835a3300146102805780638da5cb5b1461029c5780638e56956f146102c757610135565b806309248b201461013a578063311a6c56146101635780633caa37721461018c5780634ec5d2e0146101a857806353cae8b1146101e5575b600080fd5b34801561014657600080fd5b50610161600480360381019061015c919061355b565b6104d2565b005b34801561016f57600080fd5b5061018a600480360381019061018591906136a8565b6106e3565b005b6101a660048036038101906101a19190613770565b610940565b005b3480156101b457600080fd5b506101cf60048036038101906101ca919061355b565b610ca0565b6040516101dc9190614aff565b60405180910390f35b3480156101f157600080fd5b5061020c60048036038101906102079190613598565b610d89565b005b34801561021a57600080fd5b50610223610f89565b6040516102309190614b1a565b60405180910390f35b34801561024557600080fd5b5061024e610faf565b60405161025b9190615028565b60405180910390f35b61027e60048036038101906102799190613770565b610fbc565b005b61029a60048036038101906102959190613606565b61131c565b005b3480156102a857600080fd5b506102b16116d1565b6040516102be9190614ae4565b60405180910390f35b3480156102d357600080fd5b506102ee60048036038101906102e99190613509565b6116f5565b6040516103059b9a99989796959493929190615043565b60405180910390f35b34801561031a57600080fd5b50610335600480360381019061033091906134df565b611769565b6040516103429190614aff565b60405180910390f35b61036560048036038101906103609190613598565b6117c7565b005b34801561037357600080fd5b5061038e60048036038101906103899190613720565b611a2b565b005b34801561039c57600080fd5b506103b760048036038101906103b29190613509565b611dad565b005b3480156103c557600080fd5b506103e060048036038101906103db9190613509565b611e45565b6040516103ed9190614aff565b60405180910390f35b34801561040257600080fd5b5061041d60048036038101906104189190613509565b611e66565b005b34801561042b57600080fd5b506104466004803603810190610441919061355b565b611efe565b005b34801561045457600080fd5b5061046f600480360381019061046a9190613657565b612225565b005b61048b6004803603810190610486919061355b565b612362565b005b6104a760048036038101906104a29190613606565b612747565b005b3480156104b557600080fd5b506104d060048036038101906104cb91906134a3565b612afd565b005b81816104dd81611769565b600560018403815481106104ed57fe5b906000526020600020015414610538576040517f08c379a000000000000000000000000000000000000000000000000000000000815260040161052f90614e54565b60405180910390fd5b826040015173ffffffffffffffffffffffffffffffffffffffff163373ffffffffffffffffffffffffffffffffffffffff16146105aa576040517f08c379a00000000000000000000000000000000000000000000000000000000081526004016105a190614d54565b60405180910390fd5b6003548360c001514203116105f4576040517f08c379a00000000000000000000000000000000000000000000000000000000081526004016105eb90614b94565b60405180910390fd5b6001600481111561060157fe5b8360a00151600481111561061157fe5b14610651576040517f08c379a000000000000000000000000000000000000000000000000000000000815260040161064890614dd4565b60405180910390fd5b60048360a00190600481111561066357fe5b9081600481111561067057fe5b8152505060008360000151905061068684611769565b6005600187038154811061069657fe5b9060005260206000200181905550847f3a6ced61ff5679745dc1eaa70ae1f120225c48e2e17c870433d698494957fc98856040516106d4919061500c565b60405180910390a25050505050565b600160009054906101000a900473ffffffffffffffffffffffffffffffffffffffff1673ffffffffffffffffffffffffffffffffffffffff163373ffffffffffffffffffffffffffffffffffffffff1614610773576040517f08c379a000000000000000000000000000000000000000000000000000000000815260040161076a90614f34565b60405180910390fd5b60006006600084815260200190815260200160002090506003600481111561079757fe5b8160010160009054906101000a900460ff1660048111156107b457fe5b146107f4576040517f08c379a00000000000000000000000000000000000000000000000000000000081526004016107eb90614c34565b60405180910390fd5b60048160010160006101000a81548160ff0219169083600481111561081557fe5b02179055506001600281111561082757fe5b82141561085557600181600a0160006101000a81548160ff0219169083600281111561084f57fe5b02179055505b60028081111561086157fe5b82141561088f57600281600a0160006101000a81548160ff0219169083600281111561088957fe5b02179055505b6000600281111561089c57fe5b8214156108ca57600081600a0160006101000a81548160ff021916908360028111156108c457fe5b02179055505b82600160009054906101000a900473ffffffffffffffffffffffffffffffffffffffff1673ffffffffffffffffffffffffffffffffffffffff167f394027a5fa6e098a1191094d1719d6929b9abc535fcc0c8f448d6a4e75622276846040516109339190615028565b60405180910390a3505050565b838261094b81611769565b6005600184038154811061095b57fe5b9060005260206000200154146109a6576040517f08c379a000000000000000000000000000000000000000000000000000000000815260040161099d90614e54565b60405180910390fd5b6000600160009054906101000a900473ffffffffffffffffffffffffffffffffffffffff1673ffffffffffffffffffffffffffffffffffffffff1663f7434ea96040518163ffffffff1660e01b8152600401610a0190614f14565b60206040518083038186803b158015610a1957600080fd5b505afa158015610a2d573d6000803e3d6000fd5b505050506040513d601f19601f82011682018060405250810190610a519190613532565b905083608001518103341015610a9c576040517f08c379a0000000000000000000000000000000000000000000000000000000008152600401610a9390614fb4565b60405180910390fd5b846040015173ffffffffffffffffffffffffffffffffffffffff163373ffffffffffffffffffffffffffffffffffffffff1614610b0e576040517f08c379a0000000000000000000000000000000000000000000000000000000008152600401610b0590614eb4565b60405180910390fd5b83604001514210610b54576040517f08c379a0000000000000000000000000000000000000000000000000000000008152600401610b4b90614cb4565b60405180910390fd5b60016004811115610b6157fe5b84602001516004811115610b7157fe5b14610bb1576040517f08c379a0000000000000000000000000000000000000000000000000000000008152600401610ba890614f94565b60405180910390fd5b348460a00181815101915081815250503484608001818151019150818152505060025442018460400181815250508084606001511015610c8957600284602001906004811115610bfd57fe5b90816004811115610c0a57fe5b81525050868560e001517ff6d6cf956a2b24b71568d4f9853779c9642a706044eea5a3f1afe2d0961e7bb786604051610c439190614fd4565b60405180910390a3867f7669e65111a702c7b74130e28abaa2e072e1693a2448b962c02ba59cdd88c4266001604051610c7c9190614b35565b60405180910390a2610c97565b610c968787838888612bfe565b5b50505050505050565b60008282610cad81611769565b60056001840381548110610cbd57fe5b906000526020600020015414610d08576040517f08c379a0000000000000000000000000000000000000000000000000000000008152600401610cff90614e54565b60405180910390fd5b836060015173ffffffffffffffffffffffffffffffffffffffff163373ffffffffffffffffffffffffffffffffffffffff1614610d7a576040517f08c379a0000000000000000000000000000000000000000000000000000000008152600401610d7190614e14565b60405180910390fd5b83608001519250505092915050565b8383610d9481611769565b60056001840381548110610da457fe5b906000526020600020015414610def576040517f08c379a0000000000000000000000000000000000000000000000000000000008152600401610de690614e54565b60405180910390fd5b846040015173ffffffffffffffffffffffffffffffffffffffff163373ffffffffffffffffffffffffffffffffffffffff161480610e5c5750846060015173ffffffffffffffffffffffffffffffffffffffff163373ffffffffffffffffffffffffffffffffffffffff16145b610e9b576040517f08c379a0000000000000000000000000000000000000000000000000000000008152600401610e9290614cd4565b60405180910390fd5b600480811115610ea757fe5b8560a001516004811115610eb757fe5b10610ef7576040517f08c379a0000000000000000000000000000000000000000000000000000000008152600401610eee90614bf4565b60405180910390fd5b3373ffffffffffffffffffffffffffffffffffffffff1686600160009054906101000a900473ffffffffffffffffffffffffffffffffffffffff1673ffffffffffffffffffffffffffffffffffffffff167fdccf2f8b2cc26eafcd61905cba744cff4b81d14740725f6376390dc6298a6a3c8787604051610f79929190614b50565b60405180910390a4505050505050565b600160009054906101000a900473ffffffffffffffffffffffffffffffffffffffff1681565b6000600580549050905090565b8382610fc781611769565b60056001840381548110610fd757fe5b906000526020600020015414611022576040517f08c379a000000000000000000000000000000000000000000000000000000000815260040161101990614e54565b60405180910390fd5b6000600160009054906101000a900473ffffffffffffffffffffffffffffffffffffffff1673ffffffffffffffffffffffffffffffffffffffff1663f7434ea96040518163ffffffff1660e01b815260040161107d90614f14565b60206040518083038186803b15801561109557600080fd5b505afa1580156110a9573d6000803e3d6000fd5b505050506040513d601f19601f820116820180604052508101906110cd9190613532565b905083608001518103341015611118576040517f08c379a000000000000000000000000000000000000000000000000000000000815260040161110f90614fb4565b60405180910390fd5b8360400151421061115e576040517f08c379a000000000000000000000000000000000000000000000000000000000815260040161115590614cb4565b60405180910390fd5b846060015173ffffffffffffffffffffffffffffffffffffffff163373ffffffffffffffffffffffffffffffffffffffff16146111d0576040517f08c379a00000000000000000000000000000000000000000000000000000000081526004016111c790614f54565b60405180910390fd5b600260048111156111dd57fe5b846020015160048111156111ed57fe5b1461122d576040517f08c379a000000000000000000000000000000000000000000000000000000000815260040161122490614ed4565b60405180910390fd5b348460a001818151019150818152505034846060018181510191508181525050600254420184604001818152505080846080015110156113055760018460200190600481111561127957fe5b9081600481111561128657fe5b81525050868560e001517ff6d6cf956a2b24b71568d4f9853779c9642a706044eea5a3f1afe2d0961e7bb7866040516112bf9190614fd4565b60405180910390a3867f7669e65111a702c7b74130e28abaa2e072e1693a2448b962c02ba59cdd88c42660026040516112f89190614b35565b60405180910390a2611313565b6113128787838888612bfe565b5b50505050505050565b828261132781611769565b6005600184038154811061133757fe5b906000526020600020015414611382576040517f08c379a000000000000000000000000000000000000000000000000000000000815260040161137990614e54565b60405180910390fd5b6002600481111561138f57fe5b8460a00151600481111561139f57fe5b10156113e0576040517f08c379a00000000000000000000000000000000000000000000000000000000081526004016113d790614bd4565b60405180910390fd5b600080600160009054906101000a900473ffffffffffffffffffffffffffffffffffffffff1673ffffffffffffffffffffffffffffffffffffffff1663afe15cfb8760e001516040518263ffffffff1660e01b81526004016114429190615028565b604080518083038186803b15801561145957600080fd5b505afa15801561146d573d6000803e3d6000fd5b505050506040513d601f19601f8201168201806040525081019061149191906136e4565b915091508142101580156114a457508042105b6114e3576040517f08c379a00000000000000000000000000000000000000000000000000000000081526004016114da90614b74565b60405180910390fd5b6000600160009054906101000a900473ffffffffffffffffffffffffffffffffffffffff1673ffffffffffffffffffffffffffffffffffffffff1663f23f16e68860e001516040518263ffffffff1660e01b815260040161154491906150ee565b60206040518083038186803b15801561155c57600080fd5b505afa158015611570573d6000803e3d6000fd5b505050506040513d601f19601f820116820180604052508101906115949190613532565b90508560e0015181033410156115df576040517f08c379a00000000000000000000000000000000000000000000000000000000081526004016115d690614e74565b60405180910390fd5b348660e001818151019150818152505034866101200181815101915081815250508086610100015110156116ab5760018660200190600481111561161f57fe5b9081600481111561162c57fe5b81525050878760e001517ff6d6cf956a2b24b71568d4f9853779c9642a706044eea5a3f1afe2d0961e7bb7886040516116659190614fd4565b60405180910390a3877f1e1422ddd2c7231f13f1c8bd03ff992ce78a5e18fa363018bf34989f65348cec600260405161169e9190614b35565b60405180910390a26116c7565b8560c0018051809190600101815250506116c6888289612ef6565b5b5050505050505050565b60008054906101000a900473ffffffffffffffffffffffffffffffffffffffff1681565b60066020528060005260406000206000915090508060000154908060010160009054906101000a900460ff169080600201549080600301549080600401549080600501549080600601549080600701549080600801549080600901549080600a0160009054906101000a900460ff1690508b565b6000816000015182602001518360400151846060015185608001518660a001518760c001518860e001516040516020016117aa989796959493929190614a52565b604051602081830303815290604052805190602001209050919050565b83836117d281611769565b600560018403815481106117e257fe5b90600052602060002001541461182d576040517f08c379a000000000000000000000000000000000000000000000000000000000815260040161182490614e54565b60405180910390fd5b6000600481111561183a57fe5b8560a00151600481111561184a57fe5b1461188a576040517f08c379a000000000000000000000000000000000000000000000000000000000815260040161188190614db4565b60405180910390fd5b84602001516118ce576040517f08c379a00000000000000000000000000000000000000000000000000000000081526004016118c590614d34565b60405180910390fd5b84600001513414611914576040517f08c379a000000000000000000000000000000000000000000000000000000000815260040161190b90614bb4565b60405180910390fd5b60018560a00190600481111561192657fe5b9081600481111561193357fe5b81525050600085602001901515908115158152505033856060019073ffffffffffffffffffffffffffffffffffffffff16908173ffffffffffffffffffffffffffffffffffffffff1681525050428560c001818152505061199385611769565b600560018803815481106119a357fe5b9060005260206000200181905550857f6f8f67e7442497979a2f58987f7016973b0f39ebdf0ebb1d423fc9b331c80794866040516119e1919061500c565b60405180910390a2857f61606860eb6c87306811e2695215385101daab53bd6ab4e9f9049aead9363c7d8585604051611a1b929190614b50565b60405180910390a2505050505050565b8281611a3681611769565b60056001840381548110611a4657fe5b906000526020600020015414611a91576040517f08c379a0000000000000000000000000000000000000000000000000000000008152600401611a8890614e54565b60405180910390fd5b6000600660008681526020019081526020016000209050600480811115611ab457fe5b8160010160009054906101000a900460ff166004811115611ad157fe5b14611b11576040517f08c379a0000000000000000000000000000000000000000000000000000000008152600401611b0890614d14565b60405180910390fd5b60008460000151905060016002811115611b2757fe5b82600a0160009054906101000a900460ff166002811115611b4457fe5b1415611ba857816003015481019050816007015481019050846060015173ffffffffffffffffffffffffffffffffffffffff166108fc829081150290604051600060405180830381858888f19350505050158015611ba6573d6000803e3d6000fd5b505b600280811115611bb457fe5b82600a0160009054906101000a900460ff166002811115611bd157fe5b1415611c3557816004015481019050816008015481019050846040015173ffffffffffffffffffffffffffffffffffffffff166108fc829081150290604051600060405180830381858888f19350505050158015611c33573d6000803e3d6000fd5b505b60006002811115611c4257fe5b82600a0160009054906101000a900460ff166002811115611c5f57fe5b1415611d2257816004015481019050816008015481019050846040015173ffffffffffffffffffffffffffffffffffffffff166108fc60028381611c9f57fe5b049081150290604051600060405180830381858888f19350505050158015611ccb573d6000803e3d6000fd5b50846060015173ffffffffffffffffffffffffffffffffffffffff166108fc60028381611cf457fe5b049081150290604051600060405180830381858888f19350505050158015611d20573d6000803e3d6000fd5b505b60048560a001906004811115611d3457fe5b90816004811115611d4157fe5b81525050611d4e85611769565b60056001890381548110611d5e57fe5b9060005260206000200181905550867f3a6ced61ff5679745dc1eaa70ae1f120225c48e2e17c870433d698494957fc9886604051611d9c919061500c565b60405180910390a250505050505050565b60008054906101000a900473ffffffffffffffffffffffffffffffffffffffff1673ffffffffffffffffffffffffffffffffffffffff163373ffffffffffffffffffffffffffffffffffffffff1614611e3b576040517f08c379a0000000000000000000000000000000000000000000000000000000008152600401611e3290614e34565b60405180910390fd5b8060038190555050565b60058181548110611e5257fe5b906000526020600020016000915090505481565b60008054906101000a900473ffffffffffffffffffffffffffffffffffffffff1673ffffffffffffffffffffffffffffffffffffffff163373ffffffffffffffffffffffffffffffffffffffff1614611ef4576040517f08c379a0000000000000000000000000000000000000000000000000000000008152600401611eeb90614df4565b60405180910390fd5b8060028190555050565b8181611f0981611769565b60056001840381548110611f1957fe5b906000526020600020015414611f64576040517f08c379a0000000000000000000000000000000000000000000000000000000008152600401611f5b90614e54565b60405180910390fd5b6000600660008560e0015181526020019081526020016000209050836060015173ffffffffffffffffffffffffffffffffffffffff163373ffffffffffffffffffffffffffffffffffffffff1614611ff1576040517f08c379a0000000000000000000000000000000000000000000000000000000008152600401611fe890614e94565b60405180910390fd5b60026004811115611ffe57fe5b8460a00151600481111561200e57fe5b101561204f576040517f08c379a000000000000000000000000000000000000000000000000000000000815260040161204690614c54565b60405180910390fd5b80600201544211612095576040517f08c379a000000000000000000000000000000000000000000000000000000000815260040161208c90614c74565b60405180910390fd5b60008160060154146121a757600080600160009054906101000a900473ffffffffffffffffffffffffffffffffffffffff1673ffffffffffffffffffffffffffffffffffffffff1663afe15cfb8760e001516040518263ffffffff1660e01b81526004016121039190615028565b604080518083038186803b15801561211a57600080fd5b505afa15801561212e573d6000803e3d6000fd5b505050506040513d601f19601f8201168201806040525081019061215291906136e4565b9150915081421015801561216557508042115b6121a4576040517f08c379a000000000000000000000000000000000000000000000000000000000815260040161219b90614c94565b60405180910390fd5b50505b60048160010160006101000a81548160ff021916908360048111156121c857fe5b0217905550600084600001519050816007015482600301540181019050857f3a6ced61ff5679745dc1eaa70ae1f120225c48e2e17c870433d698494957fc9886604051612215919061500c565b60405180910390a2505050505050565b816040015173ffffffffffffffffffffffffffffffffffffffff163373ffffffffffffffffffffffffffffffffffffffff1614612297576040517f08c379a000000000000000000000000000000000000000000000000000000000815260040161228e90614f74565b60405180910390fd5b600060048111156122a457fe5b8260a0015160048111156122b457fe5b146122f4576040517f08c379a00000000000000000000000000000000000000000000000000000000081526004016122eb90614ef4565b60405180910390fd5b8082600001818152505061230782611769565b6005600185038154811061231757fe5b9060005260206000200181905550827f6f8f67e7442497979a2f58987f7016973b0f39ebdf0ebb1d423fc9b331c8079483604051612355919061500c565b60405180910390a2505050565b818161236d81611769565b6005600184038154811061237d57fe5b9060005260206000200154146123c8576040517f08c379a00000000000000000000000000000000000000000000000000000000081526004016123bf90614e54565b60405180910390fd5b826060015173ffffffffffffffffffffffffffffffffffffffff163373ffffffffffffffffffffffffffffffffffffffff161461243a576040517f08c379a000000000000000000000000000000000000000000000000000000000815260040161243190614d94565b60405180910390fd5b6003548360c00151420310612484576040517f08c379a000000000000000000000000000000000000000000000000000000000815260040161247b90614d74565b60405180910390fd5b6001600481111561249157fe5b8360a0015160048111156124a157fe5b146124e1576040517f08c379a00000000000000000000000000000000000000000000000000000000081526004016124d890614cf4565b60405180910390fd5b6000600160009054906101000a900473ffffffffffffffffffffffffffffffffffffffff1673ffffffffffffffffffffffffffffffffffffffff1663f7434ea96040518163ffffffff1660e01b815260040161253c90614f14565b60206040518083038186803b15801561255457600080fd5b505afa158015612568573d6000803e3d6000fd5b505050506040513d601f19601f8201168201806040525081019061258c9190613532565b9050803410156125d1576040517f08c379a00000000000000000000000000000000000000000000000000000000081526004016125c890614c14565b60405180910390fd5b6125d96130f2565b604051806101600160405280878152602001600160048111156125f857fe5b81526020016002544201815260200134815260200160008152602001348152602001600081526020016000815260200160008152602001600081526020016000600281111561264357fe5b815250905060028560a00190600481111561265a57fe5b9081600481111561266757fe5b8152505061267485611769565b6005600188038154811061268457fe5b90600052602060002001819055506000867f6f8f67e7442497979a2f58987f7016973b0f39ebdf0ebb1d423fc9b331c80794876040516126c4919061500c565b60405180910390a286817ff6d6cf956a2b24b71568d4f9853779c9642a706044eea5a3f1afe2d0961e7bb7846040516126fd9190614fd4565b60405180910390a3867f7669e65111a702c7b74130e28abaa2e072e1693a2448b962c02ba59cdd88c42660026040516127369190614b35565b60405180910390a250505050505050565b828261275281611769565b6005600184038154811061276257fe5b9060005260206000200154146127ad576040517f08c379a00000000000000000000000000000000000000000000000000000000081526004016127a490614e54565b60405180910390fd5b600260048111156127ba57fe5b8460a0015160048111156127ca57fe5b101561280b576040517f08c379a000000000000000000000000000000000000000000000000000000000815260040161280290614bd4565b60405180910390fd5b600080600160009054906101000a900473ffffffffffffffffffffffffffffffffffffffff1673ffffffffffffffffffffffffffffffffffffffff1663afe15cfb8760e001516040518263ffffffff1660e01b815260040161286d9190615028565b604080518083038186803b15801561288457600080fd5b505afa158015612898573d6000803e3d6000fd5b505050506040513d601f19601f820116820180604052508101906128bc91906136e4565b915091508142101580156128cf57508042105b61290e576040517f08c379a000000000000000000000000000000000000000000000000000000000815260040161290590614b74565b60405180910390fd5b6000600160009054906101000a900473ffffffffffffffffffffffffffffffffffffffff1673ffffffffffffffffffffffffffffffffffffffff1663f23f16e68860e001516040518263ffffffff1660e01b815260040161296f91906150ee565b60206040518083038186803b15801561298757600080fd5b505afa15801561299b573d6000803e3d6000fd5b505050506040513d601f19601f820116820180604052508101906129bf9190613532565b90508561010001518103341015612a0b576040517f08c379a0000000000000000000000000000000000000000000000000000000008152600401612a0290614e74565b60405180910390fd5b34866101000181815101915081815250503486610120018181510191508181525050808660e001511015612ad757600286602001906004811115612a4b57fe5b90816004811115612a5857fe5b81525050878760e001517ff6d6cf956a2b24b71568d4f9853779c9642a706044eea5a3f1afe2d0961e7bb788604051612a919190614fd4565b60405180910390a3877f1e1422ddd2c7231f13f1c8bd03ff992ce78a5e18fa363018bf34989f65348cec6001604051612aca9190614b35565b60405180910390a2612af3565b8560c001805180919060010181525050612af2888289612ef6565b5b5050505050505050565b612b05613162565b6040518061010001604052808381526020016001151581526020013373ffffffffffffffffffffffffffffffffffffffff168152602001600073ffffffffffffffffffffffffffffffffffffffff16815260200184815260200160006004811115612b6c57fe5b815260200160008152602001600081525090506000612b8a82611769565b9050600581908060018154018082558091505060019003906000526020600020016000909190919091505560006005805490509050807f6f8f67e7442497979a2f58987f7016973b0f39ebdf0ebb1d423fc9b331c8079484604051612bef919061500c565b60405180910390a25050505050565b60028260a001906004811115612c1057fe5b90816004811115612c1d57fe5b81525050600160009054906101000a900473ffffffffffffffffffffffffffffffffffffffff1673ffffffffffffffffffffffffffffffffffffffff1663c13517e1846004546040518363ffffffff1660e01b8152600401612c7f91906150ee565b6020604051808303818588803b158015612c9857600080fd5b505af1158015612cac573d6000803e3d6000fd5b50505050506040513d601f19601f82011682018060405250810190612cd19190613532565b8260e0018181525050612ce382611769565b60056001870381548110612cf357fe5b9060005260206000200181905550600381602001906004811115612d1357fe5b90816004811115612d2057fe5b8152505080600660008460e0015181526020019081526020016000206000820151816000015560208201518160010160006101000a81548160ff02191690836004811115612d6a57fe5b021790555060408201518160020155606082015181600301556080820151816004015560a0820151816005015560c0820151816006015560e082015181600701556101008201518160080155610120820151816009015561014082015181600a0160006101000a81548160ff02191690836002811115612de657fe5b02179055509050508281608001511115612e1757600083826080015103905083826080018181525050826040015150505b8281606001511115612e4057600083826060015103905083826060018181525050826060015150505b847f6f8f67e7442497979a2f58987f7016973b0f39ebdf0ebb1d423fc9b331c8079483604051612e70919061500c565b60405180910390a28160e00151600160009054906101000a900473ffffffffffffffffffffffffffffffffffffffff1673ffffffffffffffffffffffffffffffffffffffff167f74baab670a4015ab2f1b467c5252a96141a2573f2908e58a92081e80d3cfde3d8688604051612ee792919061511c565b60405180910390a35050505050565b60038160a001906004811115612f0857fe5b90816004811115612f1557fe5b81525050612f2281611769565b60056001850381548110612f3257fe5b90600052602060002001819055506000600660008360e00151815260200190815260200160002090508060060160008154809291906001019190505550600160009054906101000a900473ffffffffffffffffffffffffffffffffffffffff1673ffffffffffffffffffffffffffffffffffffffff166349912f88848460e001516040518363ffffffff1660e01b8152600401612fcf91906150ee565b6000604051808303818588803b158015612fe857600080fd5b505af1158015612ffc573d6000803e3d6000fd5b505050505060038160010160006101000a81548160ff0219169083600481111561302257fe5b0217905550828160080154111561304f576000838260080154039050838260080181905550826040015150505b8281600701541115613077576000838260070154039050838260070181905550826060015150505b837f6f8f67e7442497979a2f58987f7016973b0f39ebdf0ebb1d423fc9b331c80794836040516130a7919061500c565b60405180910390a2838260e001517ff6d6cf956a2b24b71568d4f9853779c9642a706044eea5a3f1afe2d0961e7bb7836040516130e49190614ff0565b60405180910390a350505050565b604051806101600160405280600081526020016000600481111561311257fe5b815260200160008152602001600081526020016000815260200160008152602001600081526020016000815260200160008152602001600081526020016000600281111561315c57fe5b81525090565b60405180610100016040528060008152602001600015158152602001600073ffffffffffffffffffffffffffffffffffffffff168152602001600073ffffffffffffffffffffffffffffffffffffffff16815260200160008019168152602001600060048111156131cf57fe5b815260200160008152602001600081525090565b6000813590506131f2816153e2565b92915050565b600081359050613207816153f9565b92915050565b60008135905061321c81615410565b92915050565b60008135905061323181615427565b92915050565b60008135905061324681615437565b92915050565b60008135905061325b81615447565b92915050565b60008083601f84011261327357600080fd5b8235905067ffffffffffffffff81111561328c57600080fd5b6020830191508360018202830111156132a457600080fd5b9250929050565b600061016082840312156132be57600080fd5b6132c9610160615145565b905060006132d984828501613479565b60008301525060206132ed84828501613222565b602083015250604061330184828501613479565b604083015250606061331584828501613479565b606083015250608061332984828501613479565b60808301525060a061333d84828501613479565b60a08301525060c061335184828501613479565b60c08301525060e061336584828501613479565b60e08301525061010061337a84828501613479565b6101008301525061012061339084828501613479565b610120830152506101406133a684828501613237565b6101408301525092915050565b600061010082840312156133c657600080fd5b6133d1610100615145565b905060006133e184828501613479565b60008301525060206133f5848285016131f8565b6020830152506040613409848285016131e3565b604083015250606061341d848285016131e3565b60608301525060806134318482850161320d565b60808301525060a06134458482850161324c565b60a08301525060c061345984828501613479565b60c08301525060e061346d84828501613479565b60e08301525092915050565b60008135905061348881615457565b92915050565b60008151905061349d81615457565b92915050565b600080604083850312156134b657600080fd5b60006134c48582860161320d565b92505060206134d585828601613479565b9150509250929050565b600061010082840312156134f257600080fd5b6000613500848285016133b3565b91505092915050565b60006020828403121561351b57600080fd5b600061352984828501613479565b91505092915050565b60006020828403121561354457600080fd5b60006135528482850161348e565b91505092915050565b600080610120838503121561356f57600080fd5b600061357d85828601613479565b925050602061358e858286016133b3565b9150509250929050565b60008060008061014085870312156135af57600080fd5b60006135bd87828801613479565b94505060206135ce878288016133b3565b93505061012085013567ffffffffffffffff8111156135ec57600080fd5b6135f887828801613261565b925092505092959194509250565b6000806000610280848603121561361c57600080fd5b600061362a86828701613479565b935050602061363b868287016133b3565b92505061012061364d868287016132ab565b9150509250925092565b6000806000610140848603121561366d57600080fd5b600061367b86828701613479565b935050602061368c868287016133b3565b92505061012061369e86828701613479565b9150509250925092565b600080604083850312156136bb57600080fd5b60006136c985828601613479565b92505060206136da85828601613479565b9150509250929050565b600080604083850312156136f757600080fd5b60006137058582860161348e565b92505060206137168582860161348e565b9150509250929050565b6000806000610140848603121561373657600080fd5b600061374486828701613479565b935050602061375586828701613479565b9250506040613766868287016133b3565b9150509250925092565b6000806000806102a0858703121561378757600080fd5b600061379587828801613479565b94505060206137a687828801613479565b93505060406137b7878288016133b3565b9250506101406137c9878288016132ab565b91505092959194509250565b6137de816151ce565b82525050565b6137f56137f0826151ce565b615310565b82525050565b613804816151bc565b82525050565b613813816151e0565b82525050565b61382a613825826151e0565b615322565b82525050565b613839816151ec565b82525050565b613848816151ec565b82525050565b61385f61385a826151ec565b615334565b82525050565b61386e81615259565b82525050565b61387d8161527d565b82525050565b61388c8161527d565b82525050565b61389b8161528f565b82525050565b6138aa8161528f565b82525050565b6138b9816152a1565b82525050565b6138d06138cb826152a1565b61535a565b82525050565b60006138e28385615187565b93506138ef8385846152b3565b6138f88361536e565b840190509392505050565b6000613910602e83615187565b91507f46756e64696e67206d757374206265206d6164652077697468696e207468652060008301527f61707065616c20706572696f642e0000000000000000000000000000000000006020830152604082019050919050565b6000613976603783615187565b91507f43616e6e6f74207769746864726177207072696365207768696c65207265636c60008301527f61696d20706572696f64206973206e6f74206f7665722e0000000000000000006020830152604082019050919050565b60006139dc602183615187565b91507f4d7573742073656e642065786163746c7920746865206974656d20707269636560008301527f2e000000000000000000000000000000000000000000000000000000000000006020830152604082019050919050565b6000613a42601e83615187565b91507f5468657265206973206e6f206469737075746520746f2061707065616c2e00006000830152602082019050919050565b6000613a82603283615187565b91507f4d757374206e6f742073656e642065766964656e63652069662074686520646960008301527f7370757465206973207265736f6c7665642e00000000000000000000000000006020830152604082019050919050565b6000613ae8603d83615187565b91507f4d757374206465706f736974207468652072696768742061726269747261746960008301527f6f6e2066656520746f207265636c61696d20706169642070726963652e0000006020830152604082019050919050565b6000613b4e603283615187565b91507f43616e20676976652072756c696e67206f6e6c79207768656e2061206469737060008301527f75746520697320696e2070726f636573732e00000000000000000000000000006020830152604082019050919050565b6000613bb4605883615187565b91507f546869732066756e6374696f6e2069732063616c6c6564206f6e6c792077686560008301527f6e207468652073656c6c65722773207061796d656e74206f662074686520617260208301527f626974726174696f6e206665652074696d6573206f75742e00000000000000006040830152606082019050919050565b6000613c40603883615187565b91507f5468652073656c6c6572207374696c6c206861732074696d6520746f2064657060008301527f6f73697420616e206172626974726174696f6e206665652e00000000000000006020830152604082019050919050565b6000613ca6602883615187565b91507f53656c6c6572207374696c6c206861732074696d6520746f2066756e6420616e60008301527f2061707065616c2e0000000000000000000000000000000000000000000000006020830152604082019050919050565b6000613d0c602b83615187565b91507f546865206172626974726174696f6e20666565206465706f736974207065726960008301527f6f64206973206f7665722e0000000000000000000000000000000000000000006020830152604082019050919050565b6000613d72602b83615187565b91507f5468652063616c6c6572206d757374206265207468652073656c6c6572206f7260008301527f207468652062757965722e0000000000000000000000000000000000000000006020830152604082019050919050565b6000613dd8602a83615187565b91507f43616e2072616973652061207265636c61696d20646973707574652070656e6460008301527f696e672073746174652e000000000000000000000000000000000000000000006020830152604082019050919050565b6000613e3e603683615187565b91507f416e206172626974726174696f6e206d757374206265207265736f6c7665642060008301527f746f2065786563757465206974732072756c696e672e000000000000000000006020830152604082019050919050565b6000613ea4602283615187565b91507f43616e6e6f74207075726368617365206974656d206e6f7420666f722073616c60008301527f652e0000000000000000000000000000000000000000000000000000000000006020830152604082019050919050565b6000613f0a603483615187565b91507f4f6e6c79207468652073656c6c65722063616e2063616c6c20612073656c6c6560008301527f722d77697468647261772066756e6374696f6e2e0000000000000000000000006020830152604082019050919050565b6000613f70603883615187565b91507f43616e6e6f74207265636c61696d20707269636520616674657220746865207260008301527f65636c61696d2077696e646f7720697320636c6f7365642e00000000000000006020830152604082019050919050565b6000613fd6603783615187565b91507f4f6e6c7920746865206275796572206f662074686520636172642063616e207260008301527f616973652061207265636c61696d20646973707574652e0000000000000000006020830152604082019050919050565b600061403c602f83615187565b91507f43616e277420707572636861736520616e206974656d20616c7265616479206560008301527f6e676167656420696e2073616c652e00000000000000000000000000000000006020830152604082019050919050565b60006140a2604383615187565b91507f43616e206f6e6c7920776974686472617720707269636520696620746865207460008301527f72616e73616374696f6e20697320696e207468652070656e64696e672073746160208301527f74652e00000000000000000000000000000000000000000000000000000000006040830152606082019050919050565b600061412e604983615187565b91507f4f6e6c7920746865206f776e6572206f662074686520636f6e7472616374206360008301527f616e206368616e6765206172626974726174696f6e20666565206465706f736960208301527f7420706572696f642e00000000000000000000000000000000000000000000006040830152606082019050919050565b60006141ba602683615187565b91507f4f6e6c79207468652062757965722063616e207265747269657665206974656d60008301527f20696e666f2e00000000000000000000000000000000000000000000000000006020830152604082019050919050565b6000614220603983615187565b91507f4f6e6c7920746865206f776e6572206f662074686520636f6e7472616374206360008301527f616e206368616e6765207265636c61696d20706572696f642e000000000000006020830152604082019050919050565b6000614286602683615187565b91507f5472616e73616374696f6e20646f65736e2774206d617463682073746f72656460008301527f20686173682e00000000000000000000000000000000000000000000000000006020830152604082019050919050565b60006142ec602183615187565b91507f4e6f7420706179696e672073756666696369656e742061707065616c2066656560008301527f2e000000000000000000000000000000000000000000000000000000000000006020830152604082019050919050565b6000614352603283615187565b91507f4f6e6c79207468652062757965722063616e2063616c6c20612062757965722d60008301527f77697468647261772066756e6374696f6e2e00000000000000000000000000006020830152604082019050919050565b60006143b8604183615187565b91507f4f6e6c79207468652073656c6c657220696e766f6c76656420696e207468652060008301527f646973707574652063616e20706179207468652073656c6c657227732066656560208301527f2e000000000000000000000000000000000000000000000000000000000000006040830152606082019050919050565b6000614444603e83615187565b91507f43616e206f6e6c7920706179206465706f73697420666565207768656e20697460008301527f73207468652062757965722773207475726e20746f20726573706f6e642e00006020830152604082019050919050565b60006144aa603e83615187565b91507f43616e2774206368616e676520676966742063617264207072696365206f6e6360008301527f6520697420686173206265656e20656e676167656420696e2073616c652e00006020830152604082019050919050565b6000614510600083615176565b9150600082019050919050565b600061452a602683615187565b91507f4f6e6c79207468652061726269747261746f722063616e20676976652061207260008301527f756c696e672e00000000000000000000000000000000000000000000000000006020830152604082019050919050565b6000614590603f83615187565b91507f4f6e6c792074686520627579657220696e766f6c76656420696e20746865206460008301527f6973707574652063616e20706179207468652062757965722773206665652e006020830152604082019050919050565b60006145f6602b83615187565b91507f4f6e6c7920746865206f776e6572206f66206120636172642063616e2073657460008301527f206974732070726963652e0000000000000000000000000000000000000000006020830152604082019050919050565b600061465c603f83615187565b91507f43616e206f6e6c7920706179206465706f73697420666565207768656e20697460008301527f73207468652073656c6c65722773207475726e20746f20726573706f6e642e006020830152604082019050919050565b60006146c2604183615187565b91507f4d7573742068617665206174206c65617374206172626974726174696f6e206360008301527f6f737420696e2062616c616e636520746f20637265617465206469737075746560208301527f2e000000000000000000000000000000000000000000000000000000000000006040830152606082019050919050565b610160820160008201516147586000850182614a1d565b50602082015161476b6020850182613874565b50604082015161477e6040850182614a1d565b5060608201516147916060850182614a1d565b5060808201516147a46080850182614a1d565b5060a08201516147b760a0850182614a1d565b5060c08201516147ca60c0850182614a1d565b5060e08201516147dd60e0850182614a1d565b506101008201516147f2610100850182614a1d565b50610120820151614807610120850182614a1d565b5061014082015161481c610140850182613892565b50505050565b61016082016000808301549050614838816152f6565b6148456000860182614a1d565b5060018301549050614856816152c2565b6148636020860182613874565b5060028301549050614874816152f6565b6148816040860182614a1d565b5060038301549050614892816152f6565b61489f6060860182614a1d565b50600483015490506148b0816152f6565b6148bd6080860182614a1d565b50600583015490506148ce816152f6565b6148db60a0860182614a1d565b50600683015490506148ec816152f6565b6148f960c0860182614a1d565b506007830154905061490a816152f6565b61491760e0860182614a1d565b5060088301549050614928816152f6565b614936610100860182614a1d565b5060098301549050614947816152f6565b614955610120860182614a1d565b50600a8301549050614966816152dc565b614974610140860182613892565b5050505050565b610100820160008201516149926000850182614a1d565b5060208201516149a5602085018261380a565b5060408201516149b860408501826137d5565b5060608201516149cb60608501826137d5565b5060808201516149de6080850182613830565b5060a08201516149f160a08501826138b0565b5060c0820151614a0460c0850182614a1d565b5060e0820151614a1760e0850182614a1d565b50505050565b614a268161524f565b82525050565b614a358161524f565b82525050565b614a4c614a478261524f565b615350565b82525050565b6000614a5e828b614a3b565b602082019150614a6e828a613819565b600182019150614a7e82896137e4565b601482019150614a8e82886137e4565b601482019150614a9e828761384e565b602082019150614aae82866138bf565b600182019150614abe8285614a3b565b602082019150614ace8284614a3b565b6020820191508190509998505050505050505050565b6000602082019050614af960008301846137fb565b92915050565b6000602082019050614b14600083018461383f565b92915050565b6000602082019050614b2f6000830184613865565b92915050565b6000602082019050614b4a60008301846138a1565b92915050565b60006020820190508181036000830152614b6b8184866138d6565b90509392505050565b60006020820190508181036000830152614b8d81613903565b9050919050565b60006020820190508181036000830152614bad81613969565b9050919050565b60006020820190508181036000830152614bcd816139cf565b9050919050565b60006020820190508181036000830152614bed81613a35565b9050919050565b60006020820190508181036000830152614c0d81613a75565b9050919050565b60006020820190508181036000830152614c2d81613adb565b9050919050565b60006020820190508181036000830152614c4d81613b41565b9050919050565b60006020820190508181036000830152614c6d81613ba7565b9050919050565b60006020820190508181036000830152614c8d81613c33565b9050919050565b60006020820190508181036000830152614cad81613c99565b9050919050565b60006020820190508181036000830152614ccd81613cff565b9050919050565b60006020820190508181036000830152614ced81613d65565b9050919050565b60006020820190508181036000830152614d0d81613dcb565b9050919050565b60006020820190508181036000830152614d2d81613e31565b9050919050565b60006020820190508181036000830152614d4d81613e97565b9050919050565b60006020820190508181036000830152614d6d81613efd565b9050919050565b60006020820190508181036000830152614d8d81613f63565b9050919050565b60006020820190508181036000830152614dad81613fc9565b9050919050565b60006020820190508181036000830152614dcd8161402f565b9050919050565b60006020820190508181036000830152614ded81614095565b9050919050565b60006020820190508181036000830152614e0d81614121565b9050919050565b60006020820190508181036000830152614e2d816141ad565b9050919050565b60006020820190508181036000830152614e4d81614213565b9050919050565b60006020820190508181036000830152614e6d81614279565b9050919050565b60006020820190508181036000830152614e8d816142df565b9050919050565b60006020820190508181036000830152614ead81614345565b9050919050565b60006020820190508181036000830152614ecd816143ab565b9050919050565b60006020820190508181036000830152614eed81614437565b9050919050565b60006020820190508181036000830152614f0d8161449d565b9050919050565b60006020820190508181036000830152614f2d81614503565b9050919050565b60006020820190508181036000830152614f4d8161451d565b9050919050565b60006020820190508181036000830152614f6d81614583565b9050919050565b60006020820190508181036000830152614f8d816145e9565b9050919050565b60006020820190508181036000830152614fad8161464f565b9050919050565b60006020820190508181036000830152614fcd816146b5565b9050919050565b600061016082019050614fea6000830184614741565b92915050565b6000610160820190506150066000830184614822565b92915050565b600061010082019050615022600083018461497b565b92915050565b600060208201905061503d6000830184614a2c565b92915050565b600061016082019050615059600083018e614a2c565b615066602083018d613883565b615073604083018c614a2c565b615080606083018b614a2c565b61508d608083018a614a2c565b61509a60a0830189614a2c565b6150a760c0830188614a2c565b6150b460e0830187614a2c565b6150c2610100830186614a2c565b6150d0610120830185614a2c565b6150de6101408301846138a1565b9c9b505050505050505050505050565b60006040820190506151036000830184614a2c565b818103602083015261511481614503565b905092915050565b60006040820190506151316000830185614a2c565b61513e6020830184614a2c565b9392505050565b6000604051905081810181811067ffffffffffffffff8211171561516c5761516b61536c565b5b8060405250919050565b600082825260208201905092915050565b600082825260208201905092915050565b600060ff82169050919050565b600060ff82169050919050565b6000819050919050565b60006151c78261522f565b9050919050565b60006151d98261522f565b9050919050565b60008115159050919050565b6000819050919050565b6000819050615204826153a6565b919050565b6000819050615217826153ba565b919050565b600081905061522a826153ce565b919050565b600073ffffffffffffffffffffffffffffffffffffffff82169050919050565b6000819050919050565b60006152648261526b565b9050919050565b60006152768261522f565b9050919050565b6000615288826151f6565b9050919050565b600061529a82615209565b9050919050565b60006152ac8261521c565b9050919050565b82818337600083830152505050565b60006152d56152d083615399565b615198565b9050919050565b60006152ef6152ea83615399565b6151a5565b9050919050565b600061530961530483615399565b6151b2565b9050919050565b600061531b8261533e565b9050919050565b600061532d8261535a565b9050919050565b6000819050919050565b60006153498261538c565b9050919050565b6000819050919050565b60006153658261537f565b9050919050565bfe5b6000601f19601f8301169050919050565b60008160f81b9050919050565b60008160601b9050919050565b60008160001c9050919050565b600581106153b7576153b661536c565b5b50565b600381106153cb576153ca61536c565b5b50565b600581106153df576153de61536c565b5b50565b6153eb816151ce565b81146153f657600080fd5b50565b615402816151e0565b811461540d57600080fd5b50565b615419816151ec565b811461542457600080fd5b50565b6005811061543457600080fd5b50565b6003811061544457600080fd5b50565b6005811061545457600080fd5b50565b6154608161524f565b811461546b57600080fd5b5056fea26469706673582212203ff382a3c871e270597a7ad9592707988f32a5a39cacd85faa92527c6fe7516f64736f6c63430007030033",
          "opcodes": "PUSH1 0x80 PUSH1 0x40 MSTORE PUSH1 0x3C PUSH1 0x2 SSTORE PUSH1 0x3C PUSH1 0x3 SSTORE PUSH1 0x2 PUSH1 0x4 SSTORE CALLVALUE DUP1 ISZERO PUSH3 0x20 JUMPI PUSH1 0x0 DUP1 REVERT JUMPDEST POP PUSH1 0x40 MLOAD PUSH3 0x5613 CODESIZE SUB DUP1 PUSH3 0x5613 DUP4 CODECOPY DUP2 DUP2 ADD PUSH1 0x40 MSTORE DUP2 ADD SWAP1 PUSH3 0x46 SWAP2 SWAP1 PUSH3 0xE5 JUMP JUMPDEST DUP1 PUSH1 0x1 PUSH1 0x0 PUSH2 0x100 EXP DUP2 SLOAD DUP2 PUSH20 0xFFFFFFFFFFFFFFFFFFFFFFFFFFFFFFFFFFFFFFFF MUL NOT AND SWAP1 DUP4 PUSH20 0xFFFFFFFFFFFFFFFFFFFFFFFFFFFFFFFFFFFFFFFF AND MUL OR SWAP1 SSTORE POP CALLER PUSH1 0x0 DUP1 PUSH2 0x100 EXP DUP2 SLOAD DUP2 PUSH20 0xFFFFFFFFFFFFFFFFFFFFFFFFFFFFFFFFFFFFFFFF MUL NOT AND SWAP1 DUP4 PUSH20 0xFFFFFFFFFFFFFFFFFFFFFFFFFFFFFFFFFFFFFFFF AND MUL OR SWAP1 SSTORE POP POP PUSH3 0x15F JUMP JUMPDEST PUSH1 0x0 DUP2 MLOAD SWAP1 POP PUSH3 0xDF DUP2 PUSH3 0x145 JUMP JUMPDEST SWAP3 SWAP2 POP POP JUMP JUMPDEST PUSH1 0x0 PUSH1 0x20 DUP3 DUP5 SUB SLT ISZERO PUSH3 0xF8 JUMPI PUSH1 0x0 DUP1 REVERT JUMPDEST PUSH1 0x0 PUSH3 0x108 DUP5 DUP3 DUP6 ADD PUSH3 0xCE JUMP JUMPDEST SWAP2 POP POP SWAP3 SWAP2 POP POP JUMP JUMPDEST PUSH1 0x0 PUSH3 0x11E DUP3 PUSH3 0x125 JUMP JUMPDEST SWAP1 POP SWAP2 SWAP1 POP JUMP JUMPDEST PUSH1 0x0 PUSH20 0xFFFFFFFFFFFFFFFFFFFFFFFFFFFFFFFFFFFFFFFF DUP3 AND SWAP1 POP SWAP2 SWAP1 POP JUMP JUMPDEST PUSH3 0x150 DUP2 PUSH3 0x111 JUMP JUMPDEST DUP2 EQ PUSH3 0x15C JUMPI PUSH1 0x0 DUP1 REVERT JUMPDEST POP JUMP JUMPDEST PUSH2 0x54A4 DUP1 PUSH3 0x16F PUSH1 0x0 CODECOPY PUSH1 0x0 RETURN INVALID PUSH1 0x80 PUSH1 0x40 MSTORE PUSH1 0x4 CALLDATASIZE LT PUSH2 0x135 JUMPI PUSH1 0x0 CALLDATALOAD PUSH1 0xE0 SHR DUP1 PUSH4 0x94E76262 GT PUSH2 0xAB JUMPI DUP1 PUSH4 0xB0B558FB GT PUSH2 0x6F JUMPI DUP1 PUSH4 0xB0B558FB EQ PUSH2 0x3F6 JUMPI DUP1 PUSH4 0xCF5EDEC8 EQ PUSH2 0x41F JUMPI DUP1 PUSH4 0xD2A8343B EQ PUSH2 0x448 JUMPI DUP1 PUSH4 0xDA55E085 EQ PUSH2 0x471 JUMPI DUP1 PUSH4 0xE4F6B3DB EQ PUSH2 0x48D JUMPI DUP1 PUSH4 0xFA1CAAE8 EQ PUSH2 0x4A9 JUMPI PUSH2 0x135 JUMP JUMPDEST DUP1 PUSH4 0x94E76262 EQ PUSH2 0x30E JUMPI DUP1 PUSH4 0x96265212 EQ PUSH2 0x34B JUMPI DUP1 PUSH4 0x968A9173 EQ PUSH2 0x367 JUMPI DUP1 PUSH4 0x99EB9275 EQ PUSH2 0x390 JUMPI DUP1 PUSH4 0xAC0D116F EQ PUSH2 0x3B9 JUMPI PUSH2 0x135 JUMP JUMPDEST DUP1 PUSH4 0x6CC6CDE1 GT PUSH2 0xFD JUMPI DUP1 PUSH4 0x6CC6CDE1 EQ PUSH2 0x20E JUMPI DUP1 PUSH4 0x746FA531 EQ PUSH2 0x239 JUMPI DUP1 PUSH4 0x7A273EDE EQ PUSH2 0x264 JUMPI DUP1 PUSH4 0x835A3300 EQ PUSH2 0x280 JUMPI DUP1 PUSH4 0x8DA5CB5B EQ PUSH2 0x29C JUMPI DUP1 PUSH4 0x8E56956F EQ PUSH2 0x2C7 JUMPI PUSH2 0x135 JUMP JUMPDEST DUP1 PUSH4 0x9248B20 EQ PUSH2 0x13A JUMPI DUP1 PUSH4 0x311A6C56 EQ PUSH2 0x163 JUMPI DUP1 PUSH4 0x3CAA3772 EQ PUSH2 0x18C JUMPI DUP1 PUSH4 0x4EC5D2E0 EQ PUSH2 0x1A8 JUMPI DUP1 PUSH4 0x53CAE8B1 EQ PUSH2 0x1E5 JUMPI JUMPDEST PUSH1 0x0 DUP1 REVERT JUMPDEST CALLVALUE DUP1 ISZERO PUSH2 0x146 JUMPI PUSH1 0x0 DUP1 REVERT JUMPDEST POP PUSH2 0x161 PUSH1 0x4 DUP1 CALLDATASIZE SUB DUP2 ADD SWAP1 PUSH2 0x15C SWAP2 SWAP1 PUSH2 0x355B JUMP JUMPDEST PUSH2 0x4D2 JUMP JUMPDEST STOP JUMPDEST CALLVALUE DUP1 ISZERO PUSH2 0x16F JUMPI PUSH1 0x0 DUP1 REVERT JUMPDEST POP PUSH2 0x18A PUSH1 0x4 DUP1 CALLDATASIZE SUB DUP2 ADD SWAP1 PUSH2 0x185 SWAP2 SWAP1 PUSH2 0x36A8 JUMP JUMPDEST PUSH2 0x6E3 JUMP JUMPDEST STOP JUMPDEST PUSH2 0x1A6 PUSH1 0x4 DUP1 CALLDATASIZE SUB DUP2 ADD SWAP1 PUSH2 0x1A1 SWAP2 SWAP1 PUSH2 0x3770 JUMP JUMPDEST PUSH2 0x940 JUMP JUMPDEST STOP JUMPDEST CALLVALUE DUP1 ISZERO PUSH2 0x1B4 JUMPI PUSH1 0x0 DUP1 REVERT JUMPDEST POP PUSH2 0x1CF PUSH1 0x4 DUP1 CALLDATASIZE SUB DUP2 ADD SWAP1 PUSH2 0x1CA SWAP2 SWAP1 PUSH2 0x355B JUMP JUMPDEST PUSH2 0xCA0 JUMP JUMPDEST PUSH1 0x40 MLOAD PUSH2 0x1DC SWAP2 SWAP1 PUSH2 0x4AFF JUMP JUMPDEST PUSH1 0x40 MLOAD DUP1 SWAP2 SUB SWAP1 RETURN JUMPDEST CALLVALUE DUP1 ISZERO PUSH2 0x1F1 JUMPI PUSH1 0x0 DUP1 REVERT JUMPDEST POP PUSH2 0x20C PUSH1 0x4 DUP1 CALLDATASIZE SUB DUP2 ADD SWAP1 PUSH2 0x207 SWAP2 SWAP1 PUSH2 0x3598 JUMP JUMPDEST PUSH2 0xD89 JUMP JUMPDEST STOP JUMPDEST CALLVALUE DUP1 ISZERO PUSH2 0x21A JUMPI PUSH1 0x0 DUP1 REVERT JUMPDEST POP PUSH2 0x223 PUSH2 0xF89 JUMP JUMPDEST PUSH1 0x40 MLOAD PUSH2 0x230 SWAP2 SWAP1 PUSH2 0x4B1A JUMP JUMPDEST PUSH1 0x40 MLOAD DUP1 SWAP2 SUB SWAP1 RETURN JUMPDEST CALLVALUE DUP1 ISZERO PUSH2 0x245 JUMPI PUSH1 0x0 DUP1 REVERT JUMPDEST POP PUSH2 0x24E PUSH2 0xFAF JUMP JUMPDEST PUSH1 0x40 MLOAD PUSH2 0x25B SWAP2 SWAP1 PUSH2 0x5028 JUMP JUMPDEST PUSH1 0x40 MLOAD DUP1 SWAP2 SUB SWAP1 RETURN JUMPDEST PUSH2 0x27E PUSH1 0x4 DUP1 CALLDATASIZE SUB DUP2 ADD SWAP1 PUSH2 0x279 SWAP2 SWAP1 PUSH2 0x3770 JUMP JUMPDEST PUSH2 0xFBC JUMP JUMPDEST STOP JUMPDEST PUSH2 0x29A PUSH1 0x4 DUP1 CALLDATASIZE SUB DUP2 ADD SWAP1 PUSH2 0x295 SWAP2 SWAP1 PUSH2 0x3606 JUMP JUMPDEST PUSH2 0x131C JUMP JUMPDEST STOP JUMPDEST CALLVALUE DUP1 ISZERO PUSH2 0x2A8 JUMPI PUSH1 0x0 DUP1 REVERT JUMPDEST POP PUSH2 0x2B1 PUSH2 0x16D1 JUMP JUMPDEST PUSH1 0x40 MLOAD PUSH2 0x2BE SWAP2 SWAP1 PUSH2 0x4AE4 JUMP JUMPDEST PUSH1 0x40 MLOAD DUP1 SWAP2 SUB SWAP1 RETURN JUMPDEST CALLVALUE DUP1 ISZERO PUSH2 0x2D3 JUMPI PUSH1 0x0 DUP1 REVERT JUMPDEST POP PUSH2 0x2EE PUSH1 0x4 DUP1 CALLDATASIZE SUB DUP2 ADD SWAP1 PUSH2 0x2E9 SWAP2 SWAP1 PUSH2 0x3509 JUMP JUMPDEST PUSH2 0x16F5 JUMP JUMPDEST PUSH1 0x40 MLOAD PUSH2 0x305 SWAP12 SWAP11 SWAP10 SWAP9 SWAP8 SWAP7 SWAP6 SWAP5 SWAP4 SWAP3 SWAP2 SWAP1 PUSH2 0x5043 JUMP JUMPDEST PUSH1 0x40 MLOAD DUP1 SWAP2 SUB SWAP1 RETURN JUMPDEST CALLVALUE DUP1 ISZERO PUSH2 0x31A JUMPI PUSH1 0x0 DUP1 REVERT JUMPDEST POP PUSH2 0x335 PUSH1 0x4 DUP1 CALLDATASIZE SUB DUP2 ADD SWAP1 PUSH2 0x330 SWAP2 SWAP1 PUSH2 0x34DF JUMP JUMPDEST PUSH2 0x1769 JUMP JUMPDEST PUSH1 0x40 MLOAD PUSH2 0x342 SWAP2 SWAP1 PUSH2 0x4AFF JUMP JUMPDEST PUSH1 0x40 MLOAD DUP1 SWAP2 SUB SWAP1 RETURN JUMPDEST PUSH2 0x365 PUSH1 0x4 DUP1 CALLDATASIZE SUB DUP2 ADD SWAP1 PUSH2 0x360 SWAP2 SWAP1 PUSH2 0x3598 JUMP JUMPDEST PUSH2 0x17C7 JUMP JUMPDEST STOP JUMPDEST CALLVALUE DUP1 ISZERO PUSH2 0x373 JUMPI PUSH1 0x0 DUP1 REVERT JUMPDEST POP PUSH2 0x38E PUSH1 0x4 DUP1 CALLDATASIZE SUB DUP2 ADD SWAP1 PUSH2 0x389 SWAP2 SWAP1 PUSH2 0x3720 JUMP JUMPDEST PUSH2 0x1A2B JUMP JUMPDEST STOP JUMPDEST CALLVALUE DUP1 ISZERO PUSH2 0x39C JUMPI PUSH1 0x0 DUP1 REVERT JUMPDEST POP PUSH2 0x3B7 PUSH1 0x4 DUP1 CALLDATASIZE SUB DUP2 ADD SWAP1 PUSH2 0x3B2 SWAP2 SWAP1 PUSH2 0x3509 JUMP JUMPDEST PUSH2 0x1DAD JUMP JUMPDEST STOP JUMPDEST CALLVALUE DUP1 ISZERO PUSH2 0x3C5 JUMPI PUSH1 0x0 DUP1 REVERT JUMPDEST POP PUSH2 0x3E0 PUSH1 0x4 DUP1 CALLDATASIZE SUB DUP2 ADD SWAP1 PUSH2 0x3DB SWAP2 SWAP1 PUSH2 0x3509 JUMP JUMPDEST PUSH2 0x1E45 JUMP JUMPDEST PUSH1 0x40 MLOAD PUSH2 0x3ED SWAP2 SWAP1 PUSH2 0x4AFF JUMP JUMPDEST PUSH1 0x40 MLOAD DUP1 SWAP2 SUB SWAP1 RETURN JUMPDEST CALLVALUE DUP1 ISZERO PUSH2 0x402 JUMPI PUSH1 0x0 DUP1 REVERT JUMPDEST POP PUSH2 0x41D PUSH1 0x4 DUP1 CALLDATASIZE SUB DUP2 ADD SWAP1 PUSH2 0x418 SWAP2 SWAP1 PUSH2 0x3509 JUMP JUMPDEST PUSH2 0x1E66 JUMP JUMPDEST STOP JUMPDEST CALLVALUE DUP1 ISZERO PUSH2 0x42B JUMPI PUSH1 0x0 DUP1 REVERT JUMPDEST POP PUSH2 0x446 PUSH1 0x4 DUP1 CALLDATASIZE SUB DUP2 ADD SWAP1 PUSH2 0x441 SWAP2 SWAP1 PUSH2 0x355B JUMP JUMPDEST PUSH2 0x1EFE JUMP JUMPDEST STOP JUMPDEST CALLVALUE DUP1 ISZERO PUSH2 0x454 JUMPI PUSH1 0x0 DUP1 REVERT JUMPDEST POP PUSH2 0x46F PUSH1 0x4 DUP1 CALLDATASIZE SUB DUP2 ADD SWAP1 PUSH2 0x46A SWAP2 SWAP1 PUSH2 0x3657 JUMP JUMPDEST PUSH2 0x2225 JUMP JUMPDEST STOP JUMPDEST PUSH2 0x48B PUSH1 0x4 DUP1 CALLDATASIZE SUB DUP2 ADD SWAP1 PUSH2 0x486 SWAP2 SWAP1 PUSH2 0x355B JUMP JUMPDEST PUSH2 0x2362 JUMP JUMPDEST STOP JUMPDEST PUSH2 0x4A7 PUSH1 0x4 DUP1 CALLDATASIZE SUB DUP2 ADD SWAP1 PUSH2 0x4A2 SWAP2 SWAP1 PUSH2 0x3606 JUMP JUMPDEST PUSH2 0x2747 JUMP JUMPDEST STOP JUMPDEST CALLVALUE DUP1 ISZERO PUSH2 0x4B5 JUMPI PUSH1 0x0 DUP1 REVERT JUMPDEST POP PUSH2 0x4D0 PUSH1 0x4 DUP1 CALLDATASIZE SUB DUP2 ADD SWAP1 PUSH2 0x4CB SWAP2 SWAP1 PUSH2 0x34A3 JUMP JUMPDEST PUSH2 0x2AFD JUMP JUMPDEST STOP JUMPDEST DUP2 DUP2 PUSH2 0x4DD DUP2 PUSH2 0x1769 JUMP JUMPDEST PUSH1 0x5 PUSH1 0x1 DUP5 SUB DUP2 SLOAD DUP2 LT PUSH2 0x4ED JUMPI INVALID JUMPDEST SWAP1 PUSH1 0x0 MSTORE PUSH1 0x20 PUSH1 0x0 KECCAK256 ADD SLOAD EQ PUSH2 0x538 JUMPI PUSH1 0x40 MLOAD PUSH32 0x8C379A000000000000000000000000000000000000000000000000000000000 DUP2 MSTORE PUSH1 0x4 ADD PUSH2 0x52F SWAP1 PUSH2 0x4E54 JUMP JUMPDEST PUSH1 0x40 MLOAD DUP1 SWAP2 SUB SWAP1 REVERT JUMPDEST DUP3 PUSH1 0x40 ADD MLOAD PUSH20 0xFFFFFFFFFFFFFFFFFFFFFFFFFFFFFFFFFFFFFFFF AND CALLER PUSH20 0xFFFFFFFFFFFFFFFFFFFFFFFFFFFFFFFFFFFFFFFF AND EQ PUSH2 0x5AA JUMPI PUSH1 0x40 MLOAD PUSH32 0x8C379A000000000000000000000000000000000000000000000000000000000 DUP2 MSTORE PUSH1 0x4 ADD PUSH2 0x5A1 SWAP1 PUSH2 0x4D54 JUMP JUMPDEST PUSH1 0x40 MLOAD DUP1 SWAP2 SUB SWAP1 REVERT JUMPDEST PUSH1 0x3 SLOAD DUP4 PUSH1 0xC0 ADD MLOAD TIMESTAMP SUB GT PUSH2 0x5F4 JUMPI PUSH1 0x40 MLOAD PUSH32 0x8C379A000000000000000000000000000000000000000000000000000000000 DUP2 MSTORE PUSH1 0x4 ADD PUSH2 0x5EB SWAP1 PUSH2 0x4B94 JUMP JUMPDEST PUSH1 0x40 MLOAD DUP1 SWAP2 SUB SWAP1 REVERT JUMPDEST PUSH1 0x1 PUSH1 0x4 DUP2 GT ISZERO PUSH2 0x601 JUMPI INVALID JUMPDEST DUP4 PUSH1 0xA0 ADD MLOAD PUSH1 0x4 DUP2 GT ISZERO PUSH2 0x611 JUMPI INVALID JUMPDEST EQ PUSH2 0x651 JUMPI PUSH1 0x40 MLOAD PUSH32 0x8C379A000000000000000000000000000000000000000000000000000000000 DUP2 MSTORE PUSH1 0x4 ADD PUSH2 0x648 SWAP1 PUSH2 0x4DD4 JUMP JUMPDEST PUSH1 0x40 MLOAD DUP1 SWAP2 SUB SWAP1 REVERT JUMPDEST PUSH1 0x4 DUP4 PUSH1 0xA0 ADD SWAP1 PUSH1 0x4 DUP2 GT ISZERO PUSH2 0x663 JUMPI INVALID JUMPDEST SWAP1 DUP2 PUSH1 0x4 DUP2 GT ISZERO PUSH2 0x670 JUMPI INVALID JUMPDEST DUP2 MSTORE POP POP PUSH1 0x0 DUP4 PUSH1 0x0 ADD MLOAD SWAP1 POP PUSH2 0x686 DUP5 PUSH2 0x1769 JUMP JUMPDEST PUSH1 0x5 PUSH1 0x1 DUP8 SUB DUP2 SLOAD DUP2 LT PUSH2 0x696 JUMPI INVALID JUMPDEST SWAP1 PUSH1 0x0 MSTORE PUSH1 0x20 PUSH1 0x0 KECCAK256 ADD DUP2 SWAP1 SSTORE POP DUP5 PUSH32 0x3A6CED61FF5679745DC1EAA70AE1F120225C48E2E17C870433D698494957FC98 DUP6 PUSH1 0x40 MLOAD PUSH2 0x6D4 SWAP2 SWAP1 PUSH2 0x500C JUMP JUMPDEST PUSH1 0x40 MLOAD DUP1 SWAP2 SUB SWAP1 LOG2 POP POP POP POP POP JUMP JUMPDEST PUSH1 0x1 PUSH1 0x0 SWAP1 SLOAD SWAP1 PUSH2 0x100 EXP SWAP1 DIV PUSH20 0xFFFFFFFFFFFFFFFFFFFFFFFFFFFFFFFFFFFFFFFF AND PUSH20 0xFFFFFFFFFFFFFFFFFFFFFFFFFFFFFFFFFFFFFFFF AND CALLER PUSH20 0xFFFFFFFFFFFFFFFFFFFFFFFFFFFFFFFFFFFFFFFF AND EQ PUSH2 0x773 JUMPI PUSH1 0x40 MLOAD PUSH32 0x8C379A000000000000000000000000000000000000000000000000000000000 DUP2 MSTORE PUSH1 0x4 ADD PUSH2 0x76A SWAP1 PUSH2 0x4F34 JUMP JUMPDEST PUSH1 0x40 MLOAD DUP1 SWAP2 SUB SWAP1 REVERT JUMPDEST PUSH1 0x0 PUSH1 0x6 PUSH1 0x0 DUP5 DUP2 MSTORE PUSH1 0x20 ADD SWAP1 DUP2 MSTORE PUSH1 0x20 ADD PUSH1 0x0 KECCAK256 SWAP1 POP PUSH1 0x3 PUSH1 0x4 DUP2 GT ISZERO PUSH2 0x797 JUMPI INVALID JUMPDEST DUP2 PUSH1 0x1 ADD PUSH1 0x0 SWAP1 SLOAD SWAP1 PUSH2 0x100 EXP SWAP1 DIV PUSH1 0xFF AND PUSH1 0x4 DUP2 GT ISZERO PUSH2 0x7B4 JUMPI INVALID JUMPDEST EQ PUSH2 0x7F4 JUMPI PUSH1 0x40 MLOAD PUSH32 0x8C379A000000000000000000000000000000000000000000000000000000000 DUP2 MSTORE PUSH1 0x4 ADD PUSH2 0x7EB SWAP1 PUSH2 0x4C34 JUMP JUMPDEST PUSH1 0x40 MLOAD DUP1 SWAP2 SUB SWAP1 REVERT JUMPDEST PUSH1 0x4 DUP2 PUSH1 0x1 ADD PUSH1 0x0 PUSH2 0x100 EXP DUP2 SLOAD DUP2 PUSH1 0xFF MUL NOT AND SWAP1 DUP4 PUSH1 0x4 DUP2 GT ISZERO PUSH2 0x815 JUMPI INVALID JUMPDEST MUL OR SWAP1 SSTORE POP PUSH1 0x1 PUSH1 0x2 DUP2 GT ISZERO PUSH2 0x827 JUMPI INVALID JUMPDEST DUP3 EQ ISZERO PUSH2 0x855 JUMPI PUSH1 0x1 DUP2 PUSH1 0xA ADD PUSH1 0x0 PUSH2 0x100 EXP DUP2 SLOAD DUP2 PUSH1 0xFF MUL NOT AND SWAP1 DUP4 PUSH1 0x2 DUP2 GT ISZERO PUSH2 0x84F JUMPI INVALID JUMPDEST MUL OR SWAP1 SSTORE POP JUMPDEST PUSH1 0x2 DUP1 DUP2 GT ISZERO PUSH2 0x861 JUMPI INVALID JUMPDEST DUP3 EQ ISZERO PUSH2 0x88F JUMPI PUSH1 0x2 DUP2 PUSH1 0xA ADD PUSH1 0x0 PUSH2 0x100 EXP DUP2 SLOAD DUP2 PUSH1 0xFF MUL NOT AND SWAP1 DUP4 PUSH1 0x2 DUP2 GT ISZERO PUSH2 0x889 JUMPI INVALID JUMPDEST MUL OR SWAP1 SSTORE POP JUMPDEST PUSH1 0x0 PUSH1 0x2 DUP2 GT ISZERO PUSH2 0x89C JUMPI INVALID JUMPDEST DUP3 EQ ISZERO PUSH2 0x8CA JUMPI PUSH1 0x0 DUP2 PUSH1 0xA ADD PUSH1 0x0 PUSH2 0x100 EXP DUP2 SLOAD DUP2 PUSH1 0xFF MUL NOT AND SWAP1 DUP4 PUSH1 0x2 DUP2 GT ISZERO PUSH2 0x8C4 JUMPI INVALID JUMPDEST MUL OR SWAP1 SSTORE POP JUMPDEST DUP3 PUSH1 0x1 PUSH1 0x0 SWAP1 SLOAD SWAP1 PUSH2 0x100 EXP SWAP1 DIV PUSH20 0xFFFFFFFFFFFFFFFFFFFFFFFFFFFFFFFFFFFFFFFF AND PUSH20 0xFFFFFFFFFFFFFFFFFFFFFFFFFFFFFFFFFFFFFFFF AND PUSH32 0x394027A5FA6E098A1191094D1719D6929B9ABC535FCC0C8F448D6A4E75622276 DUP5 PUSH1 0x40 MLOAD PUSH2 0x933 SWAP2 SWAP1 PUSH2 0x5028 JUMP JUMPDEST PUSH1 0x40 MLOAD DUP1 SWAP2 SUB SWAP1 LOG3 POP POP POP JUMP JUMPDEST DUP4 DUP3 PUSH2 0x94B DUP2 PUSH2 0x1769 JUMP JUMPDEST PUSH1 0x5 PUSH1 0x1 DUP5 SUB DUP2 SLOAD DUP2 LT PUSH2 0x95B JUMPI INVALID JUMPDEST SWAP1 PUSH1 0x0 MSTORE PUSH1 0x20 PUSH1 0x0 KECCAK256 ADD SLOAD EQ PUSH2 0x9A6 JUMPI PUSH1 0x40 MLOAD PUSH32 0x8C379A000000000000000000000000000000000000000000000000000000000 DUP2 MSTORE PUSH1 0x4 ADD PUSH2 0x99D SWAP1 PUSH2 0x4E54 JUMP JUMPDEST PUSH1 0x40 MLOAD DUP1 SWAP2 SUB SWAP1 REVERT JUMPDEST PUSH1 0x0 PUSH1 0x1 PUSH1 0x0 SWAP1 SLOAD SWAP1 PUSH2 0x100 EXP SWAP1 DIV PUSH20 0xFFFFFFFFFFFFFFFFFFFFFFFFFFFFFFFFFFFFFFFF AND PUSH20 0xFFFFFFFFFFFFFFFFFFFFFFFFFFFFFFFFFFFFFFFF AND PUSH4 0xF7434EA9 PUSH1 0x40 MLOAD DUP2 PUSH4 0xFFFFFFFF AND PUSH1 0xE0 SHL DUP2 MSTORE PUSH1 0x4 ADD PUSH2 0xA01 SWAP1 PUSH2 0x4F14 JUMP JUMPDEST PUSH1 0x20 PUSH1 0x40 MLOAD DUP1 DUP4 SUB DUP2 DUP7 DUP1 EXTCODESIZE ISZERO DUP1 ISZERO PUSH2 0xA19 JUMPI PUSH1 0x0 DUP1 REVERT JUMPDEST POP GAS STATICCALL ISZERO DUP1 ISZERO PUSH2 0xA2D JUMPI RETURNDATASIZE PUSH1 0x0 DUP1 RETURNDATACOPY RETURNDATASIZE PUSH1 0x0 REVERT JUMPDEST POP POP POP POP PUSH1 0x40 MLOAD RETURNDATASIZE PUSH1 0x1F NOT PUSH1 0x1F DUP3 ADD AND DUP3 ADD DUP1 PUSH1 0x40 MSTORE POP DUP2 ADD SWAP1 PUSH2 0xA51 SWAP2 SWAP1 PUSH2 0x3532 JUMP JUMPDEST SWAP1 POP DUP4 PUSH1 0x80 ADD MLOAD DUP2 SUB CALLVALUE LT ISZERO PUSH2 0xA9C JUMPI PUSH1 0x40 MLOAD PUSH32 0x8C379A000000000000000000000000000000000000000000000000000000000 DUP2 MSTORE PUSH1 0x4 ADD PUSH2 0xA93 SWAP1 PUSH2 0x4FB4 JUMP JUMPDEST PUSH1 0x40 MLOAD DUP1 SWAP2 SUB SWAP1 REVERT JUMPDEST DUP5 PUSH1 0x40 ADD MLOAD PUSH20 0xFFFFFFFFFFFFFFFFFFFFFFFFFFFFFFFFFFFFFFFF AND CALLER PUSH20 0xFFFFFFFFFFFFFFFFFFFFFFFFFFFFFFFFFFFFFFFF AND EQ PUSH2 0xB0E JUMPI PUSH1 0x40 MLOAD PUSH32 0x8C379A000000000000000000000000000000000000000000000000000000000 DUP2 MSTORE PUSH1 0x4 ADD PUSH2 0xB05 SWAP1 PUSH2 0x4EB4 JUMP JUMPDEST PUSH1 0x40 MLOAD DUP1 SWAP2 SUB SWAP1 REVERT JUMPDEST DUP4 PUSH1 0x40 ADD MLOAD TIMESTAMP LT PUSH2 0xB54 JUMPI PUSH1 0x40 MLOAD PUSH32 0x8C379A000000000000000000000000000000000000000000000000000000000 DUP2 MSTORE PUSH1 0x4 ADD PUSH2 0xB4B SWAP1 PUSH2 0x4CB4 JUMP JUMPDEST PUSH1 0x40 MLOAD DUP1 SWAP2 SUB SWAP1 REVERT JUMPDEST PUSH1 0x1 PUSH1 0x4 DUP2 GT ISZERO PUSH2 0xB61 JUMPI INVALID JUMPDEST DUP5 PUSH1 0x20 ADD MLOAD PUSH1 0x4 DUP2 GT ISZERO PUSH2 0xB71 JUMPI INVALID JUMPDEST EQ PUSH2 0xBB1 JUMPI PUSH1 0x40 MLOAD PUSH32 0x8C379A000000000000000000000000000000000000000000000000000000000 DUP2 MSTORE PUSH1 0x4 ADD PUSH2 0xBA8 SWAP1 PUSH2 0x4F94 JUMP JUMPDEST PUSH1 0x40 MLOAD DUP1 SWAP2 SUB SWAP1 REVERT JUMPDEST CALLVALUE DUP5 PUSH1 0xA0 ADD DUP2 DUP2 MLOAD ADD SWAP2 POP DUP2 DUP2 MSTORE POP POP CALLVALUE DUP5 PUSH1 0x80 ADD DUP2 DUP2 MLOAD ADD SWAP2 POP DUP2 DUP2 MSTORE POP POP PUSH1 0x2 SLOAD TIMESTAMP ADD DUP5 PUSH1 0x40 ADD DUP2 DUP2 MSTORE POP POP DUP1 DUP5 PUSH1 0x60 ADD MLOAD LT ISZERO PUSH2 0xC89 JUMPI PUSH1 0x2 DUP5 PUSH1 0x20 ADD SWAP1 PUSH1 0x4 DUP2 GT ISZERO PUSH2 0xBFD JUMPI INVALID JUMPDEST SWAP1 DUP2 PUSH1 0x4 DUP2 GT ISZERO PUSH2 0xC0A JUMPI INVALID JUMPDEST DUP2 MSTORE POP POP DUP7 DUP6 PUSH1 0xE0 ADD MLOAD PUSH32 0xF6D6CF956A2B24B71568D4F9853779C9642A706044EEA5A3F1AFE2D0961E7BB7 DUP7 PUSH1 0x40 MLOAD PUSH2 0xC43 SWAP2 SWAP1 PUSH2 0x4FD4 JUMP JUMPDEST PUSH1 0x40 MLOAD DUP1 SWAP2 SUB SWAP1 LOG3 DUP7 PUSH32 0x7669E65111A702C7B74130E28ABAA2E072E1693A2448B962C02BA59CDD88C426 PUSH1 0x1 PUSH1 0x40 MLOAD PUSH2 0xC7C SWAP2 SWAP1 PUSH2 0x4B35 JUMP JUMPDEST PUSH1 0x40 MLOAD DUP1 SWAP2 SUB SWAP1 LOG2 PUSH2 0xC97 JUMP JUMPDEST PUSH2 0xC96 DUP8 DUP8 DUP4 DUP9 DUP9 PUSH2 0x2BFE JUMP JUMPDEST JUMPDEST POP POP POP POP POP POP POP JUMP JUMPDEST PUSH1 0x0 DUP3 DUP3 PUSH2 0xCAD DUP2 PUSH2 0x1769 JUMP JUMPDEST PUSH1 0x5 PUSH1 0x1 DUP5 SUB DUP2 SLOAD DUP2 LT PUSH2 0xCBD JUMPI INVALID JUMPDEST SWAP1 PUSH1 0x0 MSTORE PUSH1 0x20 PUSH1 0x0 KECCAK256 ADD SLOAD EQ PUSH2 0xD08 JUMPI PUSH1 0x40 MLOAD PUSH32 0x8C379A000000000000000000000000000000000000000000000000000000000 DUP2 MSTORE PUSH1 0x4 ADD PUSH2 0xCFF SWAP1 PUSH2 0x4E54 JUMP JUMPDEST PUSH1 0x40 MLOAD DUP1 SWAP2 SUB SWAP1 REVERT JUMPDEST DUP4 PUSH1 0x60 ADD MLOAD PUSH20 0xFFFFFFFFFFFFFFFFFFFFFFFFFFFFFFFFFFFFFFFF AND CALLER PUSH20 0xFFFFFFFFFFFFFFFFFFFFFFFFFFFFFFFFFFFFFFFF AND EQ PUSH2 0xD7A JUMPI PUSH1 0x40 MLOAD PUSH32 0x8C379A000000000000000000000000000000000000000000000000000000000 DUP2 MSTORE PUSH1 0x4 ADD PUSH2 0xD71 SWAP1 PUSH2 0x4E14 JUMP JUMPDEST PUSH1 0x40 MLOAD DUP1 SWAP2 SUB SWAP1 REVERT JUMPDEST DUP4 PUSH1 0x80 ADD MLOAD SWAP3 POP POP POP SWAP3 SWAP2 POP POP JUMP JUMPDEST DUP4 DUP4 PUSH2 0xD94 DUP2 PUSH2 0x1769 JUMP JUMPDEST PUSH1 0x5 PUSH1 0x1 DUP5 SUB DUP2 SLOAD DUP2 LT PUSH2 0xDA4 JUMPI INVALID JUMPDEST SWAP1 PUSH1 0x0 MSTORE PUSH1 0x20 PUSH1 0x0 KECCAK256 ADD SLOAD EQ PUSH2 0xDEF JUMPI PUSH1 0x40 MLOAD PUSH32 0x8C379A000000000000000000000000000000000000000000000000000000000 DUP2 MSTORE PUSH1 0x4 ADD PUSH2 0xDE6 SWAP1 PUSH2 0x4E54 JUMP JUMPDEST PUSH1 0x40 MLOAD DUP1 SWAP2 SUB SWAP1 REVERT JUMPDEST DUP5 PUSH1 0x40 ADD MLOAD PUSH20 0xFFFFFFFFFFFFFFFFFFFFFFFFFFFFFFFFFFFFFFFF AND CALLER PUSH20 0xFFFFFFFFFFFFFFFFFFFFFFFFFFFFFFFFFFFFFFFF AND EQ DUP1 PUSH2 0xE5C JUMPI POP DUP5 PUSH1 0x60 ADD MLOAD PUSH20 0xFFFFFFFFFFFFFFFFFFFFFFFFFFFFFFFFFFFFFFFF AND CALLER PUSH20 0xFFFFFFFFFFFFFFFFFFFFFFFFFFFFFFFFFFFFFFFF AND EQ JUMPDEST PUSH2 0xE9B JUMPI PUSH1 0x40 MLOAD PUSH32 0x8C379A000000000000000000000000000000000000000000000000000000000 DUP2 MSTORE PUSH1 0x4 ADD PUSH2 0xE92 SWAP1 PUSH2 0x4CD4 JUMP JUMPDEST PUSH1 0x40 MLOAD DUP1 SWAP2 SUB SWAP1 REVERT JUMPDEST PUSH1 0x4 DUP1 DUP2 GT ISZERO PUSH2 0xEA7 JUMPI INVALID JUMPDEST DUP6 PUSH1 0xA0 ADD MLOAD PUSH1 0x4 DUP2 GT ISZERO PUSH2 0xEB7 JUMPI INVALID JUMPDEST LT PUSH2 0xEF7 JUMPI PUSH1 0x40 MLOAD PUSH32 0x8C379A000000000000000000000000000000000000000000000000000000000 DUP2 MSTORE PUSH1 0x4 ADD PUSH2 0xEEE SWAP1 PUSH2 0x4BF4 JUMP JUMPDEST PUSH1 0x40 MLOAD DUP1 SWAP2 SUB SWAP1 REVERT JUMPDEST CALLER PUSH20 0xFFFFFFFFFFFFFFFFFFFFFFFFFFFFFFFFFFFFFFFF AND DUP7 PUSH1 0x1 PUSH1 0x0 SWAP1 SLOAD SWAP1 PUSH2 0x100 EXP SWAP1 DIV PUSH20 0xFFFFFFFFFFFFFFFFFFFFFFFFFFFFFFFFFFFFFFFF AND PUSH20 0xFFFFFFFFFFFFFFFFFFFFFFFFFFFFFFFFFFFFFFFF AND PUSH32 0xDCCF2F8B2CC26EAFCD61905CBA744CFF4B81D14740725F6376390DC6298A6A3C DUP8 DUP8 PUSH1 0x40 MLOAD PUSH2 0xF79 SWAP3 SWAP2 SWAP1 PUSH2 0x4B50 JUMP JUMPDEST PUSH1 0x40 MLOAD DUP1 SWAP2 SUB SWAP1 LOG4 POP POP POP POP POP POP JUMP JUMPDEST PUSH1 0x1 PUSH1 0x0 SWAP1 SLOAD SWAP1 PUSH2 0x100 EXP SWAP1 DIV PUSH20 0xFFFFFFFFFFFFFFFFFFFFFFFFFFFFFFFFFFFFFFFF AND DUP2 JUMP JUMPDEST PUSH1 0x0 PUSH1 0x5 DUP1 SLOAD SWAP1 POP SWAP1 POP SWAP1 JUMP JUMPDEST DUP4 DUP3 PUSH2 0xFC7 DUP2 PUSH2 0x1769 JUMP JUMPDEST PUSH1 0x5 PUSH1 0x1 DUP5 SUB DUP2 SLOAD DUP2 LT PUSH2 0xFD7 JUMPI INVALID JUMPDEST SWAP1 PUSH1 0x0 MSTORE PUSH1 0x20 PUSH1 0x0 KECCAK256 ADD SLOAD EQ PUSH2 0x1022 JUMPI PUSH1 0x40 MLOAD PUSH32 0x8C379A000000000000000000000000000000000000000000000000000000000 DUP2 MSTORE PUSH1 0x4 ADD PUSH2 0x1019 SWAP1 PUSH2 0x4E54 JUMP JUMPDEST PUSH1 0x40 MLOAD DUP1 SWAP2 SUB SWAP1 REVERT JUMPDEST PUSH1 0x0 PUSH1 0x1 PUSH1 0x0 SWAP1 SLOAD SWAP1 PUSH2 0x100 EXP SWAP1 DIV PUSH20 0xFFFFFFFFFFFFFFFFFFFFFFFFFFFFFFFFFFFFFFFF AND PUSH20 0xFFFFFFFFFFFFFFFFFFFFFFFFFFFFFFFFFFFFFFFF AND PUSH4 0xF7434EA9 PUSH1 0x40 MLOAD DUP2 PUSH4 0xFFFFFFFF AND PUSH1 0xE0 SHL DUP2 MSTORE PUSH1 0x4 ADD PUSH2 0x107D SWAP1 PUSH2 0x4F14 JUMP JUMPDEST PUSH1 0x20 PUSH1 0x40 MLOAD DUP1 DUP4 SUB DUP2 DUP7 DUP1 EXTCODESIZE ISZERO DUP1 ISZERO PUSH2 0x1095 JUMPI PUSH1 0x0 DUP1 REVERT JUMPDEST POP GAS STATICCALL ISZERO DUP1 ISZERO PUSH2 0x10A9 JUMPI RETURNDATASIZE PUSH1 0x0 DUP1 RETURNDATACOPY RETURNDATASIZE PUSH1 0x0 REVERT JUMPDEST POP POP POP POP PUSH1 0x40 MLOAD RETURNDATASIZE PUSH1 0x1F NOT PUSH1 0x1F DUP3 ADD AND DUP3 ADD DUP1 PUSH1 0x40 MSTORE POP DUP2 ADD SWAP1 PUSH2 0x10CD SWAP2 SWAP1 PUSH2 0x3532 JUMP JUMPDEST SWAP1 POP DUP4 PUSH1 0x80 ADD MLOAD DUP2 SUB CALLVALUE LT ISZERO PUSH2 0x1118 JUMPI PUSH1 0x40 MLOAD PUSH32 0x8C379A000000000000000000000000000000000000000000000000000000000 DUP2 MSTORE PUSH1 0x4 ADD PUSH2 0x110F SWAP1 PUSH2 0x4FB4 JUMP JUMPDEST PUSH1 0x40 MLOAD DUP1 SWAP2 SUB SWAP1 REVERT JUMPDEST DUP4 PUSH1 0x40 ADD MLOAD TIMESTAMP LT PUSH2 0x115E JUMPI PUSH1 0x40 MLOAD PUSH32 0x8C379A000000000000000000000000000000000000000000000000000000000 DUP2 MSTORE PUSH1 0x4 ADD PUSH2 0x1155 SWAP1 PUSH2 0x4CB4 JUMP JUMPDEST PUSH1 0x40 MLOAD DUP1 SWAP2 SUB SWAP1 REVERT JUMPDEST DUP5 PUSH1 0x60 ADD MLOAD PUSH20 0xFFFFFFFFFFFFFFFFFFFFFFFFFFFFFFFFFFFFFFFF AND CALLER PUSH20 0xFFFFFFFFFFFFFFFFFFFFFFFFFFFFFFFFFFFFFFFF AND EQ PUSH2 0x11D0 JUMPI PUSH1 0x40 MLOAD PUSH32 0x8C379A000000000000000000000000000000000000000000000000000000000 DUP2 MSTORE PUSH1 0x4 ADD PUSH2 0x11C7 SWAP1 PUSH2 0x4F54 JUMP JUMPDEST PUSH1 0x40 MLOAD DUP1 SWAP2 SUB SWAP1 REVERT JUMPDEST PUSH1 0x2 PUSH1 0x4 DUP2 GT ISZERO PUSH2 0x11DD JUMPI INVALID JUMPDEST DUP5 PUSH1 0x20 ADD MLOAD PUSH1 0x4 DUP2 GT ISZERO PUSH2 0x11ED JUMPI INVALID JUMPDEST EQ PUSH2 0x122D JUMPI PUSH1 0x40 MLOAD PUSH32 0x8C379A000000000000000000000000000000000000000000000000000000000 DUP2 MSTORE PUSH1 0x4 ADD PUSH2 0x1224 SWAP1 PUSH2 0x4ED4 JUMP JUMPDEST PUSH1 0x40 MLOAD DUP1 SWAP2 SUB SWAP1 REVERT JUMPDEST CALLVALUE DUP5 PUSH1 0xA0 ADD DUP2 DUP2 MLOAD ADD SWAP2 POP DUP2 DUP2 MSTORE POP POP CALLVALUE DUP5 PUSH1 0x60 ADD DUP2 DUP2 MLOAD ADD SWAP2 POP DUP2 DUP2 MSTORE POP POP PUSH1 0x2 SLOAD TIMESTAMP ADD DUP5 PUSH1 0x40 ADD DUP2 DUP2 MSTORE POP POP DUP1 DUP5 PUSH1 0x80 ADD MLOAD LT ISZERO PUSH2 0x1305 JUMPI PUSH1 0x1 DUP5 PUSH1 0x20 ADD SWAP1 PUSH1 0x4 DUP2 GT ISZERO PUSH2 0x1279 JUMPI INVALID JUMPDEST SWAP1 DUP2 PUSH1 0x4 DUP2 GT ISZERO PUSH2 0x1286 JUMPI INVALID JUMPDEST DUP2 MSTORE POP POP DUP7 DUP6 PUSH1 0xE0 ADD MLOAD PUSH32 0xF6D6CF956A2B24B71568D4F9853779C9642A706044EEA5A3F1AFE2D0961E7BB7 DUP7 PUSH1 0x40 MLOAD PUSH2 0x12BF SWAP2 SWAP1 PUSH2 0x4FD4 JUMP JUMPDEST PUSH1 0x40 MLOAD DUP1 SWAP2 SUB SWAP1 LOG3 DUP7 PUSH32 0x7669E65111A702C7B74130E28ABAA2E072E1693A2448B962C02BA59CDD88C426 PUSH1 0x2 PUSH1 0x40 MLOAD PUSH2 0x12F8 SWAP2 SWAP1 PUSH2 0x4B35 JUMP JUMPDEST PUSH1 0x40 MLOAD DUP1 SWAP2 SUB SWAP1 LOG2 PUSH2 0x1313 JUMP JUMPDEST PUSH2 0x1312 DUP8 DUP8 DUP4 DUP9 DUP9 PUSH2 0x2BFE JUMP JUMPDEST JUMPDEST POP POP POP POP POP POP POP JUMP JUMPDEST DUP3 DUP3 PUSH2 0x1327 DUP2 PUSH2 0x1769 JUMP JUMPDEST PUSH1 0x5 PUSH1 0x1 DUP5 SUB DUP2 SLOAD DUP2 LT PUSH2 0x1337 JUMPI INVALID JUMPDEST SWAP1 PUSH1 0x0 MSTORE PUSH1 0x20 PUSH1 0x0 KECCAK256 ADD SLOAD EQ PUSH2 0x1382 JUMPI PUSH1 0x40 MLOAD PUSH32 0x8C379A000000000000000000000000000000000000000000000000000000000 DUP2 MSTORE PUSH1 0x4 ADD PUSH2 0x1379 SWAP1 PUSH2 0x4E54 JUMP JUMPDEST PUSH1 0x40 MLOAD DUP1 SWAP2 SUB SWAP1 REVERT JUMPDEST PUSH1 0x2 PUSH1 0x4 DUP2 GT ISZERO PUSH2 0x138F JUMPI INVALID JUMPDEST DUP5 PUSH1 0xA0 ADD MLOAD PUSH1 0x4 DUP2 GT ISZERO PUSH2 0x139F JUMPI INVALID JUMPDEST LT ISZERO PUSH2 0x13E0 JUMPI PUSH1 0x40 MLOAD PUSH32 0x8C379A000000000000000000000000000000000000000000000000000000000 DUP2 MSTORE PUSH1 0x4 ADD PUSH2 0x13D7 SWAP1 PUSH2 0x4BD4 JUMP JUMPDEST PUSH1 0x40 MLOAD DUP1 SWAP2 SUB SWAP1 REVERT JUMPDEST PUSH1 0x0 DUP1 PUSH1 0x1 PUSH1 0x0 SWAP1 SLOAD SWAP1 PUSH2 0x100 EXP SWAP1 DIV PUSH20 0xFFFFFFFFFFFFFFFFFFFFFFFFFFFFFFFFFFFFFFFF AND PUSH20 0xFFFFFFFFFFFFFFFFFFFFFFFFFFFFFFFFFFFFFFFF AND PUSH4 0xAFE15CFB DUP8 PUSH1 0xE0 ADD MLOAD PUSH1 0x40 MLOAD DUP3 PUSH4 0xFFFFFFFF AND PUSH1 0xE0 SHL DUP2 MSTORE PUSH1 0x4 ADD PUSH2 0x1442 SWAP2 SWAP1 PUSH2 0x5028 JUMP JUMPDEST PUSH1 0x40 DUP1 MLOAD DUP1 DUP4 SUB DUP2 DUP7 DUP1 EXTCODESIZE ISZERO DUP1 ISZERO PUSH2 0x1459 JUMPI PUSH1 0x0 DUP1 REVERT JUMPDEST POP GAS STATICCALL ISZERO DUP1 ISZERO PUSH2 0x146D JUMPI RETURNDATASIZE PUSH1 0x0 DUP1 RETURNDATACOPY RETURNDATASIZE PUSH1 0x0 REVERT JUMPDEST POP POP POP POP PUSH1 0x40 MLOAD RETURNDATASIZE PUSH1 0x1F NOT PUSH1 0x1F DUP3 ADD AND DUP3 ADD DUP1 PUSH1 0x40 MSTORE POP DUP2 ADD SWAP1 PUSH2 0x1491 SWAP2 SWAP1 PUSH2 0x36E4 JUMP JUMPDEST SWAP2 POP SWAP2 POP DUP2 TIMESTAMP LT ISZERO DUP1 ISZERO PUSH2 0x14A4 JUMPI POP DUP1 TIMESTAMP LT JUMPDEST PUSH2 0x14E3 JUMPI PUSH1 0x40 MLOAD PUSH32 0x8C379A000000000000000000000000000000000000000000000000000000000 DUP2 MSTORE PUSH1 0x4 ADD PUSH2 0x14DA SWAP1 PUSH2 0x4B74 JUMP JUMPDEST PUSH1 0x40 MLOAD DUP1 SWAP2 SUB SWAP1 REVERT JUMPDEST PUSH1 0x0 PUSH1 0x1 PUSH1 0x0 SWAP1 SLOAD SWAP1 PUSH2 0x100 EXP SWAP1 DIV PUSH20 0xFFFFFFFFFFFFFFFFFFFFFFFFFFFFFFFFFFFFFFFF AND PUSH20 0xFFFFFFFFFFFFFFFFFFFFFFFFFFFFFFFFFFFFFFFF AND PUSH4 0xF23F16E6 DUP9 PUSH1 0xE0 ADD MLOAD PUSH1 0x40 MLOAD DUP3 PUSH4 0xFFFFFFFF AND PUSH1 0xE0 SHL DUP2 MSTORE PUSH1 0x4 ADD PUSH2 0x1544 SWAP2 SWAP1 PUSH2 0x50EE JUMP JUMPDEST PUSH1 0x20 PUSH1 0x40 MLOAD DUP1 DUP4 SUB DUP2 DUP7 DUP1 EXTCODESIZE ISZERO DUP1 ISZERO PUSH2 0x155C JUMPI PUSH1 0x0 DUP1 REVERT JUMPDEST POP GAS STATICCALL ISZERO DUP1 ISZERO PUSH2 0x1570 JUMPI RETURNDATASIZE PUSH1 0x0 DUP1 RETURNDATACOPY RETURNDATASIZE PUSH1 0x0 REVERT JUMPDEST POP POP POP POP PUSH1 0x40 MLOAD RETURNDATASIZE PUSH1 0x1F NOT PUSH1 0x1F DUP3 ADD AND DUP3 ADD DUP1 PUSH1 0x40 MSTORE POP DUP2 ADD SWAP1 PUSH2 0x1594 SWAP2 SWAP1 PUSH2 0x3532 JUMP JUMPDEST SWAP1 POP DUP6 PUSH1 0xE0 ADD MLOAD DUP2 SUB CALLVALUE LT ISZERO PUSH2 0x15DF JUMPI PUSH1 0x40 MLOAD PUSH32 0x8C379A000000000000000000000000000000000000000000000000000000000 DUP2 MSTORE PUSH1 0x4 ADD PUSH2 0x15D6 SWAP1 PUSH2 0x4E74 JUMP JUMPDEST PUSH1 0x40 MLOAD DUP1 SWAP2 SUB SWAP1 REVERT JUMPDEST CALLVALUE DUP7 PUSH1 0xE0 ADD DUP2 DUP2 MLOAD ADD SWAP2 POP DUP2 DUP2 MSTORE POP POP CALLVALUE DUP7 PUSH2 0x120 ADD DUP2 DUP2 MLOAD ADD SWAP2 POP DUP2 DUP2 MSTORE POP POP DUP1 DUP7 PUSH2 0x100 ADD MLOAD LT ISZERO PUSH2 0x16AB JUMPI PUSH1 0x1 DUP7 PUSH1 0x20 ADD SWAP1 PUSH1 0x4 DUP2 GT ISZERO PUSH2 0x161F JUMPI INVALID JUMPDEST SWAP1 DUP2 PUSH1 0x4 DUP2 GT ISZERO PUSH2 0x162C JUMPI INVALID JUMPDEST DUP2 MSTORE POP POP DUP8 DUP8 PUSH1 0xE0 ADD MLOAD PUSH32 0xF6D6CF956A2B24B71568D4F9853779C9642A706044EEA5A3F1AFE2D0961E7BB7 DUP9 PUSH1 0x40 MLOAD PUSH2 0x1665 SWAP2 SWAP1 PUSH2 0x4FD4 JUMP JUMPDEST PUSH1 0x40 MLOAD DUP1 SWAP2 SUB SWAP1 LOG3 DUP8 PUSH32 0x1E1422DDD2C7231F13F1C8BD03FF992CE78A5E18FA363018BF34989F65348CEC PUSH1 0x2 PUSH1 0x40 MLOAD PUSH2 0x169E SWAP2 SWAP1 PUSH2 0x4B35 JUMP JUMPDEST PUSH1 0x40 MLOAD DUP1 SWAP2 SUB SWAP1 LOG2 PUSH2 0x16C7 JUMP JUMPDEST DUP6 PUSH1 0xC0 ADD DUP1 MLOAD DUP1 SWAP2 SWAP1 PUSH1 0x1 ADD DUP2 MSTORE POP POP PUSH2 0x16C6 DUP9 DUP3 DUP10 PUSH2 0x2EF6 JUMP JUMPDEST JUMPDEST POP POP POP POP POP POP POP POP JUMP JUMPDEST PUSH1 0x0 DUP1 SLOAD SWAP1 PUSH2 0x100 EXP SWAP1 DIV PUSH20 0xFFFFFFFFFFFFFFFFFFFFFFFFFFFFFFFFFFFFFFFF AND DUP2 JUMP JUMPDEST PUSH1 0x6 PUSH1 0x20 MSTORE DUP1 PUSH1 0x0 MSTORE PUSH1 0x40 PUSH1 0x0 KECCAK256 PUSH1 0x0 SWAP2 POP SWAP1 POP DUP1 PUSH1 0x0 ADD SLOAD SWAP1 DUP1 PUSH1 0x1 ADD PUSH1 0x0 SWAP1 SLOAD SWAP1 PUSH2 0x100 EXP SWAP1 DIV PUSH1 0xFF AND SWAP1 DUP1 PUSH1 0x2 ADD SLOAD SWAP1 DUP1 PUSH1 0x3 ADD SLOAD SWAP1 DUP1 PUSH1 0x4 ADD SLOAD SWAP1 DUP1 PUSH1 0x5 ADD SLOAD SWAP1 DUP1 PUSH1 0x6 ADD SLOAD SWAP1 DUP1 PUSH1 0x7 ADD SLOAD SWAP1 DUP1 PUSH1 0x8 ADD SLOAD SWAP1 DUP1 PUSH1 0x9 ADD SLOAD SWAP1 DUP1 PUSH1 0xA ADD PUSH1 0x0 SWAP1 SLOAD SWAP1 PUSH2 0x100 EXP SWAP1 DIV PUSH1 0xFF AND SWAP1 POP DUP12 JUMP JUMPDEST PUSH1 0x0 DUP2 PUSH1 0x0 ADD MLOAD DUP3 PUSH1 0x20 ADD MLOAD DUP4 PUSH1 0x40 ADD MLOAD DUP5 PUSH1 0x60 ADD MLOAD DUP6 PUSH1 0x80 ADD MLOAD DUP7 PUSH1 0xA0 ADD MLOAD DUP8 PUSH1 0xC0 ADD MLOAD DUP9 PUSH1 0xE0 ADD MLOAD PUSH1 0x40 MLOAD PUSH1 0x20 ADD PUSH2 0x17AA SWAP9 SWAP8 SWAP7 SWAP6 SWAP5 SWAP4 SWAP3 SWAP2 SWAP1 PUSH2 0x4A52 JUMP JUMPDEST PUSH1 0x40 MLOAD PUSH1 0x20 DUP2 DUP4 SUB SUB DUP2 MSTORE SWAP1 PUSH1 0x40 MSTORE DUP1 MLOAD SWAP1 PUSH1 0x20 ADD KECCAK256 SWAP1 POP SWAP2 SWAP1 POP JUMP JUMPDEST DUP4 DUP4 PUSH2 0x17D2 DUP2 PUSH2 0x1769 JUMP JUMPDEST PUSH1 0x5 PUSH1 0x1 DUP5 SUB DUP2 SLOAD DUP2 LT PUSH2 0x17E2 JUMPI INVALID JUMPDEST SWAP1 PUSH1 0x0 MSTORE PUSH1 0x20 PUSH1 0x0 KECCAK256 ADD SLOAD EQ PUSH2 0x182D JUMPI PUSH1 0x40 MLOAD PUSH32 0x8C379A000000000000000000000000000000000000000000000000000000000 DUP2 MSTORE PUSH1 0x4 ADD PUSH2 0x1824 SWAP1 PUSH2 0x4E54 JUMP JUMPDEST PUSH1 0x40 MLOAD DUP1 SWAP2 SUB SWAP1 REVERT JUMPDEST PUSH1 0x0 PUSH1 0x4 DUP2 GT ISZERO PUSH2 0x183A JUMPI INVALID JUMPDEST DUP6 PUSH1 0xA0 ADD MLOAD PUSH1 0x4 DUP2 GT ISZERO PUSH2 0x184A JUMPI INVALID JUMPDEST EQ PUSH2 0x188A JUMPI PUSH1 0x40 MLOAD PUSH32 0x8C379A000000000000000000000000000000000000000000000000000000000 DUP2 MSTORE PUSH1 0x4 ADD PUSH2 0x1881 SWAP1 PUSH2 0x4DB4 JUMP JUMPDEST PUSH1 0x40 MLOAD DUP1 SWAP2 SUB SWAP1 REVERT JUMPDEST DUP5 PUSH1 0x20 ADD MLOAD PUSH2 0x18CE JUMPI PUSH1 0x40 MLOAD PUSH32 0x8C379A000000000000000000000000000000000000000000000000000000000 DUP2 MSTORE PUSH1 0x4 ADD PUSH2 0x18C5 SWAP1 PUSH2 0x4D34 JUMP JUMPDEST PUSH1 0x40 MLOAD DUP1 SWAP2 SUB SWAP1 REVERT JUMPDEST DUP5 PUSH1 0x0 ADD MLOAD CALLVALUE EQ PUSH2 0x1914 JUMPI PUSH1 0x40 MLOAD PUSH32 0x8C379A000000000000000000000000000000000000000000000000000000000 DUP2 MSTORE PUSH1 0x4 ADD PUSH2 0x190B SWAP1 PUSH2 0x4BB4 JUMP JUMPDEST PUSH1 0x40 MLOAD DUP1 SWAP2 SUB SWAP1 REVERT JUMPDEST PUSH1 0x1 DUP6 PUSH1 0xA0 ADD SWAP1 PUSH1 0x4 DUP2 GT ISZERO PUSH2 0x1926 JUMPI INVALID JUMPDEST SWAP1 DUP2 PUSH1 0x4 DUP2 GT ISZERO PUSH2 0x1933 JUMPI INVALID JUMPDEST DUP2 MSTORE POP POP PUSH1 0x0 DUP6 PUSH1 0x20 ADD SWAP1 ISZERO ISZERO SWAP1 DUP2 ISZERO ISZERO DUP2 MSTORE POP POP CALLER DUP6 PUSH1 0x60 ADD SWAP1 PUSH20 0xFFFFFFFFFFFFFFFFFFFFFFFFFFFFFFFFFFFFFFFF AND SWAP1 DUP2 PUSH20 0xFFFFFFFFFFFFFFFFFFFFFFFFFFFFFFFFFFFFFFFF AND DUP2 MSTORE POP POP TIMESTAMP DUP6 PUSH1 0xC0 ADD DUP2 DUP2 MSTORE POP POP PUSH2 0x1993 DUP6 PUSH2 0x1769 JUMP JUMPDEST PUSH1 0x5 PUSH1 0x1 DUP9 SUB DUP2 SLOAD DUP2 LT PUSH2 0x19A3 JUMPI INVALID JUMPDEST SWAP1 PUSH1 0x0 MSTORE PUSH1 0x20 PUSH1 0x0 KECCAK256 ADD DUP2 SWAP1 SSTORE POP DUP6 PUSH32 0x6F8F67E7442497979A2F58987F7016973B0F39EBDF0EBB1D423FC9B331C80794 DUP7 PUSH1 0x40 MLOAD PUSH2 0x19E1 SWAP2 SWAP1 PUSH2 0x500C JUMP JUMPDEST PUSH1 0x40 MLOAD DUP1 SWAP2 SUB SWAP1 LOG2 DUP6 PUSH32 0x61606860EB6C87306811E2695215385101DAAB53BD6AB4E9F9049AEAD9363C7D DUP6 DUP6 PUSH1 0x40 MLOAD PUSH2 0x1A1B SWAP3 SWAP2 SWAP1 PUSH2 0x4B50 JUMP JUMPDEST PUSH1 0x40 MLOAD DUP1 SWAP2 SUB SWAP1 LOG2 POP POP POP POP POP POP JUMP JUMPDEST DUP3 DUP2 PUSH2 0x1A36 DUP2 PUSH2 0x1769 JUMP JUMPDEST PUSH1 0x5 PUSH1 0x1 DUP5 SUB DUP2 SLOAD DUP2 LT PUSH2 0x1A46 JUMPI INVALID JUMPDEST SWAP1 PUSH1 0x0 MSTORE PUSH1 0x20 PUSH1 0x0 KECCAK256 ADD SLOAD EQ PUSH2 0x1A91 JUMPI PUSH1 0x40 MLOAD PUSH32 0x8C379A000000000000000000000000000000000000000000000000000000000 DUP2 MSTORE PUSH1 0x4 ADD PUSH2 0x1A88 SWAP1 PUSH2 0x4E54 JUMP JUMPDEST PUSH1 0x40 MLOAD DUP1 SWAP2 SUB SWAP1 REVERT JUMPDEST PUSH1 0x0 PUSH1 0x6 PUSH1 0x0 DUP7 DUP2 MSTORE PUSH1 0x20 ADD SWAP1 DUP2 MSTORE PUSH1 0x20 ADD PUSH1 0x0 KECCAK256 SWAP1 POP PUSH1 0x4 DUP1 DUP2 GT ISZERO PUSH2 0x1AB4 JUMPI INVALID JUMPDEST DUP2 PUSH1 0x1 ADD PUSH1 0x0 SWAP1 SLOAD SWAP1 PUSH2 0x100 EXP SWAP1 DIV PUSH1 0xFF AND PUSH1 0x4 DUP2 GT ISZERO PUSH2 0x1AD1 JUMPI INVALID JUMPDEST EQ PUSH2 0x1B11 JUMPI PUSH1 0x40 MLOAD PUSH32 0x8C379A000000000000000000000000000000000000000000000000000000000 DUP2 MSTORE PUSH1 0x4 ADD PUSH2 0x1B08 SWAP1 PUSH2 0x4D14 JUMP JUMPDEST PUSH1 0x40 MLOAD DUP1 SWAP2 SUB SWAP1 REVERT JUMPDEST PUSH1 0x0 DUP5 PUSH1 0x0 ADD MLOAD SWAP1 POP PUSH1 0x1 PUSH1 0x2 DUP2 GT ISZERO PUSH2 0x1B27 JUMPI INVALID JUMPDEST DUP3 PUSH1 0xA ADD PUSH1 0x0 SWAP1 SLOAD SWAP1 PUSH2 0x100 EXP SWAP1 DIV PUSH1 0xFF AND PUSH1 0x2 DUP2 GT ISZERO PUSH2 0x1B44 JUMPI INVALID JUMPDEST EQ ISZERO PUSH2 0x1BA8 JUMPI DUP2 PUSH1 0x3 ADD SLOAD DUP2 ADD SWAP1 POP DUP2 PUSH1 0x7 ADD SLOAD DUP2 ADD SWAP1 POP DUP5 PUSH1 0x60 ADD MLOAD PUSH20 0xFFFFFFFFFFFFFFFFFFFFFFFFFFFFFFFFFFFFFFFF AND PUSH2 0x8FC DUP3 SWAP1 DUP2 ISZERO MUL SWAP1 PUSH1 0x40 MLOAD PUSH1 0x0 PUSH1 0x40 MLOAD DUP1 DUP4 SUB DUP2 DUP6 DUP9 DUP9 CALL SWAP4 POP POP POP POP ISZERO DUP1 ISZERO PUSH2 0x1BA6 JUMPI RETURNDATASIZE PUSH1 0x0 DUP1 RETURNDATACOPY RETURNDATASIZE PUSH1 0x0 REVERT JUMPDEST POP JUMPDEST PUSH1 0x2 DUP1 DUP2 GT ISZERO PUSH2 0x1BB4 JUMPI INVALID JUMPDEST DUP3 PUSH1 0xA ADD PUSH1 0x0 SWAP1 SLOAD SWAP1 PUSH2 0x100 EXP SWAP1 DIV PUSH1 0xFF AND PUSH1 0x2 DUP2 GT ISZERO PUSH2 0x1BD1 JUMPI INVALID JUMPDEST EQ ISZERO PUSH2 0x1C35 JUMPI DUP2 PUSH1 0x4 ADD SLOAD DUP2 ADD SWAP1 POP DUP2 PUSH1 0x8 ADD SLOAD DUP2 ADD SWAP1 POP DUP5 PUSH1 0x40 ADD MLOAD PUSH20 0xFFFFFFFFFFFFFFFFFFFFFFFFFFFFFFFFFFFFFFFF AND PUSH2 0x8FC DUP3 SWAP1 DUP2 ISZERO MUL SWAP1 PUSH1 0x40 MLOAD PUSH1 0x0 PUSH1 0x40 MLOAD DUP1 DUP4 SUB DUP2 DUP6 DUP9 DUP9 CALL SWAP4 POP POP POP POP ISZERO DUP1 ISZERO PUSH2 0x1C33 JUMPI RETURNDATASIZE PUSH1 0x0 DUP1 RETURNDATACOPY RETURNDATASIZE PUSH1 0x0 REVERT JUMPDEST POP JUMPDEST PUSH1 0x0 PUSH1 0x2 DUP2 GT ISZERO PUSH2 0x1C42 JUMPI INVALID JUMPDEST DUP3 PUSH1 0xA ADD PUSH1 0x0 SWAP1 SLOAD SWAP1 PUSH2 0x100 EXP SWAP1 DIV PUSH1 0xFF AND PUSH1 0x2 DUP2 GT ISZERO PUSH2 0x1C5F JUMPI INVALID JUMPDEST EQ ISZERO PUSH2 0x1D22 JUMPI DUP2 PUSH1 0x4 ADD SLOAD DUP2 ADD SWAP1 POP DUP2 PUSH1 0x8 ADD SLOAD DUP2 ADD SWAP1 POP DUP5 PUSH1 0x40 ADD MLOAD PUSH20 0xFFFFFFFFFFFFFFFFFFFFFFFFFFFFFFFFFFFFFFFF AND PUSH2 0x8FC PUSH1 0x2 DUP4 DUP2 PUSH2 0x1C9F JUMPI INVALID JUMPDEST DIV SWAP1 DUP2 ISZERO MUL SWAP1 PUSH1 0x40 MLOAD PUSH1 0x0 PUSH1 0x40 MLOAD DUP1 DUP4 SUB DUP2 DUP6 DUP9 DUP9 CALL SWAP4 POP POP POP POP ISZERO DUP1 ISZERO PUSH2 0x1CCB JUMPI RETURNDATASIZE PUSH1 0x0 DUP1 RETURNDATACOPY RETURNDATASIZE PUSH1 0x0 REVERT JUMPDEST POP DUP5 PUSH1 0x60 ADD MLOAD PUSH20 0xFFFFFFFFFFFFFFFFFFFFFFFFFFFFFFFFFFFFFFFF AND PUSH2 0x8FC PUSH1 0x2 DUP4 DUP2 PUSH2 0x1CF4 JUMPI INVALID JUMPDEST DIV SWAP1 DUP2 ISZERO MUL SWAP1 PUSH1 0x40 MLOAD PUSH1 0x0 PUSH1 0x40 MLOAD DUP1 DUP4 SUB DUP2 DUP6 DUP9 DUP9 CALL SWAP4 POP POP POP POP ISZERO DUP1 ISZERO PUSH2 0x1D20 JUMPI RETURNDATASIZE PUSH1 0x0 DUP1 RETURNDATACOPY RETURNDATASIZE PUSH1 0x0 REVERT JUMPDEST POP JUMPDEST PUSH1 0x4 DUP6 PUSH1 0xA0 ADD SWAP1 PUSH1 0x4 DUP2 GT ISZERO PUSH2 0x1D34 JUMPI INVALID JUMPDEST SWAP1 DUP2 PUSH1 0x4 DUP2 GT ISZERO PUSH2 0x1D41 JUMPI INVALID JUMPDEST DUP2 MSTORE POP POP PUSH2 0x1D4E DUP6 PUSH2 0x1769 JUMP JUMPDEST PUSH1 0x5 PUSH1 0x1 DUP10 SUB DUP2 SLOAD DUP2 LT PUSH2 0x1D5E JUMPI INVALID JUMPDEST SWAP1 PUSH1 0x0 MSTORE PUSH1 0x20 PUSH1 0x0 KECCAK256 ADD DUP2 SWAP1 SSTORE POP DUP7 PUSH32 0x3A6CED61FF5679745DC1EAA70AE1F120225C48E2E17C870433D698494957FC98 DUP7 PUSH1 0x40 MLOAD PUSH2 0x1D9C SWAP2 SWAP1 PUSH2 0x500C JUMP JUMPDEST PUSH1 0x40 MLOAD DUP1 SWAP2 SUB SWAP1 LOG2 POP POP POP POP POP POP POP JUMP JUMPDEST PUSH1 0x0 DUP1 SLOAD SWAP1 PUSH2 0x100 EXP SWAP1 DIV PUSH20 0xFFFFFFFFFFFFFFFFFFFFFFFFFFFFFFFFFFFFFFFF AND PUSH20 0xFFFFFFFFFFFFFFFFFFFFFFFFFFFFFFFFFFFFFFFF AND CALLER PUSH20 0xFFFFFFFFFFFFFFFFFFFFFFFFFFFFFFFFFFFFFFFF AND EQ PUSH2 0x1E3B JUMPI PUSH1 0x40 MLOAD PUSH32 0x8C379A000000000000000000000000000000000000000000000000000000000 DUP2 MSTORE PUSH1 0x4 ADD PUSH2 0x1E32 SWAP1 PUSH2 0x4E34 JUMP JUMPDEST PUSH1 0x40 MLOAD DUP1 SWAP2 SUB SWAP1 REVERT JUMPDEST DUP1 PUSH1 0x3 DUP2 SWAP1 SSTORE POP POP JUMP JUMPDEST PUSH1 0x5 DUP2 DUP2 SLOAD DUP2 LT PUSH2 0x1E52 JUMPI INVALID JUMPDEST SWAP1 PUSH1 0x0 MSTORE PUSH1 0x20 PUSH1 0x0 KECCAK256 ADD PUSH1 0x0 SWAP2 POP SWAP1 POP SLOAD DUP2 JUMP JUMPDEST PUSH1 0x0 DUP1 SLOAD SWAP1 PUSH2 0x100 EXP SWAP1 DIV PUSH20 0xFFFFFFFFFFFFFFFFFFFFFFFFFFFFFFFFFFFFFFFF AND PUSH20 0xFFFFFFFFFFFFFFFFFFFFFFFFFFFFFFFFFFFFFFFF AND CALLER PUSH20 0xFFFFFFFFFFFFFFFFFFFFFFFFFFFFFFFFFFFFFFFF AND EQ PUSH2 0x1EF4 JUMPI PUSH1 0x40 MLOAD PUSH32 0x8C379A000000000000000000000000000000000000000000000000000000000 DUP2 MSTORE PUSH1 0x4 ADD PUSH2 0x1EEB SWAP1 PUSH2 0x4DF4 JUMP JUMPDEST PUSH1 0x40 MLOAD DUP1 SWAP2 SUB SWAP1 REVERT JUMPDEST DUP1 PUSH1 0x2 DUP2 SWAP1 SSTORE POP POP JUMP JUMPDEST DUP2 DUP2 PUSH2 0x1F09 DUP2 PUSH2 0x1769 JUMP JUMPDEST PUSH1 0x5 PUSH1 0x1 DUP5 SUB DUP2 SLOAD DUP2 LT PUSH2 0x1F19 JUMPI INVALID JUMPDEST SWAP1 PUSH1 0x0 MSTORE PUSH1 0x20 PUSH1 0x0 KECCAK256 ADD SLOAD EQ PUSH2 0x1F64 JUMPI PUSH1 0x40 MLOAD PUSH32 0x8C379A000000000000000000000000000000000000000000000000000000000 DUP2 MSTORE PUSH1 0x4 ADD PUSH2 0x1F5B SWAP1 PUSH2 0x4E54 JUMP JUMPDEST PUSH1 0x40 MLOAD DUP1 SWAP2 SUB SWAP1 REVERT JUMPDEST PUSH1 0x0 PUSH1 0x6 PUSH1 0x0 DUP6 PUSH1 0xE0 ADD MLOAD DUP2 MSTORE PUSH1 0x20 ADD SWAP1 DUP2 MSTORE PUSH1 0x20 ADD PUSH1 0x0 KECCAK256 SWAP1 POP DUP4 PUSH1 0x60 ADD MLOAD PUSH20 0xFFFFFFFFFFFFFFFFFFFFFFFFFFFFFFFFFFFFFFFF AND CALLER PUSH20 0xFFFFFFFFFFFFFFFFFFFFFFFFFFFFFFFFFFFFFFFF AND EQ PUSH2 0x1FF1 JUMPI PUSH1 0x40 MLOAD PUSH32 0x8C379A000000000000000000000000000000000000000000000000000000000 DUP2 MSTORE PUSH1 0x4 ADD PUSH2 0x1FE8 SWAP1 PUSH2 0x4E94 JUMP JUMPDEST PUSH1 0x40 MLOAD DUP1 SWAP2 SUB SWAP1 REVERT JUMPDEST PUSH1 0x2 PUSH1 0x4 DUP2 GT ISZERO PUSH2 0x1FFE JUMPI INVALID JUMPDEST DUP5 PUSH1 0xA0 ADD MLOAD PUSH1 0x4 DUP2 GT ISZERO PUSH2 0x200E JUMPI INVALID JUMPDEST LT ISZERO PUSH2 0x204F JUMPI PUSH1 0x40 MLOAD PUSH32 0x8C379A000000000000000000000000000000000000000000000000000000000 DUP2 MSTORE PUSH1 0x4 ADD PUSH2 0x2046 SWAP1 PUSH2 0x4C54 JUMP JUMPDEST PUSH1 0x40 MLOAD DUP1 SWAP2 SUB SWAP1 REVERT JUMPDEST DUP1 PUSH1 0x2 ADD SLOAD TIMESTAMP GT PUSH2 0x2095 JUMPI PUSH1 0x40 MLOAD PUSH32 0x8C379A000000000000000000000000000000000000000000000000000000000 DUP2 MSTORE PUSH1 0x4 ADD PUSH2 0x208C SWAP1 PUSH2 0x4C74 JUMP JUMPDEST PUSH1 0x40 MLOAD DUP1 SWAP2 SUB SWAP1 REVERT JUMPDEST PUSH1 0x0 DUP2 PUSH1 0x6 ADD SLOAD EQ PUSH2 0x21A7 JUMPI PUSH1 0x0 DUP1 PUSH1 0x1 PUSH1 0x0 SWAP1 SLOAD SWAP1 PUSH2 0x100 EXP SWAP1 DIV PUSH20 0xFFFFFFFFFFFFFFFFFFFFFFFFFFFFFFFFFFFFFFFF AND PUSH20 0xFFFFFFFFFFFFFFFFFFFFFFFFFFFFFFFFFFFFFFFF AND PUSH4 0xAFE15CFB DUP8 PUSH1 0xE0 ADD MLOAD PUSH1 0x40 MLOAD DUP3 PUSH4 0xFFFFFFFF AND PUSH1 0xE0 SHL DUP2 MSTORE PUSH1 0x4 ADD PUSH2 0x2103 SWAP2 SWAP1 PUSH2 0x5028 JUMP JUMPDEST PUSH1 0x40 DUP1 MLOAD DUP1 DUP4 SUB DUP2 DUP7 DUP1 EXTCODESIZE ISZERO DUP1 ISZERO PUSH2 0x211A JUMPI PUSH1 0x0 DUP1 REVERT JUMPDEST POP GAS STATICCALL ISZERO DUP1 ISZERO PUSH2 0x212E JUMPI RETURNDATASIZE PUSH1 0x0 DUP1 RETURNDATACOPY RETURNDATASIZE PUSH1 0x0 REVERT JUMPDEST POP POP POP POP PUSH1 0x40 MLOAD RETURNDATASIZE PUSH1 0x1F NOT PUSH1 0x1F DUP3 ADD AND DUP3 ADD DUP1 PUSH1 0x40 MSTORE POP DUP2 ADD SWAP1 PUSH2 0x2152 SWAP2 SWAP1 PUSH2 0x36E4 JUMP JUMPDEST SWAP2 POP SWAP2 POP DUP2 TIMESTAMP LT ISZERO DUP1 ISZERO PUSH2 0x2165 JUMPI POP DUP1 TIMESTAMP GT JUMPDEST PUSH2 0x21A4 JUMPI PUSH1 0x40 MLOAD PUSH32 0x8C379A000000000000000000000000000000000000000000000000000000000 DUP2 MSTORE PUSH1 0x4 ADD PUSH2 0x219B SWAP1 PUSH2 0x4C94 JUMP JUMPDEST PUSH1 0x40 MLOAD DUP1 SWAP2 SUB SWAP1 REVERT JUMPDEST POP POP JUMPDEST PUSH1 0x4 DUP2 PUSH1 0x1 ADD PUSH1 0x0 PUSH2 0x100 EXP DUP2 SLOAD DUP2 PUSH1 0xFF MUL NOT AND SWAP1 DUP4 PUSH1 0x4 DUP2 GT ISZERO PUSH2 0x21C8 JUMPI INVALID JUMPDEST MUL OR SWAP1 SSTORE POP PUSH1 0x0 DUP5 PUSH1 0x0 ADD MLOAD SWAP1 POP DUP2 PUSH1 0x7 ADD SLOAD DUP3 PUSH1 0x3 ADD SLOAD ADD DUP2 ADD SWAP1 POP DUP6 PUSH32 0x3A6CED61FF5679745DC1EAA70AE1F120225C48E2E17C870433D698494957FC98 DUP7 PUSH1 0x40 MLOAD PUSH2 0x2215 SWAP2 SWAP1 PUSH2 0x500C JUMP JUMPDEST PUSH1 0x40 MLOAD DUP1 SWAP2 SUB SWAP1 LOG2 POP POP POP POP POP POP JUMP JUMPDEST DUP2 PUSH1 0x40 ADD MLOAD PUSH20 0xFFFFFFFFFFFFFFFFFFFFFFFFFFFFFFFFFFFFFFFF AND CALLER PUSH20 0xFFFFFFFFFFFFFFFFFFFFFFFFFFFFFFFFFFFFFFFF AND EQ PUSH2 0x2297 JUMPI PUSH1 0x40 MLOAD PUSH32 0x8C379A000000000000000000000000000000000000000000000000000000000 DUP2 MSTORE PUSH1 0x4 ADD PUSH2 0x228E SWAP1 PUSH2 0x4F74 JUMP JUMPDEST PUSH1 0x40 MLOAD DUP1 SWAP2 SUB SWAP1 REVERT JUMPDEST PUSH1 0x0 PUSH1 0x4 DUP2 GT ISZERO PUSH2 0x22A4 JUMPI INVALID JUMPDEST DUP3 PUSH1 0xA0 ADD MLOAD PUSH1 0x4 DUP2 GT ISZERO PUSH2 0x22B4 JUMPI INVALID JUMPDEST EQ PUSH2 0x22F4 JUMPI PUSH1 0x40 MLOAD PUSH32 0x8C379A000000000000000000000000000000000000000000000000000000000 DUP2 MSTORE PUSH1 0x4 ADD PUSH2 0x22EB SWAP1 PUSH2 0x4EF4 JUMP JUMPDEST PUSH1 0x40 MLOAD DUP1 SWAP2 SUB SWAP1 REVERT JUMPDEST DUP1 DUP3 PUSH1 0x0 ADD DUP2 DUP2 MSTORE POP POP PUSH2 0x2307 DUP3 PUSH2 0x1769 JUMP JUMPDEST PUSH1 0x5 PUSH1 0x1 DUP6 SUB DUP2 SLOAD DUP2 LT PUSH2 0x2317 JUMPI INVALID JUMPDEST SWAP1 PUSH1 0x0 MSTORE PUSH1 0x20 PUSH1 0x0 KECCAK256 ADD DUP2 SWAP1 SSTORE POP DUP3 PUSH32 0x6F8F67E7442497979A2F58987F7016973B0F39EBDF0EBB1D423FC9B331C80794 DUP4 PUSH1 0x40 MLOAD PUSH2 0x2355 SWAP2 SWAP1 PUSH2 0x500C JUMP JUMPDEST PUSH1 0x40 MLOAD DUP1 SWAP2 SUB SWAP1 LOG2 POP POP POP JUMP JUMPDEST DUP2 DUP2 PUSH2 0x236D DUP2 PUSH2 0x1769 JUMP JUMPDEST PUSH1 0x5 PUSH1 0x1 DUP5 SUB DUP2 SLOAD DUP2 LT PUSH2 0x237D JUMPI INVALID JUMPDEST SWAP1 PUSH1 0x0 MSTORE PUSH1 0x20 PUSH1 0x0 KECCAK256 ADD SLOAD EQ PUSH2 0x23C8 JUMPI PUSH1 0x40 MLOAD PUSH32 0x8C379A000000000000000000000000000000000000000000000000000000000 DUP2 MSTORE PUSH1 0x4 ADD PUSH2 0x23BF SWAP1 PUSH2 0x4E54 JUMP JUMPDEST PUSH1 0x40 MLOAD DUP1 SWAP2 SUB SWAP1 REVERT JUMPDEST DUP3 PUSH1 0x60 ADD MLOAD PUSH20 0xFFFFFFFFFFFFFFFFFFFFFFFFFFFFFFFFFFFFFFFF AND CALLER PUSH20 0xFFFFFFFFFFFFFFFFFFFFFFFFFFFFFFFFFFFFFFFF AND EQ PUSH2 0x243A JUMPI PUSH1 0x40 MLOAD PUSH32 0x8C379A000000000000000000000000000000000000000000000000000000000 DUP2 MSTORE PUSH1 0x4 ADD PUSH2 0x2431 SWAP1 PUSH2 0x4D94 JUMP JUMPDEST PUSH1 0x40 MLOAD DUP1 SWAP2 SUB SWAP1 REVERT JUMPDEST PUSH1 0x3 SLOAD DUP4 PUSH1 0xC0 ADD MLOAD TIMESTAMP SUB LT PUSH2 0x2484 JUMPI PUSH1 0x40 MLOAD PUSH32 0x8C379A000000000000000000000000000000000000000000000000000000000 DUP2 MSTORE PUSH1 0x4 ADD PUSH2 0x247B SWAP1 PUSH2 0x4D74 JUMP JUMPDEST PUSH1 0x40 MLOAD DUP1 SWAP2 SUB SWAP1 REVERT JUMPDEST PUSH1 0x1 PUSH1 0x4 DUP2 GT ISZERO PUSH2 0x2491 JUMPI INVALID JUMPDEST DUP4 PUSH1 0xA0 ADD MLOAD PUSH1 0x4 DUP2 GT ISZERO PUSH2 0x24A1 JUMPI INVALID JUMPDEST EQ PUSH2 0x24E1 JUMPI PUSH1 0x40 MLOAD PUSH32 0x8C379A000000000000000000000000000000000000000000000000000000000 DUP2 MSTORE PUSH1 0x4 ADD PUSH2 0x24D8 SWAP1 PUSH2 0x4CF4 JUMP JUMPDEST PUSH1 0x40 MLOAD DUP1 SWAP2 SUB SWAP1 REVERT JUMPDEST PUSH1 0x0 PUSH1 0x1 PUSH1 0x0 SWAP1 SLOAD SWAP1 PUSH2 0x100 EXP SWAP1 DIV PUSH20 0xFFFFFFFFFFFFFFFFFFFFFFFFFFFFFFFFFFFFFFFF AND PUSH20 0xFFFFFFFFFFFFFFFFFFFFFFFFFFFFFFFFFFFFFFFF AND PUSH4 0xF7434EA9 PUSH1 0x40 MLOAD DUP2 PUSH4 0xFFFFFFFF AND PUSH1 0xE0 SHL DUP2 MSTORE PUSH1 0x4 ADD PUSH2 0x253C SWAP1 PUSH2 0x4F14 JUMP JUMPDEST PUSH1 0x20 PUSH1 0x40 MLOAD DUP1 DUP4 SUB DUP2 DUP7 DUP1 EXTCODESIZE ISZERO DUP1 ISZERO PUSH2 0x2554 JUMPI PUSH1 0x0 DUP1 REVERT JUMPDEST POP GAS STATICCALL ISZERO DUP1 ISZERO PUSH2 0x2568 JUMPI RETURNDATASIZE PUSH1 0x0 DUP1 RETURNDATACOPY RETURNDATASIZE PUSH1 0x0 REVERT JUMPDEST POP POP POP POP PUSH1 0x40 MLOAD RETURNDATASIZE PUSH1 0x1F NOT PUSH1 0x1F DUP3 ADD AND DUP3 ADD DUP1 PUSH1 0x40 MSTORE POP DUP2 ADD SWAP1 PUSH2 0x258C SWAP2 SWAP1 PUSH2 0x3532 JUMP JUMPDEST SWAP1 POP DUP1 CALLVALUE LT ISZERO PUSH2 0x25D1 JUMPI PUSH1 0x40 MLOAD PUSH32 0x8C379A000000000000000000000000000000000000000000000000000000000 DUP2 MSTORE PUSH1 0x4 ADD PUSH2 0x25C8 SWAP1 PUSH2 0x4C14 JUMP JUMPDEST PUSH1 0x40 MLOAD DUP1 SWAP2 SUB SWAP1 REVERT JUMPDEST PUSH2 0x25D9 PUSH2 0x30F2 JUMP JUMPDEST PUSH1 0x40 MLOAD DUP1 PUSH2 0x160 ADD PUSH1 0x40 MSTORE DUP1 DUP8 DUP2 MSTORE PUSH1 0x20 ADD PUSH1 0x1 PUSH1 0x4 DUP2 GT ISZERO PUSH2 0x25F8 JUMPI INVALID JUMPDEST DUP2 MSTORE PUSH1 0x20 ADD PUSH1 0x2 SLOAD TIMESTAMP ADD DUP2 MSTORE PUSH1 0x20 ADD CALLVALUE DUP2 MSTORE PUSH1 0x20 ADD PUSH1 0x0 DUP2 MSTORE PUSH1 0x20 ADD CALLVALUE DUP2 MSTORE PUSH1 0x20 ADD PUSH1 0x0 DUP2 MSTORE PUSH1 0x20 ADD PUSH1 0x0 DUP2 MSTORE PUSH1 0x20 ADD PUSH1 0x0 DUP2 MSTORE PUSH1 0x20 ADD PUSH1 0x0 DUP2 MSTORE PUSH1 0x20 ADD PUSH1 0x0 PUSH1 0x2 DUP2 GT ISZERO PUSH2 0x2643 JUMPI INVALID JUMPDEST DUP2 MSTORE POP SWAP1 POP PUSH1 0x2 DUP6 PUSH1 0xA0 ADD SWAP1 PUSH1 0x4 DUP2 GT ISZERO PUSH2 0x265A JUMPI INVALID JUMPDEST SWAP1 DUP2 PUSH1 0x4 DUP2 GT ISZERO PUSH2 0x2667 JUMPI INVALID JUMPDEST DUP2 MSTORE POP POP PUSH2 0x2674 DUP6 PUSH2 0x1769 JUMP JUMPDEST PUSH1 0x5 PUSH1 0x1 DUP9 SUB DUP2 SLOAD DUP2 LT PUSH2 0x2684 JUMPI INVALID JUMPDEST SWAP1 PUSH1 0x0 MSTORE PUSH1 0x20 PUSH1 0x0 KECCAK256 ADD DUP2 SWAP1 SSTORE POP PUSH1 0x0 DUP7 PUSH32 0x6F8F67E7442497979A2F58987F7016973B0F39EBDF0EBB1D423FC9B331C80794 DUP8 PUSH1 0x40 MLOAD PUSH2 0x26C4 SWAP2 SWAP1 PUSH2 0x500C JUMP JUMPDEST PUSH1 0x40 MLOAD DUP1 SWAP2 SUB SWAP1 LOG2 DUP7 DUP2 PUSH32 0xF6D6CF956A2B24B71568D4F9853779C9642A706044EEA5A3F1AFE2D0961E7BB7 DUP5 PUSH1 0x40 MLOAD PUSH2 0x26FD SWAP2 SWAP1 PUSH2 0x4FD4 JUMP JUMPDEST PUSH1 0x40 MLOAD DUP1 SWAP2 SUB SWAP1 LOG3 DUP7 PUSH32 0x7669E65111A702C7B74130E28ABAA2E072E1693A2448B962C02BA59CDD88C426 PUSH1 0x2 PUSH1 0x40 MLOAD PUSH2 0x2736 SWAP2 SWAP1 PUSH2 0x4B35 JUMP JUMPDEST PUSH1 0x40 MLOAD DUP1 SWAP2 SUB SWAP1 LOG2 POP POP POP POP POP POP POP JUMP JUMPDEST DUP3 DUP3 PUSH2 0x2752 DUP2 PUSH2 0x1769 JUMP JUMPDEST PUSH1 0x5 PUSH1 0x1 DUP5 SUB DUP2 SLOAD DUP2 LT PUSH2 0x2762 JUMPI INVALID JUMPDEST SWAP1 PUSH1 0x0 MSTORE PUSH1 0x20 PUSH1 0x0 KECCAK256 ADD SLOAD EQ PUSH2 0x27AD JUMPI PUSH1 0x40 MLOAD PUSH32 0x8C379A000000000000000000000000000000000000000000000000000000000 DUP2 MSTORE PUSH1 0x4 ADD PUSH2 0x27A4 SWAP1 PUSH2 0x4E54 JUMP JUMPDEST PUSH1 0x40 MLOAD DUP1 SWAP2 SUB SWAP1 REVERT JUMPDEST PUSH1 0x2 PUSH1 0x4 DUP2 GT ISZERO PUSH2 0x27BA JUMPI INVALID JUMPDEST DUP5 PUSH1 0xA0 ADD MLOAD PUSH1 0x4 DUP2 GT ISZERO PUSH2 0x27CA JUMPI INVALID JUMPDEST LT ISZERO PUSH2 0x280B JUMPI PUSH1 0x40 MLOAD PUSH32 0x8C379A000000000000000000000000000000000000000000000000000000000 DUP2 MSTORE PUSH1 0x4 ADD PUSH2 0x2802 SWAP1 PUSH2 0x4BD4 JUMP JUMPDEST PUSH1 0x40 MLOAD DUP1 SWAP2 SUB SWAP1 REVERT JUMPDEST PUSH1 0x0 DUP1 PUSH1 0x1 PUSH1 0x0 SWAP1 SLOAD SWAP1 PUSH2 0x100 EXP SWAP1 DIV PUSH20 0xFFFFFFFFFFFFFFFFFFFFFFFFFFFFFFFFFFFFFFFF AND PUSH20 0xFFFFFFFFFFFFFFFFFFFFFFFFFFFFFFFFFFFFFFFF AND PUSH4 0xAFE15CFB DUP8 PUSH1 0xE0 ADD MLOAD PUSH1 0x40 MLOAD DUP3 PUSH4 0xFFFFFFFF AND PUSH1 0xE0 SHL DUP2 MSTORE PUSH1 0x4 ADD PUSH2 0x286D SWAP2 SWAP1 PUSH2 0x5028 JUMP JUMPDEST PUSH1 0x40 DUP1 MLOAD DUP1 DUP4 SUB DUP2 DUP7 DUP1 EXTCODESIZE ISZERO DUP1 ISZERO PUSH2 0x2884 JUMPI PUSH1 0x0 DUP1 REVERT JUMPDEST POP GAS STATICCALL ISZERO DUP1 ISZERO PUSH2 0x2898 JUMPI RETURNDATASIZE PUSH1 0x0 DUP1 RETURNDATACOPY RETURNDATASIZE PUSH1 0x0 REVERT JUMPDEST POP POP POP POP PUSH1 0x40 MLOAD RETURNDATASIZE PUSH1 0x1F NOT PUSH1 0x1F DUP3 ADD AND DUP3 ADD DUP1 PUSH1 0x40 MSTORE POP DUP2 ADD SWAP1 PUSH2 0x28BC SWAP2 SWAP1 PUSH2 0x36E4 JUMP JUMPDEST SWAP2 POP SWAP2 POP DUP2 TIMESTAMP LT ISZERO DUP1 ISZERO PUSH2 0x28CF JUMPI POP DUP1 TIMESTAMP LT JUMPDEST PUSH2 0x290E JUMPI PUSH1 0x40 MLOAD PUSH32 0x8C379A000000000000000000000000000000000000000000000000000000000 DUP2 MSTORE PUSH1 0x4 ADD PUSH2 0x2905 SWAP1 PUSH2 0x4B74 JUMP JUMPDEST PUSH1 0x40 MLOAD DUP1 SWAP2 SUB SWAP1 REVERT JUMPDEST PUSH1 0x0 PUSH1 0x1 PUSH1 0x0 SWAP1 SLOAD SWAP1 PUSH2 0x100 EXP SWAP1 DIV PUSH20 0xFFFFFFFFFFFFFFFFFFFFFFFFFFFFFFFFFFFFFFFF AND PUSH20 0xFFFFFFFFFFFFFFFFFFFFFFFFFFFFFFFFFFFFFFFF AND PUSH4 0xF23F16E6 DUP9 PUSH1 0xE0 ADD MLOAD PUSH1 0x40 MLOAD DUP3 PUSH4 0xFFFFFFFF AND PUSH1 0xE0 SHL DUP2 MSTORE PUSH1 0x4 ADD PUSH2 0x296F SWAP2 SWAP1 PUSH2 0x50EE JUMP JUMPDEST PUSH1 0x20 PUSH1 0x40 MLOAD DUP1 DUP4 SUB DUP2 DUP7 DUP1 EXTCODESIZE ISZERO DUP1 ISZERO PUSH2 0x2987 JUMPI PUSH1 0x0 DUP1 REVERT JUMPDEST POP GAS STATICCALL ISZERO DUP1 ISZERO PUSH2 0x299B JUMPI RETURNDATASIZE PUSH1 0x0 DUP1 RETURNDATACOPY RETURNDATASIZE PUSH1 0x0 REVERT JUMPDEST POP POP POP POP PUSH1 0x40 MLOAD RETURNDATASIZE PUSH1 0x1F NOT PUSH1 0x1F DUP3 ADD AND DUP3 ADD DUP1 PUSH1 0x40 MSTORE POP DUP2 ADD SWAP1 PUSH2 0x29BF SWAP2 SWAP1 PUSH2 0x3532 JUMP JUMPDEST SWAP1 POP DUP6 PUSH2 0x100 ADD MLOAD DUP2 SUB CALLVALUE LT ISZERO PUSH2 0x2A0B JUMPI PUSH1 0x40 MLOAD PUSH32 0x8C379A000000000000000000000000000000000000000000000000000000000 DUP2 MSTORE PUSH1 0x4 ADD PUSH2 0x2A02 SWAP1 PUSH2 0x4E74 JUMP JUMPDEST PUSH1 0x40 MLOAD DUP1 SWAP2 SUB SWAP1 REVERT JUMPDEST CALLVALUE DUP7 PUSH2 0x100 ADD DUP2 DUP2 MLOAD ADD SWAP2 POP DUP2 DUP2 MSTORE POP POP CALLVALUE DUP7 PUSH2 0x120 ADD DUP2 DUP2 MLOAD ADD SWAP2 POP DUP2 DUP2 MSTORE POP POP DUP1 DUP7 PUSH1 0xE0 ADD MLOAD LT ISZERO PUSH2 0x2AD7 JUMPI PUSH1 0x2 DUP7 PUSH1 0x20 ADD SWAP1 PUSH1 0x4 DUP2 GT ISZERO PUSH2 0x2A4B JUMPI INVALID JUMPDEST SWAP1 DUP2 PUSH1 0x4 DUP2 GT ISZERO PUSH2 0x2A58 JUMPI INVALID JUMPDEST DUP2 MSTORE POP POP DUP8 DUP8 PUSH1 0xE0 ADD MLOAD PUSH32 0xF6D6CF956A2B24B71568D4F9853779C9642A706044EEA5A3F1AFE2D0961E7BB7 DUP9 PUSH1 0x40 MLOAD PUSH2 0x2A91 SWAP2 SWAP1 PUSH2 0x4FD4 JUMP JUMPDEST PUSH1 0x40 MLOAD DUP1 SWAP2 SUB SWAP1 LOG3 DUP8 PUSH32 0x1E1422DDD2C7231F13F1C8BD03FF992CE78A5E18FA363018BF34989F65348CEC PUSH1 0x1 PUSH1 0x40 MLOAD PUSH2 0x2ACA SWAP2 SWAP1 PUSH2 0x4B35 JUMP JUMPDEST PUSH1 0x40 MLOAD DUP1 SWAP2 SUB SWAP1 LOG2 PUSH2 0x2AF3 JUMP JUMPDEST DUP6 PUSH1 0xC0 ADD DUP1 MLOAD DUP1 SWAP2 SWAP1 PUSH1 0x1 ADD DUP2 MSTORE POP POP PUSH2 0x2AF2 DUP9 DUP3 DUP10 PUSH2 0x2EF6 JUMP JUMPDEST JUMPDEST POP POP POP POP POP POP POP POP JUMP JUMPDEST PUSH2 0x2B05 PUSH2 0x3162 JUMP JUMPDEST PUSH1 0x40 MLOAD DUP1 PUSH2 0x100 ADD PUSH1 0x40 MSTORE DUP1 DUP4 DUP2 MSTORE PUSH1 0x20 ADD PUSH1 0x1 ISZERO ISZERO DUP2 MSTORE PUSH1 0x20 ADD CALLER PUSH20 0xFFFFFFFFFFFFFFFFFFFFFFFFFFFFFFFFFFFFFFFF AND DUP2 MSTORE PUSH1 0x20 ADD PUSH1 0x0 PUSH20 0xFFFFFFFFFFFFFFFFFFFFFFFFFFFFFFFFFFFFFFFF AND DUP2 MSTORE PUSH1 0x20 ADD DUP5 DUP2 MSTORE PUSH1 0x20 ADD PUSH1 0x0 PUSH1 0x4 DUP2 GT ISZERO PUSH2 0x2B6C JUMPI INVALID JUMPDEST DUP2 MSTORE PUSH1 0x20 ADD PUSH1 0x0 DUP2 MSTORE PUSH1 0x20 ADD PUSH1 0x0 DUP2 MSTORE POP SWAP1 POP PUSH1 0x0 PUSH2 0x2B8A DUP3 PUSH2 0x1769 JUMP JUMPDEST SWAP1 POP PUSH1 0x5 DUP2 SWAP1 DUP1 PUSH1 0x1 DUP2 SLOAD ADD DUP1 DUP3 SSTORE DUP1 SWAP2 POP POP PUSH1 0x1 SWAP1 SUB SWAP1 PUSH1 0x0 MSTORE PUSH1 0x20 PUSH1 0x0 KECCAK256 ADD PUSH1 0x0 SWAP1 SWAP2 SWAP1 SWAP2 SWAP1 SWAP2 POP SSTORE PUSH1 0x0 PUSH1 0x5 DUP1 SLOAD SWAP1 POP SWAP1 POP DUP1 PUSH32 0x6F8F67E7442497979A2F58987F7016973B0F39EBDF0EBB1D423FC9B331C80794 DUP5 PUSH1 0x40 MLOAD PUSH2 0x2BEF SWAP2 SWAP1 PUSH2 0x500C JUMP JUMPDEST PUSH1 0x40 MLOAD DUP1 SWAP2 SUB SWAP1 LOG2 POP POP POP POP POP JUMP JUMPDEST PUSH1 0x2 DUP3 PUSH1 0xA0 ADD SWAP1 PUSH1 0x4 DUP2 GT ISZERO PUSH2 0x2C10 JUMPI INVALID JUMPDEST SWAP1 DUP2 PUSH1 0x4 DUP2 GT ISZERO PUSH2 0x2C1D JUMPI INVALID JUMPDEST DUP2 MSTORE POP POP PUSH1 0x1 PUSH1 0x0 SWAP1 SLOAD SWAP1 PUSH2 0x100 EXP SWAP1 DIV PUSH20 0xFFFFFFFFFFFFFFFFFFFFFFFFFFFFFFFFFFFFFFFF AND PUSH20 0xFFFFFFFFFFFFFFFFFFFFFFFFFFFFFFFFFFFFFFFF AND PUSH4 0xC13517E1 DUP5 PUSH1 0x4 SLOAD PUSH1 0x40 MLOAD DUP4 PUSH4 0xFFFFFFFF AND PUSH1 0xE0 SHL DUP2 MSTORE PUSH1 0x4 ADD PUSH2 0x2C7F SWAP2 SWAP1 PUSH2 0x50EE JUMP JUMPDEST PUSH1 0x20 PUSH1 0x40 MLOAD DUP1 DUP4 SUB DUP2 DUP6 DUP9 DUP1 EXTCODESIZE ISZERO DUP1 ISZERO PUSH2 0x2C98 JUMPI PUSH1 0x0 DUP1 REVERT JUMPDEST POP GAS CALL ISZERO DUP1 ISZERO PUSH2 0x2CAC JUMPI RETURNDATASIZE PUSH1 0x0 DUP1 RETURNDATACOPY RETURNDATASIZE PUSH1 0x0 REVERT JUMPDEST POP POP POP POP POP PUSH1 0x40 MLOAD RETURNDATASIZE PUSH1 0x1F NOT PUSH1 0x1F DUP3 ADD AND DUP3 ADD DUP1 PUSH1 0x40 MSTORE POP DUP2 ADD SWAP1 PUSH2 0x2CD1 SWAP2 SWAP1 PUSH2 0x3532 JUMP JUMPDEST DUP3 PUSH1 0xE0 ADD DUP2 DUP2 MSTORE POP POP PUSH2 0x2CE3 DUP3 PUSH2 0x1769 JUMP JUMPDEST PUSH1 0x5 PUSH1 0x1 DUP8 SUB DUP2 SLOAD DUP2 LT PUSH2 0x2CF3 JUMPI INVALID JUMPDEST SWAP1 PUSH1 0x0 MSTORE PUSH1 0x20 PUSH1 0x0 KECCAK256 ADD DUP2 SWAP1 SSTORE POP PUSH1 0x3 DUP2 PUSH1 0x20 ADD SWAP1 PUSH1 0x4 DUP2 GT ISZERO PUSH2 0x2D13 JUMPI INVALID JUMPDEST SWAP1 DUP2 PUSH1 0x4 DUP2 GT ISZERO PUSH2 0x2D20 JUMPI INVALID JUMPDEST DUP2 MSTORE POP POP DUP1 PUSH1 0x6 PUSH1 0x0 DUP5 PUSH1 0xE0 ADD MLOAD DUP2 MSTORE PUSH1 0x20 ADD SWAP1 DUP2 MSTORE PUSH1 0x20 ADD PUSH1 0x0 KECCAK256 PUSH1 0x0 DUP3 ADD MLOAD DUP2 PUSH1 0x0 ADD SSTORE PUSH1 0x20 DUP3 ADD MLOAD DUP2 PUSH1 0x1 ADD PUSH1 0x0 PUSH2 0x100 EXP DUP2 SLOAD DUP2 PUSH1 0xFF MUL NOT AND SWAP1 DUP4 PUSH1 0x4 DUP2 GT ISZERO PUSH2 0x2D6A JUMPI INVALID JUMPDEST MUL OR SWAP1 SSTORE POP PUSH1 0x40 DUP3 ADD MLOAD DUP2 PUSH1 0x2 ADD SSTORE PUSH1 0x60 DUP3 ADD MLOAD DUP2 PUSH1 0x3 ADD SSTORE PUSH1 0x80 DUP3 ADD MLOAD DUP2 PUSH1 0x4 ADD SSTORE PUSH1 0xA0 DUP3 ADD MLOAD DUP2 PUSH1 0x5 ADD SSTORE PUSH1 0xC0 DUP3 ADD MLOAD DUP2 PUSH1 0x6 ADD SSTORE PUSH1 0xE0 DUP3 ADD MLOAD DUP2 PUSH1 0x7 ADD SSTORE PUSH2 0x100 DUP3 ADD MLOAD DUP2 PUSH1 0x8 ADD SSTORE PUSH2 0x120 DUP3 ADD MLOAD DUP2 PUSH1 0x9 ADD SSTORE PUSH2 0x140 DUP3 ADD MLOAD DUP2 PUSH1 0xA ADD PUSH1 0x0 PUSH2 0x100 EXP DUP2 SLOAD DUP2 PUSH1 0xFF MUL NOT AND SWAP1 DUP4 PUSH1 0x2 DUP2 GT ISZERO PUSH2 0x2DE6 JUMPI INVALID JUMPDEST MUL OR SWAP1 SSTORE POP SWAP1 POP POP DUP3 DUP2 PUSH1 0x80 ADD MLOAD GT ISZERO PUSH2 0x2E17 JUMPI PUSH1 0x0 DUP4 DUP3 PUSH1 0x80 ADD MLOAD SUB SWAP1 POP DUP4 DUP3 PUSH1 0x80 ADD DUP2 DUP2 MSTORE POP POP DUP3 PUSH1 0x40 ADD MLOAD POP POP JUMPDEST DUP3 DUP2 PUSH1 0x60 ADD MLOAD GT ISZERO PUSH2 0x2E40 JUMPI PUSH1 0x0 DUP4 DUP3 PUSH1 0x60 ADD MLOAD SUB SWAP1 POP DUP4 DUP3 PUSH1 0x60 ADD DUP2 DUP2 MSTORE POP POP DUP3 PUSH1 0x60 ADD MLOAD POP POP JUMPDEST DUP5 PUSH32 0x6F8F67E7442497979A2F58987F7016973B0F39EBDF0EBB1D423FC9B331C80794 DUP4 PUSH1 0x40 MLOAD PUSH2 0x2E70 SWAP2 SWAP1 PUSH2 0x500C JUMP JUMPDEST PUSH1 0x40 MLOAD DUP1 SWAP2 SUB SWAP1 LOG2 DUP2 PUSH1 0xE0 ADD MLOAD PUSH1 0x1 PUSH1 0x0 SWAP1 SLOAD SWAP1 PUSH2 0x100 EXP SWAP1 DIV PUSH20 0xFFFFFFFFFFFFFFFFFFFFFFFFFFFFFFFFFFFFFFFF AND PUSH20 0xFFFFFFFFFFFFFFFFFFFFFFFFFFFFFFFFFFFFFFFF AND PUSH32 0x74BAAB670A4015AB2F1B467C5252A96141A2573F2908E58A92081E80D3CFDE3D DUP7 DUP9 PUSH1 0x40 MLOAD PUSH2 0x2EE7 SWAP3 SWAP2 SWAP1 PUSH2 0x511C JUMP JUMPDEST PUSH1 0x40 MLOAD DUP1 SWAP2 SUB SWAP1 LOG3 POP POP POP POP POP JUMP JUMPDEST PUSH1 0x3 DUP2 PUSH1 0xA0 ADD SWAP1 PUSH1 0x4 DUP2 GT ISZERO PUSH2 0x2F08 JUMPI INVALID JUMPDEST SWAP1 DUP2 PUSH1 0x4 DUP2 GT ISZERO PUSH2 0x2F15 JUMPI INVALID JUMPDEST DUP2 MSTORE POP POP PUSH2 0x2F22 DUP2 PUSH2 0x1769 JUMP JUMPDEST PUSH1 0x5 PUSH1 0x1 DUP6 SUB DUP2 SLOAD DUP2 LT PUSH2 0x2F32 JUMPI INVALID JUMPDEST SWAP1 PUSH1 0x0 MSTORE PUSH1 0x20 PUSH1 0x0 KECCAK256 ADD DUP2 SWAP1 SSTORE POP PUSH1 0x0 PUSH1 0x6 PUSH1 0x0 DUP4 PUSH1 0xE0 ADD MLOAD DUP2 MSTORE PUSH1 0x20 ADD SWAP1 DUP2 MSTORE PUSH1 0x20 ADD PUSH1 0x0 KECCAK256 SWAP1 POP DUP1 PUSH1 0x6 ADD PUSH1 0x0 DUP2 SLOAD DUP1 SWAP3 SWAP2 SWAP1 PUSH1 0x1 ADD SWAP2 SWAP1 POP SSTORE POP PUSH1 0x1 PUSH1 0x0 SWAP1 SLOAD SWAP1 PUSH2 0x100 EXP SWAP1 DIV PUSH20 0xFFFFFFFFFFFFFFFFFFFFFFFFFFFFFFFFFFFFFFFF AND PUSH20 0xFFFFFFFFFFFFFFFFFFFFFFFFFFFFFFFFFFFFFFFF AND PUSH4 0x49912F88 DUP5 DUP5 PUSH1 0xE0 ADD MLOAD PUSH1 0x40 MLOAD DUP4 PUSH4 0xFFFFFFFF AND PUSH1 0xE0 SHL DUP2 MSTORE PUSH1 0x4 ADD PUSH2 0x2FCF SWAP2 SWAP1 PUSH2 0x50EE JUMP JUMPDEST PUSH1 0x0 PUSH1 0x40 MLOAD DUP1 DUP4 SUB DUP2 DUP6 DUP9 DUP1 EXTCODESIZE ISZERO DUP1 ISZERO PUSH2 0x2FE8 JUMPI PUSH1 0x0 DUP1 REVERT JUMPDEST POP GAS CALL ISZERO DUP1 ISZERO PUSH2 0x2FFC JUMPI RETURNDATASIZE PUSH1 0x0 DUP1 RETURNDATACOPY RETURNDATASIZE PUSH1 0x0 REVERT JUMPDEST POP POP POP POP POP PUSH1 0x3 DUP2 PUSH1 0x1 ADD PUSH1 0x0 PUSH2 0x100 EXP DUP2 SLOAD DUP2 PUSH1 0xFF MUL NOT AND SWAP1 DUP4 PUSH1 0x4 DUP2 GT ISZERO PUSH2 0x3022 JUMPI INVALID JUMPDEST MUL OR SWAP1 SSTORE POP DUP3 DUP2 PUSH1 0x8 ADD SLOAD GT ISZERO PUSH2 0x304F JUMPI PUSH1 0x0 DUP4 DUP3 PUSH1 0x8 ADD SLOAD SUB SWAP1 POP DUP4 DUP3 PUSH1 0x8 ADD DUP2 SWAP1 SSTORE POP DUP3 PUSH1 0x40 ADD MLOAD POP POP JUMPDEST DUP3 DUP2 PUSH1 0x7 ADD SLOAD GT ISZERO PUSH2 0x3077 JUMPI PUSH1 0x0 DUP4 DUP3 PUSH1 0x7 ADD SLOAD SUB SWAP1 POP DUP4 DUP3 PUSH1 0x7 ADD DUP2 SWAP1 SSTORE POP DUP3 PUSH1 0x60 ADD MLOAD POP POP JUMPDEST DUP4 PUSH32 0x6F8F67E7442497979A2F58987F7016973B0F39EBDF0EBB1D423FC9B331C80794 DUP4 PUSH1 0x40 MLOAD PUSH2 0x30A7 SWAP2 SWAP1 PUSH2 0x500C JUMP JUMPDEST PUSH1 0x40 MLOAD DUP1 SWAP2 SUB SWAP1 LOG2 DUP4 DUP3 PUSH1 0xE0 ADD MLOAD PUSH32 0xF6D6CF956A2B24B71568D4F9853779C9642A706044EEA5A3F1AFE2D0961E7BB7 DUP4 PUSH1 0x40 MLOAD PUSH2 0x30E4 SWAP2 SWAP1 PUSH2 0x4FF0 JUMP JUMPDEST PUSH1 0x40 MLOAD DUP1 SWAP2 SUB SWAP1 LOG3 POP POP POP POP JUMP JUMPDEST PUSH1 0x40 MLOAD DUP1 PUSH2 0x160 ADD PUSH1 0x40 MSTORE DUP1 PUSH1 0x0 DUP2 MSTORE PUSH1 0x20 ADD PUSH1 0x0 PUSH1 0x4 DUP2 GT ISZERO PUSH2 0x3112 JUMPI INVALID JUMPDEST DUP2 MSTORE PUSH1 0x20 ADD PUSH1 0x0 DUP2 MSTORE PUSH1 0x20 ADD PUSH1 0x0 DUP2 MSTORE PUSH1 0x20 ADD PUSH1 0x0 DUP2 MSTORE PUSH1 0x20 ADD PUSH1 0x0 DUP2 MSTORE PUSH1 0x20 ADD PUSH1 0x0 DUP2 MSTORE PUSH1 0x20 ADD PUSH1 0x0 DUP2 MSTORE PUSH1 0x20 ADD PUSH1 0x0 DUP2 MSTORE PUSH1 0x20 ADD PUSH1 0x0 DUP2 MSTORE PUSH1 0x20 ADD PUSH1 0x0 PUSH1 0x2 DUP2 GT ISZERO PUSH2 0x315C JUMPI INVALID JUMPDEST DUP2 MSTORE POP SWAP1 JUMP JUMPDEST PUSH1 0x40 MLOAD DUP1 PUSH2 0x100 ADD PUSH1 0x40 MSTORE DUP1 PUSH1 0x0 DUP2 MSTORE PUSH1 0x20 ADD PUSH1 0x0 ISZERO ISZERO DUP2 MSTORE PUSH1 0x20 ADD PUSH1 0x0 PUSH20 0xFFFFFFFFFFFFFFFFFFFFFFFFFFFFFFFFFFFFFFFF AND DUP2 MSTORE PUSH1 0x20 ADD PUSH1 0x0 PUSH20 0xFFFFFFFFFFFFFFFFFFFFFFFFFFFFFFFFFFFFFFFF AND DUP2 MSTORE PUSH1 0x20 ADD PUSH1 0x0 DUP1 NOT AND DUP2 MSTORE PUSH1 0x20 ADD PUSH1 0x0 PUSH1 0x4 DUP2 GT ISZERO PUSH2 0x31CF JUMPI INVALID JUMPDEST DUP2 MSTORE PUSH1 0x20 ADD PUSH1 0x0 DUP2 MSTORE PUSH1 0x20 ADD PUSH1 0x0 DUP2 MSTORE POP SWAP1 JUMP JUMPDEST PUSH1 0x0 DUP2 CALLDATALOAD SWAP1 POP PUSH2 0x31F2 DUP2 PUSH2 0x53E2 JUMP JUMPDEST SWAP3 SWAP2 POP POP JUMP JUMPDEST PUSH1 0x0 DUP2 CALLDATALOAD SWAP1 POP PUSH2 0x3207 DUP2 PUSH2 0x53F9 JUMP JUMPDEST SWAP3 SWAP2 POP POP JUMP JUMPDEST PUSH1 0x0 DUP2 CALLDATALOAD SWAP1 POP PUSH2 0x321C DUP2 PUSH2 0x5410 JUMP JUMPDEST SWAP3 SWAP2 POP POP JUMP JUMPDEST PUSH1 0x0 DUP2 CALLDATALOAD SWAP1 POP PUSH2 0x3231 DUP2 PUSH2 0x5427 JUMP JUMPDEST SWAP3 SWAP2 POP POP JUMP JUMPDEST PUSH1 0x0 DUP2 CALLDATALOAD SWAP1 POP PUSH2 0x3246 DUP2 PUSH2 0x5437 JUMP JUMPDEST SWAP3 SWAP2 POP POP JUMP JUMPDEST PUSH1 0x0 DUP2 CALLDATALOAD SWAP1 POP PUSH2 0x325B DUP2 PUSH2 0x5447 JUMP JUMPDEST SWAP3 SWAP2 POP POP JUMP JUMPDEST PUSH1 0x0 DUP1 DUP4 PUSH1 0x1F DUP5 ADD SLT PUSH2 0x3273 JUMPI PUSH1 0x0 DUP1 REVERT JUMPDEST DUP3 CALLDATALOAD SWAP1 POP PUSH8 0xFFFFFFFFFFFFFFFF DUP2 GT ISZERO PUSH2 0x328C JUMPI PUSH1 0x0 DUP1 REVERT JUMPDEST PUSH1 0x20 DUP4 ADD SWAP2 POP DUP4 PUSH1 0x1 DUP3 MUL DUP4 ADD GT ISZERO PUSH2 0x32A4 JUMPI PUSH1 0x0 DUP1 REVERT JUMPDEST SWAP3 POP SWAP3 SWAP1 POP JUMP JUMPDEST PUSH1 0x0 PUSH2 0x160 DUP3 DUP5 SUB SLT ISZERO PUSH2 0x32BE JUMPI PUSH1 0x0 DUP1 REVERT JUMPDEST PUSH2 0x32C9 PUSH2 0x160 PUSH2 0x5145 JUMP JUMPDEST SWAP1 POP PUSH1 0x0 PUSH2 0x32D9 DUP5 DUP3 DUP6 ADD PUSH2 0x3479 JUMP JUMPDEST PUSH1 0x0 DUP4 ADD MSTORE POP PUSH1 0x20 PUSH2 0x32ED DUP5 DUP3 DUP6 ADD PUSH2 0x3222 JUMP JUMPDEST PUSH1 0x20 DUP4 ADD MSTORE POP PUSH1 0x40 PUSH2 0x3301 DUP5 DUP3 DUP6 ADD PUSH2 0x3479 JUMP JUMPDEST PUSH1 0x40 DUP4 ADD MSTORE POP PUSH1 0x60 PUSH2 0x3315 DUP5 DUP3 DUP6 ADD PUSH2 0x3479 JUMP JUMPDEST PUSH1 0x60 DUP4 ADD MSTORE POP PUSH1 0x80 PUSH2 0x3329 DUP5 DUP3 DUP6 ADD PUSH2 0x3479 JUMP JUMPDEST PUSH1 0x80 DUP4 ADD MSTORE POP PUSH1 0xA0 PUSH2 0x333D DUP5 DUP3 DUP6 ADD PUSH2 0x3479 JUMP JUMPDEST PUSH1 0xA0 DUP4 ADD MSTORE POP PUSH1 0xC0 PUSH2 0x3351 DUP5 DUP3 DUP6 ADD PUSH2 0x3479 JUMP JUMPDEST PUSH1 0xC0 DUP4 ADD MSTORE POP PUSH1 0xE0 PUSH2 0x3365 DUP5 DUP3 DUP6 ADD PUSH2 0x3479 JUMP JUMPDEST PUSH1 0xE0 DUP4 ADD MSTORE POP PUSH2 0x100 PUSH2 0x337A DUP5 DUP3 DUP6 ADD PUSH2 0x3479 JUMP JUMPDEST PUSH2 0x100 DUP4 ADD MSTORE POP PUSH2 0x120 PUSH2 0x3390 DUP5 DUP3 DUP6 ADD PUSH2 0x3479 JUMP JUMPDEST PUSH2 0x120 DUP4 ADD MSTORE POP PUSH2 0x140 PUSH2 0x33A6 DUP5 DUP3 DUP6 ADD PUSH2 0x3237 JUMP JUMPDEST PUSH2 0x140 DUP4 ADD MSTORE POP SWAP3 SWAP2 POP POP JUMP JUMPDEST PUSH1 0x0 PUSH2 0x100 DUP3 DUP5 SUB SLT ISZERO PUSH2 0x33C6 JUMPI PUSH1 0x0 DUP1 REVERT JUMPDEST PUSH2 0x33D1 PUSH2 0x100 PUSH2 0x5145 JUMP JUMPDEST SWAP1 POP PUSH1 0x0 PUSH2 0x33E1 DUP5 DUP3 DUP6 ADD PUSH2 0x3479 JUMP JUMPDEST PUSH1 0x0 DUP4 ADD MSTORE POP PUSH1 0x20 PUSH2 0x33F5 DUP5 DUP3 DUP6 ADD PUSH2 0x31F8 JUMP JUMPDEST PUSH1 0x20 DUP4 ADD MSTORE POP PUSH1 0x40 PUSH2 0x3409 DUP5 DUP3 DUP6 ADD PUSH2 0x31E3 JUMP JUMPDEST PUSH1 0x40 DUP4 ADD MSTORE POP PUSH1 0x60 PUSH2 0x341D DUP5 DUP3 DUP6 ADD PUSH2 0x31E3 JUMP JUMPDEST PUSH1 0x60 DUP4 ADD MSTORE POP PUSH1 0x80 PUSH2 0x3431 DUP5 DUP3 DUP6 ADD PUSH2 0x320D JUMP JUMPDEST PUSH1 0x80 DUP4 ADD MSTORE POP PUSH1 0xA0 PUSH2 0x3445 DUP5 DUP3 DUP6 ADD PUSH2 0x324C JUMP JUMPDEST PUSH1 0xA0 DUP4 ADD MSTORE POP PUSH1 0xC0 PUSH2 0x3459 DUP5 DUP3 DUP6 ADD PUSH2 0x3479 JUMP JUMPDEST PUSH1 0xC0 DUP4 ADD MSTORE POP PUSH1 0xE0 PUSH2 0x346D DUP5 DUP3 DUP6 ADD PUSH2 0x3479 JUMP JUMPDEST PUSH1 0xE0 DUP4 ADD MSTORE POP SWAP3 SWAP2 POP POP JUMP JUMPDEST PUSH1 0x0 DUP2 CALLDATALOAD SWAP1 POP PUSH2 0x3488 DUP2 PUSH2 0x5457 JUMP JUMPDEST SWAP3 SWAP2 POP POP JUMP JUMPDEST PUSH1 0x0 DUP2 MLOAD SWAP1 POP PUSH2 0x349D DUP2 PUSH2 0x5457 JUMP JUMPDEST SWAP3 SWAP2 POP POP JUMP JUMPDEST PUSH1 0x0 DUP1 PUSH1 0x40 DUP4 DUP6 SUB SLT ISZERO PUSH2 0x34B6 JUMPI PUSH1 0x0 DUP1 REVERT JUMPDEST PUSH1 0x0 PUSH2 0x34C4 DUP6 DUP3 DUP7 ADD PUSH2 0x320D JUMP JUMPDEST SWAP3 POP POP PUSH1 0x20 PUSH2 0x34D5 DUP6 DUP3 DUP7 ADD PUSH2 0x3479 JUMP JUMPDEST SWAP2 POP POP SWAP3 POP SWAP3 SWAP1 POP JUMP JUMPDEST PUSH1 0x0 PUSH2 0x100 DUP3 DUP5 SUB SLT ISZERO PUSH2 0x34F2 JUMPI PUSH1 0x0 DUP1 REVERT JUMPDEST PUSH1 0x0 PUSH2 0x3500 DUP5 DUP3 DUP6 ADD PUSH2 0x33B3 JUMP JUMPDEST SWAP2 POP POP SWAP3 SWAP2 POP POP JUMP JUMPDEST PUSH1 0x0 PUSH1 0x20 DUP3 DUP5 SUB SLT ISZERO PUSH2 0x351B JUMPI PUSH1 0x0 DUP1 REVERT JUMPDEST PUSH1 0x0 PUSH2 0x3529 DUP5 DUP3 DUP6 ADD PUSH2 0x3479 JUMP JUMPDEST SWAP2 POP POP SWAP3 SWAP2 POP POP JUMP JUMPDEST PUSH1 0x0 PUSH1 0x20 DUP3 DUP5 SUB SLT ISZERO PUSH2 0x3544 JUMPI PUSH1 0x0 DUP1 REVERT JUMPDEST PUSH1 0x0 PUSH2 0x3552 DUP5 DUP3 DUP6 ADD PUSH2 0x348E JUMP JUMPDEST SWAP2 POP POP SWAP3 SWAP2 POP POP JUMP JUMPDEST PUSH1 0x0 DUP1 PUSH2 0x120 DUP4 DUP6 SUB SLT ISZERO PUSH2 0x356F JUMPI PUSH1 0x0 DUP1 REVERT JUMPDEST PUSH1 0x0 PUSH2 0x357D DUP6 DUP3 DUP7 ADD PUSH2 0x3479 JUMP JUMPDEST SWAP3 POP POP PUSH1 0x20 PUSH2 0x358E DUP6 DUP3 DUP7 ADD PUSH2 0x33B3 JUMP JUMPDEST SWAP2 POP POP SWAP3 POP SWAP3 SWAP1 POP JUMP JUMPDEST PUSH1 0x0 DUP1 PUSH1 0x0 DUP1 PUSH2 0x140 DUP6 DUP8 SUB SLT ISZERO PUSH2 0x35AF JUMPI PUSH1 0x0 DUP1 REVERT JUMPDEST PUSH1 0x0 PUSH2 0x35BD DUP8 DUP3 DUP9 ADD PUSH2 0x3479 JUMP JUMPDEST SWAP5 POP POP PUSH1 0x20 PUSH2 0x35CE DUP8 DUP3 DUP9 ADD PUSH2 0x33B3 JUMP JUMPDEST SWAP4 POP POP PUSH2 0x120 DUP6 ADD CALLDATALOAD PUSH8 0xFFFFFFFFFFFFFFFF DUP2 GT ISZERO PUSH2 0x35EC JUMPI PUSH1 0x0 DUP1 REVERT JUMPDEST PUSH2 0x35F8 DUP8 DUP3 DUP9 ADD PUSH2 0x3261 JUMP JUMPDEST SWAP3 POP SWAP3 POP POP SWAP3 SWAP6 SWAP2 SWAP5 POP SWAP3 POP JUMP JUMPDEST PUSH1 0x0 DUP1 PUSH1 0x0 PUSH2 0x280 DUP5 DUP7 SUB SLT ISZERO PUSH2 0x361C JUMPI PUSH1 0x0 DUP1 REVERT JUMPDEST PUSH1 0x0 PUSH2 0x362A DUP7 DUP3 DUP8 ADD PUSH2 0x3479 JUMP JUMPDEST SWAP4 POP POP PUSH1 0x20 PUSH2 0x363B DUP7 DUP3 DUP8 ADD PUSH2 0x33B3 JUMP JUMPDEST SWAP3 POP POP PUSH2 0x120 PUSH2 0x364D DUP7 DUP3 DUP8 ADD PUSH2 0x32AB JUMP JUMPDEST SWAP2 POP POP SWAP3 POP SWAP3 POP SWAP3 JUMP JUMPDEST PUSH1 0x0 DUP1 PUSH1 0x0 PUSH2 0x140 DUP5 DUP7 SUB SLT ISZERO PUSH2 0x366D JUMPI PUSH1 0x0 DUP1 REVERT JUMPDEST PUSH1 0x0 PUSH2 0x367B DUP7 DUP3 DUP8 ADD PUSH2 0x3479 JUMP JUMPDEST SWAP4 POP POP PUSH1 0x20 PUSH2 0x368C DUP7 DUP3 DUP8 ADD PUSH2 0x33B3 JUMP JUMPDEST SWAP3 POP POP PUSH2 0x120 PUSH2 0x369E DUP7 DUP3 DUP8 ADD PUSH2 0x3479 JUMP JUMPDEST SWAP2 POP POP SWAP3 POP SWAP3 POP SWAP3 JUMP JUMPDEST PUSH1 0x0 DUP1 PUSH1 0x40 DUP4 DUP6 SUB SLT ISZERO PUSH2 0x36BB JUMPI PUSH1 0x0 DUP1 REVERT JUMPDEST PUSH1 0x0 PUSH2 0x36C9 DUP6 DUP3 DUP7 ADD PUSH2 0x3479 JUMP JUMPDEST SWAP3 POP POP PUSH1 0x20 PUSH2 0x36DA DUP6 DUP3 DUP7 ADD PUSH2 0x3479 JUMP JUMPDEST SWAP2 POP POP SWAP3 POP SWAP3 SWAP1 POP JUMP JUMPDEST PUSH1 0x0 DUP1 PUSH1 0x40 DUP4 DUP6 SUB SLT ISZERO PUSH2 0x36F7 JUMPI PUSH1 0x0 DUP1 REVERT JUMPDEST PUSH1 0x0 PUSH2 0x3705 DUP6 DUP3 DUP7 ADD PUSH2 0x348E JUMP JUMPDEST SWAP3 POP POP PUSH1 0x20 PUSH2 0x3716 DUP6 DUP3 DUP7 ADD PUSH2 0x348E JUMP JUMPDEST SWAP2 POP POP SWAP3 POP SWAP3 SWAP1 POP JUMP JUMPDEST PUSH1 0x0 DUP1 PUSH1 0x0 PUSH2 0x140 DUP5 DUP7 SUB SLT ISZERO PUSH2 0x3736 JUMPI PUSH1 0x0 DUP1 REVERT JUMPDEST PUSH1 0x0 PUSH2 0x3744 DUP7 DUP3 DUP8 ADD PUSH2 0x3479 JUMP JUMPDEST SWAP4 POP POP PUSH1 0x20 PUSH2 0x3755 DUP7 DUP3 DUP8 ADD PUSH2 0x3479 JUMP JUMPDEST SWAP3 POP POP PUSH1 0x40 PUSH2 0x3766 DUP7 DUP3 DUP8 ADD PUSH2 0x33B3 JUMP JUMPDEST SWAP2 POP POP SWAP3 POP SWAP3 POP SWAP3 JUMP JUMPDEST PUSH1 0x0 DUP1 PUSH1 0x0 DUP1 PUSH2 0x2A0 DUP6 DUP8 SUB SLT ISZERO PUSH2 0x3787 JUMPI PUSH1 0x0 DUP1 REVERT JUMPDEST PUSH1 0x0 PUSH2 0x3795 DUP8 DUP3 DUP9 ADD PUSH2 0x3479 JUMP JUMPDEST SWAP5 POP POP PUSH1 0x20 PUSH2 0x37A6 DUP8 DUP3 DUP9 ADD PUSH2 0x3479 JUMP JUMPDEST SWAP4 POP POP PUSH1 0x40 PUSH2 0x37B7 DUP8 DUP3 DUP9 ADD PUSH2 0x33B3 JUMP JUMPDEST SWAP3 POP POP PUSH2 0x140 PUSH2 0x37C9 DUP8 DUP3 DUP9 ADD PUSH2 0x32AB JUMP JUMPDEST SWAP2 POP POP SWAP3 SWAP6 SWAP2 SWAP5 POP SWAP3 POP JUMP JUMPDEST PUSH2 0x37DE DUP2 PUSH2 0x51CE JUMP JUMPDEST DUP3 MSTORE POP POP JUMP JUMPDEST PUSH2 0x37F5 PUSH2 0x37F0 DUP3 PUSH2 0x51CE JUMP JUMPDEST PUSH2 0x5310 JUMP JUMPDEST DUP3 MSTORE POP POP JUMP JUMPDEST PUSH2 0x3804 DUP2 PUSH2 0x51BC JUMP JUMPDEST DUP3 MSTORE POP POP JUMP JUMPDEST PUSH2 0x3813 DUP2 PUSH2 0x51E0 JUMP JUMPDEST DUP3 MSTORE POP POP JUMP JUMPDEST PUSH2 0x382A PUSH2 0x3825 DUP3 PUSH2 0x51E0 JUMP JUMPDEST PUSH2 0x5322 JUMP JUMPDEST DUP3 MSTORE POP POP JUMP JUMPDEST PUSH2 0x3839 DUP2 PUSH2 0x51EC JUMP JUMPDEST DUP3 MSTORE POP POP JUMP JUMPDEST PUSH2 0x3848 DUP2 PUSH2 0x51EC JUMP JUMPDEST DUP3 MSTORE POP POP JUMP JUMPDEST PUSH2 0x385F PUSH2 0x385A DUP3 PUSH2 0x51EC JUMP JUMPDEST PUSH2 0x5334 JUMP JUMPDEST DUP3 MSTORE POP POP JUMP JUMPDEST PUSH2 0x386E DUP2 PUSH2 0x5259 JUMP JUMPDEST DUP3 MSTORE POP POP JUMP JUMPDEST PUSH2 0x387D DUP2 PUSH2 0x527D JUMP JUMPDEST DUP3 MSTORE POP POP JUMP JUMPDEST PUSH2 0x388C DUP2 PUSH2 0x527D JUMP JUMPDEST DUP3 MSTORE POP POP JUMP JUMPDEST PUSH2 0x389B DUP2 PUSH2 0x528F JUMP JUMPDEST DUP3 MSTORE POP POP JUMP JUMPDEST PUSH2 0x38AA DUP2 PUSH2 0x528F JUMP JUMPDEST DUP3 MSTORE POP POP JUMP JUMPDEST PUSH2 0x38B9 DUP2 PUSH2 0x52A1 JUMP JUMPDEST DUP3 MSTORE POP POP JUMP JUMPDEST PUSH2 0x38D0 PUSH2 0x38CB DUP3 PUSH2 0x52A1 JUMP JUMPDEST PUSH2 0x535A JUMP JUMPDEST DUP3 MSTORE POP POP JUMP JUMPDEST PUSH1 0x0 PUSH2 0x38E2 DUP4 DUP6 PUSH2 0x5187 JUMP JUMPDEST SWAP4 POP PUSH2 0x38EF DUP4 DUP6 DUP5 PUSH2 0x52B3 JUMP JUMPDEST PUSH2 0x38F8 DUP4 PUSH2 0x536E JUMP JUMPDEST DUP5 ADD SWAP1 POP SWAP4 SWAP3 POP POP POP JUMP JUMPDEST PUSH1 0x0 PUSH2 0x3910 PUSH1 0x2E DUP4 PUSH2 0x5187 JUMP JUMPDEST SWAP2 POP PUSH32 0x46756E64696E67206D757374206265206D6164652077697468696E2074686520 PUSH1 0x0 DUP4 ADD MSTORE PUSH32 0x61707065616C20706572696F642E000000000000000000000000000000000000 PUSH1 0x20 DUP4 ADD MSTORE PUSH1 0x40 DUP3 ADD SWAP1 POP SWAP2 SWAP1 POP JUMP JUMPDEST PUSH1 0x0 PUSH2 0x3976 PUSH1 0x37 DUP4 PUSH2 0x5187 JUMP JUMPDEST SWAP2 POP PUSH32 0x43616E6E6F74207769746864726177207072696365207768696C65207265636C PUSH1 0x0 DUP4 ADD MSTORE PUSH32 0x61696D20706572696F64206973206E6F74206F7665722E000000000000000000 PUSH1 0x20 DUP4 ADD MSTORE PUSH1 0x40 DUP3 ADD SWAP1 POP SWAP2 SWAP1 POP JUMP JUMPDEST PUSH1 0x0 PUSH2 0x39DC PUSH1 0x21 DUP4 PUSH2 0x5187 JUMP JUMPDEST SWAP2 POP PUSH32 0x4D7573742073656E642065786163746C7920746865206974656D207072696365 PUSH1 0x0 DUP4 ADD MSTORE PUSH32 0x2E00000000000000000000000000000000000000000000000000000000000000 PUSH1 0x20 DUP4 ADD MSTORE PUSH1 0x40 DUP3 ADD SWAP1 POP SWAP2 SWAP1 POP JUMP JUMPDEST PUSH1 0x0 PUSH2 0x3A42 PUSH1 0x1E DUP4 PUSH2 0x5187 JUMP JUMPDEST SWAP2 POP PUSH32 0x5468657265206973206E6F206469737075746520746F2061707065616C2E0000 PUSH1 0x0 DUP4 ADD MSTORE PUSH1 0x20 DUP3 ADD SWAP1 POP SWAP2 SWAP1 POP JUMP JUMPDEST PUSH1 0x0 PUSH2 0x3A82 PUSH1 0x32 DUP4 PUSH2 0x5187 JUMP JUMPDEST SWAP2 POP PUSH32 0x4D757374206E6F742073656E642065766964656E636520696620746865206469 PUSH1 0x0 DUP4 ADD MSTORE PUSH32 0x7370757465206973207265736F6C7665642E0000000000000000000000000000 PUSH1 0x20 DUP4 ADD MSTORE PUSH1 0x40 DUP3 ADD SWAP1 POP SWAP2 SWAP1 POP JUMP JUMPDEST PUSH1 0x0 PUSH2 0x3AE8 PUSH1 0x3D DUP4 PUSH2 0x5187 JUMP JUMPDEST SWAP2 POP PUSH32 0x4D757374206465706F7369742074686520726967687420617262697472617469 PUSH1 0x0 DUP4 ADD MSTORE PUSH32 0x6F6E2066656520746F207265636C61696D20706169642070726963652E000000 PUSH1 0x20 DUP4 ADD MSTORE PUSH1 0x40 DUP3 ADD SWAP1 POP SWAP2 SWAP1 POP JUMP JUMPDEST PUSH1 0x0 PUSH2 0x3B4E PUSH1 0x32 DUP4 PUSH2 0x5187 JUMP JUMPDEST SWAP2 POP PUSH32 0x43616E20676976652072756C696E67206F6E6C79207768656E20612064697370 PUSH1 0x0 DUP4 ADD MSTORE PUSH32 0x75746520697320696E2070726F636573732E0000000000000000000000000000 PUSH1 0x20 DUP4 ADD MSTORE PUSH1 0x40 DUP3 ADD SWAP1 POP SWAP2 SWAP1 POP JUMP JUMPDEST PUSH1 0x0 PUSH2 0x3BB4 PUSH1 0x58 DUP4 PUSH2 0x5187 JUMP JUMPDEST SWAP2 POP PUSH32 0x546869732066756E6374696F6E2069732063616C6C6564206F6E6C7920776865 PUSH1 0x0 DUP4 ADD MSTORE PUSH32 0x6E207468652073656C6C65722773207061796D656E74206F6620746865206172 PUSH1 0x20 DUP4 ADD MSTORE PUSH32 0x626974726174696F6E206665652074696D6573206F75742E0000000000000000 PUSH1 0x40 DUP4 ADD MSTORE PUSH1 0x60 DUP3 ADD SWAP1 POP SWAP2 SWAP1 POP JUMP JUMPDEST PUSH1 0x0 PUSH2 0x3C40 PUSH1 0x38 DUP4 PUSH2 0x5187 JUMP JUMPDEST SWAP2 POP PUSH32 0x5468652073656C6C6572207374696C6C206861732074696D6520746F20646570 PUSH1 0x0 DUP4 ADD MSTORE PUSH32 0x6F73697420616E206172626974726174696F6E206665652E0000000000000000 PUSH1 0x20 DUP4 ADD MSTORE PUSH1 0x40 DUP3 ADD SWAP1 POP SWAP2 SWAP1 POP JUMP JUMPDEST PUSH1 0x0 PUSH2 0x3CA6 PUSH1 0x28 DUP4 PUSH2 0x5187 JUMP JUMPDEST SWAP2 POP PUSH32 0x53656C6C6572207374696C6C206861732074696D6520746F2066756E6420616E PUSH1 0x0 DUP4 ADD MSTORE PUSH32 0x2061707065616C2E000000000000000000000000000000000000000000000000 PUSH1 0x20 DUP4 ADD MSTORE PUSH1 0x40 DUP3 ADD SWAP1 POP SWAP2 SWAP1 POP JUMP JUMPDEST PUSH1 0x0 PUSH2 0x3D0C PUSH1 0x2B DUP4 PUSH2 0x5187 JUMP JUMPDEST SWAP2 POP PUSH32 0x546865206172626974726174696F6E20666565206465706F7369742070657269 PUSH1 0x0 DUP4 ADD MSTORE PUSH32 0x6F64206973206F7665722E000000000000000000000000000000000000000000 PUSH1 0x20 DUP4 ADD MSTORE PUSH1 0x40 DUP3 ADD SWAP1 POP SWAP2 SWAP1 POP JUMP JUMPDEST PUSH1 0x0 PUSH2 0x3D72 PUSH1 0x2B DUP4 PUSH2 0x5187 JUMP JUMPDEST SWAP2 POP PUSH32 0x5468652063616C6C6572206D757374206265207468652073656C6C6572206F72 PUSH1 0x0 DUP4 ADD MSTORE PUSH32 0x207468652062757965722E000000000000000000000000000000000000000000 PUSH1 0x20 DUP4 ADD MSTORE PUSH1 0x40 DUP3 ADD SWAP1 POP SWAP2 SWAP1 POP JUMP JUMPDEST PUSH1 0x0 PUSH2 0x3DD8 PUSH1 0x2A DUP4 PUSH2 0x5187 JUMP JUMPDEST SWAP2 POP PUSH32 0x43616E2072616973652061207265636C61696D20646973707574652070656E64 PUSH1 0x0 DUP4 ADD MSTORE PUSH32 0x696E672073746174652E00000000000000000000000000000000000000000000 PUSH1 0x20 DUP4 ADD MSTORE PUSH1 0x40 DUP3 ADD SWAP1 POP SWAP2 SWAP1 POP JUMP JUMPDEST PUSH1 0x0 PUSH2 0x3E3E PUSH1 0x36 DUP4 PUSH2 0x5187 JUMP JUMPDEST SWAP2 POP PUSH32 0x416E206172626974726174696F6E206D757374206265207265736F6C76656420 PUSH1 0x0 DUP4 ADD MSTORE PUSH32 0x746F2065786563757465206974732072756C696E672E00000000000000000000 PUSH1 0x20 DUP4 ADD MSTORE PUSH1 0x40 DUP3 ADD SWAP1 POP SWAP2 SWAP1 POP JUMP JUMPDEST PUSH1 0x0 PUSH2 0x3EA4 PUSH1 0x22 DUP4 PUSH2 0x5187 JUMP JUMPDEST SWAP2 POP PUSH32 0x43616E6E6F74207075726368617365206974656D206E6F7420666F722073616C PUSH1 0x0 DUP4 ADD MSTORE PUSH32 0x652E000000000000000000000000000000000000000000000000000000000000 PUSH1 0x20 DUP4 ADD MSTORE PUSH1 0x40 DUP3 ADD SWAP1 POP SWAP2 SWAP1 POP JUMP JUMPDEST PUSH1 0x0 PUSH2 0x3F0A PUSH1 0x34 DUP4 PUSH2 0x5187 JUMP JUMPDEST SWAP2 POP PUSH32 0x4F6E6C79207468652073656C6C65722063616E2063616C6C20612073656C6C65 PUSH1 0x0 DUP4 ADD MSTORE PUSH32 0x722D77697468647261772066756E6374696F6E2E000000000000000000000000 PUSH1 0x20 DUP4 ADD MSTORE PUSH1 0x40 DUP3 ADD SWAP1 POP SWAP2 SWAP1 POP JUMP JUMPDEST PUSH1 0x0 PUSH2 0x3F70 PUSH1 0x38 DUP4 PUSH2 0x5187 JUMP JUMPDEST SWAP2 POP PUSH32 0x43616E6E6F74207265636C61696D207072696365206166746572207468652072 PUSH1 0x0 DUP4 ADD MSTORE PUSH32 0x65636C61696D2077696E646F7720697320636C6F7365642E0000000000000000 PUSH1 0x20 DUP4 ADD MSTORE PUSH1 0x40 DUP3 ADD SWAP1 POP SWAP2 SWAP1 POP JUMP JUMPDEST PUSH1 0x0 PUSH2 0x3FD6 PUSH1 0x37 DUP4 PUSH2 0x5187 JUMP JUMPDEST SWAP2 POP PUSH32 0x4F6E6C7920746865206275796572206F662074686520636172642063616E2072 PUSH1 0x0 DUP4 ADD MSTORE PUSH32 0x616973652061207265636C61696D20646973707574652E000000000000000000 PUSH1 0x20 DUP4 ADD MSTORE PUSH1 0x40 DUP3 ADD SWAP1 POP SWAP2 SWAP1 POP JUMP JUMPDEST PUSH1 0x0 PUSH2 0x403C PUSH1 0x2F DUP4 PUSH2 0x5187 JUMP JUMPDEST SWAP2 POP PUSH32 0x43616E277420707572636861736520616E206974656D20616C72656164792065 PUSH1 0x0 DUP4 ADD MSTORE PUSH32 0x6E676167656420696E2073616C652E0000000000000000000000000000000000 PUSH1 0x20 DUP4 ADD MSTORE PUSH1 0x40 DUP3 ADD SWAP1 POP SWAP2 SWAP1 POP JUMP JUMPDEST PUSH1 0x0 PUSH2 0x40A2 PUSH1 0x43 DUP4 PUSH2 0x5187 JUMP JUMPDEST SWAP2 POP PUSH32 0x43616E206F6E6C79207769746864726177207072696365206966207468652074 PUSH1 0x0 DUP4 ADD MSTORE PUSH32 0x72616E73616374696F6E20697320696E207468652070656E64696E6720737461 PUSH1 0x20 DUP4 ADD MSTORE PUSH32 0x74652E0000000000000000000000000000000000000000000000000000000000 PUSH1 0x40 DUP4 ADD MSTORE PUSH1 0x60 DUP3 ADD SWAP1 POP SWAP2 SWAP1 POP JUMP JUMPDEST PUSH1 0x0 PUSH2 0x412E PUSH1 0x49 DUP4 PUSH2 0x5187 JUMP JUMPDEST SWAP2 POP PUSH32 0x4F6E6C7920746865206F776E6572206F662074686520636F6E74726163742063 PUSH1 0x0 DUP4 ADD MSTORE PUSH32 0x616E206368616E6765206172626974726174696F6E20666565206465706F7369 PUSH1 0x20 DUP4 ADD MSTORE PUSH32 0x7420706572696F642E0000000000000000000000000000000000000000000000 PUSH1 0x40 DUP4 ADD MSTORE PUSH1 0x60 DUP3 ADD SWAP1 POP SWAP2 SWAP1 POP JUMP JUMPDEST PUSH1 0x0 PUSH2 0x41BA PUSH1 0x26 DUP4 PUSH2 0x5187 JUMP JUMPDEST SWAP2 POP PUSH32 0x4F6E6C79207468652062757965722063616E207265747269657665206974656D PUSH1 0x0 DUP4 ADD MSTORE PUSH32 0x20696E666F2E0000000000000000000000000000000000000000000000000000 PUSH1 0x20 DUP4 ADD MSTORE PUSH1 0x40 DUP3 ADD SWAP1 POP SWAP2 SWAP1 POP JUMP JUMPDEST PUSH1 0x0 PUSH2 0x4220 PUSH1 0x39 DUP4 PUSH2 0x5187 JUMP JUMPDEST SWAP2 POP PUSH32 0x4F6E6C7920746865206F776E6572206F662074686520636F6E74726163742063 PUSH1 0x0 DUP4 ADD MSTORE PUSH32 0x616E206368616E6765207265636C61696D20706572696F642E00000000000000 PUSH1 0x20 DUP4 ADD MSTORE PUSH1 0x40 DUP3 ADD SWAP1 POP SWAP2 SWAP1 POP JUMP JUMPDEST PUSH1 0x0 PUSH2 0x4286 PUSH1 0x26 DUP4 PUSH2 0x5187 JUMP JUMPDEST SWAP2 POP PUSH32 0x5472616E73616374696F6E20646F65736E2774206D617463682073746F726564 PUSH1 0x0 DUP4 ADD MSTORE PUSH32 0x20686173682E0000000000000000000000000000000000000000000000000000 PUSH1 0x20 DUP4 ADD MSTORE PUSH1 0x40 DUP3 ADD SWAP1 POP SWAP2 SWAP1 POP JUMP JUMPDEST PUSH1 0x0 PUSH2 0x42EC PUSH1 0x21 DUP4 PUSH2 0x5187 JUMP JUMPDEST SWAP2 POP PUSH32 0x4E6F7420706179696E672073756666696369656E742061707065616C20666565 PUSH1 0x0 DUP4 ADD MSTORE PUSH32 0x2E00000000000000000000000000000000000000000000000000000000000000 PUSH1 0x20 DUP4 ADD MSTORE PUSH1 0x40 DUP3 ADD SWAP1 POP SWAP2 SWAP1 POP JUMP JUMPDEST PUSH1 0x0 PUSH2 0x4352 PUSH1 0x32 DUP4 PUSH2 0x5187 JUMP JUMPDEST SWAP2 POP PUSH32 0x4F6E6C79207468652062757965722063616E2063616C6C20612062757965722D PUSH1 0x0 DUP4 ADD MSTORE PUSH32 0x77697468647261772066756E6374696F6E2E0000000000000000000000000000 PUSH1 0x20 DUP4 ADD MSTORE PUSH1 0x40 DUP3 ADD SWAP1 POP SWAP2 SWAP1 POP JUMP JUMPDEST PUSH1 0x0 PUSH2 0x43B8 PUSH1 0x41 DUP4 PUSH2 0x5187 JUMP JUMPDEST SWAP2 POP PUSH32 0x4F6E6C79207468652073656C6C657220696E766F6C76656420696E2074686520 PUSH1 0x0 DUP4 ADD MSTORE PUSH32 0x646973707574652063616E20706179207468652073656C6C6572277320666565 PUSH1 0x20 DUP4 ADD MSTORE PUSH32 0x2E00000000000000000000000000000000000000000000000000000000000000 PUSH1 0x40 DUP4 ADD MSTORE PUSH1 0x60 DUP3 ADD SWAP1 POP SWAP2 SWAP1 POP JUMP JUMPDEST PUSH1 0x0 PUSH2 0x4444 PUSH1 0x3E DUP4 PUSH2 0x5187 JUMP JUMPDEST SWAP2 POP PUSH32 0x43616E206F6E6C7920706179206465706F73697420666565207768656E206974 PUSH1 0x0 DUP4 ADD MSTORE PUSH32 0x73207468652062757965722773207475726E20746F20726573706F6E642E0000 PUSH1 0x20 DUP4 ADD MSTORE PUSH1 0x40 DUP3 ADD SWAP1 POP SWAP2 SWAP1 POP JUMP JUMPDEST PUSH1 0x0 PUSH2 0x44AA PUSH1 0x3E DUP4 PUSH2 0x5187 JUMP JUMPDEST SWAP2 POP PUSH32 0x43616E2774206368616E676520676966742063617264207072696365206F6E63 PUSH1 0x0 DUP4 ADD MSTORE PUSH32 0x6520697420686173206265656E20656E676167656420696E2073616C652E0000 PUSH1 0x20 DUP4 ADD MSTORE PUSH1 0x40 DUP3 ADD SWAP1 POP SWAP2 SWAP1 POP JUMP JUMPDEST PUSH1 0x0 PUSH2 0x4510 PUSH1 0x0 DUP4 PUSH2 0x5176 JUMP JUMPDEST SWAP2 POP PUSH1 0x0 DUP3 ADD SWAP1 POP SWAP2 SWAP1 POP JUMP JUMPDEST PUSH1 0x0 PUSH2 0x452A PUSH1 0x26 DUP4 PUSH2 0x5187 JUMP JUMPDEST SWAP2 POP PUSH32 0x4F6E6C79207468652061726269747261746F722063616E206769766520612072 PUSH1 0x0 DUP4 ADD MSTORE PUSH32 0x756C696E672E0000000000000000000000000000000000000000000000000000 PUSH1 0x20 DUP4 ADD MSTORE PUSH1 0x40 DUP3 ADD SWAP1 POP SWAP2 SWAP1 POP JUMP JUMPDEST PUSH1 0x0 PUSH2 0x4590 PUSH1 0x3F DUP4 PUSH2 0x5187 JUMP JUMPDEST SWAP2 POP PUSH32 0x4F6E6C792074686520627579657220696E766F6C76656420696E207468652064 PUSH1 0x0 DUP4 ADD MSTORE PUSH32 0x6973707574652063616E20706179207468652062757965722773206665652E00 PUSH1 0x20 DUP4 ADD MSTORE PUSH1 0x40 DUP3 ADD SWAP1 POP SWAP2 SWAP1 POP JUMP JUMPDEST PUSH1 0x0 PUSH2 0x45F6 PUSH1 0x2B DUP4 PUSH2 0x5187 JUMP JUMPDEST SWAP2 POP PUSH32 0x4F6E6C7920746865206F776E6572206F66206120636172642063616E20736574 PUSH1 0x0 DUP4 ADD MSTORE PUSH32 0x206974732070726963652E000000000000000000000000000000000000000000 PUSH1 0x20 DUP4 ADD MSTORE PUSH1 0x40 DUP3 ADD SWAP1 POP SWAP2 SWAP1 POP JUMP JUMPDEST PUSH1 0x0 PUSH2 0x465C PUSH1 0x3F DUP4 PUSH2 0x5187 JUMP JUMPDEST SWAP2 POP PUSH32 0x43616E206F6E6C7920706179206465706F73697420666565207768656E206974 PUSH1 0x0 DUP4 ADD MSTORE PUSH32 0x73207468652073656C6C65722773207475726E20746F20726573706F6E642E00 PUSH1 0x20 DUP4 ADD MSTORE PUSH1 0x40 DUP3 ADD SWAP1 POP SWAP2 SWAP1 POP JUMP JUMPDEST PUSH1 0x0 PUSH2 0x46C2 PUSH1 0x41 DUP4 PUSH2 0x5187 JUMP JUMPDEST SWAP2 POP PUSH32 0x4D7573742068617665206174206C65617374206172626974726174696F6E2063 PUSH1 0x0 DUP4 ADD MSTORE PUSH32 0x6F737420696E2062616C616E636520746F206372656174652064697370757465 PUSH1 0x20 DUP4 ADD MSTORE PUSH32 0x2E00000000000000000000000000000000000000000000000000000000000000 PUSH1 0x40 DUP4 ADD MSTORE PUSH1 0x60 DUP3 ADD SWAP1 POP SWAP2 SWAP1 POP JUMP JUMPDEST PUSH2 0x160 DUP3 ADD PUSH1 0x0 DUP3 ADD MLOAD PUSH2 0x4758 PUSH1 0x0 DUP6 ADD DUP3 PUSH2 0x4A1D JUMP JUMPDEST POP PUSH1 0x20 DUP3 ADD MLOAD PUSH2 0x476B PUSH1 0x20 DUP6 ADD DUP3 PUSH2 0x3874 JUMP JUMPDEST POP PUSH1 0x40 DUP3 ADD MLOAD PUSH2 0x477E PUSH1 0x40 DUP6 ADD DUP3 PUSH2 0x4A1D JUMP JUMPDEST POP PUSH1 0x60 DUP3 ADD MLOAD PUSH2 0x4791 PUSH1 0x60 DUP6 ADD DUP3 PUSH2 0x4A1D JUMP JUMPDEST POP PUSH1 0x80 DUP3 ADD MLOAD PUSH2 0x47A4 PUSH1 0x80 DUP6 ADD DUP3 PUSH2 0x4A1D JUMP JUMPDEST POP PUSH1 0xA0 DUP3 ADD MLOAD PUSH2 0x47B7 PUSH1 0xA0 DUP6 ADD DUP3 PUSH2 0x4A1D JUMP JUMPDEST POP PUSH1 0xC0 DUP3 ADD MLOAD PUSH2 0x47CA PUSH1 0xC0 DUP6 ADD DUP3 PUSH2 0x4A1D JUMP JUMPDEST POP PUSH1 0xE0 DUP3 ADD MLOAD PUSH2 0x47DD PUSH1 0xE0 DUP6 ADD DUP3 PUSH2 0x4A1D JUMP JUMPDEST POP PUSH2 0x100 DUP3 ADD MLOAD PUSH2 0x47F2 PUSH2 0x100 DUP6 ADD DUP3 PUSH2 0x4A1D JUMP JUMPDEST POP PUSH2 0x120 DUP3 ADD MLOAD PUSH2 0x4807 PUSH2 0x120 DUP6 ADD DUP3 PUSH2 0x4A1D JUMP JUMPDEST POP PUSH2 0x140 DUP3 ADD MLOAD PUSH2 0x481C PUSH2 0x140 DUP6 ADD DUP3 PUSH2 0x3892 JUMP JUMPDEST POP POP POP POP JUMP JUMPDEST PUSH2 0x160 DUP3 ADD PUSH1 0x0 DUP1 DUP4 ADD SLOAD SWAP1 POP PUSH2 0x4838 DUP2 PUSH2 0x52F6 JUMP JUMPDEST PUSH2 0x4845 PUSH1 0x0 DUP7 ADD DUP3 PUSH2 0x4A1D JUMP JUMPDEST POP PUSH1 0x1 DUP4 ADD SLOAD SWAP1 POP PUSH2 0x4856 DUP2 PUSH2 0x52C2 JUMP JUMPDEST PUSH2 0x4863 PUSH1 0x20 DUP7 ADD DUP3 PUSH2 0x3874 JUMP JUMPDEST POP PUSH1 0x2 DUP4 ADD SLOAD SWAP1 POP PUSH2 0x4874 DUP2 PUSH2 0x52F6 JUMP JUMPDEST PUSH2 0x4881 PUSH1 0x40 DUP7 ADD DUP3 PUSH2 0x4A1D JUMP JUMPDEST POP PUSH1 0x3 DUP4 ADD SLOAD SWAP1 POP PUSH2 0x4892 DUP2 PUSH2 0x52F6 JUMP JUMPDEST PUSH2 0x489F PUSH1 0x60 DUP7 ADD DUP3 PUSH2 0x4A1D JUMP JUMPDEST POP PUSH1 0x4 DUP4 ADD SLOAD SWAP1 POP PUSH2 0x48B0 DUP2 PUSH2 0x52F6 JUMP JUMPDEST PUSH2 0x48BD PUSH1 0x80 DUP7 ADD DUP3 PUSH2 0x4A1D JUMP JUMPDEST POP PUSH1 0x5 DUP4 ADD SLOAD SWAP1 POP PUSH2 0x48CE DUP2 PUSH2 0x52F6 JUMP JUMPDEST PUSH2 0x48DB PUSH1 0xA0 DUP7 ADD DUP3 PUSH2 0x4A1D JUMP JUMPDEST POP PUSH1 0x6 DUP4 ADD SLOAD SWAP1 POP PUSH2 0x48EC DUP2 PUSH2 0x52F6 JUMP JUMPDEST PUSH2 0x48F9 PUSH1 0xC0 DUP7 ADD DUP3 PUSH2 0x4A1D JUMP JUMPDEST POP PUSH1 0x7 DUP4 ADD SLOAD SWAP1 POP PUSH2 0x490A DUP2 PUSH2 0x52F6 JUMP JUMPDEST PUSH2 0x4917 PUSH1 0xE0 DUP7 ADD DUP3 PUSH2 0x4A1D JUMP JUMPDEST POP PUSH1 0x8 DUP4 ADD SLOAD SWAP1 POP PUSH2 0x4928 DUP2 PUSH2 0x52F6 JUMP JUMPDEST PUSH2 0x4936 PUSH2 0x100 DUP7 ADD DUP3 PUSH2 0x4A1D JUMP JUMPDEST POP PUSH1 0x9 DUP4 ADD SLOAD SWAP1 POP PUSH2 0x4947 DUP2 PUSH2 0x52F6 JUMP JUMPDEST PUSH2 0x4955 PUSH2 0x120 DUP7 ADD DUP3 PUSH2 0x4A1D JUMP JUMPDEST POP PUSH1 0xA DUP4 ADD SLOAD SWAP1 POP PUSH2 0x4966 DUP2 PUSH2 0x52DC JUMP JUMPDEST PUSH2 0x4974 PUSH2 0x140 DUP7 ADD DUP3 PUSH2 0x3892 JUMP JUMPDEST POP POP POP POP POP JUMP JUMPDEST PUSH2 0x100 DUP3 ADD PUSH1 0x0 DUP3 ADD MLOAD PUSH2 0x4992 PUSH1 0x0 DUP6 ADD DUP3 PUSH2 0x4A1D JUMP JUMPDEST POP PUSH1 0x20 DUP3 ADD MLOAD PUSH2 0x49A5 PUSH1 0x20 DUP6 ADD DUP3 PUSH2 0x380A JUMP JUMPDEST POP PUSH1 0x40 DUP3 ADD MLOAD PUSH2 0x49B8 PUSH1 0x40 DUP6 ADD DUP3 PUSH2 0x37D5 JUMP JUMPDEST POP PUSH1 0x60 DUP3 ADD MLOAD PUSH2 0x49CB PUSH1 0x60 DUP6 ADD DUP3 PUSH2 0x37D5 JUMP JUMPDEST POP PUSH1 0x80 DUP3 ADD MLOAD PUSH2 0x49DE PUSH1 0x80 DUP6 ADD DUP3 PUSH2 0x3830 JUMP JUMPDEST POP PUSH1 0xA0 DUP3 ADD MLOAD PUSH2 0x49F1 PUSH1 0xA0 DUP6 ADD DUP3 PUSH2 0x38B0 JUMP JUMPDEST POP PUSH1 0xC0 DUP3 ADD MLOAD PUSH2 0x4A04 PUSH1 0xC0 DUP6 ADD DUP3 PUSH2 0x4A1D JUMP JUMPDEST POP PUSH1 0xE0 DUP3 ADD MLOAD PUSH2 0x4A17 PUSH1 0xE0 DUP6 ADD DUP3 PUSH2 0x4A1D JUMP JUMPDEST POP POP POP POP JUMP JUMPDEST PUSH2 0x4A26 DUP2 PUSH2 0x524F JUMP JUMPDEST DUP3 MSTORE POP POP JUMP JUMPDEST PUSH2 0x4A35 DUP2 PUSH2 0x524F JUMP JUMPDEST DUP3 MSTORE POP POP JUMP JUMPDEST PUSH2 0x4A4C PUSH2 0x4A47 DUP3 PUSH2 0x524F JUMP JUMPDEST PUSH2 0x5350 JUMP JUMPDEST DUP3 MSTORE POP POP JUMP JUMPDEST PUSH1 0x0 PUSH2 0x4A5E DUP3 DUP12 PUSH2 0x4A3B JUMP JUMPDEST PUSH1 0x20 DUP3 ADD SWAP2 POP PUSH2 0x4A6E DUP3 DUP11 PUSH2 0x3819 JUMP JUMPDEST PUSH1 0x1 DUP3 ADD SWAP2 POP PUSH2 0x4A7E DUP3 DUP10 PUSH2 0x37E4 JUMP JUMPDEST PUSH1 0x14 DUP3 ADD SWAP2 POP PUSH2 0x4A8E DUP3 DUP9 PUSH2 0x37E4 JUMP JUMPDEST PUSH1 0x14 DUP3 ADD SWAP2 POP PUSH2 0x4A9E DUP3 DUP8 PUSH2 0x384E JUMP JUMPDEST PUSH1 0x20 DUP3 ADD SWAP2 POP PUSH2 0x4AAE DUP3 DUP7 PUSH2 0x38BF JUMP JUMPDEST PUSH1 0x1 DUP3 ADD SWAP2 POP PUSH2 0x4ABE DUP3 DUP6 PUSH2 0x4A3B JUMP JUMPDEST PUSH1 0x20 DUP3 ADD SWAP2 POP PUSH2 0x4ACE DUP3 DUP5 PUSH2 0x4A3B JUMP JUMPDEST PUSH1 0x20 DUP3 ADD SWAP2 POP DUP2 SWAP1 POP SWAP10 SWAP9 POP POP POP POP POP POP POP POP POP JUMP JUMPDEST PUSH1 0x0 PUSH1 0x20 DUP3 ADD SWAP1 POP PUSH2 0x4AF9 PUSH1 0x0 DUP4 ADD DUP5 PUSH2 0x37FB JUMP JUMPDEST SWAP3 SWAP2 POP POP JUMP JUMPDEST PUSH1 0x0 PUSH1 0x20 DUP3 ADD SWAP1 POP PUSH2 0x4B14 PUSH1 0x0 DUP4 ADD DUP5 PUSH2 0x383F JUMP JUMPDEST SWAP3 SWAP2 POP POP JUMP JUMPDEST PUSH1 0x0 PUSH1 0x20 DUP3 ADD SWAP1 POP PUSH2 0x4B2F PUSH1 0x0 DUP4 ADD DUP5 PUSH2 0x3865 JUMP JUMPDEST SWAP3 SWAP2 POP POP JUMP JUMPDEST PUSH1 0x0 PUSH1 0x20 DUP3 ADD SWAP1 POP PUSH2 0x4B4A PUSH1 0x0 DUP4 ADD DUP5 PUSH2 0x38A1 JUMP JUMPDEST SWAP3 SWAP2 POP POP JUMP JUMPDEST PUSH1 0x0 PUSH1 0x20 DUP3 ADD SWAP1 POP DUP2 DUP2 SUB PUSH1 0x0 DUP4 ADD MSTORE PUSH2 0x4B6B DUP2 DUP5 DUP7 PUSH2 0x38D6 JUMP JUMPDEST SWAP1 POP SWAP4 SWAP3 POP POP POP JUMP JUMPDEST PUSH1 0x0 PUSH1 0x20 DUP3 ADD SWAP1 POP DUP2 DUP2 SUB PUSH1 0x0 DUP4 ADD MSTORE PUSH2 0x4B8D DUP2 PUSH2 0x3903 JUMP JUMPDEST SWAP1 POP SWAP2 SWAP1 POP JUMP JUMPDEST PUSH1 0x0 PUSH1 0x20 DUP3 ADD SWAP1 POP DUP2 DUP2 SUB PUSH1 0x0 DUP4 ADD MSTORE PUSH2 0x4BAD DUP2 PUSH2 0x3969 JUMP JUMPDEST SWAP1 POP SWAP2 SWAP1 POP JUMP JUMPDEST PUSH1 0x0 PUSH1 0x20 DUP3 ADD SWAP1 POP DUP2 DUP2 SUB PUSH1 0x0 DUP4 ADD MSTORE PUSH2 0x4BCD DUP2 PUSH2 0x39CF JUMP JUMPDEST SWAP1 POP SWAP2 SWAP1 POP JUMP JUMPDEST PUSH1 0x0 PUSH1 0x20 DUP3 ADD SWAP1 POP DUP2 DUP2 SUB PUSH1 0x0 DUP4 ADD MSTORE PUSH2 0x4BED DUP2 PUSH2 0x3A35 JUMP JUMPDEST SWAP1 POP SWAP2 SWAP1 POP JUMP JUMPDEST PUSH1 0x0 PUSH1 0x20 DUP3 ADD SWAP1 POP DUP2 DUP2 SUB PUSH1 0x0 DUP4 ADD MSTORE PUSH2 0x4C0D DUP2 PUSH2 0x3A75 JUMP JUMPDEST SWAP1 POP SWAP2 SWAP1 POP JUMP JUMPDEST PUSH1 0x0 PUSH1 0x20 DUP3 ADD SWAP1 POP DUP2 DUP2 SUB PUSH1 0x0 DUP4 ADD MSTORE PUSH2 0x4C2D DUP2 PUSH2 0x3ADB JUMP JUMPDEST SWAP1 POP SWAP2 SWAP1 POP JUMP JUMPDEST PUSH1 0x0 PUSH1 0x20 DUP3 ADD SWAP1 POP DUP2 DUP2 SUB PUSH1 0x0 DUP4 ADD MSTORE PUSH2 0x4C4D DUP2 PUSH2 0x3B41 JUMP JUMPDEST SWAP1 POP SWAP2 SWAP1 POP JUMP JUMPDEST PUSH1 0x0 PUSH1 0x20 DUP3 ADD SWAP1 POP DUP2 DUP2 SUB PUSH1 0x0 DUP4 ADD MSTORE PUSH2 0x4C6D DUP2 PUSH2 0x3BA7 JUMP JUMPDEST SWAP1 POP SWAP2 SWAP1 POP JUMP JUMPDEST PUSH1 0x0 PUSH1 0x20 DUP3 ADD SWAP1 POP DUP2 DUP2 SUB PUSH1 0x0 DUP4 ADD MSTORE PUSH2 0x4C8D DUP2 PUSH2 0x3C33 JUMP JUMPDEST SWAP1 POP SWAP2 SWAP1 POP JUMP JUMPDEST PUSH1 0x0 PUSH1 0x20 DUP3 ADD SWAP1 POP DUP2 DUP2 SUB PUSH1 0x0 DUP4 ADD MSTORE PUSH2 0x4CAD DUP2 PUSH2 0x3C99 JUMP JUMPDEST SWAP1 POP SWAP2 SWAP1 POP JUMP JUMPDEST PUSH1 0x0 PUSH1 0x20 DUP3 ADD SWAP1 POP DUP2 DUP2 SUB PUSH1 0x0 DUP4 ADD MSTORE PUSH2 0x4CCD DUP2 PUSH2 0x3CFF JUMP JUMPDEST SWAP1 POP SWAP2 SWAP1 POP JUMP JUMPDEST PUSH1 0x0 PUSH1 0x20 DUP3 ADD SWAP1 POP DUP2 DUP2 SUB PUSH1 0x0 DUP4 ADD MSTORE PUSH2 0x4CED DUP2 PUSH2 0x3D65 JUMP JUMPDEST SWAP1 POP SWAP2 SWAP1 POP JUMP JUMPDEST PUSH1 0x0 PUSH1 0x20 DUP3 ADD SWAP1 POP DUP2 DUP2 SUB PUSH1 0x0 DUP4 ADD MSTORE PUSH2 0x4D0D DUP2 PUSH2 0x3DCB JUMP JUMPDEST SWAP1 POP SWAP2 SWAP1 POP JUMP JUMPDEST PUSH1 0x0 PUSH1 0x20 DUP3 ADD SWAP1 POP DUP2 DUP2 SUB PUSH1 0x0 DUP4 ADD MSTORE PUSH2 0x4D2D DUP2 PUSH2 0x3E31 JUMP JUMPDEST SWAP1 POP SWAP2 SWAP1 POP JUMP JUMPDEST PUSH1 0x0 PUSH1 0x20 DUP3 ADD SWAP1 POP DUP2 DUP2 SUB PUSH1 0x0 DUP4 ADD MSTORE PUSH2 0x4D4D DUP2 PUSH2 0x3E97 JUMP JUMPDEST SWAP1 POP SWAP2 SWAP1 POP JUMP JUMPDEST PUSH1 0x0 PUSH1 0x20 DUP3 ADD SWAP1 POP DUP2 DUP2 SUB PUSH1 0x0 DUP4 ADD MSTORE PUSH2 0x4D6D DUP2 PUSH2 0x3EFD JUMP JUMPDEST SWAP1 POP SWAP2 SWAP1 POP JUMP JUMPDEST PUSH1 0x0 PUSH1 0x20 DUP3 ADD SWAP1 POP DUP2 DUP2 SUB PUSH1 0x0 DUP4 ADD MSTORE PUSH2 0x4D8D DUP2 PUSH2 0x3F63 JUMP JUMPDEST SWAP1 POP SWAP2 SWAP1 POP JUMP JUMPDEST PUSH1 0x0 PUSH1 0x20 DUP3 ADD SWAP1 POP DUP2 DUP2 SUB PUSH1 0x0 DUP4 ADD MSTORE PUSH2 0x4DAD DUP2 PUSH2 0x3FC9 JUMP JUMPDEST SWAP1 POP SWAP2 SWAP1 POP JUMP JUMPDEST PUSH1 0x0 PUSH1 0x20 DUP3 ADD SWAP1 POP DUP2 DUP2 SUB PUSH1 0x0 DUP4 ADD MSTORE PUSH2 0x4DCD DUP2 PUSH2 0x402F JUMP JUMPDEST SWAP1 POP SWAP2 SWAP1 POP JUMP JUMPDEST PUSH1 0x0 PUSH1 0x20 DUP3 ADD SWAP1 POP DUP2 DUP2 SUB PUSH1 0x0 DUP4 ADD MSTORE PUSH2 0x4DED DUP2 PUSH2 0x4095 JUMP JUMPDEST SWAP1 POP SWAP2 SWAP1 POP JUMP JUMPDEST PUSH1 0x0 PUSH1 0x20 DUP3 ADD SWAP1 POP DUP2 DUP2 SUB PUSH1 0x0 DUP4 ADD MSTORE PUSH2 0x4E0D DUP2 PUSH2 0x4121 JUMP JUMPDEST SWAP1 POP SWAP2 SWAP1 POP JUMP JUMPDEST PUSH1 0x0 PUSH1 0x20 DUP3 ADD SWAP1 POP DUP2 DUP2 SUB PUSH1 0x0 DUP4 ADD MSTORE PUSH2 0x4E2D DUP2 PUSH2 0x41AD JUMP JUMPDEST SWAP1 POP SWAP2 SWAP1 POP JUMP JUMPDEST PUSH1 0x0 PUSH1 0x20 DUP3 ADD SWAP1 POP DUP2 DUP2 SUB PUSH1 0x0 DUP4 ADD MSTORE PUSH2 0x4E4D DUP2 PUSH2 0x4213 JUMP JUMPDEST SWAP1 POP SWAP2 SWAP1 POP JUMP JUMPDEST PUSH1 0x0 PUSH1 0x20 DUP3 ADD SWAP1 POP DUP2 DUP2 SUB PUSH1 0x0 DUP4 ADD MSTORE PUSH2 0x4E6D DUP2 PUSH2 0x4279 JUMP JUMPDEST SWAP1 POP SWAP2 SWAP1 POP JUMP JUMPDEST PUSH1 0x0 PUSH1 0x20 DUP3 ADD SWAP1 POP DUP2 DUP2 SUB PUSH1 0x0 DUP4 ADD MSTORE PUSH2 0x4E8D DUP2 PUSH2 0x42DF JUMP JUMPDEST SWAP1 POP SWAP2 SWAP1 POP JUMP JUMPDEST PUSH1 0x0 PUSH1 0x20 DUP3 ADD SWAP1 POP DUP2 DUP2 SUB PUSH1 0x0 DUP4 ADD MSTORE PUSH2 0x4EAD DUP2 PUSH2 0x4345 JUMP JUMPDEST SWAP1 POP SWAP2 SWAP1 POP JUMP JUMPDEST PUSH1 0x0 PUSH1 0x20 DUP3 ADD SWAP1 POP DUP2 DUP2 SUB PUSH1 0x0 DUP4 ADD MSTORE PUSH2 0x4ECD DUP2 PUSH2 0x43AB JUMP JUMPDEST SWAP1 POP SWAP2 SWAP1 POP JUMP JUMPDEST PUSH1 0x0 PUSH1 0x20 DUP3 ADD SWAP1 POP DUP2 DUP2 SUB PUSH1 0x0 DUP4 ADD MSTORE PUSH2 0x4EED DUP2 PUSH2 0x4437 JUMP JUMPDEST SWAP1 POP SWAP2 SWAP1 POP JUMP JUMPDEST PUSH1 0x0 PUSH1 0x20 DUP3 ADD SWAP1 POP DUP2 DUP2 SUB PUSH1 0x0 DUP4 ADD MSTORE PUSH2 0x4F0D DUP2 PUSH2 0x449D JUMP JUMPDEST SWAP1 POP SWAP2 SWAP1 POP JUMP JUMPDEST PUSH1 0x0 PUSH1 0x20 DUP3 ADD SWAP1 POP DUP2 DUP2 SUB PUSH1 0x0 DUP4 ADD MSTORE PUSH2 0x4F2D DUP2 PUSH2 0x4503 JUMP JUMPDEST SWAP1 POP SWAP2 SWAP1 POP JUMP JUMPDEST PUSH1 0x0 PUSH1 0x20 DUP3 ADD SWAP1 POP DUP2 DUP2 SUB PUSH1 0x0 DUP4 ADD MSTORE PUSH2 0x4F4D DUP2 PUSH2 0x451D JUMP JUMPDEST SWAP1 POP SWAP2 SWAP1 POP JUMP JUMPDEST PUSH1 0x0 PUSH1 0x20 DUP3 ADD SWAP1 POP DUP2 DUP2 SUB PUSH1 0x0 DUP4 ADD MSTORE PUSH2 0x4F6D DUP2 PUSH2 0x4583 JUMP JUMPDEST SWAP1 POP SWAP2 SWAP1 POP JUMP JUMPDEST PUSH1 0x0 PUSH1 0x20 DUP3 ADD SWAP1 POP DUP2 DUP2 SUB PUSH1 0x0 DUP4 ADD MSTORE PUSH2 0x4F8D DUP2 PUSH2 0x45E9 JUMP JUMPDEST SWAP1 POP SWAP2 SWAP1 POP JUMP JUMPDEST PUSH1 0x0 PUSH1 0x20 DUP3 ADD SWAP1 POP DUP2 DUP2 SUB PUSH1 0x0 DUP4 ADD MSTORE PUSH2 0x4FAD DUP2 PUSH2 0x464F JUMP JUMPDEST SWAP1 POP SWAP2 SWAP1 POP JUMP JUMPDEST PUSH1 0x0 PUSH1 0x20 DUP3 ADD SWAP1 POP DUP2 DUP2 SUB PUSH1 0x0 DUP4 ADD MSTORE PUSH2 0x4FCD DUP2 PUSH2 0x46B5 JUMP JUMPDEST SWAP1 POP SWAP2 SWAP1 POP JUMP JUMPDEST PUSH1 0x0 PUSH2 0x160 DUP3 ADD SWAP1 POP PUSH2 0x4FEA PUSH1 0x0 DUP4 ADD DUP5 PUSH2 0x4741 JUMP JUMPDEST SWAP3 SWAP2 POP POP JUMP JUMPDEST PUSH1 0x0 PUSH2 0x160 DUP3 ADD SWAP1 POP PUSH2 0x5006 PUSH1 0x0 DUP4 ADD DUP5 PUSH2 0x4822 JUMP JUMPDEST SWAP3 SWAP2 POP POP JUMP JUMPDEST PUSH1 0x0 PUSH2 0x100 DUP3 ADD SWAP1 POP PUSH2 0x5022 PUSH1 0x0 DUP4 ADD DUP5 PUSH2 0x497B JUMP JUMPDEST SWAP3 SWAP2 POP POP JUMP JUMPDEST PUSH1 0x0 PUSH1 0x20 DUP3 ADD SWAP1 POP PUSH2 0x503D PUSH1 0x0 DUP4 ADD DUP5 PUSH2 0x4A2C JUMP JUMPDEST SWAP3 SWAP2 POP POP JUMP JUMPDEST PUSH1 0x0 PUSH2 0x160 DUP3 ADD SWAP1 POP PUSH2 0x5059 PUSH1 0x0 DUP4 ADD DUP15 PUSH2 0x4A2C JUMP JUMPDEST PUSH2 0x5066 PUSH1 0x20 DUP4 ADD DUP14 PUSH2 0x3883 JUMP JUMPDEST PUSH2 0x5073 PUSH1 0x40 DUP4 ADD DUP13 PUSH2 0x4A2C JUMP JUMPDEST PUSH2 0x5080 PUSH1 0x60 DUP4 ADD DUP12 PUSH2 0x4A2C JUMP JUMPDEST PUSH2 0x508D PUSH1 0x80 DUP4 ADD DUP11 PUSH2 0x4A2C JUMP JUMPDEST PUSH2 0x509A PUSH1 0xA0 DUP4 ADD DUP10 PUSH2 0x4A2C JUMP JUMPDEST PUSH2 0x50A7 PUSH1 0xC0 DUP4 ADD DUP9 PUSH2 0x4A2C JUMP JUMPDEST PUSH2 0x50B4 PUSH1 0xE0 DUP4 ADD DUP8 PUSH2 0x4A2C JUMP JUMPDEST PUSH2 0x50C2 PUSH2 0x100 DUP4 ADD DUP7 PUSH2 0x4A2C JUMP JUMPDEST PUSH2 0x50D0 PUSH2 0x120 DUP4 ADD DUP6 PUSH2 0x4A2C JUMP JUMPDEST PUSH2 0x50DE PUSH2 0x140 DUP4 ADD DUP5 PUSH2 0x38A1 JUMP JUMPDEST SWAP13 SWAP12 POP POP POP POP POP POP POP POP POP POP POP POP JUMP JUMPDEST PUSH1 0x0 PUSH1 0x40 DUP3 ADD SWAP1 POP PUSH2 0x5103 PUSH1 0x0 DUP4 ADD DUP5 PUSH2 0x4A2C JUMP JUMPDEST DUP2 DUP2 SUB PUSH1 0x20 DUP4 ADD MSTORE PUSH2 0x5114 DUP2 PUSH2 0x4503 JUMP JUMPDEST SWAP1 POP SWAP3 SWAP2 POP POP JUMP JUMPDEST PUSH1 0x0 PUSH1 0x40 DUP3 ADD SWAP1 POP PUSH2 0x5131 PUSH1 0x0 DUP4 ADD DUP6 PUSH2 0x4A2C JUMP JUMPDEST PUSH2 0x513E PUSH1 0x20 DUP4 ADD DUP5 PUSH2 0x4A2C JUMP JUMPDEST SWAP4 SWAP3 POP POP POP JUMP JUMPDEST PUSH1 0x0 PUSH1 0x40 MLOAD SWAP1 POP DUP2 DUP2 ADD DUP2 DUP2 LT PUSH8 0xFFFFFFFFFFFFFFFF DUP3 GT OR ISZERO PUSH2 0x516C JUMPI PUSH2 0x516B PUSH2 0x536C JUMP JUMPDEST JUMPDEST DUP1 PUSH1 0x40 MSTORE POP SWAP2 SWAP1 POP JUMP JUMPDEST PUSH1 0x0 DUP3 DUP3 MSTORE PUSH1 0x20 DUP3 ADD SWAP1 POP SWAP3 SWAP2 POP POP JUMP JUMPDEST PUSH1 0x0 DUP3 DUP3 MSTORE PUSH1 0x20 DUP3 ADD SWAP1 POP SWAP3 SWAP2 POP POP JUMP JUMPDEST PUSH1 0x0 PUSH1 0xFF DUP3 AND SWAP1 POP SWAP2 SWAP1 POP JUMP JUMPDEST PUSH1 0x0 PUSH1 0xFF DUP3 AND SWAP1 POP SWAP2 SWAP1 POP JUMP JUMPDEST PUSH1 0x0 DUP2 SWAP1 POP SWAP2 SWAP1 POP JUMP JUMPDEST PUSH1 0x0 PUSH2 0x51C7 DUP3 PUSH2 0x522F JUMP JUMPDEST SWAP1 POP SWAP2 SWAP1 POP JUMP JUMPDEST PUSH1 0x0 PUSH2 0x51D9 DUP3 PUSH2 0x522F JUMP JUMPDEST SWAP1 POP SWAP2 SWAP1 POP JUMP JUMPDEST PUSH1 0x0 DUP2 ISZERO ISZERO SWAP1 POP SWAP2 SWAP1 POP JUMP JUMPDEST PUSH1 0x0 DUP2 SWAP1 POP SWAP2 SWAP1 POP JUMP JUMPDEST PUSH1 0x0 DUP2 SWAP1 POP PUSH2 0x5204 DUP3 PUSH2 0x53A6 JUMP JUMPDEST SWAP2 SWAP1 POP JUMP JUMPDEST PUSH1 0x0 DUP2 SWAP1 POP PUSH2 0x5217 DUP3 PUSH2 0x53BA JUMP JUMPDEST SWAP2 SWAP1 POP JUMP JUMPDEST PUSH1 0x0 DUP2 SWAP1 POP PUSH2 0x522A DUP3 PUSH2 0x53CE JUMP JUMPDEST SWAP2 SWAP1 POP JUMP JUMPDEST PUSH1 0x0 PUSH20 0xFFFFFFFFFFFFFFFFFFFFFFFFFFFFFFFFFFFFFFFF DUP3 AND SWAP1 POP SWAP2 SWAP1 POP JUMP JUMPDEST PUSH1 0x0 DUP2 SWAP1 POP SWAP2 SWAP1 POP JUMP JUMPDEST PUSH1 0x0 PUSH2 0x5264 DUP3 PUSH2 0x526B JUMP JUMPDEST SWAP1 POP SWAP2 SWAP1 POP JUMP JUMPDEST PUSH1 0x0 PUSH2 0x5276 DUP3 PUSH2 0x522F JUMP JUMPDEST SWAP1 POP SWAP2 SWAP1 POP JUMP JUMPDEST PUSH1 0x0 PUSH2 0x5288 DUP3 PUSH2 0x51F6 JUMP JUMPDEST SWAP1 POP SWAP2 SWAP1 POP JUMP JUMPDEST PUSH1 0x0 PUSH2 0x529A DUP3 PUSH2 0x5209 JUMP JUMPDEST SWAP1 POP SWAP2 SWAP1 POP JUMP JUMPDEST PUSH1 0x0 PUSH2 0x52AC DUP3 PUSH2 0x521C JUMP JUMPDEST SWAP1 POP SWAP2 SWAP1 POP JUMP JUMPDEST DUP3 DUP2 DUP4 CALLDATACOPY PUSH1 0x0 DUP4 DUP4 ADD MSTORE POP POP POP JUMP JUMPDEST PUSH1 0x0 PUSH2 0x52D5 PUSH2 0x52D0 DUP4 PUSH2 0x5399 JUMP JUMPDEST PUSH2 0x5198 JUMP JUMPDEST SWAP1 POP SWAP2 SWAP1 POP JUMP JUMPDEST PUSH1 0x0 PUSH2 0x52EF PUSH2 0x52EA DUP4 PUSH2 0x5399 JUMP JUMPDEST PUSH2 0x51A5 JUMP JUMPDEST SWAP1 POP SWAP2 SWAP1 POP JUMP JUMPDEST PUSH1 0x0 PUSH2 0x5309 PUSH2 0x5304 DUP4 PUSH2 0x5399 JUMP JUMPDEST PUSH2 0x51B2 JUMP JUMPDEST SWAP1 POP SWAP2 SWAP1 POP JUMP JUMPDEST PUSH1 0x0 PUSH2 0x531B DUP3 PUSH2 0x533E JUMP JUMPDEST SWAP1 POP SWAP2 SWAP1 POP JUMP JUMPDEST PUSH1 0x0 PUSH2 0x532D DUP3 PUSH2 0x535A JUMP JUMPDEST SWAP1 POP SWAP2 SWAP1 POP JUMP JUMPDEST PUSH1 0x0 DUP2 SWAP1 POP SWAP2 SWAP1 POP JUMP JUMPDEST PUSH1 0x0 PUSH2 0x5349 DUP3 PUSH2 0x538C JUMP JUMPDEST SWAP1 POP SWAP2 SWAP1 POP JUMP JUMPDEST PUSH1 0x0 DUP2 SWAP1 POP SWAP2 SWAP1 POP JUMP JUMPDEST PUSH1 0x0 PUSH2 0x5365 DUP3 PUSH2 0x537F JUMP JUMPDEST SWAP1 POP SWAP2 SWAP1 POP JUMP JUMPDEST INVALID JUMPDEST PUSH1 0x0 PUSH1 0x1F NOT PUSH1 0x1F DUP4 ADD AND SWAP1 POP SWAP2 SWAP1 POP JUMP JUMPDEST PUSH1 0x0 DUP2 PUSH1 0xF8 SHL SWAP1 POP SWAP2 SWAP1 POP JUMP JUMPDEST PUSH1 0x0 DUP2 PUSH1 0x60 SHL SWAP1 POP SWAP2 SWAP1 POP JUMP JUMPDEST PUSH1 0x0 DUP2 PUSH1 0x0 SHR SWAP1 POP SWAP2 SWAP1 POP JUMP JUMPDEST PUSH1 0x5 DUP2 LT PUSH2 0x53B7 JUMPI PUSH2 0x53B6 PUSH2 0x536C JUMP JUMPDEST JUMPDEST POP JUMP JUMPDEST PUSH1 0x3 DUP2 LT PUSH2 0x53CB JUMPI PUSH2 0x53CA PUSH2 0x536C JUMP JUMPDEST JUMPDEST POP JUMP JUMPDEST PUSH1 0x5 DUP2 LT PUSH2 0x53DF JUMPI PUSH2 0x53DE PUSH2 0x536C JUMP JUMPDEST JUMPDEST POP JUMP JUMPDEST PUSH2 0x53EB DUP2 PUSH2 0x51CE JUMP JUMPDEST DUP2 EQ PUSH2 0x53F6 JUMPI PUSH1 0x0 DUP1 REVERT JUMPDEST POP JUMP JUMPDEST PUSH2 0x5402 DUP2 PUSH2 0x51E0 JUMP JUMPDEST DUP2 EQ PUSH2 0x540D JUMPI PUSH1 0x0 DUP1 REVERT JUMPDEST POP JUMP JUMPDEST PUSH2 0x5419 DUP2 PUSH2 0x51EC JUMP JUMPDEST DUP2 EQ PUSH2 0x5424 JUMPI PUSH1 0x0 DUP1 REVERT JUMPDEST POP JUMP JUMPDEST PUSH1 0x5 DUP2 LT PUSH2 0x5434 JUMPI PUSH1 0x0 DUP1 REVERT JUMPDEST POP JUMP JUMPDEST PUSH1 0x3 DUP2 LT PUSH2 0x5444 JUMPI PUSH1 0x0 DUP1 REVERT JUMPDEST POP JUMP JUMPDEST PUSH1 0x5 DUP2 LT PUSH2 0x5454 JUMPI PUSH1 0x0 DUP1 REVERT JUMPDEST POP JUMP JUMPDEST PUSH2 0x5460 DUP2 PUSH2 0x524F JUMP JUMPDEST DUP2 EQ PUSH2 0x546B JUMPI PUSH1 0x0 DUP1 REVERT JUMPDEST POP JUMP INVALID LOG2 PUSH5 0x6970667358 0x22 SLT KECCAK256 EXTCODEHASH RETURN DUP3 LOG3 0xC8 PUSH18 0xE270597A7AD9592707988F32A5A39CACD85F 0xAA SWAP3 MSTORE PUSH29 0x6FE7516F64736F6C634300070300330000000000000000000000000000 "
        },
        "methodIdentifiers": {
          "arbitrator()": "6cc6cde1",
          "buyCard(uint256,(uint256,bool,address,address,bytes32,uint8,uint256,uint256),string)": "96265212",
          "disputeID_to_arbitration(uint256)": "8e56956f",
          "executeRuling(uint256,uint256,(uint256,bool,address,address,bytes32,uint8,uint256,uint256))": "968a9173",
          "getCardInfo(uint256,(uint256,bool,address,address,bytes32,uint8,uint256,uint256))": "4ec5d2e0",
          "getNumOfTransactions()": "746fa531",
          "hashTransactionState((uint256,bool,address,address,bytes32,uint8,uint256,uint256))": "94e76262",
          "listNewCard(bytes32,uint256)": "fa1caae8",
          "owner()": "8da5cb5b",
          "payAppealFeeByBuyer(uint256,(uint256,bool,address,address,bytes32,uint8,uint256,uint256),(uint256,uint8,uint256,uint256,uint256,uint256,uint256,uint256,uint256,uint256,uint8))": "835a3300",
          "payAppealFeeBySeller(uint256,(uint256,bool,address,address,bytes32,uint8,uint256,uint256),(uint256,uint8,uint256,uint256,uint256,uint256,uint256,uint256,uint256,uint256,uint8))": "e4f6b3db",
          "payArbitrationFeeByBuyer(uint256,uint256,(uint256,bool,address,address,bytes32,uint8,uint256,uint256),(uint256,uint8,uint256,uint256,uint256,uint256,uint256,uint256,uint256,uint256,uint8))": "7a273ede",
          "payArbitrationFeeBySeller(uint256,uint256,(uint256,bool,address,address,bytes32,uint8,uint256,uint256),(uint256,uint8,uint256,uint256,uint256,uint256,uint256,uint256,uint256,uint256,uint8))": "3caa3772",
          "reclaimDisputeByBuyer(uint256,(uint256,bool,address,address,bytes32,uint8,uint256,uint256))": "da55e085",
          "rule(uint256,uint256)": "311a6c56",
          "setArbitrationFeeDepositPeriod(uint256)": "b0b558fb",
          "setCardPrice(uint256,(uint256,bool,address,address,bytes32,uint8,uint256,uint256),uint256)": "d2a8343b",
          "setReclaimationPeriod(uint256)": "99eb9275",
          "submiteEvidence(uint256,(uint256,bool,address,address,bytes32,uint8,uint256,uint256),string)": "53cae8b1",
          "tx_hashes(uint256)": "ac0d116f",
          "withdrawPriceByBuyer(uint256,(uint256,bool,address,address,bytes32,uint8,uint256,uint256))": "cf5edec8",
          "withdrawPriceBySeller(uint256,(uint256,bool,address,address,bytes32,uint8,uint256,uint256))": "09248b20"
        }
      }
    }
  }
}