{
  "_format": "hh-sol-artifact-1",
  "contractName": "SimpleCentralizedArbitrator",
  "sourceName": "contracts/SimpleCentralizedArbitrator.sol",
  "abi": [
    {
      "anonymous": false,
      "inputs": [
        {
          "indexed": true,
          "internalType": "uint256",
          "name": "_disputeID",
          "type": "uint256"
        },
        {
          "indexed": true,
          "internalType": "contract IArbitrable",
          "name": "_arbitrable",
          "type": "address"
        }
      ],
      "name": "AppealDecision",
      "type": "event"
    },
    {
      "anonymous": false,
      "inputs": [
        {
          "indexed": true,
          "internalType": "uint256",
          "name": "_disputeID",
          "type": "uint256"
        },
        {
          "indexed": true,
          "internalType": "contract IArbitrable",
          "name": "_arbitrable",
          "type": "address"
        }
      ],
      "name": "AppealPossible",
      "type": "event"
    },
    {
      "anonymous": false,
      "inputs": [
        {
          "indexed": true,
          "internalType": "uint256",
          "name": "_disputeID",
          "type": "uint256"
        },
        {
          "indexed": true,
          "internalType": "contract IArbitrable",
          "name": "_arbitrable",
          "type": "address"
        }
      ],
      "name": "DisputeCreation",
      "type": "event"
    },
    {
      "inputs": [
        {
          "internalType": "uint256",
          "name": "_disputeID",
          "type": "uint256"
        },
        {
          "internalType": "bytes",
          "name": "_extraData",
          "type": "bytes"
        }
      ],
      "name": "appeal",
      "outputs": [],
      "stateMutability": "payable",
      "type": "function"
    },
    {
      "inputs": [
        {
          "internalType": "uint256",
          "name": "_disputeID",
          "type": "uint256"
        },
        {
          "internalType": "bytes",
          "name": "_extraData",
          "type": "bytes"
        }
      ],
      "name": "appealCost",
      "outputs": [
        {
          "internalType": "uint256",
          "name": "",
          "type": "uint256"
        }
      ],
      "stateMutability": "pure",
      "type": "function"
    },
    {
      "inputs": [
        {
          "internalType": "uint256",
          "name": "_disputeID",
          "type": "uint256"
        }
      ],
      "name": "appealPeriod",
      "outputs": [
        {
          "internalType": "uint256",
          "name": "start",
          "type": "uint256"
        },
        {
          "internalType": "uint256",
          "name": "end",
          "type": "uint256"
        }
      ],
      "stateMutability": "pure",
      "type": "function"
    },
    {
      "inputs": [
        {
          "internalType": "bytes",
          "name": "_extraData",
          "type": "bytes"
        }
      ],
      "name": "arbitrationCost",
      "outputs": [
        {
          "internalType": "uint256",
          "name": "",
          "type": "uint256"
        }
      ],
      "stateMutability": "pure",
      "type": "function"
    },
    {
      "inputs": [
        {
          "internalType": "uint256",
          "name": "_choices",
          "type": "uint256"
        },
        {
          "internalType": "bytes",
          "name": "_extraData",
          "type": "bytes"
        }
      ],
      "name": "createDispute",
      "outputs": [
        {
          "internalType": "uint256",
          "name": "disputeID",
          "type": "uint256"
        }
      ],
      "stateMutability": "payable",
      "type": "function"
    },
    {
      "inputs": [
        {
          "internalType": "uint256",
          "name": "_disputeID",
          "type": "uint256"
        }
      ],
      "name": "currentRuling",
      "outputs": [
        {
          "internalType": "uint256",
          "name": "ruling",
          "type": "uint256"
        }
      ],
      "stateMutability": "view",
      "type": "function"
    },
    {
      "inputs": [
        {
          "internalType": "uint256",
          "name": "_disputeID",
          "type": "uint256"
        }
      ],
      "name": "disputeStatus",
      "outputs": [
        {
          "internalType": "enum IArbitrator.DisputeStatus",
          "name": "status",
          "type": "uint8"
        }
      ],
      "stateMutability": "view",
      "type": "function"
    },
    {
      "inputs": [
        {
          "internalType": "uint256",
          "name": "",
          "type": "uint256"
        }
      ],
      "name": "disputes",
      "outputs": [
        {
          "internalType": "contract IArbitrable",
          "name": "arbitrated",
          "type": "address"
        },
        {
          "internalType": "uint256",
          "name": "choices",
          "type": "uint256"
        },
        {
          "internalType": "uint256",
          "name": "ruling",
          "type": "uint256"
        },
        {
          "internalType": "enum IArbitrator.DisputeStatus",
          "name": "status",
          "type": "uint8"
        }
      ],
      "stateMutability": "view",
      "type": "function"
    },
    {
      "inputs": [],
      "name": "owner",
      "outputs": [
        {
          "internalType": "address",
          "name": "",
          "type": "address"
        }
      ],
      "stateMutability": "view",
      "type": "function"
    },
    {
      "inputs": [
        {
          "internalType": "uint256",
          "name": "_disputeID",
          "type": "uint256"
        },
        {
          "internalType": "uint256",
          "name": "_ruling",
          "type": "uint256"
        }
      ],
      "name": "rule",
      "outputs": [],
      "stateMutability": "nonpayable",
      "type": "function"
    }
  ],
  "bytecode": "0x6080604052336000806101000a81548173ffffffffffffffffffffffffffffffffffffffff021916908373ffffffffffffffffffffffffffffffffffffffff16021790555034801561005057600080fd5b50610d18806100606000396000f3fe6080604052600436106100915760003560e01c80638da5cb5b116100595780638da5cb5b146102ce578063afe15cfb1461030f578063c13517e114610365578063f23f16e61461043e578063f7434ea91461052457610091565b806310f169e8146100965780631c3db16d146100f0578063311a6c561461013f57806349912f8814610184578063564a565d14610249575b600080fd5b3480156100a257600080fd5b506100cf600480360360208110156100b957600080fd5b8101908080359060200190929190505050610600565b604051808260028111156100df57fe5b815260200191505060405180910390f35b3480156100fc57600080fd5b506101296004803603602081101561011357600080fd5b8101908080359060200190929190505050610635565b6040518082815260200191505060405180910390f35b34801561014b57600080fd5b506101826004803603604081101561016257600080fd5b81019080803590602001909291908035906020019092919050505061065d565b005b6102476004803603604081101561019a57600080fd5b8101908080359060200190929190803590602001906401000000008111156101c157600080fd5b8201836020820111156101d357600080fd5b803590602001918460018302840111640100000000831117156101f557600080fd5b91908080601f016020809104026020016040519081016040528093929190818152602001838380828437600081840152601f19601f820116905080830192505050505050509192919290505050610943565b005b34801561025557600080fd5b506102826004803603602081101561026c57600080fd5b81019080803590602001909291905050506109a9565b604051808573ffffffffffffffffffffffffffffffffffffffff1681526020018481526020018381526020018260028111156102ba57fe5b815260200194505050505060405180910390f35b3480156102da57600080fd5b506102e3610a13565b604051808273ffffffffffffffffffffffffffffffffffffffff16815260200191505060405180910390f35b34801561031b57600080fd5b506103486004803603602081101561033257600080fd5b8101908080359060200190929190505050610a37565b604051808381526020018281526020019250505060405180910390f35b6104286004803603604081101561037b57600080fd5b8101908080359060200190929190803590602001906401000000008111156103a257600080fd5b8201836020820111156103b457600080fd5b803590602001918460018302840111640100000000831117156103d657600080fd5b91908080601f016020809104026020016040519081016040528093929190818152602001838380828437600081840152601f19601f820116905080830192505050505050509192919290505050610a4a565b6040518082815260200191505060405180910390f35b34801561044a57600080fd5b5061050e6004803603604081101561046157600080fd5b81019080803590602001909291908035906020019064010000000081111561048857600080fd5b82018360208201111561049a57600080fd5b803590602001918460018302840111640100000000831117156104bc57600080fd5b91908080601f016020809104026020016040519081016040528093929190818152602001838380828437600081840152601f19601f820116905080830192505050505050509192919290505050610c15565b6040518082815260200191505060405180910390f35b34801561053057600080fd5b506105ea6004803603602081101561054757600080fd5b810190808035906020019064010000000081111561056457600080fd5b82018360208201111561057657600080fd5b8035906020019184600183028401116401000000008311171561059857600080fd5b91908080601f016020809104026020016040519081016040528093929190818152602001838380828437600081840152601f19601f820116905080830192505050505050509192919290505050610c36565b6040518082815260200191505060405180910390f35b60006001828154811061060f57fe5b906000526020600020906004020160030160009054906101000a900460ff169050919050565b60006001828154811061064457fe5b9060005260206000209060040201600201549050919050565b60008054906101000a900473ffffffffffffffffffffffffffffffffffffffff1673ffffffffffffffffffffffffffffffffffffffff163373ffffffffffffffffffffffffffffffffffffffff1614610701576040517f08c379a000000000000000000000000000000000000000000000000000000000815260040180806020018281038252603a815260200180610c5b603a913960400191505060405180910390fd5b60006001838154811061071057fe5b90600052602060002090600402019050806001015482111561079a576040517f08c379a00000000000000000000000000000000000000000000000000000000081526004018080602001828103825260158152602001807f52756c696e67206f7574206f6620626f756e647321000000000000000000000081525060200191505060405180910390fd5b600060028111156107a757fe5b8160030160009054906101000a900460ff1660028111156107c457fe5b1461081a576040517f08c379a0000000000000000000000000000000000000000000000000000000008152600401808060200182810382526024815260200180610c956024913960400191505060405180910390fd5b81816002018190555060028160030160006101000a81548160ff0219169083600281111561084457fe5b02179055503373ffffffffffffffffffffffffffffffffffffffff166108fc61087b60405180602001604052806000815250610c36565b9081150290604051600060405180830381858888f193505050501580156108a6573d6000803e3d6000fd5b508060000160009054906101000a900473ffffffffffffffffffffffffffffffffffffffff1673ffffffffffffffffffffffffffffffffffffffff1663311a6c5684846040518363ffffffff1660e01b81526004018083815260200182815260200192505050600060405180830381600087803b15801561092657600080fd5b505af115801561093a573d6000803e3d6000fd5b50505050505050565b61094d8282610c15565b3410156109a5576040517f08c379a000000000000000000000000000000000000000000000000000000000815260040180806020018281038252602a815260200180610cb9602a913960400191505060405180910390fd5b5050565b600181815481106109b657fe5b90600052602060002090600402016000915090508060000160009054906101000a900473ffffffffffffffffffffffffffffffffffffffff16908060010154908060020154908060030160009054906101000a900460ff16905084565b60008054906101000a900473ffffffffffffffffffffffffffffffffffffffff1681565b6000806000925060008091509150915091565b6000610a5582610c36565b341015610aad576040517f08c379a000000000000000000000000000000000000000000000000000000000815260040180806020018281038252602a815260200180610cb9602a913960400191505060405180910390fd5b600160405180608001604052803373ffffffffffffffffffffffffffffffffffffffff1681526020018581526020017fffffffffffffffffffffffffffffffffffffffffffffffffffffffffffffffff815260200160006002811115610b0f57fe5b815250908060018154018082558091505060019003906000526020600020906004020160009091909190915060008201518160000160006101000a81548173ffffffffffffffffffffffffffffffffffffffff021916908373ffffffffffffffffffffffffffffffffffffffff160217905550602082015181600101556040820151816002015560608201518160030160006101000a81548160ff02191690836002811115610bba57fe5b02179055505050600180805490500390503373ffffffffffffffffffffffffffffffffffffffff16817f141dfc18aa6a56fc816f44f0e9e2f1ebc92b15ab167770e17db5b084c10ed99560405160405180910390a392915050565b60008092506040518060200160405280600081525091506019905092915050565b6000604051806020016040528060008152509150670de0b6b3a7640000905091905056fe4f6e6c7920746865206f776e6572206f66207468697320636f6e74726163742063616e20657865637574652072756c652066756e6374696f6e2e44697370757465206973206e6f74206177616974696e67206172626974726174696f6e2e4e6f7420656e6f7567682045544820746f20636f766572206172626974726174696f6e20636f7374732ea2646970667358221220f31ebb43c6da269b55c50ce8b46ffb9fd7eea538030933b25c0d4f05b8697afa64736f6c63430007030033",
  "linkReferences": {},
  "deployedLinkReferences": {}
}