{
  "_format": "hh-sol-artifact-1",
  "contractName": "SimpleCentralizedArbitrator",
  "sourceName": "contracts/SimpleCentralizedArbitrator.sol",
  "abi": [
    {
      "anonymous": false,
      "inputs": [
        {
          "indexed": true,
          "internalType": "uint256",
          "name": "_disputeID",
          "type": "uint256"
        },
        {
          "indexed": true,
          "internalType": "contract IArbitrable",
          "name": "_arbitrable",
          "type": "address"
        }
      ],
      "name": "AppealDecision",
      "type": "event"
    },
    {
      "anonymous": false,
      "inputs": [
        {
          "indexed": true,
          "internalType": "uint256",
          "name": "_disputeID",
          "type": "uint256"
        },
        {
          "indexed": true,
          "internalType": "contract IArbitrable",
          "name": "_arbitrable",
          "type": "address"
        }
      ],
      "name": "AppealPossible",
      "type": "event"
    },
    {
      "anonymous": false,
      "inputs": [
        {
          "indexed": true,
          "internalType": "uint256",
          "name": "_disputeID",
          "type": "uint256"
        },
        {
          "indexed": true,
          "internalType": "contract IArbitrable",
          "name": "_arbitrable",
          "type": "address"
        }
      ],
      "name": "DisputeCreation",
      "type": "event"
    },
    {
      "inputs": [
        {
          "internalType": "uint256",
          "name": "_disputeID",
          "type": "uint256"
        },
        {
          "internalType": "bytes",
          "name": "_extraData",
          "type": "bytes"
        }
      ],
      "name": "appeal",
      "outputs": [],
      "stateMutability": "payable",
      "type": "function"
    },
    {
      "inputs": [
        {
          "internalType": "uint256",
          "name": "_disputeID",
          "type": "uint256"
        },
        {
          "internalType": "bytes",
          "name": "_extraData",
          "type": "bytes"
        }
      ],
      "name": "appealCost",
      "outputs": [
        {
          "internalType": "uint256",
          "name": "",
          "type": "uint256"
        }
      ],
      "stateMutability": "pure",
      "type": "function"
    },
    {
      "inputs": [
        {
          "internalType": "uint256",
          "name": "_disputeID",
          "type": "uint256"
        }
      ],
      "name": "appealPeriod",
      "outputs": [
        {
          "internalType": "uint256",
          "name": "start",
          "type": "uint256"
        },
        {
          "internalType": "uint256",
          "name": "end",
          "type": "uint256"
        }
      ],
      "stateMutability": "view",
      "type": "function"
    },
    {
      "inputs": [
        {
          "internalType": "bytes",
          "name": "_extraData",
          "type": "bytes"
        }
      ],
      "name": "arbitrationCost",
      "outputs": [
        {
          "internalType": "uint256",
          "name": "",
          "type": "uint256"
        }
      ],
      "stateMutability": "view",
      "type": "function"
    },
    {
      "inputs": [],
      "name": "called",
      "outputs": [
        {
          "internalType": "bool",
          "name": "",
          "type": "bool"
        }
      ],
      "stateMutability": "view",
      "type": "function"
    },
    {
      "inputs": [],
      "name": "changeCalled",
      "outputs": [],
      "stateMutability": "nonpayable",
      "type": "function"
    },
    {
      "inputs": [
        {
          "internalType": "uint256",
          "name": "_choices",
          "type": "uint256"
        },
        {
          "internalType": "bytes",
          "name": "_extraData",
          "type": "bytes"
        }
      ],
      "name": "createDispute",
      "outputs": [
        {
          "internalType": "uint256",
          "name": "disputeID",
          "type": "uint256"
        }
      ],
      "stateMutability": "payable",
      "type": "function"
    },
    {
      "inputs": [
        {
          "internalType": "uint256",
          "name": "_disputeID",
          "type": "uint256"
        }
      ],
      "name": "currentRuling",
      "outputs": [
        {
          "internalType": "uint256",
          "name": "ruling",
          "type": "uint256"
        }
      ],
      "stateMutability": "view",
      "type": "function"
    },
    {
      "inputs": [
        {
          "internalType": "uint256",
          "name": "_disputeID",
          "type": "uint256"
        }
      ],
      "name": "disputeStatus",
      "outputs": [
        {
          "internalType": "enum IArbitrator.DisputeStatus",
          "name": "status",
          "type": "uint8"
        }
      ],
      "stateMutability": "view",
      "type": "function"
    },
    {
      "inputs": [
        {
          "internalType": "uint256",
          "name": "",
          "type": "uint256"
        }
      ],
      "name": "disputes",
      "outputs": [
        {
          "internalType": "contract IArbitrable",
          "name": "arbitrated",
          "type": "address"
        },
        {
          "internalType": "uint256",
          "name": "choices",
          "type": "uint256"
        },
        {
          "internalType": "uint256",
          "name": "ruling",
          "type": "uint256"
        },
        {
          "internalType": "enum IArbitrator.DisputeStatus",
          "name": "status",
          "type": "uint8"
        }
      ],
      "stateMutability": "view",
      "type": "function"
    },
    {
      "inputs": [],
      "name": "owner",
      "outputs": [
        {
          "internalType": "address",
          "name": "",
          "type": "address"
        }
      ],
      "stateMutability": "view",
      "type": "function"
    },
    {
      "inputs": [
        {
          "internalType": "uint256",
          "name": "_disputeID",
          "type": "uint256"
        },
        {
          "internalType": "uint256",
          "name": "_ruling",
          "type": "uint256"
        }
      ],
      "name": "rule",
      "outputs": [],
      "stateMutability": "nonpayable",
      "type": "function"
    },
    {
      "inputs": [],
      "name": "setAppealPeriod",
      "outputs": [],
      "stateMutability": "nonpayable",
      "type": "function"
    }
  ],
  "bytecode": "0x6080604052336000806101000a81548173ffffffffffffffffffffffffffffffffffffffff021916908373ffffffffffffffffffffffffffffffffffffffff16021790555034801561005057600080fd5b50610ef3806100606000396000f3fe6080604052600436106100c25760003560e01c80638da5cb5b1161007f578063c13517e111610059578063c13517e1146103da578063db587be9146104b3578063f23f16e6146104ca578063f7434ea9146105b0576100c2565b80638da5cb5b1461032c578063acd2a3191461036d578063afe15cfb14610384576100c2565b806310f169e8146100c75780631c3db16d14610121578063311a6c561461017057806349912f88146101b557806350f9b6cd1461027a578063564a565d146102a7575b600080fd5b3480156100d357600080fd5b50610100600480360360208110156100ea57600080fd5b810190808035906020019092919050505061068c565b6040518082600281111561011057fe5b815260200191505060405180910390f35b34801561012d57600080fd5b5061015a6004803603602081101561014457600080fd5b81019080803590602001909291905050506106c1565b6040518082815260200191505060405180910390f35b34801561017c57600080fd5b506101b36004803603604081101561019357600080fd5b8101908080359060200190929190803590602001909291905050506106e9565b005b610278600480360360408110156101cb57600080fd5b8101908080359060200190929190803590602001906401000000008111156101f257600080fd5b82018360208201111561020457600080fd5b8035906020019184600183028401116401000000008311171561022657600080fd5b91908080601f016020809104026020016040519081016040528093929190818152602001838380828437600081840152601f19601f8201169050808301925050505050505091929192905050506109cf565b005b34801561028657600080fd5b5061028f610a35565b60405180821515815260200191505060405180910390f35b3480156102b357600080fd5b506102e0600480360360208110156102ca57600080fd5b8101908080359060200190929190505050610a48565b604051808573ffffffffffffffffffffffffffffffffffffffff16815260200184815260200183815260200182600281111561031857fe5b815260200194505050505060405180910390f35b34801561033857600080fd5b50610341610ab2565b604051808273ffffffffffffffffffffffffffffffffffffffff16815260200191505060405180910390f35b34801561037957600080fd5b50610382610ad6565b005b34801561039057600080fd5b506103bd600480360360208110156103a757600080fd5b8101908080359060200190929190505050610ae9565b604051808381526020018281526020019250505060405180910390f35b61049d600480360360408110156103f057600080fd5b81019080803590602001909291908035906020019064010000000081111561041757600080fd5b82018360208201111561042957600080fd5b8035906020019184600183028401116401000000008311171561044b57600080fd5b91908080601f016020809104026020016040519081016040528093929190818152602001838380828437600081840152601f19601f820116905080830192505050505050509192919290505050610aff565b6040518082815260200191505060405180910390f35b3480156104bf57600080fd5b506104c8610ccb565b005b3480156104d657600080fd5b5061059a600480360360408110156104ed57600080fd5b81019080803590602001909291908035906020019064010000000081111561051457600080fd5b82018360208201111561052657600080fd5b8035906020019184600183028401116401000000008311171561054857600080fd5b91908080601f016020809104026020016040519081016040528093929190818152602001838380828437600081840152601f19601f820116905080830192505050505050509192919290505050610da9565b6040518082815260200191505060405180910390f35b3480156105bc57600080fd5b50610676600480360360208110156105d357600080fd5b81019080803590602001906401000000008111156105f057600080fd5b82018360208201111561060257600080fd5b8035906020019184600183028401116401000000008311171561062457600080fd5b91908080601f016020809104026020016040519081016040528093929190818152602001838380828437600081840152601f19601f820116905080830192505050505050509192919290505050610dd2565b6040518082815260200191505060405180910390f35b60006003828154811061069b57fe5b906000526020600020906004020160030160009054906101000a900460ff169050919050565b6000600382815481106106d057fe5b9060005260206000209060040201600201549050919050565b60008054906101000a900473ffffffffffffffffffffffffffffffffffffffff1673ffffffffffffffffffffffffffffffffffffffff163373ffffffffffffffffffffffffffffffffffffffff161461078d576040517f08c379a000000000000000000000000000000000000000000000000000000000815260040180806020018281038252603a815260200180610e36603a913960400191505060405180910390fd5b60006003838154811061079c57fe5b906000526020600020906004020190508060010154821115610826576040517f08c379a00000000000000000000000000000000000000000000000000000000081526004018080602001828103825260158152602001807f52756c696e67206f7574206f6620626f756e647321000000000000000000000081525060200191505060405180910390fd5b6000600281111561083357fe5b8160030160009054906101000a900460ff16600281111561085057fe5b146108a6576040517f08c379a0000000000000000000000000000000000000000000000000000000008152600401808060200182810382526024815260200180610e706024913960400191505060405180910390fd5b81816002018190555060028160030160006101000a81548160ff021916908360028111156108d057fe5b02179055503373ffffffffffffffffffffffffffffffffffffffff166108fc61090760405180602001604052806000815250610dd2565b9081150290604051600060405180830381858888f19350505050158015610932573d6000803e3d6000fd5b508060000160009054906101000a900473ffffffffffffffffffffffffffffffffffffffff1673ffffffffffffffffffffffffffffffffffffffff1663311a6c5684846040518363ffffffff1660e01b81526004018083815260200182815260200192505050600060405180830381600087803b1580156109b257600080fd5b505af11580156109c6573d6000803e3d6000fd5b50505050505050565b6109d98282610da9565b341015610a31576040517f08c379a000000000000000000000000000000000000000000000000000000000815260040180806020018281038252602a815260200180610e94602a913960400191505060405180910390fd5b5050565b600060149054906101000a900460ff1681565b60038181548110610a5557fe5b90600052602060002090600402016000915090508060000160009054906101000a900473ffffffffffffffffffffffffffffffffffffffff16908060010154908060020154908060030160009054906101000a900460ff16905084565b60008054906101000a900473ffffffffffffffffffffffffffffffffffffffff1681565b42600181905550603c4201600281905550565b6000806000925060015460025491509150915091565b6000610b0a82610dd2565b341015610b62576040517f08c379a000000000000000000000000000000000000000000000000000000000815260040180806020018281038252602a815260200180610e94602a913960400191505060405180910390fd5b600360405180608001604052803373ffffffffffffffffffffffffffffffffffffffff1681526020018581526020017fffffffffffffffffffffffffffffffffffffffffffffffffffffffffffffffff815260200160006002811115610bc457fe5b815250908060018154018082558091505060019003906000526020600020906004020160009091909190915060008201518160000160006101000a81548173ffffffffffffffffffffffffffffffffffffffff021916908373ffffffffffffffffffffffffffffffffffffffff160217905550602082015181600101556040820151816002015560608201518160030160006101000a81548160ff02191690836002811115610c6f57fe5b0217905550505060016003805490500390503373ffffffffffffffffffffffffffffffffffffffff16817f141dfc18aa6a56fc816f44f0e9e2f1ebc92b15ab167770e17db5b084c10ed99560405160405180910390a392915050565b60008054906101000a900473ffffffffffffffffffffffffffffffffffffffff1673ffffffffffffffffffffffffffffffffffffffff163373ffffffffffffffffffffffffffffffffffffffff1614610d8c576040517f08c379a000000000000000000000000000000000000000000000000000000000815260040180806020018281038252600a8152602001807f4f6e6c79206f776e65720000000000000000000000000000000000000000000081525060200191505060405180910390fd5b6001600060146101000a81548160ff021916908315150217905550565b600080925060405180602001604052806000815250915068015af1d78b58c40000905092915050565b6000604051806020016040528060008152509150600060149054906101000a900460ff16610e0a57670de0b6b3a76400009050610e30565b600060149054906101000a900460ff1615610e2f57671bc16d674ec800009050610e30565b5b91905056fe4f6e6c7920746865206f776e6572206f66207468697320636f6e74726163742063616e20657865637574652072756c652066756e6374696f6e2e44697370757465206973206e6f74206177616974696e67206172626974726174696f6e2e4e6f7420656e6f7567682045544820746f20636f766572206172626974726174696f6e20636f7374732ea2646970667358221220cc274850497779550073a216c2224f888cb53c565802adb6d6778ab4c8884f5a64736f6c63430007030033",
  "linkReferences": {},
  "deployedLinkReferences": {}
}