{
  "_format": "hh-sol-artifact-1",
  "contractName": "TestArbitrator",
  "sourceName": "contracts/TestArbitrator.sol",
  "abi": [
    {
      "anonymous": false,
      "inputs": [
        {
          "indexed": true,
          "internalType": "uint256",
          "name": "_disputeID",
          "type": "uint256"
        },
        {
          "indexed": true,
          "internalType": "contract IArbitrable",
          "name": "_arbitrable",
          "type": "address"
        }
      ],
      "name": "AppealDecision",
      "type": "event"
    },
    {
      "anonymous": false,
      "inputs": [
        {
          "indexed": true,
          "internalType": "uint256",
          "name": "_disputeID",
          "type": "uint256"
        },
        {
          "indexed": true,
          "internalType": "contract IArbitrable",
          "name": "_arbitrable",
          "type": "address"
        }
      ],
      "name": "AppealPossible",
      "type": "event"
    },
    {
      "anonymous": false,
      "inputs": [
        {
          "indexed": true,
          "internalType": "uint256",
          "name": "_disputeID",
          "type": "uint256"
        },
        {
          "indexed": true,
          "internalType": "contract IArbitrable",
          "name": "_arbitrable",
          "type": "address"
        }
      ],
      "name": "DisputeCreation",
      "type": "event"
    },
    {
      "inputs": [],
      "name": "_appealCost",
      "outputs": [
        {
          "internalType": "uint256",
          "name": "",
          "type": "uint256"
        }
      ],
      "stateMutability": "view",
      "type": "function"
    },
    {
      "inputs": [],
      "name": "_arbitrationCost",
      "outputs": [
        {
          "internalType": "uint256",
          "name": "",
          "type": "uint256"
        }
      ],
      "stateMutability": "view",
      "type": "function"
    },
    {
      "inputs": [
        {
          "internalType": "uint256",
          "name": "_disputeID",
          "type": "uint256"
        },
        {
          "internalType": "bytes",
          "name": "_extraData",
          "type": "bytes"
        }
      ],
      "name": "appeal",
      "outputs": [],
      "stateMutability": "payable",
      "type": "function"
    },
    {
      "inputs": [
        {
          "internalType": "uint256",
          "name": "_disputeID",
          "type": "uint256"
        },
        {
          "internalType": "bytes",
          "name": "_extraData",
          "type": "bytes"
        }
      ],
      "name": "appealCost",
      "outputs": [
        {
          "internalType": "uint256",
          "name": "",
          "type": "uint256"
        }
      ],
      "stateMutability": "view",
      "type": "function"
    },
    {
      "inputs": [
        {
          "internalType": "uint256",
          "name": "_disputeID",
          "type": "uint256"
        }
      ],
      "name": "appealPeriod",
      "outputs": [
        {
          "internalType": "uint256",
          "name": "start",
          "type": "uint256"
        },
        {
          "internalType": "uint256",
          "name": "end",
          "type": "uint256"
        }
      ],
      "stateMutability": "view",
      "type": "function"
    },
    {
      "inputs": [
        {
          "internalType": "bytes",
          "name": "_extraData",
          "type": "bytes"
        }
      ],
      "name": "arbitrationCost",
      "outputs": [
        {
          "internalType": "uint256",
          "name": "",
          "type": "uint256"
        }
      ],
      "stateMutability": "view",
      "type": "function"
    },
    {
      "inputs": [
        {
          "internalType": "uint256",
          "name": "_choices",
          "type": "uint256"
        },
        {
          "internalType": "bytes",
          "name": "_extraData",
          "type": "bytes"
        }
      ],
      "name": "createDispute",
      "outputs": [
        {
          "internalType": "uint256",
          "name": "disputeID",
          "type": "uint256"
        }
      ],
      "stateMutability": "payable",
      "type": "function"
    },
    {
      "inputs": [
        {
          "internalType": "uint256",
          "name": "_disputeID",
          "type": "uint256"
        }
      ],
      "name": "currentRuling",
      "outputs": [
        {
          "internalType": "uint256",
          "name": "ruling",
          "type": "uint256"
        }
      ],
      "stateMutability": "view",
      "type": "function"
    },
    {
      "inputs": [
        {
          "internalType": "uint256",
          "name": "_disputeID",
          "type": "uint256"
        }
      ],
      "name": "disputeStatus",
      "outputs": [
        {
          "internalType": "enum IArbitrator.DisputeStatus",
          "name": "status",
          "type": "uint8"
        }
      ],
      "stateMutability": "view",
      "type": "function"
    },
    {
      "inputs": [
        {
          "internalType": "uint256",
          "name": "",
          "type": "uint256"
        }
      ],
      "name": "disputes",
      "outputs": [
        {
          "internalType": "contract IArbitrable",
          "name": "arbitrated",
          "type": "address"
        },
        {
          "internalType": "uint256",
          "name": "choices",
          "type": "uint256"
        },
        {
          "internalType": "uint256",
          "name": "ruling",
          "type": "uint256"
        },
        {
          "internalType": "enum IArbitrator.DisputeStatus",
          "name": "status",
          "type": "uint8"
        }
      ],
      "stateMutability": "view",
      "type": "function"
    },
    {
      "inputs": [],
      "name": "owner",
      "outputs": [
        {
          "internalType": "address",
          "name": "",
          "type": "address"
        }
      ],
      "stateMutability": "view",
      "type": "function"
    },
    {
      "inputs": [
        {
          "internalType": "uint256",
          "name": "_disputeID",
          "type": "uint256"
        },
        {
          "internalType": "uint256",
          "name": "_ruling",
          "type": "uint256"
        }
      ],
      "name": "rule",
      "outputs": [],
      "stateMutability": "nonpayable",
      "type": "function"
    },
    {
      "inputs": [
        {
          "internalType": "uint256",
          "name": "_newCost",
          "type": "uint256"
        }
      ],
      "name": "setAppealCost",
      "outputs": [],
      "stateMutability": "nonpayable",
      "type": "function"
    },
    {
      "inputs": [],
      "name": "setAppealPeriod",
      "outputs": [],
      "stateMutability": "nonpayable",
      "type": "function"
    },
    {
      "inputs": [
        {
          "internalType": "uint256",
          "name": "_newCost",
          "type": "uint256"
        }
      ],
      "name": "setArbitrationCost",
      "outputs": [],
      "stateMutability": "nonpayable",
      "type": "function"
    },
    {
      "inputs": [],
      "name": "testAppealPeriodEnd",
      "outputs": [
        {
          "internalType": "uint256",
          "name": "",
          "type": "uint256"
        }
      ],
      "stateMutability": "view",
      "type": "function"
    },
    {
      "inputs": [],
      "name": "testAppealPeriodStart",
      "outputs": [
        {
          "internalType": "uint256",
          "name": "",
          "type": "uint256"
        }
      ],
      "stateMutability": "view",
      "type": "function"
    }
  ],
  "bytecode": "0x6080604052336000806101000a81548173ffffffffffffffffffffffffffffffffffffffff021916908373ffffffffffffffffffffffffffffffffffffffff16021790555067016345785d8a0000600155670de0b6b3a764000060025534801561006857600080fd5b50610efc806100786000396000f3fe6080604052600436106100fd5760003560e01c8063564a565d11610095578063acd2a31911610064578063acd2a3191461049d578063afe15cfb146104b4578063c13517e11461050a578063f23f16e6146105e3578063f7434ea9146106c9576100fd565b8063564a565d146103815780636ede506a146104065780638da5cb5b146104315780639efcc1d714610472576100fd565b80632c33f30b116100d15780632c33f30b14610221578063311a6c561461024c57806349912f88146102915780634d6ce94914610356576100fd565b8062503b9e1461010257806310f169e81461013d5780631c3db16d146101975780631d77b92c146101e6575b600080fd5b34801561010e57600080fd5b5061013b6004803603602081101561012557600080fd5b81019080803590602001909291905050506107a5565b005b34801561014957600080fd5b506101766004803603602081101561016057600080fd5b81019080803590602001909291905050506107af565b6040518082600281111561018657fe5b815260200191505060405180910390f35b3480156101a357600080fd5b506101d0600480360360208110156101ba57600080fd5b81019080803590602001909291905050506107e4565b6040518082815260200191505060405180910390f35b3480156101f257600080fd5b5061021f6004803603602081101561020957600080fd5b810190808035906020019092919050505061080c565b005b34801561022d57600080fd5b50610236610816565b6040518082815260200191505060405180910390f35b34801561025857600080fd5b5061028f6004803603604081101561026f57600080fd5b81019080803590602001909291908035906020019092919050505061081c565b005b610354600480360360408110156102a757600080fd5b8101908080359060200190929190803590602001906401000000008111156102ce57600080fd5b8201836020820111156102e057600080fd5b8035906020019184600183028401116401000000008311171561030257600080fd5b91908080601f016020809104026020016040519081016040528093929190818152602001838380828437600081840152601f19601f820116905080830192505050505050509192919290505050610b02565b005b34801561036257600080fd5b5061036b610b68565b6040518082815260200191505060405180910390f35b34801561038d57600080fd5b506103ba600480360360208110156103a457600080fd5b8101908080359060200190929190505050610b6e565b604051808573ffffffffffffffffffffffffffffffffffffffff1681526020018481526020018381526020018260028111156103f257fe5b815260200194505050505060405180910390f35b34801561041257600080fd5b5061041b610bd8565b6040518082815260200191505060405180910390f35b34801561043d57600080fd5b50610446610bde565b604051808273ffffffffffffffffffffffffffffffffffffffff16815260200191505060405180910390f35b34801561047e57600080fd5b50610487610c02565b6040518082815260200191505060405180910390f35b3480156104a957600080fd5b506104b2610c08565b005b3480156104c057600080fd5b506104ed600480360360208110156104d757600080fd5b8101908080359060200190929190505050610c1b565b604051808381526020018281526020019250505060405180910390f35b6105cd6004803603604081101561052057600080fd5b81019080803590602001909291908035906020019064010000000081111561054757600080fd5b82018360208201111561055957600080fd5b8035906020019184600183028401116401000000008311171561057b57600080fd5b91908080601f016020809104026020016040519081016040528093929190818152602001838380828437600081840152601f19601f820116905080830192505050505050509192919290505050610c31565b6040518082815260200191505060405180910390f35b3480156105ef57600080fd5b506106b36004803603604081101561060657600080fd5b81019080803590602001909291908035906020019064010000000081111561062d57600080fd5b82018360208201111561063f57600080fd5b8035906020019184600183028401116401000000008311171561066157600080fd5b91908080601f016020809104026020016040519081016040528093929190818152602001838380828437600081840152601f19601f820116905080830192505050505050509192919290505050610dfd565b6040518082815260200191505060405180910390f35b3480156106d557600080fd5b5061078f600480360360208110156106ec57600080fd5b810190808035906020019064010000000081111561070957600080fd5b82018360208201111561071b57600080fd5b8035906020019184600183028401116401000000008311171561073d57600080fd5b91908080601f016020809104026020016040519081016040528093929190818152602001838380828437600081840152601f19601f820116905080830192505050505050509192919290505050610e20565b6040518082815260200191505060405180910390f35b8060028190555050565b6000600582815481106107be57fe5b906000526020600020906004020160030160009054906101000a900460ff169050919050565b6000600582815481106107f357fe5b9060005260206000209060040201600201549050919050565b8060018190555050565b60015481565b60008054906101000a900473ffffffffffffffffffffffffffffffffffffffff1673ffffffffffffffffffffffffffffffffffffffff163373ffffffffffffffffffffffffffffffffffffffff16146108c0576040517f08c379a000000000000000000000000000000000000000000000000000000000815260040180806020018281038252603a815260200180610e3f603a913960400191505060405180910390fd5b6000600583815481106108cf57fe5b906000526020600020906004020190508060010154821115610959576040517f08c379a00000000000000000000000000000000000000000000000000000000081526004018080602001828103825260158152602001807f52756c696e67206f7574206f6620626f756e647321000000000000000000000081525060200191505060405180910390fd5b6000600281111561096657fe5b8160030160009054906101000a900460ff16600281111561098357fe5b146109d9576040517f08c379a0000000000000000000000000000000000000000000000000000000008152600401808060200182810382526024815260200180610e796024913960400191505060405180910390fd5b81816002018190555060028160030160006101000a81548160ff02191690836002811115610a0357fe5b02179055503373ffffffffffffffffffffffffffffffffffffffff166108fc610a3a60405180602001604052806000815250610e20565b9081150290604051600060405180830381858888f19350505050158015610a65573d6000803e3d6000fd5b508060000160009054906101000a900473ffffffffffffffffffffffffffffffffffffffff1673ffffffffffffffffffffffffffffffffffffffff1663311a6c5684846040518363ffffffff1660e01b81526004018083815260200182815260200192505050600060405180830381600087803b158015610ae557600080fd5b505af1158015610af9573d6000803e3d6000fd5b50505050505050565b610b0c8282610dfd565b341015610b64576040517f08c379a000000000000000000000000000000000000000000000000000000000815260040180806020018281038252602a815260200180610e9d602a913960400191505060405180910390fd5b5050565b60025481565b60058181548110610b7b57fe5b90600052602060002090600402016000915090508060000160009054906101000a900473ffffffffffffffffffffffffffffffffffffffff16908060010154908060020154908060030160009054906101000a900460ff16905084565b60045481565b60008054906101000a900473ffffffffffffffffffffffffffffffffffffffff1681565b60035481565b42600381905550603c4201600481905550565b6000806000925060035460045491509150915091565b6000610c3c82610e20565b341015610c94576040517f08c379a000000000000000000000000000000000000000000000000000000000815260040180806020018281038252602a815260200180610e9d602a913960400191505060405180910390fd5b600560405180608001604052803373ffffffffffffffffffffffffffffffffffffffff1681526020018581526020017fffffffffffffffffffffffffffffffffffffffffffffffffffffffffffffffff815260200160006002811115610cf657fe5b815250908060018154018082558091505060019003906000526020600020906004020160009091909190915060008201518160000160006101000a81548173ffffffffffffffffffffffffffffffffffffffff021916908373ffffffffffffffffffffffffffffffffffffffff160217905550602082015181600101556040820151816002015560608201518160030160006101000a81548160ff02191690836002811115610da157fe5b0217905550505060016005805490500390503373ffffffffffffffffffffffffffffffffffffffff16817f141dfc18aa6a56fc816f44f0e9e2f1ebc92b15ab167770e17db5b084c10ed99560405160405180910390a392915050565b600060405180602001604052806000815250915060009250600254905092915050565b6000604051806020016040528060008152509150600154905091905056fe4f6e6c7920746865206f776e6572206f66207468697320636f6e74726163742063616e20657865637574652072756c652066756e6374696f6e2e44697370757465206973206e6f74206177616974696e67206172626974726174696f6e2e4e6f7420656e6f7567682045544820746f20636f766572206172626974726174696f6e20636f7374732ea26469706673582212208acc4957561745f1c7a51f7553dc7aee7a917b964a5166beb34bca964e481fc964736f6c63430007030033",
  "linkReferences": {},
  "deployedLinkReferences": {}
}