{
  "_format": "hh-sol-artifact-1",
  "contractName": "Market",
  "sourceName": "contracts/Market.sol",
  "abi": [
    {
      "inputs": [
        {
          "internalType": "address",
          "name": "_arbitrator",
          "type": "address"
        }
      ],
      "stateMutability": "nonpayable",
      "type": "constructor"
    },
    {
      "anonymous": false,
      "inputs": [
        {
          "indexed": true,
          "internalType": "contract IArbitrator",
          "name": "_arbitrator",
          "type": "address"
        },
        {
          "indexed": true,
          "internalType": "uint256",
          "name": "_disputeID",
          "type": "uint256"
        },
        {
          "indexed": false,
          "internalType": "uint256",
          "name": "_metaEvidenceID",
          "type": "uint256"
        },
        {
          "indexed": false,
          "internalType": "uint256",
          "name": "_evidenceGroupID",
          "type": "uint256"
        }
      ],
      "name": "Dispute",
      "type": "event"
    },
    {
      "anonymous": false,
      "inputs": [
        {
          "indexed": true,
          "internalType": "uint256",
          "name": "_disputeID",
          "type": "uint256"
        },
        {
          "indexed": true,
          "internalType": "uint256",
          "name": "_transactionID",
          "type": "uint256"
        },
        {
          "components": [
            {
              "internalType": "uint256",
              "name": "transactionID",
              "type": "uint256"
            },
            {
              "internalType": "enum Market.DisputeStatus",
              "name": "status",
              "type": "uint8"
            },
            {
              "internalType": "uint256",
              "name": "feeDepositDeadline",
              "type": "uint256"
            },
            {
              "internalType": "uint256",
              "name": "buyerArbitrationFee",
              "type": "uint256"
            },
            {
              "internalType": "uint256",
              "name": "sellerArbitrationFee",
              "type": "uint256"
            },
            {
              "internalType": "uint256",
              "name": "arbitrationFee",
              "type": "uint256"
            },
            {
              "internalType": "uint256",
              "name": "appealRound",
              "type": "uint256"
            },
            {
              "internalType": "uint256",
              "name": "buyerAppealFee",
              "type": "uint256"
            },
            {
              "internalType": "uint256",
              "name": "sellerAppealFee",
              "type": "uint256"
            },
            {
              "internalType": "uint256",
              "name": "appealFee",
              "type": "uint256"
            },
            {
              "internalType": "enum Market.Party",
              "name": "ruling",
              "type": "uint8"
            }
          ],
          "indexed": false,
          "internalType": "struct Market.Arbitration",
          "name": "_arbitration",
          "type": "tuple"
        }
      ],
      "name": "DisputeStateUpdate",
      "type": "event"
    },
    {
      "anonymous": false,
      "inputs": [
        {
          "indexed": true,
          "internalType": "contract IArbitrator",
          "name": "_arbitrator",
          "type": "address"
        },
        {
          "indexed": true,
          "internalType": "uint256",
          "name": "_evidenceGroupID",
          "type": "uint256"
        },
        {
          "indexed": true,
          "internalType": "address",
          "name": "_party",
          "type": "address"
        },
        {
          "indexed": false,
          "internalType": "string",
          "name": "_evidence",
          "type": "string"
        }
      ],
      "name": "Evidence",
      "type": "event"
    },
    {
      "anonymous": false,
      "inputs": [
        {
          "indexed": true,
          "internalType": "uint256",
          "name": "transactionID",
          "type": "uint256"
        },
        {
          "indexed": false,
          "internalType": "enum Market.Party",
          "name": "party",
          "type": "uint8"
        }
      ],
      "name": "HasToPayAppealFee",
      "type": "event"
    },
    {
      "anonymous": false,
      "inputs": [
        {
          "indexed": true,
          "internalType": "uint256",
          "name": "transactionID",
          "type": "uint256"
        },
        {
          "indexed": false,
          "internalType": "enum Market.Party",
          "name": "party",
          "type": "uint8"
        }
      ],
      "name": "HasToPayArbitrationFee",
      "type": "event"
    },
    {
      "anonymous": false,
      "inputs": [
        {
          "indexed": true,
          "internalType": "uint256",
          "name": "_metaEvidenceID",
          "type": "uint256"
        },
        {
          "indexed": false,
          "internalType": "string",
          "name": "_evidence",
          "type": "string"
        }
      ],
      "name": "MetaEvidence",
      "type": "event"
    },
    {
      "anonymous": false,
      "inputs": [
        {
          "indexed": true,
          "internalType": "contract IArbitrator",
          "name": "_arbitrator",
          "type": "address"
        },
        {
          "indexed": true,
          "internalType": "uint256",
          "name": "_disputeID",
          "type": "uint256"
        },
        {
          "indexed": false,
          "internalType": "uint256",
          "name": "_ruling",
          "type": "uint256"
        }
      ],
      "name": "Ruling",
      "type": "event"
    },
    {
      "anonymous": false,
      "inputs": [
        {
          "indexed": true,
          "internalType": "uint256",
          "name": "_transactionID",
          "type": "uint256"
        },
        {
          "components": [
            {
              "internalType": "uint256",
              "name": "price",
              "type": "uint256"
            },
            {
              "internalType": "bool",
              "name": "forSale",
              "type": "bool"
            },
            {
              "internalType": "address payable",
              "name": "seller",
              "type": "address"
            },
            {
              "internalType": "address payable",
              "name": "buyer",
              "type": "address"
            },
            {
              "internalType": "bytes32",
              "name": "cardInfo_URI_hash",
              "type": "bytes32"
            },
            {
              "internalType": "enum Market.Status",
              "name": "status",
              "type": "uint8"
            },
            {
              "internalType": "uint256",
              "name": "init",
              "type": "uint256"
            },
            {
              "internalType": "uint256",
              "name": "disputeID",
              "type": "uint256"
            }
          ],
          "indexed": false,
          "internalType": "struct Market.Transaction",
          "name": "_transaction",
          "type": "tuple"
        }
      ],
      "name": "TransactionResolved",
      "type": "event"
    },
    {
      "anonymous": false,
      "inputs": [
        {
          "indexed": true,
          "internalType": "uint256",
          "name": "_transactionID",
          "type": "uint256"
        },
        {
          "components": [
            {
              "internalType": "uint256",
              "name": "price",
              "type": "uint256"
            },
            {
              "internalType": "bool",
              "name": "forSale",
              "type": "bool"
            },
            {
              "internalType": "address payable",
              "name": "seller",
              "type": "address"
            },
            {
              "internalType": "address payable",
              "name": "buyer",
              "type": "address"
            },
            {
              "internalType": "bytes32",
              "name": "cardInfo_URI_hash",
              "type": "bytes32"
            },
            {
              "internalType": "enum Market.Status",
              "name": "status",
              "type": "uint8"
            },
            {
              "internalType": "uint256",
              "name": "init",
              "type": "uint256"
            },
            {
              "internalType": "uint256",
              "name": "disputeID",
              "type": "uint256"
            }
          ],
          "indexed": false,
          "internalType": "struct Market.Transaction",
          "name": "_transaction",
          "type": "tuple"
        }
      ],
      "name": "TransactionStateUpdate",
      "type": "event"
    },
    {
      "inputs": [],
      "name": "arbitrator",
      "outputs": [
        {
          "internalType": "contract IArbitrator",
          "name": "",
          "type": "address"
        }
      ],
      "stateMutability": "view",
      "type": "function"
    },
    {
      "inputs": [
        {
          "internalType": "uint256",
          "name": "_transactionID",
          "type": "uint256"
        },
        {
          "components": [
            {
              "internalType": "uint256",
              "name": "price",
              "type": "uint256"
            },
            {
              "internalType": "bool",
              "name": "forSale",
              "type": "bool"
            },
            {
              "internalType": "address payable",
              "name": "seller",
              "type": "address"
            },
            {
              "internalType": "address payable",
              "name": "buyer",
              "type": "address"
            },
            {
              "internalType": "bytes32",
              "name": "cardInfo_URI_hash",
              "type": "bytes32"
            },
            {
              "internalType": "enum Market.Status",
              "name": "status",
              "type": "uint8"
            },
            {
              "internalType": "uint256",
              "name": "init",
              "type": "uint256"
            },
            {
              "internalType": "uint256",
              "name": "disputeID",
              "type": "uint256"
            }
          ],
          "internalType": "struct Market.Transaction",
          "name": "_transaction",
          "type": "tuple"
        },
        {
          "internalType": "string",
          "name": "_metaevidence",
          "type": "string"
        }
      ],
      "name": "buyCard",
      "outputs": [],
      "stateMutability": "payable",
      "type": "function"
    },
    {
      "inputs": [
        {
          "internalType": "uint256",
          "name": "",
          "type": "uint256"
        }
      ],
      "name": "disputeID_to_arbitration",
      "outputs": [
        {
          "internalType": "uint256",
          "name": "transactionID",
          "type": "uint256"
        },
        {
          "internalType": "enum Market.DisputeStatus",
          "name": "status",
          "type": "uint8"
        },
        {
          "internalType": "uint256",
          "name": "feeDepositDeadline",
          "type": "uint256"
        },
        {
          "internalType": "uint256",
          "name": "buyerArbitrationFee",
          "type": "uint256"
        },
        {
          "internalType": "uint256",
          "name": "sellerArbitrationFee",
          "type": "uint256"
        },
        {
          "internalType": "uint256",
          "name": "arbitrationFee",
          "type": "uint256"
        },
        {
          "internalType": "uint256",
          "name": "appealRound",
          "type": "uint256"
        },
        {
          "internalType": "uint256",
          "name": "buyerAppealFee",
          "type": "uint256"
        },
        {
          "internalType": "uint256",
          "name": "sellerAppealFee",
          "type": "uint256"
        },
        {
          "internalType": "uint256",
          "name": "appealFee",
          "type": "uint256"
        },
        {
          "internalType": "enum Market.Party",
          "name": "ruling",
          "type": "uint8"
        }
      ],
      "stateMutability": "view",
      "type": "function"
    },
    {
      "inputs": [
        {
          "internalType": "uint256",
          "name": "_transactionID",
          "type": "uint256"
        },
        {
          "internalType": "uint256",
          "name": "_disputeID",
          "type": "uint256"
        },
        {
          "components": [
            {
              "internalType": "uint256",
              "name": "price",
              "type": "uint256"
            },
            {
              "internalType": "bool",
              "name": "forSale",
              "type": "bool"
            },
            {
              "internalType": "address payable",
              "name": "seller",
              "type": "address"
            },
            {
              "internalType": "address payable",
              "name": "buyer",
              "type": "address"
            },
            {
              "internalType": "bytes32",
              "name": "cardInfo_URI_hash",
              "type": "bytes32"
            },
            {
              "internalType": "enum Market.Status",
              "name": "status",
              "type": "uint8"
            },
            {
              "internalType": "uint256",
              "name": "init",
              "type": "uint256"
            },
            {
              "internalType": "uint256",
              "name": "disputeID",
              "type": "uint256"
            }
          ],
          "internalType": "struct Market.Transaction",
          "name": "_transaction",
          "type": "tuple"
        }
      ],
      "name": "executeRuling",
      "outputs": [],
      "stateMutability": "nonpayable",
      "type": "function"
    },
    {
      "inputs": [
        {
          "internalType": "uint256",
          "name": "_transactionID",
          "type": "uint256"
        },
        {
          "components": [
            {
              "internalType": "uint256",
              "name": "price",
              "type": "uint256"
            },
            {
              "internalType": "bool",
              "name": "forSale",
              "type": "bool"
            },
            {
              "internalType": "address payable",
              "name": "seller",
              "type": "address"
            },
            {
              "internalType": "address payable",
              "name": "buyer",
              "type": "address"
            },
            {
              "internalType": "bytes32",
              "name": "cardInfo_URI_hash",
              "type": "bytes32"
            },
            {
              "internalType": "enum Market.Status",
              "name": "status",
              "type": "uint8"
            },
            {
              "internalType": "uint256",
              "name": "init",
              "type": "uint256"
            },
            {
              "internalType": "uint256",
              "name": "disputeID",
              "type": "uint256"
            }
          ],
          "internalType": "struct Market.Transaction",
          "name": "_transaction",
          "type": "tuple"
        }
      ],
      "name": "getCardInfo",
      "outputs": [
        {
          "internalType": "bytes32",
          "name": "",
          "type": "bytes32"
        }
      ],
      "stateMutability": "view",
      "type": "function"
    },
    {
      "inputs": [],
      "name": "getNumOfTransactions",
      "outputs": [
        {
          "internalType": "uint256",
          "name": "",
          "type": "uint256"
        }
      ],
      "stateMutability": "view",
      "type": "function"
    },
    {
      "inputs": [
        {
          "components": [
            {
              "internalType": "uint256",
              "name": "price",
              "type": "uint256"
            },
            {
              "internalType": "bool",
              "name": "forSale",
              "type": "bool"
            },
            {
              "internalType": "address payable",
              "name": "seller",
              "type": "address"
            },
            {
              "internalType": "address payable",
              "name": "buyer",
              "type": "address"
            },
            {
              "internalType": "bytes32",
              "name": "cardInfo_URI_hash",
              "type": "bytes32"
            },
            {
              "internalType": "enum Market.Status",
              "name": "status",
              "type": "uint8"
            },
            {
              "internalType": "uint256",
              "name": "init",
              "type": "uint256"
            },
            {
              "internalType": "uint256",
              "name": "disputeID",
              "type": "uint256"
            }
          ],
          "internalType": "struct Market.Transaction",
          "name": "_transaction",
          "type": "tuple"
        }
      ],
      "name": "hashTransactionState",
      "outputs": [
        {
          "internalType": "bytes32",
          "name": "",
          "type": "bytes32"
        }
      ],
      "stateMutability": "pure",
      "type": "function"
    },
    {
      "inputs": [
        {
          "internalType": "bytes32",
          "name": "_cardInfo",
          "type": "bytes32"
        },
        {
          "internalType": "uint256",
          "name": "_price",
          "type": "uint256"
        }
      ],
      "name": "listNewCard",
      "outputs": [],
      "stateMutability": "nonpayable",
      "type": "function"
    },
    {
      "inputs": [],
      "name": "owner",
      "outputs": [
        {
          "internalType": "address",
          "name": "",
          "type": "address"
        }
      ],
      "stateMutability": "view",
      "type": "function"
    },
    {
      "inputs": [
        {
          "internalType": "uint256",
          "name": "_transactionID",
          "type": "uint256"
        },
        {
          "components": [
            {
              "internalType": "uint256",
              "name": "price",
              "type": "uint256"
            },
            {
              "internalType": "bool",
              "name": "forSale",
              "type": "bool"
            },
            {
              "internalType": "address payable",
              "name": "seller",
              "type": "address"
            },
            {
              "internalType": "address payable",
              "name": "buyer",
              "type": "address"
            },
            {
              "internalType": "bytes32",
              "name": "cardInfo_URI_hash",
              "type": "bytes32"
            },
            {
              "internalType": "enum Market.Status",
              "name": "status",
              "type": "uint8"
            },
            {
              "internalType": "uint256",
              "name": "init",
              "type": "uint256"
            },
            {
              "internalType": "uint256",
              "name": "disputeID",
              "type": "uint256"
            }
          ],
          "internalType": "struct Market.Transaction",
          "name": "_transaction",
          "type": "tuple"
        },
        {
          "components": [
            {
              "internalType": "uint256",
              "name": "transactionID",
              "type": "uint256"
            },
            {
              "internalType": "enum Market.DisputeStatus",
              "name": "status",
              "type": "uint8"
            },
            {
              "internalType": "uint256",
              "name": "feeDepositDeadline",
              "type": "uint256"
            },
            {
              "internalType": "uint256",
              "name": "buyerArbitrationFee",
              "type": "uint256"
            },
            {
              "internalType": "uint256",
              "name": "sellerArbitrationFee",
              "type": "uint256"
            },
            {
              "internalType": "uint256",
              "name": "arbitrationFee",
              "type": "uint256"
            },
            {
              "internalType": "uint256",
              "name": "appealRound",
              "type": "uint256"
            },
            {
              "internalType": "uint256",
              "name": "buyerAppealFee",
              "type": "uint256"
            },
            {
              "internalType": "uint256",
              "name": "sellerAppealFee",
              "type": "uint256"
            },
            {
              "internalType": "uint256",
              "name": "appealFee",
              "type": "uint256"
            },
            {
              "internalType": "enum Market.Party",
              "name": "ruling",
              "type": "uint8"
            }
          ],
          "internalType": "struct Market.Arbitration",
          "name": "_arbitration",
          "type": "tuple"
        }
      ],
      "name": "payAppealFeeByBuyer",
      "outputs": [],
      "stateMutability": "payable",
      "type": "function"
    },
    {
      "inputs": [
        {
          "internalType": "uint256",
          "name": "_transactionID",
          "type": "uint256"
        },
        {
          "components": [
            {
              "internalType": "uint256",
              "name": "price",
              "type": "uint256"
            },
            {
              "internalType": "bool",
              "name": "forSale",
              "type": "bool"
            },
            {
              "internalType": "address payable",
              "name": "seller",
              "type": "address"
            },
            {
              "internalType": "address payable",
              "name": "buyer",
              "type": "address"
            },
            {
              "internalType": "bytes32",
              "name": "cardInfo_URI_hash",
              "type": "bytes32"
            },
            {
              "internalType": "enum Market.Status",
              "name": "status",
              "type": "uint8"
            },
            {
              "internalType": "uint256",
              "name": "init",
              "type": "uint256"
            },
            {
              "internalType": "uint256",
              "name": "disputeID",
              "type": "uint256"
            }
          ],
          "internalType": "struct Market.Transaction",
          "name": "_transaction",
          "type": "tuple"
        },
        {
          "components": [
            {
              "internalType": "uint256",
              "name": "transactionID",
              "type": "uint256"
            },
            {
              "internalType": "enum Market.DisputeStatus",
              "name": "status",
              "type": "uint8"
            },
            {
              "internalType": "uint256",
              "name": "feeDepositDeadline",
              "type": "uint256"
            },
            {
              "internalType": "uint256",
              "name": "buyerArbitrationFee",
              "type": "uint256"
            },
            {
              "internalType": "uint256",
              "name": "sellerArbitrationFee",
              "type": "uint256"
            },
            {
              "internalType": "uint256",
              "name": "arbitrationFee",
              "type": "uint256"
            },
            {
              "internalType": "uint256",
              "name": "appealRound",
              "type": "uint256"
            },
            {
              "internalType": "uint256",
              "name": "buyerAppealFee",
              "type": "uint256"
            },
            {
              "internalType": "uint256",
              "name": "sellerAppealFee",
              "type": "uint256"
            },
            {
              "internalType": "uint256",
              "name": "appealFee",
              "type": "uint256"
            },
            {
              "internalType": "enum Market.Party",
              "name": "ruling",
              "type": "uint8"
            }
          ],
          "internalType": "struct Market.Arbitration",
          "name": "_arbitration",
          "type": "tuple"
        }
      ],
      "name": "payAppealFeeBySeller",
      "outputs": [],
      "stateMutability": "payable",
      "type": "function"
    },
    {
      "inputs": [
        {
          "internalType": "uint256",
          "name": "_transactionID",
          "type": "uint256"
        },
        {
          "internalType": "uint256",
          "name": "_metaevidenceID",
          "type": "uint256"
        },
        {
          "components": [
            {
              "internalType": "uint256",
              "name": "price",
              "type": "uint256"
            },
            {
              "internalType": "bool",
              "name": "forSale",
              "type": "bool"
            },
            {
              "internalType": "address payable",
              "name": "seller",
              "type": "address"
            },
            {
              "internalType": "address payable",
              "name": "buyer",
              "type": "address"
            },
            {
              "internalType": "bytes32",
              "name": "cardInfo_URI_hash",
              "type": "bytes32"
            },
            {
              "internalType": "enum Market.Status",
              "name": "status",
              "type": "uint8"
            },
            {
              "internalType": "uint256",
              "name": "init",
              "type": "uint256"
            },
            {
              "internalType": "uint256",
              "name": "disputeID",
              "type": "uint256"
            }
          ],
          "internalType": "struct Market.Transaction",
          "name": "_transaction",
          "type": "tuple"
        },
        {
          "components": [
            {
              "internalType": "uint256",
              "name": "transactionID",
              "type": "uint256"
            },
            {
              "internalType": "enum Market.DisputeStatus",
              "name": "status",
              "type": "uint8"
            },
            {
              "internalType": "uint256",
              "name": "feeDepositDeadline",
              "type": "uint256"
            },
            {
              "internalType": "uint256",
              "name": "buyerArbitrationFee",
              "type": "uint256"
            },
            {
              "internalType": "uint256",
              "name": "sellerArbitrationFee",
              "type": "uint256"
            },
            {
              "internalType": "uint256",
              "name": "arbitrationFee",
              "type": "uint256"
            },
            {
              "internalType": "uint256",
              "name": "appealRound",
              "type": "uint256"
            },
            {
              "internalType": "uint256",
              "name": "buyerAppealFee",
              "type": "uint256"
            },
            {
              "internalType": "uint256",
              "name": "sellerAppealFee",
              "type": "uint256"
            },
            {
              "internalType": "uint256",
              "name": "appealFee",
              "type": "uint256"
            },
            {
              "internalType": "enum Market.Party",
              "name": "ruling",
              "type": "uint8"
            }
          ],
          "internalType": "struct Market.Arbitration",
          "name": "_arbitration",
          "type": "tuple"
        }
      ],
      "name": "payArbitrationFeeByBuyer",
      "outputs": [],
      "stateMutability": "payable",
      "type": "function"
    },
    {
      "inputs": [
        {
          "internalType": "uint256",
          "name": "_transactionID",
          "type": "uint256"
        },
        {
          "internalType": "uint256",
          "name": "_metaevidenceID",
          "type": "uint256"
        },
        {
          "components": [
            {
              "internalType": "uint256",
              "name": "price",
              "type": "uint256"
            },
            {
              "internalType": "bool",
              "name": "forSale",
              "type": "bool"
            },
            {
              "internalType": "address payable",
              "name": "seller",
              "type": "address"
            },
            {
              "internalType": "address payable",
              "name": "buyer",
              "type": "address"
            },
            {
              "internalType": "bytes32",
              "name": "cardInfo_URI_hash",
              "type": "bytes32"
            },
            {
              "internalType": "enum Market.Status",
              "name": "status",
              "type": "uint8"
            },
            {
              "internalType": "uint256",
              "name": "init",
              "type": "uint256"
            },
            {
              "internalType": "uint256",
              "name": "disputeID",
              "type": "uint256"
            }
          ],
          "internalType": "struct Market.Transaction",
          "name": "_transaction",
          "type": "tuple"
        },
        {
          "components": [
            {
              "internalType": "uint256",
              "name": "transactionID",
              "type": "uint256"
            },
            {
              "internalType": "enum Market.DisputeStatus",
              "name": "status",
              "type": "uint8"
            },
            {
              "internalType": "uint256",
              "name": "feeDepositDeadline",
              "type": "uint256"
            },
            {
              "internalType": "uint256",
              "name": "buyerArbitrationFee",
              "type": "uint256"
            },
            {
              "internalType": "uint256",
              "name": "sellerArbitrationFee",
              "type": "uint256"
            },
            {
              "internalType": "uint256",
              "name": "arbitrationFee",
              "type": "uint256"
            },
            {
              "internalType": "uint256",
              "name": "appealRound",
              "type": "uint256"
            },
            {
              "internalType": "uint256",
              "name": "buyerAppealFee",
              "type": "uint256"
            },
            {
              "internalType": "uint256",
              "name": "sellerAppealFee",
              "type": "uint256"
            },
            {
              "internalType": "uint256",
              "name": "appealFee",
              "type": "uint256"
            },
            {
              "internalType": "enum Market.Party",
              "name": "ruling",
              "type": "uint8"
            }
          ],
          "internalType": "struct Market.Arbitration",
          "name": "_arbitration",
          "type": "tuple"
        }
      ],
      "name": "payArbitrationFeeBySeller",
      "outputs": [],
      "stateMutability": "payable",
      "type": "function"
    },
    {
      "inputs": [
        {
          "internalType": "uint256",
          "name": "_transactionID",
          "type": "uint256"
        },
        {
          "components": [
            {
              "internalType": "uint256",
              "name": "price",
              "type": "uint256"
            },
            {
              "internalType": "bool",
              "name": "forSale",
              "type": "bool"
            },
            {
              "internalType": "address payable",
              "name": "seller",
              "type": "address"
            },
            {
              "internalType": "address payable",
              "name": "buyer",
              "type": "address"
            },
            {
              "internalType": "bytes32",
              "name": "cardInfo_URI_hash",
              "type": "bytes32"
            },
            {
              "internalType": "enum Market.Status",
              "name": "status",
              "type": "uint8"
            },
            {
              "internalType": "uint256",
              "name": "init",
              "type": "uint256"
            },
            {
              "internalType": "uint256",
              "name": "disputeID",
              "type": "uint256"
            }
          ],
          "internalType": "struct Market.Transaction",
          "name": "_transaction",
          "type": "tuple"
        }
      ],
      "name": "reclaimDisputeByBuyer",
      "outputs": [],
      "stateMutability": "payable",
      "type": "function"
    },
    {
      "inputs": [
        {
          "internalType": "uint256",
          "name": "_disputeID",
          "type": "uint256"
        },
        {
          "internalType": "uint256",
          "name": "_ruling",
          "type": "uint256"
        }
      ],
      "name": "rule",
      "outputs": [],
      "stateMutability": "nonpayable",
      "type": "function"
    },
    {
      "inputs": [
        {
          "internalType": "uint256",
          "name": "_newFeeDepositPeriod",
          "type": "uint256"
        }
      ],
      "name": "setArbitrationFeeDepositPeriod",
      "outputs": [],
      "stateMutability": "nonpayable",
      "type": "function"
    },
    {
      "inputs": [
        {
          "internalType": "uint256",
          "name": "_transactionID",
          "type": "uint256"
        },
        {
          "components": [
            {
              "internalType": "uint256",
              "name": "price",
              "type": "uint256"
            },
            {
              "internalType": "bool",
              "name": "forSale",
              "type": "bool"
            },
            {
              "internalType": "address payable",
              "name": "seller",
              "type": "address"
            },
            {
              "internalType": "address payable",
              "name": "buyer",
              "type": "address"
            },
            {
              "internalType": "bytes32",
              "name": "cardInfo_URI_hash",
              "type": "bytes32"
            },
            {
              "internalType": "enum Market.Status",
              "name": "status",
              "type": "uint8"
            },
            {
              "internalType": "uint256",
              "name": "init",
              "type": "uint256"
            },
            {
              "internalType": "uint256",
              "name": "disputeID",
              "type": "uint256"
            }
          ],
          "internalType": "struct Market.Transaction",
          "name": "_transaction",
          "type": "tuple"
        },
        {
          "internalType": "uint256",
          "name": "_newPrice",
          "type": "uint256"
        }
      ],
      "name": "setCardPrice",
      "outputs": [],
      "stateMutability": "nonpayable",
      "type": "function"
    },
    {
      "inputs": [
        {
          "internalType": "uint256",
          "name": "_newReclaimPeriod",
          "type": "uint256"
        }
      ],
      "name": "setReclaimationPeriod",
      "outputs": [],
      "stateMutability": "nonpayable",
      "type": "function"
    },
    {
      "inputs": [
        {
          "internalType": "uint256",
          "name": "_transactionID",
          "type": "uint256"
        },
        {
          "components": [
            {
              "internalType": "uint256",
              "name": "price",
              "type": "uint256"
            },
            {
              "internalType": "bool",
              "name": "forSale",
              "type": "bool"
            },
            {
              "internalType": "address payable",
              "name": "seller",
              "type": "address"
            },
            {
              "internalType": "address payable",
              "name": "buyer",
              "type": "address"
            },
            {
              "internalType": "bytes32",
              "name": "cardInfo_URI_hash",
              "type": "bytes32"
            },
            {
              "internalType": "enum Market.Status",
              "name": "status",
              "type": "uint8"
            },
            {
              "internalType": "uint256",
              "name": "init",
              "type": "uint256"
            },
            {
              "internalType": "uint256",
              "name": "disputeID",
              "type": "uint256"
            }
          ],
          "internalType": "struct Market.Transaction",
          "name": "_transaction",
          "type": "tuple"
        },
        {
          "internalType": "string",
          "name": "_evidence",
          "type": "string"
        }
      ],
      "name": "submiteEvidence",
      "outputs": [],
      "stateMutability": "nonpayable",
      "type": "function"
    },
    {
      "inputs": [
        {
          "internalType": "uint256",
          "name": "",
          "type": "uint256"
        }
      ],
      "name": "tx_hashes",
      "outputs": [
        {
          "internalType": "bytes32",
          "name": "",
          "type": "bytes32"
        }
      ],
      "stateMutability": "view",
      "type": "function"
    },
    {
      "inputs": [
        {
          "internalType": "uint256",
          "name": "_transactionID",
          "type": "uint256"
        },
        {
          "components": [
            {
              "internalType": "uint256",
              "name": "price",
              "type": "uint256"
            },
            {
              "internalType": "bool",
              "name": "forSale",
              "type": "bool"
            },
            {
              "internalType": "address payable",
              "name": "seller",
              "type": "address"
            },
            {
              "internalType": "address payable",
              "name": "buyer",
              "type": "address"
            },
            {
              "internalType": "bytes32",
              "name": "cardInfo_URI_hash",
              "type": "bytes32"
            },
            {
              "internalType": "enum Market.Status",
              "name": "status",
              "type": "uint8"
            },
            {
              "internalType": "uint256",
              "name": "init",
              "type": "uint256"
            },
            {
              "internalType": "uint256",
              "name": "disputeID",
              "type": "uint256"
            }
          ],
          "internalType": "struct Market.Transaction",
          "name": "_transaction",
          "type": "tuple"
        }
      ],
      "name": "withdrawPriceByBuyer",
      "outputs": [],
      "stateMutability": "nonpayable",
      "type": "function"
    },
    {
      "inputs": [
        {
          "internalType": "uint256",
          "name": "_transactionID",
          "type": "uint256"
        },
        {
          "components": [
            {
              "internalType": "uint256",
              "name": "price",
              "type": "uint256"
            },
            {
              "internalType": "bool",
              "name": "forSale",
              "type": "bool"
            },
            {
              "internalType": "address payable",
              "name": "seller",
              "type": "address"
            },
            {
              "internalType": "address payable",
              "name": "buyer",
              "type": "address"
            },
            {
              "internalType": "bytes32",
              "name": "cardInfo_URI_hash",
              "type": "bytes32"
            },
            {
              "internalType": "enum Market.Status",
              "name": "status",
              "type": "uint8"
            },
            {
              "internalType": "uint256",
              "name": "init",
              "type": "uint256"
            },
            {
              "internalType": "uint256",
              "name": "disputeID",
              "type": "uint256"
            }
          ],
          "internalType": "struct Market.Transaction",
          "name": "_transaction",
          "type": "tuple"
        }
      ],
      "name": "withdrawPriceBySeller",
      "outputs": [],
      "stateMutability": "nonpayable",
      "type": "function"
    }
  ],
  "bytecode": "0x6080604052603c600255603c60035560026004553480156200002057600080fd5b5060405162005613380380620056138339818101604052810190620000469190620000e5565b80600160006101000a81548173ffffffffffffffffffffffffffffffffffffffff021916908373ffffffffffffffffffffffffffffffffffffffff160217905550336000806101000a81548173ffffffffffffffffffffffffffffffffffffffff021916908373ffffffffffffffffffffffffffffffffffffffff160217905550506200015f565b600081519050620000df8162000145565b92915050565b600060208284031215620000f857600080fd5b60006200010884828501620000ce565b91505092915050565b60006200011e8262000125565b9050919050565b600073ffffffffffffffffffffffffffffffffffffffff82169050919050565b620001508162000111565b81146200015c57600080fd5b50565b6154a4806200016f6000396000f3fe6080604052600436106101355760003560e01c806394e76262116100ab578063b0b558fb1161006f578063b0b558fb146103f6578063cf5edec81461041f578063d2a8343b14610448578063da55e08514610471578063e4f6b3db1461048d578063fa1caae8146104a957610135565b806394e762621461030e578063962652121461034b578063968a91731461036757806399eb927514610390578063ac0d116f146103b957610135565b80636cc6cde1116100fd5780636cc6cde11461020e578063746fa531146102395780637a273ede14610264578063835a3300146102805780638da5cb5b1461029c5780638e56956f146102c757610135565b806309248b201461013a578063311a6c56146101635780633caa37721461018c5780634ec5d2e0146101a857806353cae8b1146101e5575b600080fd5b34801561014657600080fd5b50610161600480360381019061015c919061355b565b6104d2565b005b34801561016f57600080fd5b5061018a600480360381019061018591906136a8565b6106e3565b005b6101a660048036038101906101a19190613770565b610940565b005b3480156101b457600080fd5b506101cf60048036038101906101ca919061355b565b610ca0565b6040516101dc9190614aff565b60405180910390f35b3480156101f157600080fd5b5061020c60048036038101906102079190613598565b610d89565b005b34801561021a57600080fd5b50610223610f89565b6040516102309190614b1a565b60405180910390f35b34801561024557600080fd5b5061024e610faf565b60405161025b9190615028565b60405180910390f35b61027e60048036038101906102799190613770565b610fbc565b005b61029a60048036038101906102959190613606565b61131c565b005b3480156102a857600080fd5b506102b16116d1565b6040516102be9190614ae4565b60405180910390f35b3480156102d357600080fd5b506102ee60048036038101906102e99190613509565b6116f5565b6040516103059b9a99989796959493929190615043565b60405180910390f35b34801561031a57600080fd5b50610335600480360381019061033091906134df565b611769565b6040516103429190614aff565b60405180910390f35b61036560048036038101906103609190613598565b6117c7565b005b34801561037357600080fd5b5061038e60048036038101906103899190613720565b611a2b565b005b34801561039c57600080fd5b506103b760048036038101906103b29190613509565b611dad565b005b3480156103c557600080fd5b506103e060048036038101906103db9190613509565b611e45565b6040516103ed9190614aff565b60405180910390f35b34801561040257600080fd5b5061041d60048036038101906104189190613509565b611e66565b005b34801561042b57600080fd5b506104466004803603810190610441919061355b565b611efe565b005b34801561045457600080fd5b5061046f600480360381019061046a9190613657565b612225565b005b61048b6004803603810190610486919061355b565b612362565b005b6104a760048036038101906104a29190613606565b612747565b005b3480156104b557600080fd5b506104d060048036038101906104cb91906134a3565b612afd565b005b81816104dd81611769565b600560018403815481106104ed57fe5b906000526020600020015414610538576040517f08c379a000000000000000000000000000000000000000000000000000000000815260040161052f90614e54565b60405180910390fd5b826040015173ffffffffffffffffffffffffffffffffffffffff163373ffffffffffffffffffffffffffffffffffffffff16146105aa576040517f08c379a00000000000000000000000000000000000000000000000000000000081526004016105a190614d54565b60405180910390fd5b6003548360c001514203116105f4576040517f08c379a00000000000000000000000000000000000000000000000000000000081526004016105eb90614b94565b60405180910390fd5b6001600481111561060157fe5b8360a00151600481111561061157fe5b14610651576040517f08c379a000000000000000000000000000000000000000000000000000000000815260040161064890614dd4565b60405180910390fd5b60048360a00190600481111561066357fe5b9081600481111561067057fe5b8152505060008360000151905061068684611769565b6005600187038154811061069657fe5b9060005260206000200181905550847f3a6ced61ff5679745dc1eaa70ae1f120225c48e2e17c870433d698494957fc98856040516106d4919061500c565b60405180910390a25050505050565b600160009054906101000a900473ffffffffffffffffffffffffffffffffffffffff1673ffffffffffffffffffffffffffffffffffffffff163373ffffffffffffffffffffffffffffffffffffffff1614610773576040517f08c379a000000000000000000000000000000000000000000000000000000000815260040161076a90614f34565b60405180910390fd5b60006006600084815260200190815260200160002090506003600481111561079757fe5b8160010160009054906101000a900460ff1660048111156107b457fe5b146107f4576040517f08c379a00000000000000000000000000000000000000000000000000000000081526004016107eb90614c34565b60405180910390fd5b60048160010160006101000a81548160ff0219169083600481111561081557fe5b02179055506001600281111561082757fe5b82141561085557600181600a0160006101000a81548160ff0219169083600281111561084f57fe5b02179055505b60028081111561086157fe5b82141561088f57600281600a0160006101000a81548160ff0219169083600281111561088957fe5b02179055505b6000600281111561089c57fe5b8214156108ca57600081600a0160006101000a81548160ff021916908360028111156108c457fe5b02179055505b82600160009054906101000a900473ffffffffffffffffffffffffffffffffffffffff1673ffffffffffffffffffffffffffffffffffffffff167f394027a5fa6e098a1191094d1719d6929b9abc535fcc0c8f448d6a4e75622276846040516109339190615028565b60405180910390a3505050565b838261094b81611769565b6005600184038154811061095b57fe5b9060005260206000200154146109a6576040517f08c379a000000000000000000000000000000000000000000000000000000000815260040161099d90614e54565b60405180910390fd5b6000600160009054906101000a900473ffffffffffffffffffffffffffffffffffffffff1673ffffffffffffffffffffffffffffffffffffffff1663f7434ea96040518163ffffffff1660e01b8152600401610a0190614f14565b60206040518083038186803b158015610a1957600080fd5b505afa158015610a2d573d6000803e3d6000fd5b505050506040513d601f19601f82011682018060405250810190610a519190613532565b905083608001518103341015610a9c576040517f08c379a0000000000000000000000000000000000000000000000000000000008152600401610a9390614fb4565b60405180910390fd5b846040015173ffffffffffffffffffffffffffffffffffffffff163373ffffffffffffffffffffffffffffffffffffffff1614610b0e576040517f08c379a0000000000000000000000000000000000000000000000000000000008152600401610b0590614eb4565b60405180910390fd5b83604001514210610b54576040517f08c379a0000000000000000000000000000000000000000000000000000000008152600401610b4b90614cb4565b60405180910390fd5b60016004811115610b6157fe5b84602001516004811115610b7157fe5b14610bb1576040517f08c379a0000000000000000000000000000000000000000000000000000000008152600401610ba890614f94565b60405180910390fd5b348460a00181815101915081815250503484608001818151019150818152505060025442018460400181815250508084606001511015610c8957600284602001906004811115610bfd57fe5b90816004811115610c0a57fe5b81525050868560e001517ff6d6cf956a2b24b71568d4f9853779c9642a706044eea5a3f1afe2d0961e7bb786604051610c439190614fd4565b60405180910390a3867f7669e65111a702c7b74130e28abaa2e072e1693a2448b962c02ba59cdd88c4266001604051610c7c9190614b35565b60405180910390a2610c97565b610c968787838888612bfe565b5b50505050505050565b60008282610cad81611769565b60056001840381548110610cbd57fe5b906000526020600020015414610d08576040517f08c379a0000000000000000000000000000000000000000000000000000000008152600401610cff90614e54565b60405180910390fd5b836060015173ffffffffffffffffffffffffffffffffffffffff163373ffffffffffffffffffffffffffffffffffffffff1614610d7a576040517f08c379a0000000000000000000000000000000000000000000000000000000008152600401610d7190614e14565b60405180910390fd5b83608001519250505092915050565b8383610d9481611769565b60056001840381548110610da457fe5b906000526020600020015414610def576040517f08c379a0000000000000000000000000000000000000000000000000000000008152600401610de690614e54565b60405180910390fd5b846040015173ffffffffffffffffffffffffffffffffffffffff163373ffffffffffffffffffffffffffffffffffffffff161480610e5c5750846060015173ffffffffffffffffffffffffffffffffffffffff163373ffffffffffffffffffffffffffffffffffffffff16145b610e9b576040517f08c379a0000000000000000000000000000000000000000000000000000000008152600401610e9290614cd4565b60405180910390fd5b600480811115610ea757fe5b8560a001516004811115610eb757fe5b10610ef7576040517f08c379a0000000000000000000000000000000000000000000000000000000008152600401610eee90614bf4565b60405180910390fd5b3373ffffffffffffffffffffffffffffffffffffffff1686600160009054906101000a900473ffffffffffffffffffffffffffffffffffffffff1673ffffffffffffffffffffffffffffffffffffffff167fdccf2f8b2cc26eafcd61905cba744cff4b81d14740725f6376390dc6298a6a3c8787604051610f79929190614b50565b60405180910390a4505050505050565b600160009054906101000a900473ffffffffffffffffffffffffffffffffffffffff1681565b6000600580549050905090565b8382610fc781611769565b60056001840381548110610fd757fe5b906000526020600020015414611022576040517f08c379a000000000000000000000000000000000000000000000000000000000815260040161101990614e54565b60405180910390fd5b6000600160009054906101000a900473ffffffffffffffffffffffffffffffffffffffff1673ffffffffffffffffffffffffffffffffffffffff1663f7434ea96040518163ffffffff1660e01b815260040161107d90614f14565b60206040518083038186803b15801561109557600080fd5b505afa1580156110a9573d6000803e3d6000fd5b505050506040513d601f19601f820116820180604052508101906110cd9190613532565b905083608001518103341015611118576040517f08c379a000000000000000000000000000000000000000000000000000000000815260040161110f90614fb4565b60405180910390fd5b8360400151421061115e576040517f08c379a000000000000000000000000000000000000000000000000000000000815260040161115590614cb4565b60405180910390fd5b846060015173ffffffffffffffffffffffffffffffffffffffff163373ffffffffffffffffffffffffffffffffffffffff16146111d0576040517f08c379a00000000000000000000000000000000000000000000000000000000081526004016111c790614f54565b60405180910390fd5b600260048111156111dd57fe5b846020015160048111156111ed57fe5b1461122d576040517f08c379a000000000000000000000000000000000000000000000000000000000815260040161122490614ed4565b60405180910390fd5b348460a001818151019150818152505034846060018181510191508181525050600254420184604001818152505080846080015110156113055760018460200190600481111561127957fe5b9081600481111561128657fe5b81525050868560e001517ff6d6cf956a2b24b71568d4f9853779c9642a706044eea5a3f1afe2d0961e7bb7866040516112bf9190614fd4565b60405180910390a3867f7669e65111a702c7b74130e28abaa2e072e1693a2448b962c02ba59cdd88c42660026040516112f89190614b35565b60405180910390a2611313565b6113128787838888612bfe565b5b50505050505050565b828261132781611769565b6005600184038154811061133757fe5b906000526020600020015414611382576040517f08c379a000000000000000000000000000000000000000000000000000000000815260040161137990614e54565b60405180910390fd5b6002600481111561138f57fe5b8460a00151600481111561139f57fe5b10156113e0576040517f08c379a00000000000000000000000000000000000000000000000000000000081526004016113d790614bd4565b60405180910390fd5b600080600160009054906101000a900473ffffffffffffffffffffffffffffffffffffffff1673ffffffffffffffffffffffffffffffffffffffff1663afe15cfb8760e001516040518263ffffffff1660e01b81526004016114429190615028565b604080518083038186803b15801561145957600080fd5b505afa15801561146d573d6000803e3d6000fd5b505050506040513d601f19601f8201168201806040525081019061149191906136e4565b915091508142101580156114a457508042105b6114e3576040517f08c379a00000000000000000000000000000000000000000000000000000000081526004016114da90614b74565b60405180910390fd5b6000600160009054906101000a900473ffffffffffffffffffffffffffffffffffffffff1673ffffffffffffffffffffffffffffffffffffffff1663f23f16e68860e001516040518263ffffffff1660e01b815260040161154491906150ee565b60206040518083038186803b15801561155c57600080fd5b505afa158015611570573d6000803e3d6000fd5b505050506040513d601f19601f820116820180604052508101906115949190613532565b90508560e0015181033410156115df576040517f08c379a00000000000000000000000000000000000000000000000000000000081526004016115d690614e74565b60405180910390fd5b348660e001818151019150818152505034866101200181815101915081815250508086610100015110156116ab5760018660200190600481111561161f57fe5b9081600481111561162c57fe5b81525050878760e001517ff6d6cf956a2b24b71568d4f9853779c9642a706044eea5a3f1afe2d0961e7bb7886040516116659190614fd4565b60405180910390a3877f1e1422ddd2c7231f13f1c8bd03ff992ce78a5e18fa363018bf34989f65348cec600260405161169e9190614b35565b60405180910390a26116c7565b8560c0018051809190600101815250506116c6888289612ef6565b5b5050505050505050565b60008054906101000a900473ffffffffffffffffffffffffffffffffffffffff1681565b60066020528060005260406000206000915090508060000154908060010160009054906101000a900460ff169080600201549080600301549080600401549080600501549080600601549080600701549080600801549080600901549080600a0160009054906101000a900460ff1690508b565b6000816000015182602001518360400151846060015185608001518660a001518760c001518860e001516040516020016117aa989796959493929190614a52565b604051602081830303815290604052805190602001209050919050565b83836117d281611769565b600560018403815481106117e257fe5b90600052602060002001541461182d576040517f08c379a000000000000000000000000000000000000000000000000000000000815260040161182490614e54565b60405180910390fd5b6000600481111561183a57fe5b8560a00151600481111561184a57fe5b1461188a576040517f08c379a000000000000000000000000000000000000000000000000000000000815260040161188190614db4565b60405180910390fd5b84602001516118ce576040517f08c379a00000000000000000000000000000000000000000000000000000000081526004016118c590614d34565b60405180910390fd5b84600001513414611914576040517f08c379a000000000000000000000000000000000000000000000000000000000815260040161190b90614bb4565b60405180910390fd5b60018560a00190600481111561192657fe5b9081600481111561193357fe5b81525050600085602001901515908115158152505033856060019073ffffffffffffffffffffffffffffffffffffffff16908173ffffffffffffffffffffffffffffffffffffffff1681525050428560c001818152505061199385611769565b600560018803815481106119a357fe5b9060005260206000200181905550857f6f8f67e7442497979a2f58987f7016973b0f39ebdf0ebb1d423fc9b331c80794866040516119e1919061500c565b60405180910390a2857f61606860eb6c87306811e2695215385101daab53bd6ab4e9f9049aead9363c7d8585604051611a1b929190614b50565b60405180910390a2505050505050565b8281611a3681611769565b60056001840381548110611a4657fe5b906000526020600020015414611a91576040517f08c379a0000000000000000000000000000000000000000000000000000000008152600401611a8890614e54565b60405180910390fd5b6000600660008681526020019081526020016000209050600480811115611ab457fe5b8160010160009054906101000a900460ff166004811115611ad157fe5b14611b11576040517f08c379a0000000000000000000000000000000000000000000000000000000008152600401611b0890614d14565b60405180910390fd5b60008460000151905060016002811115611b2757fe5b82600a0160009054906101000a900460ff166002811115611b4457fe5b1415611ba857816003015481019050816007015481019050846060015173ffffffffffffffffffffffffffffffffffffffff166108fc829081150290604051600060405180830381858888f19350505050158015611ba6573d6000803e3d6000fd5b505b600280811115611bb457fe5b82600a0160009054906101000a900460ff166002811115611bd157fe5b1415611c3557816004015481019050816008015481019050846040015173ffffffffffffffffffffffffffffffffffffffff166108fc829081150290604051600060405180830381858888f19350505050158015611c33573d6000803e3d6000fd5b505b60006002811115611c4257fe5b82600a0160009054906101000a900460ff166002811115611c5f57fe5b1415611d2257816004015481019050816008015481019050846040015173ffffffffffffffffffffffffffffffffffffffff166108fc60028381611c9f57fe5b049081150290604051600060405180830381858888f19350505050158015611ccb573d6000803e3d6000fd5b50846060015173ffffffffffffffffffffffffffffffffffffffff166108fc60028381611cf457fe5b049081150290604051600060405180830381858888f19350505050158015611d20573d6000803e3d6000fd5b505b60048560a001906004811115611d3457fe5b90816004811115611d4157fe5b81525050611d4e85611769565b60056001890381548110611d5e57fe5b9060005260206000200181905550867f3a6ced61ff5679745dc1eaa70ae1f120225c48e2e17c870433d698494957fc9886604051611d9c919061500c565b60405180910390a250505050505050565b60008054906101000a900473ffffffffffffffffffffffffffffffffffffffff1673ffffffffffffffffffffffffffffffffffffffff163373ffffffffffffffffffffffffffffffffffffffff1614611e3b576040517f08c379a0000000000000000000000000000000000000000000000000000000008152600401611e3290614e34565b60405180910390fd5b8060038190555050565b60058181548110611e5257fe5b906000526020600020016000915090505481565b60008054906101000a900473ffffffffffffffffffffffffffffffffffffffff1673ffffffffffffffffffffffffffffffffffffffff163373ffffffffffffffffffffffffffffffffffffffff1614611ef4576040517f08c379a0000000000000000000000000000000000000000000000000000000008152600401611eeb90614df4565b60405180910390fd5b8060028190555050565b8181611f0981611769565b60056001840381548110611f1957fe5b906000526020600020015414611f64576040517f08c379a0000000000000000000000000000000000000000000000000000000008152600401611f5b90614e54565b60405180910390fd5b6000600660008560e0015181526020019081526020016000209050836060015173ffffffffffffffffffffffffffffffffffffffff163373ffffffffffffffffffffffffffffffffffffffff1614611ff1576040517f08c379a0000000000000000000000000000000000000000000000000000000008152600401611fe890614e94565b60405180910390fd5b60026004811115611ffe57fe5b8460a00151600481111561200e57fe5b101561204f576040517f08c379a000000000000000000000000000000000000000000000000000000000815260040161204690614c54565b60405180910390fd5b80600201544211612095576040517f08c379a000000000000000000000000000000000000000000000000000000000815260040161208c90614c74565b60405180910390fd5b60008160060154146121a757600080600160009054906101000a900473ffffffffffffffffffffffffffffffffffffffff1673ffffffffffffffffffffffffffffffffffffffff1663afe15cfb8760e001516040518263ffffffff1660e01b81526004016121039190615028565b604080518083038186803b15801561211a57600080fd5b505afa15801561212e573d6000803e3d6000fd5b505050506040513d601f19601f8201168201806040525081019061215291906136e4565b9150915081421015801561216557508042115b6121a4576040517f08c379a000000000000000000000000000000000000000000000000000000000815260040161219b90614c94565b60405180910390fd5b50505b60048160010160006101000a81548160ff021916908360048111156121c857fe5b0217905550600084600001519050816007015482600301540181019050857f3a6ced61ff5679745dc1eaa70ae1f120225c48e2e17c870433d698494957fc9886604051612215919061500c565b60405180910390a2505050505050565b816040015173ffffffffffffffffffffffffffffffffffffffff163373ffffffffffffffffffffffffffffffffffffffff1614612297576040517f08c379a000000000000000000000000000000000000000000000000000000000815260040161228e90614f74565b60405180910390fd5b600060048111156122a457fe5b8260a0015160048111156122b457fe5b146122f4576040517f08c379a00000000000000000000000000000000000000000000000000000000081526004016122eb90614ef4565b60405180910390fd5b8082600001818152505061230782611769565b6005600185038154811061231757fe5b9060005260206000200181905550827f6f8f67e7442497979a2f58987f7016973b0f39ebdf0ebb1d423fc9b331c8079483604051612355919061500c565b60405180910390a2505050565b818161236d81611769565b6005600184038154811061237d57fe5b9060005260206000200154146123c8576040517f08c379a00000000000000000000000000000000000000000000000000000000081526004016123bf90614e54565b60405180910390fd5b826060015173ffffffffffffffffffffffffffffffffffffffff163373ffffffffffffffffffffffffffffffffffffffff161461243a576040517f08c379a000000000000000000000000000000000000000000000000000000000815260040161243190614d94565b60405180910390fd5b6003548360c00151420310612484576040517f08c379a000000000000000000000000000000000000000000000000000000000815260040161247b90614d74565b60405180910390fd5b6001600481111561249157fe5b8360a0015160048111156124a157fe5b146124e1576040517f08c379a00000000000000000000000000000000000000000000000000000000081526004016124d890614cf4565b60405180910390fd5b6000600160009054906101000a900473ffffffffffffffffffffffffffffffffffffffff1673ffffffffffffffffffffffffffffffffffffffff1663f7434ea96040518163ffffffff1660e01b815260040161253c90614f14565b60206040518083038186803b15801561255457600080fd5b505afa158015612568573d6000803e3d6000fd5b505050506040513d601f19601f8201168201806040525081019061258c9190613532565b9050803410156125d1576040517f08c379a00000000000000000000000000000000000000000000000000000000081526004016125c890614c14565b60405180910390fd5b6125d96130f2565b604051806101600160405280878152602001600160048111156125f857fe5b81526020016002544201815260200134815260200160008152602001348152602001600081526020016000815260200160008152602001600081526020016000600281111561264357fe5b815250905060028560a00190600481111561265a57fe5b9081600481111561266757fe5b8152505061267485611769565b6005600188038154811061268457fe5b90600052602060002001819055506000867f6f8f67e7442497979a2f58987f7016973b0f39ebdf0ebb1d423fc9b331c80794876040516126c4919061500c565b60405180910390a286817ff6d6cf956a2b24b71568d4f9853779c9642a706044eea5a3f1afe2d0961e7bb7846040516126fd9190614fd4565b60405180910390a3867f7669e65111a702c7b74130e28abaa2e072e1693a2448b962c02ba59cdd88c42660026040516127369190614b35565b60405180910390a250505050505050565b828261275281611769565b6005600184038154811061276257fe5b9060005260206000200154146127ad576040517f08c379a00000000000000000000000000000000000000000000000000000000081526004016127a490614e54565b60405180910390fd5b600260048111156127ba57fe5b8460a0015160048111156127ca57fe5b101561280b576040517f08c379a000000000000000000000000000000000000000000000000000000000815260040161280290614bd4565b60405180910390fd5b600080600160009054906101000a900473ffffffffffffffffffffffffffffffffffffffff1673ffffffffffffffffffffffffffffffffffffffff1663afe15cfb8760e001516040518263ffffffff1660e01b815260040161286d9190615028565b604080518083038186803b15801561288457600080fd5b505afa158015612898573d6000803e3d6000fd5b505050506040513d601f19601f820116820180604052508101906128bc91906136e4565b915091508142101580156128cf57508042105b61290e576040517f08c379a000000000000000000000000000000000000000000000000000000000815260040161290590614b74565b60405180910390fd5b6000600160009054906101000a900473ffffffffffffffffffffffffffffffffffffffff1673ffffffffffffffffffffffffffffffffffffffff1663f23f16e68860e001516040518263ffffffff1660e01b815260040161296f91906150ee565b60206040518083038186803b15801561298757600080fd5b505afa15801561299b573d6000803e3d6000fd5b505050506040513d601f19601f820116820180604052508101906129bf9190613532565b90508561010001518103341015612a0b576040517f08c379a0000000000000000000000000000000000000000000000000000000008152600401612a0290614e74565b60405180910390fd5b34866101000181815101915081815250503486610120018181510191508181525050808660e001511015612ad757600286602001906004811115612a4b57fe5b90816004811115612a5857fe5b81525050878760e001517ff6d6cf956a2b24b71568d4f9853779c9642a706044eea5a3f1afe2d0961e7bb788604051612a919190614fd4565b60405180910390a3877f1e1422ddd2c7231f13f1c8bd03ff992ce78a5e18fa363018bf34989f65348cec6001604051612aca9190614b35565b60405180910390a2612af3565b8560c001805180919060010181525050612af2888289612ef6565b5b5050505050505050565b612b05613162565b6040518061010001604052808381526020016001151581526020013373ffffffffffffffffffffffffffffffffffffffff168152602001600073ffffffffffffffffffffffffffffffffffffffff16815260200184815260200160006004811115612b6c57fe5b815260200160008152602001600081525090506000612b8a82611769565b9050600581908060018154018082558091505060019003906000526020600020016000909190919091505560006005805490509050807f6f8f67e7442497979a2f58987f7016973b0f39ebdf0ebb1d423fc9b331c8079484604051612bef919061500c565b60405180910390a25050505050565b60028260a001906004811115612c1057fe5b90816004811115612c1d57fe5b81525050600160009054906101000a900473ffffffffffffffffffffffffffffffffffffffff1673ffffffffffffffffffffffffffffffffffffffff1663c13517e1846004546040518363ffffffff1660e01b8152600401612c7f91906150ee565b6020604051808303818588803b158015612c9857600080fd5b505af1158015612cac573d6000803e3d6000fd5b50505050506040513d601f19601f82011682018060405250810190612cd19190613532565b8260e0018181525050612ce382611769565b60056001870381548110612cf357fe5b9060005260206000200181905550600381602001906004811115612d1357fe5b90816004811115612d2057fe5b8152505080600660008460e0015181526020019081526020016000206000820151816000015560208201518160010160006101000a81548160ff02191690836004811115612d6a57fe5b021790555060408201518160020155606082015181600301556080820151816004015560a0820151816005015560c0820151816006015560e082015181600701556101008201518160080155610120820151816009015561014082015181600a0160006101000a81548160ff02191690836002811115612de657fe5b02179055509050508281608001511115612e1757600083826080015103905083826080018181525050826040015150505b8281606001511115612e4057600083826060015103905083826060018181525050826060015150505b847f6f8f67e7442497979a2f58987f7016973b0f39ebdf0ebb1d423fc9b331c8079483604051612e70919061500c565b60405180910390a28160e00151600160009054906101000a900473ffffffffffffffffffffffffffffffffffffffff1673ffffffffffffffffffffffffffffffffffffffff167f74baab670a4015ab2f1b467c5252a96141a2573f2908e58a92081e80d3cfde3d8688604051612ee792919061511c565b60405180910390a35050505050565b60038160a001906004811115612f0857fe5b90816004811115612f1557fe5b81525050612f2281611769565b60056001850381548110612f3257fe5b90600052602060002001819055506000600660008360e00151815260200190815260200160002090508060060160008154809291906001019190505550600160009054906101000a900473ffffffffffffffffffffffffffffffffffffffff1673ffffffffffffffffffffffffffffffffffffffff166349912f88848460e001516040518363ffffffff1660e01b8152600401612fcf91906150ee565b6000604051808303818588803b158015612fe857600080fd5b505af1158015612ffc573d6000803e3d6000fd5b505050505060038160010160006101000a81548160ff0219169083600481111561302257fe5b0217905550828160080154111561304f576000838260080154039050838260080181905550826040015150505b8281600701541115613077576000838260070154039050838260070181905550826060015150505b837f6f8f67e7442497979a2f58987f7016973b0f39ebdf0ebb1d423fc9b331c80794836040516130a7919061500c565b60405180910390a2838260e001517ff6d6cf956a2b24b71568d4f9853779c9642a706044eea5a3f1afe2d0961e7bb7836040516130e49190614ff0565b60405180910390a350505050565b604051806101600160405280600081526020016000600481111561311257fe5b815260200160008152602001600081526020016000815260200160008152602001600081526020016000815260200160008152602001600081526020016000600281111561315c57fe5b81525090565b60405180610100016040528060008152602001600015158152602001600073ffffffffffffffffffffffffffffffffffffffff168152602001600073ffffffffffffffffffffffffffffffffffffffff16815260200160008019168152602001600060048111156131cf57fe5b815260200160008152602001600081525090565b6000813590506131f2816153e2565b92915050565b600081359050613207816153f9565b92915050565b60008135905061321c81615410565b92915050565b60008135905061323181615427565b92915050565b60008135905061324681615437565b92915050565b60008135905061325b81615447565b92915050565b60008083601f84011261327357600080fd5b8235905067ffffffffffffffff81111561328c57600080fd5b6020830191508360018202830111156132a457600080fd5b9250929050565b600061016082840312156132be57600080fd5b6132c9610160615145565b905060006132d984828501613479565b60008301525060206132ed84828501613222565b602083015250604061330184828501613479565b604083015250606061331584828501613479565b606083015250608061332984828501613479565b60808301525060a061333d84828501613479565b60a08301525060c061335184828501613479565b60c08301525060e061336584828501613479565b60e08301525061010061337a84828501613479565b6101008301525061012061339084828501613479565b610120830152506101406133a684828501613237565b6101408301525092915050565b600061010082840312156133c657600080fd5b6133d1610100615145565b905060006133e184828501613479565b60008301525060206133f5848285016131f8565b6020830152506040613409848285016131e3565b604083015250606061341d848285016131e3565b60608301525060806134318482850161320d565b60808301525060a06134458482850161324c565b60a08301525060c061345984828501613479565b60c08301525060e061346d84828501613479565b60e08301525092915050565b60008135905061348881615457565b92915050565b60008151905061349d81615457565b92915050565b600080604083850312156134b657600080fd5b60006134c48582860161320d565b92505060206134d585828601613479565b9150509250929050565b600061010082840312156134f257600080fd5b6000613500848285016133b3565b91505092915050565b60006020828403121561351b57600080fd5b600061352984828501613479565b91505092915050565b60006020828403121561354457600080fd5b60006135528482850161348e565b91505092915050565b600080610120838503121561356f57600080fd5b600061357d85828601613479565b925050602061358e858286016133b3565b9150509250929050565b60008060008061014085870312156135af57600080fd5b60006135bd87828801613479565b94505060206135ce878288016133b3565b93505061012085013567ffffffffffffffff8111156135ec57600080fd5b6135f887828801613261565b925092505092959194509250565b6000806000610280848603121561361c57600080fd5b600061362a86828701613479565b935050602061363b868287016133b3565b92505061012061364d868287016132ab565b9150509250925092565b6000806000610140848603121561366d57600080fd5b600061367b86828701613479565b935050602061368c868287016133b3565b92505061012061369e86828701613479565b9150509250925092565b600080604083850312156136bb57600080fd5b60006136c985828601613479565b92505060206136da85828601613479565b9150509250929050565b600080604083850312156136f757600080fd5b60006137058582860161348e565b92505060206137168582860161348e565b9150509250929050565b6000806000610140848603121561373657600080fd5b600061374486828701613479565b935050602061375586828701613479565b9250506040613766868287016133b3565b9150509250925092565b6000806000806102a0858703121561378757600080fd5b600061379587828801613479565b94505060206137a687828801613479565b93505060406137b7878288016133b3565b9250506101406137c9878288016132ab565b91505092959194509250565b6137de816151ce565b82525050565b6137f56137f0826151ce565b615310565b82525050565b613804816151bc565b82525050565b613813816151e0565b82525050565b61382a613825826151e0565b615322565b82525050565b613839816151ec565b82525050565b613848816151ec565b82525050565b61385f61385a826151ec565b615334565b82525050565b61386e81615259565b82525050565b61387d8161527d565b82525050565b61388c8161527d565b82525050565b61389b8161528f565b82525050565b6138aa8161528f565b82525050565b6138b9816152a1565b82525050565b6138d06138cb826152a1565b61535a565b82525050565b60006138e28385615187565b93506138ef8385846152b3565b6138f88361536e565b840190509392505050565b6000613910602e83615187565b91507f46756e64696e67206d757374206265206d6164652077697468696e207468652060008301527f61707065616c20706572696f642e0000000000000000000000000000000000006020830152604082019050919050565b6000613976603783615187565b91507f43616e6e6f74207769746864726177207072696365207768696c65207265636c60008301527f61696d20706572696f64206973206e6f74206f7665722e0000000000000000006020830152604082019050919050565b60006139dc602183615187565b91507f4d7573742073656e642065786163746c7920746865206974656d20707269636560008301527f2e000000000000000000000000000000000000000000000000000000000000006020830152604082019050919050565b6000613a42601e83615187565b91507f5468657265206973206e6f206469737075746520746f2061707065616c2e00006000830152602082019050919050565b6000613a82603283615187565b91507f4d757374206e6f742073656e642065766964656e63652069662074686520646960008301527f7370757465206973207265736f6c7665642e00000000000000000000000000006020830152604082019050919050565b6000613ae8603d83615187565b91507f4d757374206465706f736974207468652072696768742061726269747261746960008301527f6f6e2066656520746f207265636c61696d20706169642070726963652e0000006020830152604082019050919050565b6000613b4e603283615187565b91507f43616e20676976652072756c696e67206f6e6c79207768656e2061206469737060008301527f75746520697320696e2070726f636573732e00000000000000000000000000006020830152604082019050919050565b6000613bb4605883615187565b91507f546869732066756e6374696f6e2069732063616c6c6564206f6e6c792077686560008301527f6e207468652073656c6c65722773207061796d656e74206f662074686520617260208301527f626974726174696f6e206665652074696d6573206f75742e00000000000000006040830152606082019050919050565b6000613c40603883615187565b91507f5468652073656c6c6572207374696c6c206861732074696d6520746f2064657060008301527f6f73697420616e206172626974726174696f6e206665652e00000000000000006020830152604082019050919050565b6000613ca6602883615187565b91507f53656c6c6572207374696c6c206861732074696d6520746f2066756e6420616e60008301527f2061707065616c2e0000000000000000000000000000000000000000000000006020830152604082019050919050565b6000613d0c602b83615187565b91507f546865206172626974726174696f6e20666565206465706f736974207065726960008301527f6f64206973206f7665722e0000000000000000000000000000000000000000006020830152604082019050919050565b6000613d72602b83615187565b91507f5468652063616c6c6572206d757374206265207468652073656c6c6572206f7260008301527f207468652062757965722e0000000000000000000000000000000000000000006020830152604082019050919050565b6000613dd8602a83615187565b91507f43616e2072616973652061207265636c61696d20646973707574652070656e6460008301527f696e672073746174652e000000000000000000000000000000000000000000006020830152604082019050919050565b6000613e3e603683615187565b91507f416e206172626974726174696f6e206d757374206265207265736f6c7665642060008301527f746f2065786563757465206974732072756c696e672e000000000000000000006020830152604082019050919050565b6000613ea4602283615187565b91507f43616e6e6f74207075726368617365206974656d206e6f7420666f722073616c60008301527f652e0000000000000000000000000000000000000000000000000000000000006020830152604082019050919050565b6000613f0a603483615187565b91507f4f6e6c79207468652073656c6c65722063616e2063616c6c20612073656c6c6560008301527f722d77697468647261772066756e6374696f6e2e0000000000000000000000006020830152604082019050919050565b6000613f70603883615187565b91507f43616e6e6f74207265636c61696d20707269636520616674657220746865207260008301527f65636c61696d2077696e646f7720697320636c6f7365642e00000000000000006020830152604082019050919050565b6000613fd6603783615187565b91507f4f6e6c7920746865206275796572206f662074686520636172642063616e207260008301527f616973652061207265636c61696d20646973707574652e0000000000000000006020830152604082019050919050565b600061403c602f83615187565b91507f43616e277420707572636861736520616e206974656d20616c7265616479206560008301527f6e676167656420696e2073616c652e00000000000000000000000000000000006020830152604082019050919050565b60006140a2604383615187565b91507f43616e206f6e6c7920776974686472617720707269636520696620746865207460008301527f72616e73616374696f6e20697320696e207468652070656e64696e672073746160208301527f74652e00000000000000000000000000000000000000000000000000000000006040830152606082019050919050565b600061412e604983615187565b91507f4f6e6c7920746865206f776e6572206f662074686520636f6e7472616374206360008301527f616e206368616e6765206172626974726174696f6e20666565206465706f736960208301527f7420706572696f642e00000000000000000000000000000000000000000000006040830152606082019050919050565b60006141ba602683615187565b91507f4f6e6c79207468652062757965722063616e207265747269657665206974656d60008301527f20696e666f2e00000000000000000000000000000000000000000000000000006020830152604082019050919050565b6000614220603983615187565b91507f4f6e6c7920746865206f776e6572206f662074686520636f6e7472616374206360008301527f616e206368616e6765207265636c61696d20706572696f642e000000000000006020830152604082019050919050565b6000614286602683615187565b91507f5472616e73616374696f6e20646f65736e2774206d617463682073746f72656460008301527f20686173682e00000000000000000000000000000000000000000000000000006020830152604082019050919050565b60006142ec602183615187565b91507f4e6f7420706179696e672073756666696369656e742061707065616c2066656560008301527f2e000000000000000000000000000000000000000000000000000000000000006020830152604082019050919050565b6000614352603283615187565b91507f4f6e6c79207468652062757965722063616e2063616c6c20612062757965722d60008301527f77697468647261772066756e6374696f6e2e00000000000000000000000000006020830152604082019050919050565b60006143b8604183615187565b91507f4f6e6c79207468652073656c6c657220696e766f6c76656420696e207468652060008301527f646973707574652063616e20706179207468652073656c6c657227732066656560208301527f2e000000000000000000000000000000000000000000000000000000000000006040830152606082019050919050565b6000614444603e83615187565b91507f43616e206f6e6c7920706179206465706f73697420666565207768656e20697460008301527f73207468652062757965722773207475726e20746f20726573706f6e642e00006020830152604082019050919050565b60006144aa603e83615187565b91507f43616e2774206368616e676520676966742063617264207072696365206f6e6360008301527f6520697420686173206265656e20656e676167656420696e2073616c652e00006020830152604082019050919050565b6000614510600083615176565b9150600082019050919050565b600061452a602683615187565b91507f4f6e6c79207468652061726269747261746f722063616e20676976652061207260008301527f756c696e672e00000000000000000000000000000000000000000000000000006020830152604082019050919050565b6000614590603f83615187565b91507f4f6e6c792074686520627579657220696e766f6c76656420696e20746865206460008301527f6973707574652063616e20706179207468652062757965722773206665652e006020830152604082019050919050565b60006145f6602b83615187565b91507f4f6e6c7920746865206f776e6572206f66206120636172642063616e2073657460008301527f206974732070726963652e0000000000000000000000000000000000000000006020830152604082019050919050565b600061465c603f83615187565b91507f43616e206f6e6c7920706179206465706f73697420666565207768656e20697460008301527f73207468652073656c6c65722773207475726e20746f20726573706f6e642e006020830152604082019050919050565b60006146c2604183615187565b91507f4d7573742068617665206174206c65617374206172626974726174696f6e206360008301527f6f737420696e2062616c616e636520746f20637265617465206469737075746560208301527f2e000000000000000000000000000000000000000000000000000000000000006040830152606082019050919050565b610160820160008201516147586000850182614a1d565b50602082015161476b6020850182613874565b50604082015161477e6040850182614a1d565b5060608201516147916060850182614a1d565b5060808201516147a46080850182614a1d565b5060a08201516147b760a0850182614a1d565b5060c08201516147ca60c0850182614a1d565b5060e08201516147dd60e0850182614a1d565b506101008201516147f2610100850182614a1d565b50610120820151614807610120850182614a1d565b5061014082015161481c610140850182613892565b50505050565b61016082016000808301549050614838816152f6565b6148456000860182614a1d565b5060018301549050614856816152c2565b6148636020860182613874565b5060028301549050614874816152f6565b6148816040860182614a1d565b5060038301549050614892816152f6565b61489f6060860182614a1d565b50600483015490506148b0816152f6565b6148bd6080860182614a1d565b50600583015490506148ce816152f6565b6148db60a0860182614a1d565b50600683015490506148ec816152f6565b6148f960c0860182614a1d565b506007830154905061490a816152f6565b61491760e0860182614a1d565b5060088301549050614928816152f6565b614936610100860182614a1d565b5060098301549050614947816152f6565b614955610120860182614a1d565b50600a8301549050614966816152dc565b614974610140860182613892565b5050505050565b610100820160008201516149926000850182614a1d565b5060208201516149a5602085018261380a565b5060408201516149b860408501826137d5565b5060608201516149cb60608501826137d5565b5060808201516149de6080850182613830565b5060a08201516149f160a08501826138b0565b5060c0820151614a0460c0850182614a1d565b5060e0820151614a1760e0850182614a1d565b50505050565b614a268161524f565b82525050565b614a358161524f565b82525050565b614a4c614a478261524f565b615350565b82525050565b6000614a5e828b614a3b565b602082019150614a6e828a613819565b600182019150614a7e82896137e4565b601482019150614a8e82886137e4565b601482019150614a9e828761384e565b602082019150614aae82866138bf565b600182019150614abe8285614a3b565b602082019150614ace8284614a3b565b6020820191508190509998505050505050505050565b6000602082019050614af960008301846137fb565b92915050565b6000602082019050614b14600083018461383f565b92915050565b6000602082019050614b2f6000830184613865565b92915050565b6000602082019050614b4a60008301846138a1565b92915050565b60006020820190508181036000830152614b6b8184866138d6565b90509392505050565b60006020820190508181036000830152614b8d81613903565b9050919050565b60006020820190508181036000830152614bad81613969565b9050919050565b60006020820190508181036000830152614bcd816139cf565b9050919050565b60006020820190508181036000830152614bed81613a35565b9050919050565b60006020820190508181036000830152614c0d81613a75565b9050919050565b60006020820190508181036000830152614c2d81613adb565b9050919050565b60006020820190508181036000830152614c4d81613b41565b9050919050565b60006020820190508181036000830152614c6d81613ba7565b9050919050565b60006020820190508181036000830152614c8d81613c33565b9050919050565b60006020820190508181036000830152614cad81613c99565b9050919050565b60006020820190508181036000830152614ccd81613cff565b9050919050565b60006020820190508181036000830152614ced81613d65565b9050919050565b60006020820190508181036000830152614d0d81613dcb565b9050919050565b60006020820190508181036000830152614d2d81613e31565b9050919050565b60006020820190508181036000830152614d4d81613e97565b9050919050565b60006020820190508181036000830152614d6d81613efd565b9050919050565b60006020820190508181036000830152614d8d81613f63565b9050919050565b60006020820190508181036000830152614dad81613fc9565b9050919050565b60006020820190508181036000830152614dcd8161402f565b9050919050565b60006020820190508181036000830152614ded81614095565b9050919050565b60006020820190508181036000830152614e0d81614121565b9050919050565b60006020820190508181036000830152614e2d816141ad565b9050919050565b60006020820190508181036000830152614e4d81614213565b9050919050565b60006020820190508181036000830152614e6d81614279565b9050919050565b60006020820190508181036000830152614e8d816142df565b9050919050565b60006020820190508181036000830152614ead81614345565b9050919050565b60006020820190508181036000830152614ecd816143ab565b9050919050565b60006020820190508181036000830152614eed81614437565b9050919050565b60006020820190508181036000830152614f0d8161449d565b9050919050565b60006020820190508181036000830152614f2d81614503565b9050919050565b60006020820190508181036000830152614f4d8161451d565b9050919050565b60006020820190508181036000830152614f6d81614583565b9050919050565b60006020820190508181036000830152614f8d816145e9565b9050919050565b60006020820190508181036000830152614fad8161464f565b9050919050565b60006020820190508181036000830152614fcd816146b5565b9050919050565b600061016082019050614fea6000830184614741565b92915050565b6000610160820190506150066000830184614822565b92915050565b600061010082019050615022600083018461497b565b92915050565b600060208201905061503d6000830184614a2c565b92915050565b600061016082019050615059600083018e614a2c565b615066602083018d613883565b615073604083018c614a2c565b615080606083018b614a2c565b61508d608083018a614a2c565b61509a60a0830189614a2c565b6150a760c0830188614a2c565b6150b460e0830187614a2c565b6150c2610100830186614a2c565b6150d0610120830185614a2c565b6150de6101408301846138a1565b9c9b505050505050505050505050565b60006040820190506151036000830184614a2c565b818103602083015261511481614503565b905092915050565b60006040820190506151316000830185614a2c565b61513e6020830184614a2c565b9392505050565b6000604051905081810181811067ffffffffffffffff8211171561516c5761516b61536c565b5b8060405250919050565b600082825260208201905092915050565b600082825260208201905092915050565b600060ff82169050919050565b600060ff82169050919050565b6000819050919050565b60006151c78261522f565b9050919050565b60006151d98261522f565b9050919050565b60008115159050919050565b6000819050919050565b6000819050615204826153a6565b919050565b6000819050615217826153ba565b919050565b600081905061522a826153ce565b919050565b600073ffffffffffffffffffffffffffffffffffffffff82169050919050565b6000819050919050565b60006152648261526b565b9050919050565b60006152768261522f565b9050919050565b6000615288826151f6565b9050919050565b600061529a82615209565b9050919050565b60006152ac8261521c565b9050919050565b82818337600083830152505050565b60006152d56152d083615399565b615198565b9050919050565b60006152ef6152ea83615399565b6151a5565b9050919050565b600061530961530483615399565b6151b2565b9050919050565b600061531b8261533e565b9050919050565b600061532d8261535a565b9050919050565b6000819050919050565b60006153498261538c565b9050919050565b6000819050919050565b60006153658261537f565b9050919050565bfe5b6000601f19601f8301169050919050565b60008160f81b9050919050565b60008160601b9050919050565b60008160001c9050919050565b600581106153b7576153b661536c565b5b50565b600381106153cb576153ca61536c565b5b50565b600581106153df576153de61536c565b5b50565b6153eb816151ce565b81146153f657600080fd5b50565b615402816151e0565b811461540d57600080fd5b50565b615419816151ec565b811461542457600080fd5b50565b6005811061543457600080fd5b50565b6003811061544457600080fd5b50565b6005811061545457600080fd5b50565b6154608161524f565b811461546b57600080fd5b5056fea2646970667358221220d029a9cd664f58ab175e94aa03a58aade205de387a22246b234898727430863664736f6c63430007030033",
  "linkReferences": {},
  "deployedLinkReferences": {}
}