{
  "_format": "hh-sol-artifact-1",
  "contractName": "Market",
  "sourceName": "contracts/Market.sol",
  "abi": [
    {
      "inputs": [
        {
          "internalType": "address",
          "name": "_arbitrator",
          "type": "address"
        }
      ],
      "stateMutability": "nonpayable",
      "type": "constructor"
    },
    {
      "anonymous": false,
      "inputs": [
        {
          "indexed": true,
          "internalType": "contract IArbitrator",
          "name": "_arbitrator",
          "type": "address"
        },
        {
          "indexed": true,
          "internalType": "uint256",
          "name": "_disputeID",
          "type": "uint256"
        },
        {
          "indexed": false,
          "internalType": "uint256",
          "name": "_metaEvidenceID",
          "type": "uint256"
        },
        {
          "indexed": false,
          "internalType": "uint256",
          "name": "_evidenceGroupID",
          "type": "uint256"
        }
      ],
      "name": "Dispute",
      "type": "event"
    },
    {
      "anonymous": false,
      "inputs": [
        {
          "indexed": true,
          "internalType": "contract IArbitrator",
          "name": "_arbitrator",
          "type": "address"
        },
        {
          "indexed": true,
          "internalType": "uint256",
          "name": "_evidenceGroupID",
          "type": "uint256"
        },
        {
          "indexed": true,
          "internalType": "address",
          "name": "_party",
          "type": "address"
        },
        {
          "indexed": false,
          "internalType": "string",
          "name": "_evidence",
          "type": "string"
        }
      ],
      "name": "Evidence",
      "type": "event"
    },
    {
      "anonymous": false,
      "inputs": [
        {
          "indexed": false,
          "internalType": "bytes32",
          "name": "cardID",
          "type": "bytes32"
        },
        {
          "indexed": false,
          "internalType": "enum Market.Party",
          "name": "party",
          "type": "uint8"
        }
      ],
      "name": "HasPaidAppealFee",
      "type": "event"
    },
    {
      "anonymous": false,
      "inputs": [
        {
          "indexed": false,
          "internalType": "bytes32",
          "name": "cardID",
          "type": "bytes32"
        },
        {
          "indexed": false,
          "internalType": "enum Market.Party",
          "name": "party",
          "type": "uint8"
        }
      ],
      "name": "HasPaidArbitrationFee",
      "type": "event"
    },
    {
      "anonymous": false,
      "inputs": [
        {
          "indexed": false,
          "internalType": "bytes32",
          "name": "cardID",
          "type": "bytes32"
        },
        {
          "indexed": false,
          "internalType": "enum Market.Party",
          "name": "party",
          "type": "uint8"
        }
      ],
      "name": "HasToPayAppealFee",
      "type": "event"
    },
    {
      "anonymous": false,
      "inputs": [
        {
          "indexed": false,
          "internalType": "bytes32",
          "name": "cardID",
          "type": "bytes32"
        },
        {
          "indexed": false,
          "internalType": "enum Market.Party",
          "name": "party",
          "type": "uint8"
        }
      ],
      "name": "HasToPayArbitrationFee",
      "type": "event"
    },
    {
      "anonymous": false,
      "inputs": [
        {
          "indexed": true,
          "internalType": "uint256",
          "name": "_metaEvidenceID",
          "type": "uint256"
        },
        {
          "indexed": false,
          "internalType": "string",
          "name": "_evidence",
          "type": "string"
        }
      ],
      "name": "MetaEvidence",
      "type": "event"
    },
    {
      "anonymous": false,
      "inputs": [
        {
          "indexed": false,
          "internalType": "bytes32",
          "name": "cardID",
          "type": "bytes32"
        },
        {
          "components": [
            {
              "internalType": "bytes32",
              "name": "cardID",
              "type": "bytes32"
            },
            {
              "internalType": "uint256",
              "name": "price",
              "type": "uint256"
            },
            {
              "internalType": "uint256",
              "name": "created_at",
              "type": "uint256"
            },
            {
              "internalType": "bool",
              "name": "forSale",
              "type": "bool"
            },
            {
              "internalType": "address payable",
              "name": "seller",
              "type": "address"
            },
            {
              "internalType": "address payable",
              "name": "buyer",
              "type": "address"
            },
            {
              "internalType": "string",
              "name": "cardInfo_URI",
              "type": "string"
            }
          ],
          "indexed": false,
          "internalType": "struct Market.Card",
          "name": "card",
          "type": "tuple"
        }
      ],
      "name": "NewListing",
      "type": "event"
    },
    {
      "anonymous": false,
      "inputs": [
        {
          "indexed": false,
          "internalType": "bytes32",
          "name": "cardID",
          "type": "bytes32"
        },
        {
          "components": [
            {
              "internalType": "enum Market.TransactionStatus",
              "name": "status",
              "type": "uint8"
            },
            {
              "internalType": "uint256",
              "name": "init",
              "type": "uint256"
            },
            {
              "internalType": "uint256",
              "name": "disputeID",
              "type": "uint256"
            },
            {
              "internalType": "uint256",
              "name": "locked_price_amount",
              "type": "uint256"
            }
          ],
          "indexed": false,
          "internalType": "struct Market.Transaction",
          "name": "transaction",
          "type": "tuple"
        }
      ],
      "name": "NewTransaction",
      "type": "event"
    },
    {
      "anonymous": false,
      "inputs": [
        {
          "indexed": true,
          "internalType": "contract IArbitrator",
          "name": "_arbitrator",
          "type": "address"
        },
        {
          "indexed": true,
          "internalType": "uint256",
          "name": "_disputeID",
          "type": "uint256"
        },
        {
          "indexed": false,
          "internalType": "uint256",
          "name": "_ruling",
          "type": "uint256"
        }
      ],
      "name": "Ruling",
      "type": "event"
    },
    {
      "anonymous": false,
      "inputs": [
        {
          "indexed": true,
          "internalType": "address",
          "name": "seller",
          "type": "address"
        },
        {
          "indexed": true,
          "internalType": "address",
          "name": "buyer",
          "type": "address"
        },
        {
          "indexed": false,
          "internalType": "bytes32",
          "name": "cardID",
          "type": "bytes32"
        }
      ],
      "name": "TransactionResolved",
      "type": "event"
    },
    {
      "inputs": [
        {
          "internalType": "bytes32",
          "name": "",
          "type": "bytes32"
        }
      ],
      "name": "appealReceipts",
      "outputs": [
        {
          "internalType": "uint256",
          "name": "appealRound",
          "type": "uint256"
        },
        {
          "internalType": "uint256",
          "name": "buyerFee",
          "type": "uint256"
        },
        {
          "internalType": "uint256",
          "name": "sellerFee",
          "type": "uint256"
        },
        {
          "internalType": "enum Market.DisputeStatus",
          "name": "status",
          "type": "uint8"
        },
        {
          "internalType": "uint256",
          "name": "appealFee",
          "type": "uint256"
        },
        {
          "internalType": "uint256",
          "name": "createdAt",
          "type": "uint256"
        },
        {
          "internalType": "uint256",
          "name": "deadline",
          "type": "uint256"
        }
      ],
      "stateMutability": "view",
      "type": "function"
    },
    {
      "inputs": [],
      "name": "arbitrator",
      "outputs": [
        {
          "internalType": "contract IArbitrator",
          "name": "",
          "type": "address"
        }
      ],
      "stateMutability": "view",
      "type": "function"
    },
    {
      "inputs": [
        {
          "internalType": "bytes32",
          "name": "_cardID",
          "type": "bytes32"
        },
        {
          "internalType": "string",
          "name": "_metaevidence",
          "type": "string"
        }
      ],
      "name": "buyCard",
      "outputs": [],
      "stateMutability": "payable",
      "type": "function"
    },
    {
      "inputs": [
        {
          "internalType": "bytes32",
          "name": "",
          "type": "bytes32"
        }
      ],
      "name": "cardID_to_txID",
      "outputs": [
        {
          "internalType": "uint256",
          "name": "",
          "type": "uint256"
        }
      ],
      "stateMutability": "view",
      "type": "function"
    },
    {
      "inputs": [
        {
          "internalType": "bytes32",
          "name": "",
          "type": "bytes32"
        }
      ],
      "name": "cards",
      "outputs": [
        {
          "internalType": "bytes32",
          "name": "cardID",
          "type": "bytes32"
        },
        {
          "internalType": "uint256",
          "name": "price",
          "type": "uint256"
        },
        {
          "internalType": "uint256",
          "name": "created_at",
          "type": "uint256"
        },
        {
          "internalType": "bool",
          "name": "forSale",
          "type": "bool"
        },
        {
          "internalType": "address payable",
          "name": "seller",
          "type": "address"
        },
        {
          "internalType": "address payable",
          "name": "buyer",
          "type": "address"
        },
        {
          "internalType": "string",
          "name": "cardInfo_URI",
          "type": "string"
        }
      ],
      "stateMutability": "view",
      "type": "function"
    },
    {
      "inputs": [
        {
          "internalType": "bytes32",
          "name": "",
          "type": "bytes32"
        }
      ],
      "name": "disputeReceipts",
      "outputs": [
        {
          "internalType": "bytes32",
          "name": "cardID",
          "type": "bytes32"
        },
        {
          "internalType": "enum Market.DisputeStatus",
          "name": "status",
          "type": "uint8"
        },
        {
          "internalType": "uint256",
          "name": "buyerFee",
          "type": "uint256"
        },
        {
          "internalType": "uint256",
          "name": "sellerFee",
          "type": "uint256"
        },
        {
          "internalType": "uint256",
          "name": "arbitrationFee",
          "type": "uint256"
        },
        {
          "internalType": "uint256",
          "name": "createdAt",
          "type": "uint256"
        }
      ],
      "stateMutability": "view",
      "type": "function"
    },
    {
      "inputs": [
        {
          "internalType": "uint256",
          "name": "",
          "type": "uint256"
        }
      ],
      "name": "dispute_ruling",
      "outputs": [
        {
          "internalType": "enum Market.RulingOptions",
          "name": "",
          "type": "uint8"
        }
      ],
      "stateMutability": "view",
      "type": "function"
    },
    {
      "inputs": [
        {
          "internalType": "uint256",
          "name": "",
          "type": "uint256"
        }
      ],
      "name": "disputes",
      "outputs": [
        {
          "internalType": "bytes32",
          "name": "",
          "type": "bytes32"
        }
      ],
      "stateMutability": "view",
      "type": "function"
    },
    {
      "inputs": [
        {
          "components": [
            {
              "internalType": "enum Market.TransactionStatus",
              "name": "status",
              "type": "uint8"
            },
            {
              "internalType": "uint256",
              "name": "init",
              "type": "uint256"
            },
            {
              "internalType": "uint256",
              "name": "disputeID",
              "type": "uint256"
            },
            {
              "internalType": "uint256",
              "name": "locked_price_amount",
              "type": "uint256"
            }
          ],
          "internalType": "struct Market.Transaction",
          "name": "transaction",
          "type": "tuple"
        }
      ],
      "name": "hashTransactionState",
      "outputs": [
        {
          "internalType": "bytes32",
          "name": "",
          "type": "bytes32"
        }
      ],
      "stateMutability": "pure",
      "type": "function"
    },
    {
      "inputs": [
        {
          "internalType": "uint256",
          "name": "",
          "type": "uint256"
        }
      ],
      "name": "id_store",
      "outputs": [
        {
          "internalType": "bytes32",
          "name": "",
          "type": "bytes32"
        }
      ],
      "stateMutability": "view",
      "type": "function"
    },
    {
      "inputs": [
        {
          "internalType": "string",
          "name": "_cardInfo",
          "type": "string"
        },
        {
          "internalType": "uint256",
          "name": "_price",
          "type": "uint256"
        }
      ],
      "name": "listNewCard",
      "outputs": [
        {
          "internalType": "bytes32",
          "name": "",
          "type": "bytes32"
        }
      ],
      "stateMutability": "nonpayable",
      "type": "function"
    },
    {
      "inputs": [],
      "name": "owner",
      "outputs": [
        {
          "internalType": "address",
          "name": "",
          "type": "address"
        }
      ],
      "stateMutability": "view",
      "type": "function"
    },
    {
      "inputs": [
        {
          "internalType": "bytes32",
          "name": "_cardID",
          "type": "bytes32"
        }
      ],
      "name": "payAppealFeeByBuyer",
      "outputs": [],
      "stateMutability": "payable",
      "type": "function"
    },
    {
      "inputs": [
        {
          "internalType": "bytes32",
          "name": "_cardID",
          "type": "bytes32"
        }
      ],
      "name": "payAppealFeeBySeller",
      "outputs": [],
      "stateMutability": "payable",
      "type": "function"
    },
    {
      "inputs": [
        {
          "internalType": "bytes32",
          "name": "_cardID",
          "type": "bytes32"
        }
      ],
      "name": "payArbitrationFeeByBuyer",
      "outputs": [],
      "stateMutability": "payable",
      "type": "function"
    },
    {
      "inputs": [
        {
          "internalType": "bytes32",
          "name": "_cardID",
          "type": "bytes32"
        }
      ],
      "name": "payArbitrationFeeBySeller",
      "outputs": [],
      "stateMutability": "payable",
      "type": "function"
    },
    {
      "inputs": [
        {
          "internalType": "bytes32",
          "name": "_cardID",
          "type": "bytes32"
        }
      ],
      "name": "reclaimPrice",
      "outputs": [],
      "stateMutability": "payable",
      "type": "function"
    },
    {
      "inputs": [
        {
          "internalType": "uint256",
          "name": "_disputeID",
          "type": "uint256"
        },
        {
          "internalType": "uint256",
          "name": "_ruling",
          "type": "uint256"
        }
      ],
      "name": "rule",
      "outputs": [],
      "stateMutability": "nonpayable",
      "type": "function"
    },
    {
      "inputs": [
        {
          "internalType": "address",
          "name": "",
          "type": "address"
        },
        {
          "internalType": "uint256",
          "name": "",
          "type": "uint256"
        }
      ],
      "name": "sellerListings",
      "outputs": [
        {
          "internalType": "bytes32",
          "name": "",
          "type": "bytes32"
        }
      ],
      "stateMutability": "view",
      "type": "function"
    },
    {
      "inputs": [
        {
          "internalType": "uint256",
          "name": "_newPeriod",
          "type": "uint256"
        }
      ],
      "name": "setArbitrationFeeDepositPeriod",
      "outputs": [],
      "stateMutability": "nonpayable",
      "type": "function"
    },
    {
      "inputs": [
        {
          "internalType": "bytes32",
          "name": "_cardID",
          "type": "bytes32"
        },
        {
          "internalType": "uint256",
          "name": "_newPrice",
          "type": "uint256"
        }
      ],
      "name": "setCardPrice",
      "outputs": [],
      "stateMutability": "nonpayable",
      "type": "function"
    },
    {
      "inputs": [
        {
          "internalType": "uint256",
          "name": "_newNumOfOptions",
          "type": "uint256"
        }
      ],
      "name": "setNumOfRulingOptions",
      "outputs": [],
      "stateMutability": "nonpayable",
      "type": "function"
    },
    {
      "inputs": [
        {
          "internalType": "uint256",
          "name": "_newPeriod",
          "type": "uint256"
        }
      ],
      "name": "setReclaimationPeriod",
      "outputs": [],
      "stateMutability": "nonpayable",
      "type": "function"
    },
    {
      "inputs": [
        {
          "internalType": "bytes32",
          "name": "_cardID",
          "type": "bytes32"
        },
        {
          "internalType": "bool",
          "name": "_status",
          "type": "bool"
        }
      ],
      "name": "setSaleSatus",
      "outputs": [],
      "stateMutability": "nonpayable",
      "type": "function"
    },
    {
      "inputs": [],
      "name": "stateID",
      "outputs": [
        {
          "internalType": "bytes32",
          "name": "",
          "type": "bytes32"
        }
      ],
      "stateMutability": "view",
      "type": "function"
    },
    {
      "inputs": [
        {
          "internalType": "bytes32",
          "name": "_cardID",
          "type": "bytes32"
        },
        {
          "internalType": "string",
          "name": "_evidence",
          "type": "string"
        }
      ],
      "name": "submiteEvidence",
      "outputs": [],
      "stateMutability": "nonpayable",
      "type": "function"
    },
    {
      "inputs": [
        {
          "internalType": "uint256",
          "name": "",
          "type": "uint256"
        }
      ],
      "name": "transactions",
      "outputs": [
        {
          "internalType": "enum Market.TransactionStatus",
          "name": "status",
          "type": "uint8"
        },
        {
          "internalType": "uint256",
          "name": "init",
          "type": "uint256"
        },
        {
          "internalType": "uint256",
          "name": "disputeID",
          "type": "uint256"
        },
        {
          "internalType": "uint256",
          "name": "locked_price_amount",
          "type": "uint256"
        }
      ],
      "stateMutability": "view",
      "type": "function"
    },
    {
      "inputs": [
        {
          "internalType": "bytes32",
          "name": "",
          "type": "bytes32"
        }
      ],
      "name": "validIDs",
      "outputs": [
        {
          "internalType": "bool",
          "name": "",
          "type": "bool"
        }
      ],
      "stateMutability": "view",
      "type": "function"
    },
    {
      "inputs": [
        {
          "internalType": "bytes32",
          "name": "_cardID",
          "type": "bytes32"
        }
      ],
      "name": "withdrawPrice",
      "outputs": [],
      "stateMutability": "nonpayable",
      "type": "function"
    }
  ],
  "bytecode": "0x60806040526201518060025561546060035560026004553480156200002357600080fd5b5060405162004f8338038062004f838339818101604052810190620000499190620000e8565b80600160006101000a81548173ffffffffffffffffffffffffffffffffffffffff021916908373ffffffffffffffffffffffffffffffffffffffff160217905550336000806101000a81548173ffffffffffffffffffffffffffffffffffffffff021916908373ffffffffffffffffffffffffffffffffffffffff1602179055505062000162565b600081519050620000e28162000148565b92915050565b600060208284031215620000fb57600080fd5b60006200010b84828501620000d1565b91505092915050565b6000620001218262000128565b9050919050565b600073ffffffffffffffffffffffffffffffffffffffff82169050919050565b620001538162000114565b81146200015f57600080fd5b50565b614e1180620001726000396000f3fe6080604052600436106101c25760003560e01c80638558c2d1116100f7578063acebd00711610095578063cb59fe9011610064578063cb59fe9014610684578063d4c7b8bf146106ad578063e0af3c0e146106c9578063fb16119c1461070c576101c2565b8063acebd007146105b8578063b0b558fb146105e1578063bc2d01841461060a578063c0d1f3a314610647576101c2565b80638da5cb5b116100d15780638da5cb5b146104fb57806399eb9275146105265780639ace38c21461054f578063a65d8fbd1461058f576101c2565b80638558c2d1146104745780638a9fe568146104b65780638c2d0670146104d2576101c2565b8063564a565d116101645780636f7903841161013e5780636f7903841461038e5780636fa0fa8e146103cb578063707cd60c146103f45780637168317114610437576101c2565b8063564a565d1461030a57806367463ee9146103475780636cc6cde114610363576101c2565b8063100d5910116101a0578063100d59101461027e5780632015ff40146102a9578063311a6c56146102c5578063319ca5b0146102ee576101c2565b8063054564f0146101c757806305eaa1ae146102045780630afc5da814610241575b600080fd5b3480156101d357600080fd5b506101ee60048036038101906101e99190613698565b610728565b6040516101fb919061454b565b60405180910390f35b34801561021057600080fd5b5061022b6004803603810190610226919061384e565b610756565b604051610238919061454b565b60405180910390f35b34801561024d57600080fd5b506102686004803603810190610263919061384e565b610777565b60405161027591906146da565b60405180910390f35b34801561028a57600080fd5b50610293610797565b6040516102a0919061454b565b60405180910390f35b6102c360048036038101906102be91906136d4565b61079d565b005b3480156102d157600080fd5b506102ec60048036038101906102e791906138a0565b610b72565b005b610308600480360381019061030391906136d4565b611135565b005b34801561031657600080fd5b50610331600480360381019061032c919061384e565b611492565b60405161033e919061454b565b60405180910390f35b610361600480360381019061035c91906136d4565b6114aa565b005b34801561036f57600080fd5b50610378611749565b60405161038591906146bf565b60405180910390f35b34801561039a57600080fd5b506103b560048036038101906103b09190613825565b61176f565b6040516103c2919061454b565b60405180910390f35b3480156103d757600080fd5b506103f260048036038101906103ed91906136d4565b6117b5565b005b34801561040057600080fd5b5061041b600480360381019061041691906136d4565b611ab3565b60405161042e9796959493929190614649565b60405180910390f35b34801561044357600080fd5b5061045e600480360381019061045991906137cd565b611bda565b60405161046b919061454b565b60405180910390f35b34801561048057600080fd5b5061049b600480360381019061049691906136d4565b611ec4565b6040516104ad96959493929190614566565b60405180910390f35b6104d060048036038101906104cb9190613739565b611f0d565b005b3480156104de57600080fd5b506104f960048036038101906104f491906136fd565b6122cb565b005b34801561050757600080fd5b506105106123a1565b60405161051d9190614515565b60405180910390f35b34801561053257600080fd5b5061054d6004803603810190610548919061384e565b6123c5565b005b34801561055b57600080fd5b506105766004803603810190610571919061384e565b61245d565b60405161058694939291906146f5565b60405180910390f35b34801561059b57600080fd5b506105b660048036038101906105b1919061384e565b61249a565b005b3480156105c457600080fd5b506105df60048036038101906105da9190613739565b612532565b005b3480156105ed57600080fd5b506106086004803603810190610603919061384e565b61299b565b005b34801561061657600080fd5b50610631600480360381019061062c91906136d4565b612a33565b60405161063e9190614530565b60405180910390f35b34801561065357600080fd5b5061066e600480360381019061066991906136d4565b612a53565b60405161067b9190614a5e565b60405180910390f35b34801561069057600080fd5b506106ab60048036038101906106a69190613791565b612a6b565b005b6106c760048036038101906106c291906136d4565b612b2e565b005b3480156106d557600080fd5b506106f060048036038101906106eb91906136d4565b612dcd565b6040516107039796959493929190614aa7565b60405180910390f35b610726600480360381019061072191906136d4565b612e1c565b005b6008602052816000526040600020818154811061074157fe5b90600052602060002001600091509150505481565b600e818154811061076357fe5b906000526020600020016000915090505481565b600d6020528060005260406000206000915054906101000a900460ff1681565b60105481565b806009600082815260200190815260200160002060009054906101000a900460ff166107fe576040517f08c379a00000000000000000000000000000000000000000000000000000000081526004016107f5906148de565b60405180910390fd5b6005600083815260200190815260200160002060040160009054906101000a900473ffffffffffffffffffffffffffffffffffffffff1673ffffffffffffffffffffffffffffffffffffffff163373ffffffffffffffffffffffffffffffffffffffff16146108a2576040517f08c379a00000000000000000000000000000000000000000000000000000000081526004016108999061489e565b60405180910390fd5b600354600660006007600086815260200190815260200160002054815260200190815260200160002060010154420310610911576040517f08c379a00000000000000000000000000000000000000000000000000000000081526004016109089061493e565b60405180910390fd5b6000600481111561091e57fe5b600660006007600086815260200190815260200160002054815260200190815260200160002060000160009054906101000a900460ff16600481111561096057fe5b146109a0576040517f08c379a00000000000000000000000000000000000000000000000000000000081526004016109979061487e565b60405180910390fd5b6000600160009054906101000a900473ffffffffffffffffffffffffffffffffffffffff1673ffffffffffffffffffffffffffffffffffffffff1663f7434ea96040518163ffffffff1660e01b81526004016109fb906149fe565b60206040518083038186803b158015610a1357600080fd5b505afa158015610a27573d6000803e3d6000fd5b505050506040513d601f19601f82011682018060405250810190610a4b9190613877565b9050803414610a8f576040517f08c379a0000000000000000000000000000000000000000000000000000000008152600401610a869061485e565b60405180910390fd5b6001600660006007600087815260200190815260200160002054815260200190815260200160002060000160006101000a81548160ff02191690836004811115610ad557fe5b02179055506000600b6000858152602001908152602001600020905060018160010160006101000a81548160ff02191690836004811115610b1257fe5b02179055503481600201819055503481600401819055504281600501819055507f542bce15b7403349f91e2fdb1deebfcf232e6e0798157e967d8180b840d22043846002604051610b649291906145c7565b60405180910390a150505050565b600160009054906101000a900473ffffffffffffffffffffffffffffffffffffffff1673ffffffffffffffffffffffffffffffffffffffff163373ffffffffffffffffffffffffffffffffffffffff1614610c02576040517f08c379a0000000000000000000000000000000000000000000000000000000008152600401610bf990614a1e565b60405180910390fd5b6000600a6000848152602001908152602001600020549050610c226133da565b600560008381526020019081526020016000206040518060e00160405290816000820154815260200160018201548152602001600282015481526020016003820160009054906101000a900460ff161515151581526020016003820160019054906101000a900473ffffffffffffffffffffffffffffffffffffffff1673ffffffffffffffffffffffffffffffffffffffff1673ffffffffffffffffffffffffffffffffffffffff1681526020016004820160009054906101000a900473ffffffffffffffffffffffffffffffffffffffff1673ffffffffffffffffffffffffffffffffffffffff1673ffffffffffffffffffffffffffffffffffffffff168152602001600582018054600181600116156101000203166002900480601f016020809104026020016040519081016040528092919081815260200182805460018160011615610100020316600290048015610dbe5780601f10610d9357610100808354040283529160200191610dbe565b820191906000526020600020905b815481529060010190602001808311610da157829003601f168201915b5050505050815250509050610dd1613448565b60066000600760008681526020019081526020016000205481526020019081526020016000206040518060800160405290816000820160009054906101000a900460ff166004811115610e2057fe5b6004811115610e2b57fe5b8152602001600182015481526020016002820154815260200160038201548152505090506000806002811115610e5d57fe5b851115610e9c57600482600001906004811115610e7657fe5b90816004811115610e8357fe5b8152505081606001518101905060008260600181815250505b600280811115610ea857fe5b851415610f3157600b60008581526020019081526020016000206002015481019050600c600085815260200190815260200160002060010154810190508260a0015173ffffffffffffffffffffffffffffffffffffffff166108fc829081150290604051600060405180830381858888f19350505050158015610f2f573d6000803e3d6000fd5b505b60016002811115610f3e57fe5b851415610fc757600b60008581526020019081526020016000206003015481019050600c60008581526020019081526020016000206002015481019050826080015173ffffffffffffffffffffffffffffffffffffffff166108fc829081150290604051600060405180830381858888f19350505050158015610fc5573d6000803e3d6000fd5b505b60006002811115610fd457fe5b8514156110bc57600b60008581526020019081526020016000206004015481019050600c60008581526020019081526020016000206004015481019050826080015173ffffffffffffffffffffffffffffffffffffffff166108fc6002838161103957fe5b049081150290604051600060405180830381858888f19350505050158015611065573d6000803e3d6000fd5b508260a0015173ffffffffffffffffffffffffffffffffffffffff166108fc6002838161108e57fe5b049081150290604051600060405180830381858888f193505050501580156110ba573d6000803e3d6000fd5b505b85600160009054906101000a900473ffffffffffffffffffffffffffffffffffffffff1673ffffffffffffffffffffffffffffffffffffffff167f394027a5fa6e098a1191094d1719d6929b9abc535fcc0c8f448d6a4e75622276876040516111259190614a5e565b60405180910390a3505050505050565b6000600660006007600085815260200190815260200160002054815260200190815260200160002090506000600c600084815260200190815260200160002090506002600481111561118357fe5b8260000160009054906101000a900460ff1660048111156111a057fe5b10156111e1576040517f08c379a00000000000000000000000000000000000000000000000000000000081526004016111d8906147fe565b60405180910390fd5b600080600160009054906101000a900473ffffffffffffffffffffffffffffffffffffffff1673ffffffffffffffffffffffffffffffffffffffff1663afe15cfb85600201546040518263ffffffff1660e01b81526004016112439190614a5e565b604080518083038186803b15801561125a57600080fd5b505afa15801561126e573d6000803e3d6000fd5b505050506040513d601f19601f8201168201806040525081019061129291906138dc565b915091508142101580156112a557508042105b6112e4576040517f08c379a00000000000000000000000000000000000000000000000000000000081526004016112db9061479e565b60405180910390fd5b6000600160009054906101000a900473ffffffffffffffffffffffffffffffffffffffff1673ffffffffffffffffffffffffffffffffffffffff1663f23f16e686600201546040518263ffffffff1660e01b81526004016113459190614a79565b60206040518083038186803b15801561135d57600080fd5b505afa158015611371573d6000803e3d6000fd5b505050506040513d601f19601f820116820180604052508101906113959190613877565b9050836002015481033410156113e0576040517f08c379a00000000000000000000000000000000000000000000000000000000081526004016113d7906149de565b60405180910390fd5b34846002016000828254019250508190555034846004016000828254019250508190555080846001015410156114755760028460030160006101000a81548160ff0219169083600481111561143157fe5b02179055507f2570150bbb432fd49d90803234ef3e462dc37af0bcbd2d732179e20267bb625f8660016040516114689291906145c7565b60405180910390a161148a565b83600001600081548092919060010191905055505b505050505050565b600a6020528060005260406000206000915090505481565b6000600b600083815260200190815260200160002090506000600660006007600086815260200190815260200160002054815260200190815260200160002090506000600160009054906101000a900473ffffffffffffffffffffffffffffffffffffffff1673ffffffffffffffffffffffffffffffffffffffff1663f7434ea96040518163ffffffff1660e01b8152600401611546906149fe565b60206040518083038186803b15801561155e57600080fd5b505afa158015611572573d6000803e3d6000fd5b505050506040513d601f19601f820116820180604052508101906115969190613877565b9050826002015481033410156115e1576040517f08c379a00000000000000000000000000000000000000000000000000000000081526004016115d89061497e565b60405180910390fd5b34836004016000828254019250508190555034836002016000828254019250508190555080836003015410156116765760028360010160006101000a81548160ff0219169083600481111561163257fe5b02179055507f542bce15b7403349f91e2fdb1deebfcf232e6e0798157e967d8180b840d220438460026040516116699291906145c7565b60405180910390a1611743565b6117428482846040518060800160405290816000820160009054906101000a900460ff1660048111156116a557fe5b60048111156116b057fe5b81526020016001820154815260200160028201548152602001600382015481525050866040518060c0016040529081600082015481526020016001820160009054906101000a900460ff16600481111561170657fe5b600481111561171157fe5b8152602001600282015481526020016003820154815260200160048201548152602001600582015481525050613179565b5b50505050565b600160009054906101000a900473ffffffffffffffffffffffffffffffffffffffff1681565b6000816000015182602001518360400151846060015160405160200161179894939291906144c7565b604051602081830303815290604052805190602001209050919050565b806009600082815260200190815260200160002060009054906101000a900460ff16611816576040517f08c379a000000000000000000000000000000000000000000000000000000000815260040161180d906148de565b60405180910390fd5b6000600660006007600086815260200190815260200160002054815260200190815260200160002090506005600084815260200190815260200160002060030160019054906101000a900473ffffffffffffffffffffffffffffffffffffffff1673ffffffffffffffffffffffffffffffffffffffff163373ffffffffffffffffffffffffffffffffffffffff16146118e4576040517f08c379a00000000000000000000000000000000000000000000000000000000081526004016118db906147de565b60405180910390fd5b600354816001015442031161192e576040517f08c379a0000000000000000000000000000000000000000000000000000000008152600401611925906147be565b60405180910390fd5b6000600481111561193b57fe5b8160000160009054906101000a900460ff16600481111561195857fe5b14611998576040517f08c379a000000000000000000000000000000000000000000000000000000000815260040161198f9061495e565b60405180910390fd5b60048160000160006101000a81548160ff021916908360048111156119b957fe5b02179055503373ffffffffffffffffffffffffffffffffffffffff166108fc82600301549081150290604051600060405180830381858888f19350505050158015611a08573d6000803e3d6000fd5b50600081600301819055506005600084815260200190815260200160002060040160009054906101000a900473ffffffffffffffffffffffffffffffffffffffff1673ffffffffffffffffffffffffffffffffffffffff163373ffffffffffffffffffffffffffffffffffffffff167fb593fcffa1666596c69c31088f2a40db70dbca7b80d9dde7b444c5523f046c0185604051611aa6919061454b565b60405180910390a3505050565b60056020528060005260406000206000915090508060000154908060010154908060020154908060030160009054906101000a900460ff16908060030160019054906101000a900473ffffffffffffffffffffffffffffffffffffffff16908060040160009054906101000a900473ffffffffffffffffffffffffffffffffffffffff1690806005018054600181600116156101000203166002900480601f016020809104026020016040519081016040528092919081815260200182805460018160011615610100020316600290048015611bd05780601f10611ba557610100808354040283529160200191611bd0565b820191906000526020600020905b815481529060010190602001808311611bb357829003601f168201915b5050505050905087565b60008084843342604051602001611bf4949392919061475e565b60405160208183030381529060405280519060200120905080601081905550600e81908060018154018082558091505060019003906000526020600020016000909190919091505560016009600083815260200190815260200160002060006101000a81548160ff021916908315150217905550600860003373ffffffffffffffffffffffffffffffffffffffff1673ffffffffffffffffffffffffffffffffffffffff168152602001908152602001600020819080600181540180825580915050600190039060005260206000200160009091909190915055611cd66133da565b6040518060e001604052808381526020018581526020014281526020016001151581526020013373ffffffffffffffffffffffffffffffffffffffff168152602001600073ffffffffffffffffffffffffffffffffffffffff16815260200187878080601f016020809104026020016040519081016040528093929190818152602001838380828437600081840152601f19601f820116905080830192505050505050508152509050806005600084815260200190815260200160002060008201518160000155602082015181600101556040820151816002015560608201518160030160006101000a81548160ff02191690831515021790555060808201518160030160016101000a81548173ffffffffffffffffffffffffffffffffffffffff021916908373ffffffffffffffffffffffffffffffffffffffff16021790555060a08201518160040160006101000a81548173ffffffffffffffffffffffffffffffffffffffff021916908373ffffffffffffffffffffffffffffffffffffffff16021790555060c0820151816005019080519060200190611e7b92919061347b565b509050507f1be21a9234568ec6f7dc6e2405a29941b8e8d83520bd7915099521923d55fa038282604051611eb09291906145f0565b60405180910390a181925050509392505050565b600b6020528060005260406000206000915090508060000154908060010160009054906101000a900460ff16908060020154908060030154908060040154908060050154905086565b826009600082815260200190815260200160002060009054906101000a900460ff16611f6e576040517f08c379a0000000000000000000000000000000000000000000000000000000008152600401611f65906148de565b60405180910390fd5b6005600085815260200190815260200160002060030160009054906101000a900460ff16611fd1576040517f08c379a0000000000000000000000000000000000000000000000000000000008152600401611fc8906148be565b60405180910390fd5b60056000858152602001908152602001600020600101543414612029576040517f08c379a00000000000000000000000000000000000000000000000000000000081526004016120209061491e565b60405180910390fd5b60006005600086815260200190815260200160002060030160006101000a81548160ff021916908315150217905550336005600086815260200190815260200160002060040160006101000a81548173ffffffffffffffffffffffffffffffffffffffff021916908373ffffffffffffffffffffffffffffffffffffffff1602179055506120b5613448565b6040518060800160405280600060048111156120cd57fe5b8152602001428152602001600081526020013481525090506120ed6134fb565b6040518060c001604052808781526020016000600481111561210b57fe5b815260200160008152602001600081526020016000815260200160008152509050600f6121378361176f565b90806001815401808255809150506001900390600052602060002001600090919091909150556000600f805490509050806007600089815260200190815260200160002081905550826006600083815260200190815260200160002060008201518160000160006101000a81548160ff021916908360048111156121b757fe5b021790555060208201518160010155604082015181600201556060820151816003015590505081600b60008981526020019081526020016000206000820151816000015560208201518160010160006101000a81548160ff0219169083600481111561221f57fe5b021790555060408201518160020155606082015181600301556080820151816004015560a082015181600501559050507fa77a7061cd9cf30a0643827d67c6e0d3818475933af30f12c896e49156b056058784604051612280929190614620565b60405180910390a1807f61606860eb6c87306811e2695215385101daab53bd6ab4e9f9049aead9363c7d87876040516122ba92919061473a565b60405180910390a250505050505050565b6005600083815260200190815260200160002060030160019054906101000a900473ffffffffffffffffffffffffffffffffffffffff1673ffffffffffffffffffffffffffffffffffffffff163373ffffffffffffffffffffffffffffffffffffffff161461236f576040517f08c379a000000000000000000000000000000000000000000000000000000000815260040161236690614a3e565b60405180910390fd5b806005600084815260200190815260200160002060030160006101000a81548160ff0219169083151502179055505050565b60008054906101000a900473ffffffffffffffffffffffffffffffffffffffff1681565b60008054906101000a900473ffffffffffffffffffffffffffffffffffffffff1673ffffffffffffffffffffffffffffffffffffffff163373ffffffffffffffffffffffffffffffffffffffff1614612453576040517f08c379a000000000000000000000000000000000000000000000000000000000815260040161244a906149be565b60405180910390fd5b8060038190555050565b60066020528060005260406000206000915090508060000160009054906101000a900460ff16908060010154908060020154908060030154905084565b60008054906101000a900473ffffffffffffffffffffffffffffffffffffffff1673ffffffffffffffffffffffffffffffffffffffff163373ffffffffffffffffffffffffffffffffffffffff1614612528576040517f08c379a000000000000000000000000000000000000000000000000000000000815260040161251f9061483e565b60405180910390fd5b8060048190555050565b826009600082815260200190815260200160002060009054906101000a900460ff16612593576040517f08c379a000000000000000000000000000000000000000000000000000000000815260040161258a906148de565b60405180910390fd5b61259b613448565b60066000600760008881526020019081526020016000205481526020019081526020016000206040518060800160405290816000820160009054906101000a900460ff1660048111156125ea57fe5b60048111156125f557fe5b8152602001600182015481526020016002820154815260200160038201548152505090506126216133da565b600560008781526020019081526020016000206040518060e00160405290816000820154815260200160018201548152602001600282015481526020016003820160009054906101000a900460ff161515151581526020016003820160019054906101000a900473ffffffffffffffffffffffffffffffffffffffff1673ffffffffffffffffffffffffffffffffffffffff1673ffffffffffffffffffffffffffffffffffffffff1681526020016004820160009054906101000a900473ffffffffffffffffffffffffffffffffffffffff1673ffffffffffffffffffffffffffffffffffffffff1673ffffffffffffffffffffffffffffffffffffffff168152602001600582018054600181600116156101000203166002900480601f0160208091040260200160405190810160405280929190818152602001828054600181600116156101000203166002900480156127bd5780601f10612792576101008083540402835291602001916127bd565b820191906000526020600020905b8154815290600101906020018083116127a057829003601f168201915b5050505050815250509050806080015173ffffffffffffffffffffffffffffffffffffffff163373ffffffffffffffffffffffffffffffffffffffff16148061283557508060a0015173ffffffffffffffffffffffffffffffffffffffff163373ffffffffffffffffffffffffffffffffffffffff16145b612874576040517f08c379a000000000000000000000000000000000000000000000000000000000815260040161286b906148fe565b60405180910390fd5b6002600481111561288157fe5b8260000151600481111561289157fe5b14806128b75750600360048111156128a557fe5b826000015160048111156128b557fe5b145b6128f6576040517f08c379a00000000000000000000000000000000000000000000000000000000081526004016128ed9061481e565b60405180910390fd5b3373ffffffffffffffffffffffffffffffffffffffff166007600088815260200190815260200160002054600160009054906101000a900473ffffffffffffffffffffffffffffffffffffffff1673ffffffffffffffffffffffffffffffffffffffff167fdccf2f8b2cc26eafcd61905cba744cff4b81d14740725f6376390dc6298a6a3c888860405161298b92919061473a565b60405180910390a4505050505050565b60008054906101000a900473ffffffffffffffffffffffffffffffffffffffff1673ffffffffffffffffffffffffffffffffffffffff163373ffffffffffffffffffffffffffffffffffffffff1614612a29576040517f08c379a0000000000000000000000000000000000000000000000000000000008152600401612a209061499e565b60405180910390fd5b8060028190555050565b60096020528060005260406000206000915054906101000a900460ff1681565b60076020528060005260406000206000915090505481565b6005600083815260200190815260200160002060030160019054906101000a900473ffffffffffffffffffffffffffffffffffffffff1673ffffffffffffffffffffffffffffffffffffffff163373ffffffffffffffffffffffffffffffffffffffff1614612b0f576040517f08c379a0000000000000000000000000000000000000000000000000000000008152600401612b0690614a3e565b60405180910390fd5b8060056000848152602001908152602001600020600101819055505050565b6000600b600083815260200190815260200160002090506000600660006007600086815260200190815260200160002054815260200190815260200160002090506000600160009054906101000a900473ffffffffffffffffffffffffffffffffffffffff1673ffffffffffffffffffffffffffffffffffffffff1663f7434ea96040518163ffffffff1660e01b8152600401612bca906149fe565b60206040518083038186803b158015612be257600080fd5b505afa158015612bf6573d6000803e3d6000fd5b505050506040513d601f19601f82011682018060405250810190612c1a9190613877565b905082600301548103341015612c65576040517f08c379a0000000000000000000000000000000000000000000000000000000008152600401612c5c9061497e565b60405180910390fd5b3483600401600082825401925050819055503483600301600082825401925050819055508083600201541015612cfa5760028360010160006101000a81548160ff02191690836004811115612cb657fe5b02179055507f542bce15b7403349f91e2fdb1deebfcf232e6e0798157e967d8180b840d22043846001604051612ced9291906145c7565b60405180910390a1612dc7565b612dc68482846040518060800160405290816000820160009054906101000a900460ff166004811115612d2957fe5b6004811115612d3457fe5b81526020016001820154815260200160028201548152602001600382015481525050866040518060c0016040529081600082015481526020016001820160009054906101000a900460ff166004811115612d8a57fe5b6004811115612d9557fe5b8152602001600282015481526020016003820154815260200160048201548152602001600582015481525050613179565b5b50505050565b600c6020528060005260406000206000915090508060000154908060010154908060020154908060030160009054906101000a900460ff16908060040154908060050154908060060154905087565b6000600660006007600085815260200190815260200160002054815260200190815260200160002090506000600c6000848152602001908152602001600020905060026004811115612e6a57fe5b8260000160009054906101000a900460ff166004811115612e8757fe5b1015612ec8576040517f08c379a0000000000000000000000000000000000000000000000000000000008152600401612ebf906147fe565b60405180910390fd5b600080600160009054906101000a900473ffffffffffffffffffffffffffffffffffffffff1673ffffffffffffffffffffffffffffffffffffffff1663afe15cfb85600201546040518263ffffffff1660e01b8152600401612f2a9190614a5e565b604080518083038186803b158015612f4157600080fd5b505afa158015612f55573d6000803e3d6000fd5b505050506040513d601f19601f82011682018060405250810190612f7991906138dc565b91509150814210158015612f8c57508042105b612fcb576040517f08c379a0000000000000000000000000000000000000000000000000000000008152600401612fc29061479e565b60405180910390fd5b6000600160009054906101000a900473ffffffffffffffffffffffffffffffffffffffff1673ffffffffffffffffffffffffffffffffffffffff1663f23f16e686600201546040518263ffffffff1660e01b815260040161302c9190614a79565b60206040518083038186803b15801561304457600080fd5b505afa158015613058573d6000803e3d6000fd5b505050506040513d601f19601f8201168201806040525081019061307c9190613877565b9050836001015481033410156130c7576040517f08c379a00000000000000000000000000000000000000000000000000000000081526004016130be906149de565b60405180910390fd5b348460010160008282540192505081905550348460040160008282540192505081905550808460020154101561315c5760018460030160006101000a81548160ff0219169083600481111561311857fe5b02179055507f2570150bbb432fd49d90803234ef3e462dc37af0bcbd2d732179e20267bb625f86600260405161314f9291906145c7565b60405180910390a1613171565b83600001600081548092919060010191905055505b505050505050565b60028260000190600481111561318b57fe5b9081600481111561319857fe5b81525050600160009054906101000a900473ffffffffffffffffffffffffffffffffffffffff1673ffffffffffffffffffffffffffffffffffffffff1663c13517e1846004546040518363ffffffff1660e01b81526004016131fa9190614a79565b6020604051808303818588803b15801561321357600080fd5b505af1158015613227573d6000803e3d6000fd5b50505050506040513d601f19601f8201168201806040525081019061324c9190613877565b82604001818152505060038160200190600481111561326757fe5b9081600481111561327457fe5b8152505083600a600084604001518152602001908152602001600020819055508281606001511115613334576000838260600151039050838260600181815250506005600086815260200190815260200160002060030160019054906101000a900473ffffffffffffffffffffffffffffffffffffffff1673ffffffffffffffffffffffffffffffffffffffff166108fc829081150290604051600060405180830381858888f19350505050158015613331573d6000803e3d6000fd5b50505b82816040015111156133d4576000838260400151039050838260400181815250506005600086815260200190815260200160002060040160009054906101000a900473ffffffffffffffffffffffffffffffffffffffff1673ffffffffffffffffffffffffffffffffffffffff166108fc829081150290604051600060405180830381858888f193505050501580156133d1573d6000803e3d6000fd5b50505b50505050565b6040518060e00160405280600080191681526020016000815260200160008152602001600015158152602001600073ffffffffffffffffffffffffffffffffffffffff168152602001600073ffffffffffffffffffffffffffffffffffffffff168152602001606081525090565b60405180608001604052806000600481111561346057fe5b81526020016000815260200160008152602001600081525090565b828054600181600116156101000203166002900490600052602060002090601f016020900481019282601f106134bc57805160ff19168380011785556134ea565b828001600101855582156134ea579182015b828111156134e95782518255916020019190600101906134ce565b5b5090506134f7919061353f565b5090565b6040518060c00160405280600080191681526020016000600481111561351d57fe5b8152602001600081526020016000815260200160008152602001600081525090565b5b80821115613558576000816000905550600101613540565b5090565b60008135905061356b81614d6f565b92915050565b60008135905061358081614d86565b92915050565b60008135905061359581614d9d565b92915050565b6000813590506135aa81614db4565b92915050565b60008083601f8401126135c257600080fd5b8235905067ffffffffffffffff8111156135db57600080fd5b6020830191508360018202830111156135f357600080fd5b9250929050565b60006080828403121561360c57600080fd5b6136166080614b16565b905060006136268482850161359b565b600083015250602061363a8482850161366e565b602083015250604061364e8482850161366e565b60408301525060606136628482850161366e565b60608301525092915050565b60008135905061367d81614dc4565b92915050565b60008151905061369281614dc4565b92915050565b600080604083850312156136ab57600080fd5b60006136b98582860161355c565b92505060206136ca8582860161366e565b9150509250929050565b6000602082840312156136e657600080fd5b60006136f484828501613586565b91505092915050565b6000806040838503121561371057600080fd5b600061371e85828601613586565b925050602061372f85828601613571565b9150509250929050565b60008060006040848603121561374e57600080fd5b600061375c86828701613586565b935050602084013567ffffffffffffffff81111561377957600080fd5b613785868287016135b0565b92509250509250925092565b600080604083850312156137a457600080fd5b60006137b285828601613586565b92505060206137c38582860161366e565b9150509250929050565b6000806000604084860312156137e257600080fd5b600084013567ffffffffffffffff8111156137fc57600080fd5b613808868287016135b0565b9350935050602061381b8682870161366e565b9150509250925092565b60006080828403121561383757600080fd5b6000613845848285016135fa565b91505092915050565b60006020828403121561386057600080fd5b600061386e8482850161366e565b91505092915050565b60006020828403121561388957600080fd5b600061389784828501613683565b91505092915050565b600080604083850312156138b357600080fd5b60006138c18582860161366e565b92505060206138d28582860161366e565b9150509250929050565b600080604083850312156138ef57600080fd5b60006138fd85828601613683565b925050602061390e85828601613683565b9150509250929050565b61392181614b97565b82525050565b61393081614b97565b82525050565b61393f81614b85565b82525050565b61394e81614ba9565b82525050565b61395d81614ba9565b82525050565b61396c81614bb5565b82525050565b61397b81614bb5565b82525050565b61398a81614c35565b82525050565b61399981614c59565b82525050565b6139a881614c6b565b82525050565b6139b781614c7d565b82525050565b6139c681614c8f565b82525050565b6139d581614c8f565b82525050565b6139ec6139e782614c8f565b614ced565b82525050565b60006139fe8385614b74565b9350613a0b838584614ca1565b613a1483614d01565b840190509392505050565b6000613a2a82614b47565b613a348185614b63565b9350613a44818560208601614cb0565b613a4d81614d01565b840191505092915050565b6000613a6382614b47565b613a6d8185614b74565b9350613a7d818560208601614cb0565b613a8681614d01565b840191505092915050565b6000613a9e602e83614b74565b91507f46756e64696e67206d757374206265206d6164652077697468696e207468652060008301527f61707065616c20706572696f642e0000000000000000000000000000000000006020830152604082019050919050565b6000613b04603783614b74565b91507f43616e6e6f74207769746864726177207072696365207768696c65207265636c60008301527f61696d20706572696f64206973206e6f74206f7665722e0000000000000000006020830152604082019050919050565b6000613b6a603383614b74565b91507f4f6e6c79207468652073656c6c65722063616e2077697468647261772074686560008301527f207072696365206f662074686520636172642e000000000000000000000000006020830152604082019050919050565b6000613bd0601e83614b74565b91507f5468657265206973206e6f206469737075746520746f2061707065616c2e00006000830152602082019050919050565b6000613c10603283614b74565b91507f4d757374206e6f742073656e642065766964656e63652069662074686520646960008301527f7370757465206973207265736f6c7665642e00000000000000000000000000006020830152604082019050919050565b6000613c76604783614b74565b91507f4f6e6c7920746865206f776e6572206f662074686520636f6e7472616374206360008301527f616e206368616e676520746865206e756d626572206f662072756c696e67206f60208301527f7074696f6e732e000000000000000000000000000000000000000000000000006040830152606082019050919050565b6000613d02603d83614b74565b91507f4d757374206465706f736974207468652072696768742061726269747261746960008301527f6f6e2066656520746f207265636c61696d20706169642070726963652e0000006020830152604082019050919050565b6000613d68602883614b74565b91507f43616e207265636c61696d207072696365206f6e6c7920696e2070656e64696e60008301527f672073746174652e0000000000000000000000000000000000000000000000006020830152604082019050919050565b6000613dce603683614b74565b91507f4f6e6c7920746865206275796572206f662074686520636172642063616e207260008301527f65636c61696d2074686520707269636520706169642e000000000000000000006020830152604082019050919050565b6000613e34605283614b74565b91507f5468652073656c6c73657220686173206c69737465642074686520676966742060008301527f63617264206173206e6f7420666f722073616c652c20616e6420736f2c20636160208301527f6e6e6f74206265207075726368617365642e00000000000000000000000000006040830152606082019050919050565b6000613ec0604483614b74565b91507f546865206361726420494420697320696e76616c696420692e652e20646f657360008301527f206e6f74206578697374206f6e2074686520636f6e747261637420646174616260208301527f6173652e000000000000000000000000000000000000000000000000000000006040830152606082019050919050565b6000613f4c602b83614b74565b91507f5468652063616c6c6572206d757374206265207468652073656c6c6572206f7260008301527f207468652062757965722e0000000000000000000000000000000000000000006020830152604082019050919050565b6000613fb2602683614b74565b91507f4d7573742073656e642065786163746c7920746865206769667420636172642060008301527f70726963652e00000000000000000000000000000000000000000000000000006020830152604082019050919050565b6000614018603883614b74565b91507f43616e6e6f74207265636c61696d20707269636520616674657220746865207260008301527f65636c61696d2077696e646f7720697320636c6f7365642e00000000000000006020830152604082019050919050565b600061407e604383614b74565b91507f43616e206f6e6c7920776974686472617720707269636520696620746865207460008301527f72616e73616374696f6e20697320696e207468652070656e64696e672073746160208301527f74652e00000000000000000000000000000000000000000000000000000000006040830152606082019050919050565b600061410a603683614b74565b91507f4d7573742073656e64206174206c65617374206172626974726174696f6e206360008301527f6f737420746f2063726561746520646973707574652e000000000000000000006020830152604082019050919050565b6000614170604983614b74565b91507f4f6e6c7920746865206f776e6572206f662074686520636f6e7472616374206360008301527f616e206368616e6765206172626974726174696f6e20666565206465706f736960208301527f7420706572696f642e00000000000000000000000000000000000000000000006040830152606082019050919050565b60006141fc603983614b74565b91507f4f6e6c7920746865206f776e6572206f662074686520636f6e7472616374206360008301527f616e206368616e6765207265636c61696d20706572696f642e000000000000006020830152604082019050919050565b6000614262602183614b74565b91507f4e6f7420706179696e672073756666696369656e742061707065616c2066656560008301527f2e000000000000000000000000000000000000000000000000000000000000006020830152604082019050919050565b60006142c8600083614b52565b9150600082019050919050565b60006142e2602683614b74565b91507f4f6e6c79207468652061726269747261746f722063616e20676976652061207260008301527f756c696e672e00000000000000000000000000000000000000000000000000006020830152604082019050919050565b6000614348602b83614b74565b91507f4f6e6c7920746865206f776e6572206f66206120636172642063616e2073657460008301527f206974732070726963652e0000000000000000000000000000000000000000006020830152604082019050919050565b600060e0830160008301516143b96000860182613963565b5060208301516143cc6020860182614492565b5060408301516143df6040860182614492565b5060608301516143f26060860182613945565b5060808301516144056080860182613918565b5060a083015161441860a0860182613918565b5060c083015184820360c08601526144308282613a1f565b9150508091505092915050565b60808201600082015161445360008501826139bd565b5060208201516144666020850182614492565b5060408201516144796040850182614492565b50606082015161448c6060850182614492565b50505050565b61449b81614c2b565b82525050565b6144aa81614c2b565b82525050565b6144c16144bc82614c2b565b614ce3565b82525050565b60006144d382876139db565b6001820191506144e382866144b0565b6020820191506144f382856144b0565b60208201915061450382846144b0565b60208201915081905095945050505050565b600060208201905061452a6000830184613936565b92915050565b60006020820190506145456000830184613954565b92915050565b60006020820190506145606000830184613972565b92915050565b600060c08201905061457b6000830189613972565b6145886020830188613990565b61459560408301876144a1565b6145a260608301866144a1565b6145af60808301856144a1565b6145bc60a08301846144a1565b979650505050505050565b60006040820190506145dc6000830185613972565b6145e9602083018461399f565b9392505050565b60006040820190506146056000830185613972565b818103602083015261461781846143a1565b90509392505050565b600060a0820190506146356000830185613972565b614642602083018461443d565b9392505050565b600060e08201905061465e600083018a613972565b61466b60208301896144a1565b61467860408301886144a1565b6146856060830187613954565b6146926080830186613927565b61469f60a0830185613927565b81810360c08301526146b18184613a58565b905098975050505050505050565b60006020820190506146d46000830184613981565b92915050565b60006020820190506146ef60008301846139ae565b92915050565b600060808201905061470a60008301876139cc565b61471760208301866144a1565b61472460408301856144a1565b61473160608301846144a1565b95945050505050565b600060208201905081810360008301526147558184866139f2565b90509392505050565b600060608201905081810360008301526147798186886139f2565b90506147886020830185613927565b61479560408301846144a1565b95945050505050565b600060208201905081810360008301526147b781613a91565b9050919050565b600060208201905081810360008301526147d781613af7565b9050919050565b600060208201905081810360008301526147f781613b5d565b9050919050565b6000602082019050818103600083015261481781613bc3565b9050919050565b6000602082019050818103600083015261483781613c03565b9050919050565b6000602082019050818103600083015261485781613c69565b9050919050565b6000602082019050818103600083015261487781613cf5565b9050919050565b6000602082019050818103600083015261489781613d5b565b9050919050565b600060208201905081810360008301526148b781613dc1565b9050919050565b600060208201905081810360008301526148d781613e27565b9050919050565b600060208201905081810360008301526148f781613eb3565b9050919050565b6000602082019050818103600083015261491781613f3f565b9050919050565b6000602082019050818103600083015261493781613fa5565b9050919050565b600060208201905081810360008301526149578161400b565b9050919050565b6000602082019050818103600083015261497781614071565b9050919050565b60006020820190508181036000830152614997816140fd565b9050919050565b600060208201905081810360008301526149b781614163565b9050919050565b600060208201905081810360008301526149d7816141ef565b9050919050565b600060208201905081810360008301526149f781614255565b9050919050565b60006020820190508181036000830152614a17816142bb565b9050919050565b60006020820190508181036000830152614a37816142d5565b9050919050565b60006020820190508181036000830152614a578161433b565b9050919050565b6000602082019050614a7360008301846144a1565b92915050565b6000604082019050614a8e60008301846144a1565b8181036020830152614a9f816142bb565b905092915050565b600060e082019050614abc600083018a6144a1565b614ac960208301896144a1565b614ad660408301886144a1565b614ae36060830187613990565b614af060808301866144a1565b614afd60a08301856144a1565b614b0a60c08301846144a1565b98975050505050505050565b6000604051905081810181811067ffffffffffffffff82111715614b3d57614b3c614cff565b5b8060405250919050565b600081519050919050565b600082825260208201905092915050565b600082825260208201905092915050565b600082825260208201905092915050565b6000614b9082614c0b565b9050919050565b6000614ba282614c0b565b9050919050565b60008115159050919050565b6000819050919050565b6000819050614bcd82614d1f565b919050565b6000819050614be082614d33565b919050565b6000819050614bf382614d47565b919050565b6000819050614c0682614d5b565b919050565b600073ffffffffffffffffffffffffffffffffffffffff82169050919050565b6000819050919050565b6000614c4082614c47565b9050919050565b6000614c5282614c0b565b9050919050565b6000614c6482614bbf565b9050919050565b6000614c7682614bd2565b9050919050565b6000614c8882614be5565b9050919050565b6000614c9a82614bf8565b9050919050565b82818337600083830152505050565b60005b83811015614cce578082015181840152602081019050614cb3565b83811115614cdd576000848401525b50505050565b6000819050919050565b6000614cf882614d12565b9050919050565bfe5b6000601f19601f8301169050919050565b60008160f81b9050919050565b60058110614d3057614d2f614cff565b5b50565b60038110614d4457614d43614cff565b5b50565b60038110614d5857614d57614cff565b5b50565b60058110614d6c57614d6b614cff565b5b50565b614d7881614b85565b8114614d8357600080fd5b50565b614d8f81614ba9565b8114614d9a57600080fd5b50565b614da681614bb5565b8114614db157600080fd5b50565b60058110614dc157600080fd5b50565b614dcd81614c2b565b8114614dd857600080fd5b5056fea2646970667358221220498b79e895953325292a3a35cdd6b1e91e9b053373e95d03342b35eb5ab11bf064736f6c63430007030033",
  "linkReferences": {},
  "deployedLinkReferences": {}
}